{
	"contracts/Marketplace/auction/DutchAuction/DutchAuction721.sol": {
		"DutchAuction721": {
			"abi": [
				{
					"anonymous": false,
					"inputs": [
						{
							"indexed": false,
							"internalType": "uint8",
							"name": "version",
							"type": "uint8"
						}
					],
					"name": "Initialized",
					"type": "event"
				},
				{
					"inputs": [
						{
							"internalType": "uint256",
							"name": "",
							"type": "uint256"
						}
					],
					"name": "NFTContractAddress",
					"outputs": [
						{
							"internalType": "address",
							"name": "",
							"type": "address"
						}
					],
					"stateMutability": "view",
					"type": "function"
				},
				{
					"inputs": [
						{
							"internalType": "uint256",
							"name": "_bidPrice",
							"type": "uint256"
						}
					],
					"name": "buy",
					"outputs": [],
					"stateMutability": "payable",
					"type": "function"
				},
				{
					"inputs": [],
					"name": "cancelAuction",
					"outputs": [],
					"stateMutability": "nonpayable",
					"type": "function"
				},
				{
					"inputs": [],
					"name": "getAuctionInfo",
					"outputs": [
						{
							"internalType": "uint256",
							"name": "",
							"type": "uint256"
						},
						{
							"internalType": "uint256",
							"name": "",
							"type": "uint256"
						},
						{
							"internalType": "uint256",
							"name": "",
							"type": "uint256"
						},
						{
							"internalType": "uint256",
							"name": "",
							"type": "uint256"
						},
						{
							"internalType": "address",
							"name": "",
							"type": "address"
						},
						{
							"internalType": "uint256",
							"name": "",
							"type": "uint256"
						},
						{
							"internalType": "bool",
							"name": "",
							"type": "bool"
						},
						{
							"internalType": "address",
							"name": "",
							"type": "address"
						}
					],
					"stateMutability": "view",
					"type": "function"
				},
				{
					"inputs": [],
					"name": "getNFTInfo",
					"outputs": [
						{
							"internalType": "address[]",
							"name": "",
							"type": "address[]"
						},
						{
							"internalType": "uint256[]",
							"name": "",
							"type": "uint256[]"
						}
					],
					"stateMutability": "view",
					"type": "function"
				},
				{
					"inputs": [
						{
							"internalType": "address",
							"name": "operator",
							"type": "address"
						},
						{
							"internalType": "address",
							"name": "_factory",
							"type": "address"
						},
						{
							"internalType": "address[]",
							"name": "_NFTContractAddress",
							"type": "address[]"
						},
						{
							"internalType": "uint256[]",
							"name": "_tokenId",
							"type": "uint256[]"
						},
						{
							"components": [
								{
									"internalType": "uint256",
									"name": "minimumPrice",
									"type": "uint256"
								},
								{
									"internalType": "uint256",
									"name": "startingPrice",
									"type": "uint256"
								},
								{
									"internalType": "uint256",
									"name": "numberOfStep",
									"type": "uint256"
								},
								{
									"internalType": "uint256",
									"name": "stepDuration",
									"type": "uint256"
								},
								{
									"internalType": "address",
									"name": "paymentToken",
									"type": "address"
								},
								{
									"internalType": "uint256",
									"name": "waitBeforeStart",
									"type": "uint256"
								}
							],
							"internalType": "struct IAuctionFactory.DutchParams",
							"name": "params",
							"type": "tuple"
						}
					],
					"name": "initialize",
					"outputs": [],
					"stateMutability": "nonpayable",
					"type": "function"
				},
				{
					"inputs": [],
					"name": "isEnded",
					"outputs": [
						{
							"internalType": "bool",
							"name": "",
							"type": "bool"
						}
					],
					"stateMutability": "view",
					"type": "function"
				},
				{
					"inputs": [],
					"name": "minimumPrice",
					"outputs": [
						{
							"internalType": "uint256",
							"name": "",
							"type": "uint256"
						}
					],
					"stateMutability": "view",
					"type": "function"
				},
				{
					"inputs": [],
					"name": "numberOfStep",
					"outputs": [
						{
							"internalType": "uint256",
							"name": "",
							"type": "uint256"
						}
					],
					"stateMutability": "view",
					"type": "function"
				},
				{
					"inputs": [],
					"name": "owner",
					"outputs": [
						{
							"internalType": "address",
							"name": "",
							"type": "address"
						}
					],
					"stateMutability": "view",
					"type": "function"
				},
				{
					"inputs": [],
					"name": "paymentToken",
					"outputs": [
						{
							"internalType": "address",
							"name": "",
							"type": "address"
						}
					],
					"stateMutability": "view",
					"type": "function"
				},
				{
					"inputs": [],
					"name": "startingPrice",
					"outputs": [
						{
							"internalType": "uint256",
							"name": "",
							"type": "uint256"
						}
					],
					"stateMutability": "view",
					"type": "function"
				},
				{
					"inputs": [],
					"name": "startingTime",
					"outputs": [
						{
							"internalType": "uint256",
							"name": "",
							"type": "uint256"
						}
					],
					"stateMutability": "view",
					"type": "function"
				},
				{
					"inputs": [],
					"name": "stepDuration",
					"outputs": [
						{
							"internalType": "uint256",
							"name": "",
							"type": "uint256"
						}
					],
					"stateMutability": "view",
					"type": "function"
				},
				{
					"inputs": [
						{
							"internalType": "uint256",
							"name": "",
							"type": "uint256"
						}
					],
					"name": "tokenId",
					"outputs": [
						{
							"internalType": "uint256",
							"name": "",
							"type": "uint256"
						}
					],
					"stateMutability": "view",
					"type": "function"
				},
				{
					"stateMutability": "payable",
					"type": "receive"
				}
			],
			"devdoc": {
				"events": {
					"Initialized(uint8)": {
						"details": "Triggered when the contract has been initialized or reinitialized."
					}
				},
				"kind": "dev",
				"methods": {},
				"version": 1
			},
			"evm": {
				"assembly": "    /* \"contracts/Marketplace/auction/DutchAuction/DutchAuction721.sol\":167:950  contract DutchAuction721 is DutchAuctionBase, Store721 {... */\n  mstore(0x40, 0x80)\n  callvalue\n  dup1\n  iszero\n  tag_1\n  jumpi\n  0x00\n  dup1\n  revert\ntag_1:\n  pop\n    /* \"@openzeppelin/contracts/security/ReentrancyGuard.sol\":1716:1717  1 */\n  0x01\n    /* \"@openzeppelin/contracts/security/ReentrancyGuard.sol\":1821:1828  _status */\n  dup1\n    /* \"@openzeppelin/contracts/security/ReentrancyGuard.sol\":1821:1843  _status = _NOT_ENTERED */\n  dup2\n  swap1\n  sstore\n  pop\n    /* \"contracts/Marketplace/auction/DutchAuction/DutchAuction721.sol\":167:950  contract DutchAuction721 is DutchAuctionBase, Store721 {... */\n  dataSize(sub_0)\n  dup1\n  dataOffset(sub_0)\n  0x00\n  codecopy\n  0x00\n  return\nstop\n\nsub_0: assembly {\n        /* \"contracts/Marketplace/auction/DutchAuction/DutchAuction721.sol\":167:950  contract DutchAuction721 is DutchAuctionBase, Store721 {... */\n      mstore(0x40, 0x80)\n      jumpi(tag_1, lt(calldatasize, 0x04))\n      shr(0xe0, calldataload(0x00))\n      dup1\n      0x7dcb0e5f\n      gt\n      tag_18\n      jumpi\n      dup1\n      0xa4fd6f56\n      gt\n      tag_19\n      jumpi\n      dup1\n      0xa4fd6f56\n      eq\n      tag_14\n      jumpi\n      dup1\n      0xd6fbf202\n      eq\n      tag_15\n      jumpi\n      dup1\n      0xd94a3505\n      eq\n      tag_16\n      jumpi\n      dup1\n      0xd96a094a\n      eq\n      tag_17\n      jumpi\n      jump(tag_2)\n    tag_19:\n      dup1\n      0x7dcb0e5f\n      eq\n      tag_10\n      jumpi\n      dup1\n      0x7f386b6c\n      eq\n      tag_11\n      jumpi\n      dup1\n      0x8da5cb5b\n      eq\n      tag_12\n      jumpi\n      dup1\n      0x8fa8b790\n      eq\n      tag_13\n      jumpi\n      jump(tag_2)\n    tag_18:\n      dup1\n      0x3013ce29\n      gt\n      tag_20\n      jumpi\n      dup1\n      0x3013ce29\n      eq\n      tag_6\n      jumpi\n      dup1\n      0x39518b5e\n      eq\n      tag_7\n      jumpi\n      dup1\n      0x4a4e5776\n      eq\n      tag_8\n      jumpi\n      dup1\n      0x4d21e019\n      eq\n      tag_9\n      jumpi\n      jump(tag_2)\n    tag_20:\n      dup1\n      0x0521cc59\n      eq\n      tag_3\n      jumpi\n      dup1\n      0x0c5d9d86\n      eq\n      tag_4\n      jumpi\n      dup1\n      0x1e6f3677\n      eq\n      tag_5\n      jumpi\n      jump(tag_2)\n    tag_1:\n      jumpi(tag_2, calldatasize)\n      stop\n    tag_2:\n      0x00\n      dup1\n      revert\n        /* \"contracts/Marketplace/auction/Store721.sol\":169:204  address[] public NFTContractAddress */\n    tag_3:\n      callvalue\n      dup1\n      iszero\n      tag_23\n      jumpi\n      0x00\n      dup1\n      revert\n    tag_23:\n      pop\n      tag_24\n      0x04\n      dup1\n      calldatasize\n      sub\n      dup2\n      add\n      swap1\n      tag_25\n      swap2\n      swap1\n      tag_26\n      jump\t// in\n    tag_25:\n      tag_27\n      jump\t// in\n    tag_24:\n      mload(0x40)\n      tag_28\n      swap2\n      swap1\n      tag_29\n      jump\t// in\n    tag_28:\n      mload(0x40)\n      dup1\n      swap2\n      sub\n      swap1\n      return\n        /* \"contracts/Marketplace/auction/DutchAuction/DutchAuction721.sol\":227:567  function initialize(... */\n    tag_4:\n      callvalue\n      dup1\n      iszero\n      tag_30\n      jumpi\n      0x00\n      dup1\n      revert\n    tag_30:\n      pop\n      tag_31\n      0x04\n      dup1\n      calldatasize\n      sub\n      dup2\n      add\n      swap1\n      tag_32\n      swap2\n      swap1\n      tag_33\n      jump\t// in\n    tag_32:\n      tag_34\n      jump\t// in\n    tag_31:\n      stop\n        /* \"contracts/Marketplace/auction/DutchAuction/DutchAuctionBase.sol\":475:502  uint256 public numberOfStep */\n    tag_5:\n      callvalue\n      dup1\n      iszero\n      tag_35\n      jumpi\n      0x00\n      dup1\n      revert\n    tag_35:\n      pop\n      tag_36\n      tag_37\n      jump\t// in\n    tag_36:\n      mload(0x40)\n      tag_38\n      swap2\n      swap1\n      tag_39\n      jump\t// in\n    tag_38:\n      mload(0x40)\n      dup1\n      swap2\n      sub\n      swap1\n      return\n        /* \"contracts/Marketplace/auction/DutchAuction/DutchAuctionBase.sol\":539:566  address public paymentToken */\n    tag_6:\n      callvalue\n      dup1\n      iszero\n      tag_40\n      jumpi\n      0x00\n      dup1\n      revert\n    tag_40:\n      pop\n      tag_41\n      tag_42\n      jump\t// in\n    tag_41:\n      mload(0x40)\n      tag_43\n      swap2\n      swap1\n      tag_29\n      jump\t// in\n    tag_43:\n      mload(0x40)\n      dup1\n      swap2\n      sub\n      swap1\n      return\n        /* \"contracts/Marketplace/auction/DutchAuction/DutchAuctionBase.sol\":571:598  uint256 public startingTime */\n    tag_7:\n      callvalue\n      dup1\n      iszero\n      tag_44\n      jumpi\n      0x00\n      dup1\n      revert\n    tag_44:\n      pop\n      tag_45\n      tag_46\n      jump\t// in\n    tag_45:\n      mload(0x40)\n      tag_47\n      swap2\n      swap1\n      tag_39\n      jump\t// in\n    tag_47:\n      mload(0x40)\n      dup1\n      swap2\n      sub\n      swap1\n      return\n        /* \"contracts/Marketplace/auction/DutchAuction/DutchAuctionBase.sol\":507:534  uint256 public stepDuration */\n    tag_8:\n      callvalue\n      dup1\n      iszero\n      tag_48\n      jumpi\n      0x00\n      dup1\n      revert\n    tag_48:\n      pop\n      tag_49\n      tag_50\n      jump\t// in\n    tag_49:\n      mload(0x40)\n      tag_51\n      swap2\n      swap1\n      tag_39\n      jump\t// in\n    tag_51:\n      mload(0x40)\n      dup1\n      swap2\n      sub\n      swap1\n      return\n        /* \"contracts/Marketplace/auction/Store721.sol\":649:778  function getNFTInfo() external view returns(address[] memory, uint256[] memory) {... */\n    tag_9:\n      callvalue\n      dup1\n      iszero\n      tag_52\n      jumpi\n      0x00\n      dup1\n      revert\n    tag_52:\n      pop\n      tag_53\n      tag_54\n      jump\t// in\n    tag_53:\n      mload(0x40)\n      tag_55\n      swap3\n      swap2\n      swap1\n      tag_56\n      jump\t// in\n    tag_55:\n      mload(0x40)\n      dup1\n      swap2\n      sub\n      swap1\n      return\n        /* \"contracts/Marketplace/auction/Store721.sol\":209:233  uint256[] public tokenId */\n    tag_10:\n      callvalue\n      dup1\n      iszero\n      tag_57\n      jumpi\n      0x00\n      dup1\n      revert\n    tag_57:\n      pop\n      tag_58\n      0x04\n      dup1\n      calldatasize\n      sub\n      dup2\n      add\n      swap1\n      tag_59\n      swap2\n      swap1\n      tag_26\n      jump\t// in\n    tag_59:\n      tag_60\n      jump\t// in\n    tag_58:\n      mload(0x40)\n      tag_61\n      swap2\n      swap1\n      tag_39\n      jump\t// in\n    tag_61:\n      mload(0x40)\n      dup1\n      swap2\n      sub\n      swap1\n      return\n        /* \"contracts/Marketplace/auction/DutchAuction/DutchAuctionBase.sol\":410:437  uint256 public minimumPrice */\n    tag_11:\n      callvalue\n      dup1\n      iszero\n      tag_62\n      jumpi\n      0x00\n      dup1\n      revert\n    tag_62:\n      pop\n      tag_63\n      tag_64\n      jump\t// in\n    tag_63:\n      mload(0x40)\n      tag_65\n      swap2\n      swap1\n      tag_39\n      jump\t// in\n    tag_65:\n      mload(0x40)\n      dup1\n      swap2\n      sub\n      swap1\n      return\n        /* \"contracts/Marketplace/utils/Ownable.sol\":186:267  function owner() public view virtual returns (address) {... */\n    tag_12:\n      callvalue\n      dup1\n      iszero\n      tag_66\n      jumpi\n      0x00\n      dup1\n      revert\n    tag_66:\n      pop\n      tag_67\n      tag_68\n      jump\t// in\n    tag_67:\n      mload(0x40)\n      tag_69\n      swap2\n      swap1\n      tag_29\n      jump\t// in\n    tag_69:\n      mload(0x40)\n      dup1\n      swap2\n      sub\n      swap1\n      return\n        /* \"contracts/Marketplace/auction/DutchAuction/DutchAuctionBase.sol\":1780:1980  function cancelAuction() external nonReentrant onlyOwner {... */\n    tag_13:\n      callvalue\n      dup1\n      iszero\n      tag_70\n      jumpi\n      0x00\n      dup1\n      revert\n    tag_70:\n      pop\n      tag_71\n      tag_72\n      jump\t// in\n    tag_71:\n      stop\n        /* \"contracts/Marketplace/auction/DutchAuction/DutchAuctionBase.sol\":603:622  bool public isEnded */\n    tag_14:\n      callvalue\n      dup1\n      iszero\n      tag_73\n      jumpi\n      0x00\n      dup1\n      revert\n    tag_73:\n      pop\n      tag_74\n      tag_75\n      jump\t// in\n    tag_74:\n      mload(0x40)\n      tag_76\n      swap2\n      swap1\n      tag_77\n      jump\t// in\n    tag_76:\n      mload(0x40)\n      dup1\n      swap2\n      sub\n      swap1\n      return\n        /* \"contracts/Marketplace/auction/DutchAuction/DutchAuctionBase.sol\":442:470  uint256 public startingPrice */\n    tag_15:\n      callvalue\n      dup1\n      iszero\n      tag_78\n      jumpi\n      0x00\n      dup1\n      revert\n    tag_78:\n      pop\n      tag_79\n      tag_80\n      jump\t// in\n    tag_79:\n      mload(0x40)\n      tag_81\n      swap2\n      swap1\n      tag_39\n      jump\t// in\n    tag_81:\n      mload(0x40)\n      dup1\n      swap2\n      sub\n      swap1\n      return\n        /* \"contracts/Marketplace/auction/DutchAuction/DutchAuctionBase.sol\":4684:4936  function getAuctionInfo() external view ... */\n    tag_16:\n      callvalue\n      dup1\n      iszero\n      tag_82\n      jumpi\n      0x00\n      dup1\n      revert\n    tag_82:\n      pop\n      tag_83\n      tag_84\n      jump\t// in\n    tag_83:\n      mload(0x40)\n      tag_85\n      swap9\n      swap8\n      swap7\n      swap6\n      swap5\n      swap4\n      swap3\n      swap2\n      swap1\n      tag_86\n      jump\t// in\n    tag_85:\n      mload(0x40)\n      dup1\n      swap2\n      sub\n      swap1\n      return\n        /* \"contracts/Marketplace/auction/DutchAuction/DutchAuctionBase.sol\":2784:3151  function buy(uint256 _bidPrice) external payable nonReentrant {... */\n    tag_17:\n      tag_87\n      0x04\n      dup1\n      calldatasize\n      sub\n      dup2\n      add\n      swap1\n      tag_88\n      swap2\n      swap1\n      tag_26\n      jump\t// in\n    tag_88:\n      tag_89\n      jump\t// in\n    tag_87:\n      stop\n        /* \"contracts/Marketplace/auction/Store721.sol\":169:204  address[] public NFTContractAddress */\n    tag_27:\n      0x0a\n      dup2\n      dup2\n      sload\n      dup2\n      lt\n      tag_90\n      jumpi\n      0x00\n      dup1\n      revert\n    tag_90:\n      swap1\n      0x00\n      mstore\n      keccak256(0x00, 0x20)\n      add\n      0x00\n      swap2\n      pop\n      sload\n      swap1\n      0x0100\n      exp\n      swap1\n      div\n      0xffffffffffffffffffffffffffffffffffffffff\n      and\n      dup2\n      jump\t// out\n        /* \"contracts/Marketplace/auction/DutchAuction/DutchAuction721.sol\":227:567  function initialize(... */\n    tag_34:\n        /* \"@openzeppelin/contracts/proxy/utils/Initializable.sol\":3268:3287  bool isTopLevelCall */\n      0x00\n        /* \"@openzeppelin/contracts/proxy/utils/Initializable.sol\":3291:3304  _initializing */\n      dup1\n      0x15\n      swap1\n      sload\n      swap1\n      0x0100\n      exp\n      swap1\n      div\n      0xff\n      and\n        /* \"@openzeppelin/contracts/proxy/utils/Initializable.sol\":3290:3304  !_initializing */\n      iszero\n        /* \"@openzeppelin/contracts/proxy/utils/Initializable.sol\":3268:3304  bool isTopLevelCall = !_initializing */\n      swap1\n      pop\n        /* \"@openzeppelin/contracts/proxy/utils/Initializable.sol\":3336:3350  isTopLevelCall */\n      dup1\n        /* \"@openzeppelin/contracts/proxy/utils/Initializable.sol\":3336:3370  isTopLevelCall && _initialized < 1 */\n      dup1\n      iszero\n      tag_93\n      jumpi\n      pop\n        /* \"@openzeppelin/contracts/proxy/utils/Initializable.sol\":3369:3370  1 */\n      0x01\n        /* \"@openzeppelin/contracts/proxy/utils/Initializable.sol\":3354:3366  _initialized */\n      0x00\n      0x14\n      swap1\n      sload\n      swap1\n      0x0100\n      exp\n      swap1\n      div\n      0xff\n      and\n        /* \"@openzeppelin/contracts/proxy/utils/Initializable.sol\":3354:3370  _initialized < 1 */\n      0xff\n      and\n      lt\n        /* \"@openzeppelin/contracts/proxy/utils/Initializable.sol\":3336:3370  isTopLevelCall && _initialized < 1 */\n    tag_93:\n        /* \"@openzeppelin/contracts/proxy/utils/Initializable.sol\":3335:3432  (isTopLevelCall && _initialized < 1) || (!Address.isContract(address(this)) && _initialized == 1) */\n      dup1\n      tag_94\n      jumpi\n      pop\n        /* \"@openzeppelin/contracts/proxy/utils/Initializable.sol\":3377:3410  Address.isContract(address(this)) */\n      tag_95\n        /* \"@openzeppelin/contracts/proxy/utils/Initializable.sol\":3404:3408  this */\n      address\n        /* \"@openzeppelin/contracts/proxy/utils/Initializable.sol\":3377:3395  Address.isContract */\n      tag_96\n        /* \"@openzeppelin/contracts/proxy/utils/Initializable.sol\":3377:3410  Address.isContract(address(this)) */\n      jump\t// in\n    tag_95:\n        /* \"@openzeppelin/contracts/proxy/utils/Initializable.sol\":3376:3410  !Address.isContract(address(this)) */\n      iszero\n        /* \"@openzeppelin/contracts/proxy/utils/Initializable.sol\":3376:3431  !Address.isContract(address(this)) && _initialized == 1 */\n      dup1\n      iszero\n      tag_97\n      jumpi\n      pop\n        /* \"@openzeppelin/contracts/proxy/utils/Initializable.sol\":3430:3431  1 */\n      0x01\n        /* \"@openzeppelin/contracts/proxy/utils/Initializable.sol\":3414:3426  _initialized */\n      0x00\n      0x14\n      swap1\n      sload\n      swap1\n      0x0100\n      exp\n      swap1\n      div\n      0xff\n      and\n        /* \"@openzeppelin/contracts/proxy/utils/Initializable.sol\":3414:3431  _initialized == 1 */\n      0xff\n      and\n      eq\n        /* \"@openzeppelin/contracts/proxy/utils/Initializable.sol\":3376:3431  !Address.isContract(address(this)) && _initialized == 1 */\n    tag_97:\n        /* \"@openzeppelin/contracts/proxy/utils/Initializable.sol\":3335:3432  (isTopLevelCall && _initialized < 1) || (!Address.isContract(address(this)) && _initialized == 1) */\n    tag_94:\n        /* \"@openzeppelin/contracts/proxy/utils/Initializable.sol\":3314:3504  require(... */\n      tag_98\n      jumpi\n      mload(0x40)\n      0x08c379a000000000000000000000000000000000000000000000000000000000\n      dup2\n      mstore\n      0x04\n      add\n      tag_99\n      swap1\n      tag_100\n      jump\t// in\n    tag_99:\n      mload(0x40)\n      dup1\n      swap2\n      sub\n      swap1\n      revert\n    tag_98:\n        /* \"@openzeppelin/contracts/proxy/utils/Initializable.sol\":3529:3530  1 */\n      0x01\n        /* \"@openzeppelin/contracts/proxy/utils/Initializable.sol\":3514:3526  _initialized */\n      0x00\n      0x14\n        /* \"@openzeppelin/contracts/proxy/utils/Initializable.sol\":3514:3530  _initialized = 1 */\n      0x0100\n      exp\n      dup2\n      sload\n      dup2\n      0xff\n      mul\n      not\n      and\n      swap1\n      dup4\n      0xff\n      and\n      mul\n      or\n      swap1\n      sstore\n      pop\n        /* \"@openzeppelin/contracts/proxy/utils/Initializable.sol\":3544:3558  isTopLevelCall */\n      dup1\n        /* \"@openzeppelin/contracts/proxy/utils/Initializable.sol\":3540:3605  if (isTopLevelCall) {... */\n      iszero\n      tag_101\n      jumpi\n        /* \"@openzeppelin/contracts/proxy/utils/Initializable.sol\":3590:3594  true */\n      0x01\n        /* \"@openzeppelin/contracts/proxy/utils/Initializable.sol\":3574:3587  _initializing */\n      0x00\n      0x15\n        /* \"@openzeppelin/contracts/proxy/utils/Initializable.sol\":3574:3594  _initializing = true */\n      0x0100\n      exp\n      dup2\n      sload\n      dup2\n      0xff\n      mul\n      not\n      and\n      swap1\n      dup4\n      iszero\n      iszero\n      mul\n      or\n      swap1\n      sstore\n      pop\n        /* \"@openzeppelin/contracts/proxy/utils/Initializable.sol\":3540:3605  if (isTopLevelCall) {... */\n    tag_101:\n        /* \"contracts/Marketplace/auction/DutchAuction/DutchAuction721.sol\":449:504  DutchAuctionBase.initialize(operator, _factory, params) */\n      tag_103\n        /* \"contracts/Marketplace/auction/DutchAuction/DutchAuction721.sol\":477:485  operator */\n      dup7\n        /* \"contracts/Marketplace/auction/DutchAuction/DutchAuction721.sol\":487:495  _factory */\n      dup7\n        /* \"contracts/Marketplace/auction/DutchAuction/DutchAuction721.sol\":497:503  params */\n      dup5\n        /* \"contracts/Marketplace/auction/DutchAuction/DutchAuction721.sol\":449:476  DutchAuctionBase.initialize */\n      tag_104\n        /* \"contracts/Marketplace/auction/DutchAuction/DutchAuction721.sol\":449:504  DutchAuctionBase.initialize(operator, _factory, params) */\n      jump\t// in\n    tag_103:\n        /* \"contracts/Marketplace/auction/DutchAuction/DutchAuction721.sol\":511:561  Store721.initialize(_NFTContractAddress, _tokenId) */\n      tag_105\n        /* \"contracts/Marketplace/auction/DutchAuction/DutchAuction721.sol\":531:550  _NFTContractAddress */\n      dup5\n        /* \"contracts/Marketplace/auction/DutchAuction/DutchAuction721.sol\":552:560  _tokenId */\n      dup5\n        /* \"contracts/Marketplace/auction/DutchAuction/DutchAuction721.sol\":511:530  Store721.initialize */\n      tag_106\n        /* \"contracts/Marketplace/auction/DutchAuction/DutchAuction721.sol\":511:561  Store721.initialize(_NFTContractAddress, _tokenId) */\n      jump\t// in\n    tag_105:\n        /* \"@openzeppelin/contracts/proxy/utils/Initializable.sol\":3629:3643  isTopLevelCall */\n      dup1\n        /* \"@openzeppelin/contracts/proxy/utils/Initializable.sol\":3625:3724  if (isTopLevelCall) {... */\n      iszero\n      tag_107\n      jumpi\n        /* \"@openzeppelin/contracts/proxy/utils/Initializable.sol\":3675:3680  false */\n      0x00\n        /* \"@openzeppelin/contracts/proxy/utils/Initializable.sol\":3659:3672  _initializing */\n      dup1\n      0x15\n        /* \"@openzeppelin/contracts/proxy/utils/Initializable.sol\":3659:3680  _initializing = false */\n      0x0100\n      exp\n      dup2\n      sload\n      dup2\n      0xff\n      mul\n      not\n      and\n      swap1\n      dup4\n      iszero\n      iszero\n      mul\n      or\n      swap1\n      sstore\n      pop\n        /* \"@openzeppelin/contracts/proxy/utils/Initializable.sol\":3699:3713  Initialized(1) */\n      0x7f26b83ff96e1f2b6a682f133852f6798a09c465da95921460cefb3847402498\n        /* \"@openzeppelin/contracts/proxy/utils/Initializable.sol\":3711:3712  1 */\n      0x01\n        /* \"@openzeppelin/contracts/proxy/utils/Initializable.sol\":3699:3713  Initialized(1) */\n      mload(0x40)\n      tag_108\n      swap2\n      swap1\n      tag_109\n      jump\t// in\n    tag_108:\n      mload(0x40)\n      dup1\n      swap2\n      sub\n      swap1\n      log1\n        /* \"@openzeppelin/contracts/proxy/utils/Initializable.sol\":3625:3724  if (isTopLevelCall) {... */\n    tag_107:\n        /* \"@openzeppelin/contracts/proxy/utils/Initializable.sol\":3258:3730  {... */\n      pop\n        /* \"contracts/Marketplace/auction/DutchAuction/DutchAuction721.sol\":227:567  function initialize(... */\n      pop\n      pop\n      pop\n      pop\n      pop\n      jump\t// out\n        /* \"contracts/Marketplace/auction/DutchAuction/DutchAuctionBase.sol\":475:502  uint256 public numberOfStep */\n    tag_37:\n      sload(0x05)\n      dup2\n      jump\t// out\n        /* \"contracts/Marketplace/auction/DutchAuction/DutchAuctionBase.sol\":539:566  address public paymentToken */\n    tag_42:\n      0x07\n      0x00\n      swap1\n      sload\n      swap1\n      0x0100\n      exp\n      swap1\n      div\n      0xffffffffffffffffffffffffffffffffffffffff\n      and\n      dup2\n      jump\t// out\n        /* \"contracts/Marketplace/auction/DutchAuction/DutchAuctionBase.sol\":571:598  uint256 public startingTime */\n    tag_46:\n      sload(0x08)\n      dup2\n      jump\t// out\n        /* \"contracts/Marketplace/auction/DutchAuction/DutchAuctionBase.sol\":507:534  uint256 public stepDuration */\n    tag_50:\n      sload(0x06)\n      dup2\n      jump\t// out\n        /* \"contracts/Marketplace/auction/Store721.sol\":649:778  function getNFTInfo() external view returns(address[] memory, uint256[] memory) {... */\n    tag_54:\n        /* \"contracts/Marketplace/auction/Store721.sol\":693:709  address[] memory */\n      0x60\n        /* \"contracts/Marketplace/auction/Store721.sol\":711:727  uint256[] memory */\n      dup1\n        /* \"contracts/Marketplace/auction/Store721.sol\":744:762  NFTContractAddress */\n      0x0a\n        /* \"contracts/Marketplace/auction/Store721.sol\":764:771  tokenId */\n      0x0b\n        /* \"contracts/Marketplace/auction/Store721.sol\":736:772  return (NFTContractAddress, tokenId) */\n      dup2\n      dup1\n      sload\n      dup1\n      0x20\n      mul\n      0x20\n      add\n      mload(0x40)\n      swap1\n      dup2\n      add\n      0x40\n      mstore\n      dup1\n      swap3\n      swap2\n      swap1\n      dup2\n      dup2\n      mstore\n      0x20\n      add\n      dup3\n      dup1\n      sload\n      dup1\n      iszero\n      tag_111\n      jumpi\n      0x20\n      mul\n      dup3\n      add\n      swap2\n      swap1\n      0x00\n      mstore\n      keccak256(0x00, 0x20)\n      swap1\n    tag_112:\n      dup2\n      0x00\n      swap1\n      sload\n      swap1\n      0x0100\n      exp\n      swap1\n      div\n      0xffffffffffffffffffffffffffffffffffffffff\n      and\n      0xffffffffffffffffffffffffffffffffffffffff\n      and\n      dup2\n      mstore\n      0x20\n      add\n      swap1\n      0x01\n      add\n      swap1\n      dup1\n      dup4\n      gt\n      tag_112\n      jumpi\n    tag_111:\n      pop\n      pop\n      pop\n      pop\n      pop\n      swap2\n      pop\n      dup1\n      dup1\n      sload\n      dup1\n      0x20\n      mul\n      0x20\n      add\n      mload(0x40)\n      swap1\n      dup2\n      add\n      0x40\n      mstore\n      dup1\n      swap3\n      swap2\n      swap1\n      dup2\n      dup2\n      mstore\n      0x20\n      add\n      dup3\n      dup1\n      sload\n      dup1\n      iszero\n      tag_113\n      jumpi\n      0x20\n      mul\n      dup3\n      add\n      swap2\n      swap1\n      0x00\n      mstore\n      keccak256(0x00, 0x20)\n      swap1\n    tag_114:\n      dup2\n      sload\n      dup2\n      mstore\n      0x20\n      add\n      swap1\n      0x01\n      add\n      swap1\n      dup1\n      dup4\n      gt\n      tag_114\n      jumpi\n    tag_113:\n      pop\n      pop\n      pop\n      pop\n      pop\n      swap1\n      pop\n      swap2\n      pop\n      swap2\n      pop\n        /* \"contracts/Marketplace/auction/Store721.sol\":649:778  function getNFTInfo() external view returns(address[] memory, uint256[] memory) {... */\n      swap1\n      swap2\n      jump\t// out\n        /* \"contracts/Marketplace/auction/Store721.sol\":209:233  uint256[] public tokenId */\n    tag_60:\n      0x0b\n      dup2\n      dup2\n      sload\n      dup2\n      lt\n      tag_115\n      jumpi\n      0x00\n      dup1\n      revert\n    tag_115:\n      swap1\n      0x00\n      mstore\n      keccak256(0x00, 0x20)\n      add\n      0x00\n      swap2\n      pop\n      swap1\n      pop\n      sload\n      dup2\n      jump\t// out\n        /* \"contracts/Marketplace/auction/DutchAuction/DutchAuctionBase.sol\":410:437  uint256 public minimumPrice */\n    tag_64:\n      sload(0x03)\n      dup2\n      jump\t// out\n        /* \"contracts/Marketplace/utils/Ownable.sol\":186:267  function owner() public view virtual returns (address) {... */\n    tag_68:\n        /* \"contracts/Marketplace/utils/Ownable.sol\":232:239  address */\n      0x00\n        /* \"contracts/Marketplace/utils/Ownable.sol\":255:261  _owner */\n      dup1\n      0x00\n      swap1\n      sload\n      swap1\n      0x0100\n      exp\n      swap1\n      div\n      0xffffffffffffffffffffffffffffffffffffffff\n      and\n        /* \"contracts/Marketplace/utils/Ownable.sol\":248:261  return _owner */\n      swap1\n      pop\n        /* \"contracts/Marketplace/utils/Ownable.sol\":186:267  function owner() public view virtual returns (address) {... */\n      swap1\n      jump\t// out\n        /* \"contracts/Marketplace/auction/DutchAuction/DutchAuctionBase.sol\":1780:1980  function cancelAuction() external nonReentrant onlyOwner {... */\n    tag_72:\n        /* \"@openzeppelin/contracts/security/ReentrancyGuard.sol\":2261:2282  _nonReentrantBefore() */\n      tag_119\n        /* \"@openzeppelin/contracts/security/ReentrancyGuard.sol\":2261:2280  _nonReentrantBefore */\n      tag_120\n        /* \"@openzeppelin/contracts/security/ReentrancyGuard.sol\":2261:2282  _nonReentrantBefore() */\n      jump\t// in\n    tag_119:\n        /* \"contracts/Marketplace/utils/Ownable.sol\":320:332  _msgSender() */\n      tag_122\n        /* \"contracts/Marketplace/utils/Ownable.sol\":320:330  _msgSender */\n      tag_123\n        /* \"contracts/Marketplace/utils/Ownable.sol\":320:332  _msgSender() */\n      jump\t// in\n    tag_122:\n        /* \"contracts/Marketplace/utils/Ownable.sol\":309:332  owner() == _msgSender() */\n      0xffffffffffffffffffffffffffffffffffffffff\n      and\n        /* \"contracts/Marketplace/utils/Ownable.sol\":309:316  owner() */\n      tag_124\n        /* \"contracts/Marketplace/utils/Ownable.sol\":309:314  owner */\n      tag_68\n        /* \"contracts/Marketplace/utils/Ownable.sol\":309:316  owner() */\n      jump\t// in\n    tag_124:\n        /* \"contracts/Marketplace/utils/Ownable.sol\":309:332  owner() == _msgSender() */\n      0xffffffffffffffffffffffffffffffffffffffff\n      and\n      eq\n        /* \"contracts/Marketplace/utils/Ownable.sol\":301:369  require(owner() == _msgSender(), \"Ownable: caller is not the owner\") */\n      tag_125\n      jumpi\n      mload(0x40)\n      0x08c379a000000000000000000000000000000000000000000000000000000000\n      dup2\n      mstore\n      0x04\n      add\n      tag_126\n      swap1\n      tag_127\n      jump\t// in\n    tag_126:\n      mload(0x40)\n      dup1\n      swap2\n      sub\n      swap1\n      revert\n    tag_125:\n        /* \"contracts/Marketplace/auction/DutchAuction/DutchAuctionBase.sol\":1863:1868  false */\n      0x00\n        /* \"contracts/Marketplace/auction/DutchAuction/DutchAuctionBase.sol\":1852:1868  isEnded == false */\n      iszero\n      iszero\n        /* \"contracts/Marketplace/auction/DutchAuction/DutchAuctionBase.sol\":1852:1859  isEnded */\n      0x09\n      0x00\n      swap1\n      sload\n      swap1\n      0x0100\n      exp\n      swap1\n      div\n      0xff\n      and\n        /* \"contracts/Marketplace/auction/DutchAuction/DutchAuctionBase.sol\":1852:1868  isEnded == false */\n      iszero\n      iszero\n      eq\n        /* \"contracts/Marketplace/auction/DutchAuction/DutchAuctionBase.sol\":1844:1886  require(isEnded == false, \"Auction ended\") */\n      tag_129\n      jumpi\n      mload(0x40)\n      0x08c379a000000000000000000000000000000000000000000000000000000000\n      dup2\n      mstore\n      0x04\n      add\n      tag_130\n      swap1\n      tag_131\n      jump\t// in\n    tag_130:\n      mload(0x40)\n      dup1\n      swap2\n      sub\n      swap1\n      revert\n    tag_129:\n        /* \"contracts/Marketplace/auction/DutchAuction/DutchAuctionBase.sol\":1903:1907  true */\n      0x01\n        /* \"contracts/Marketplace/auction/DutchAuction/DutchAuctionBase.sol\":1893:1900  isEnded */\n      0x09\n      0x00\n        /* \"contracts/Marketplace/auction/DutchAuction/DutchAuctionBase.sol\":1893:1907  isEnded = true */\n      0x0100\n      exp\n      dup2\n      sload\n      dup2\n      0xff\n      mul\n      not\n      and\n      swap1\n      dup4\n      iszero\n      iszero\n      mul\n      or\n      swap1\n      sstore\n      pop\n        /* \"contracts/Marketplace/auction/DutchAuction/DutchAuctionBase.sol\":1914:1954  transferNFT(address(this), _msgSender()) */\n      tag_132\n        /* \"contracts/Marketplace/auction/DutchAuction/DutchAuctionBase.sol\":1934:1938  this */\n      address\n        /* \"contracts/Marketplace/auction/DutchAuction/DutchAuctionBase.sol\":1941:1953  _msgSender() */\n      tag_133\n        /* \"contracts/Marketplace/auction/DutchAuction/DutchAuctionBase.sol\":1941:1951  _msgSender */\n      tag_123\n        /* \"contracts/Marketplace/auction/DutchAuction/DutchAuctionBase.sol\":1941:1953  _msgSender() */\n      jump\t// in\n    tag_133:\n        /* \"contracts/Marketplace/auction/DutchAuction/DutchAuctionBase.sol\":1914:1925  transferNFT */\n      tag_134\n        /* \"contracts/Marketplace/auction/DutchAuction/DutchAuctionBase.sol\":1914:1954  transferNFT(address(this), _msgSender()) */\n      jump\t// in\n    tag_132:\n        /* \"contracts/Marketplace/auction/DutchAuction/DutchAuctionBase.sol\":1961:1974  finalizeFac() */\n      tag_135\n        /* \"contracts/Marketplace/auction/DutchAuction/DutchAuctionBase.sol\":1961:1972  finalizeFac */\n      tag_136\n        /* \"contracts/Marketplace/auction/DutchAuction/DutchAuctionBase.sol\":1961:1974  finalizeFac() */\n      jump\t// in\n    tag_135:\n        /* \"@openzeppelin/contracts/security/ReentrancyGuard.sol\":2303:2323  _nonReentrantAfter() */\n      tag_137\n        /* \"@openzeppelin/contracts/security/ReentrancyGuard.sol\":2303:2321  _nonReentrantAfter */\n      tag_138\n        /* \"@openzeppelin/contracts/security/ReentrancyGuard.sol\":2303:2323  _nonReentrantAfter() */\n      jump\t// in\n    tag_137:\n        /* \"contracts/Marketplace/auction/DutchAuction/DutchAuctionBase.sol\":1780:1980  function cancelAuction() external nonReentrant onlyOwner {... */\n      jump\t// out\n        /* \"contracts/Marketplace/auction/DutchAuction/DutchAuctionBase.sol\":603:622  bool public isEnded */\n    tag_75:\n      0x09\n      0x00\n      swap1\n      sload\n      swap1\n      0x0100\n      exp\n      swap1\n      div\n      0xff\n      and\n      dup2\n      jump\t// out\n        /* \"contracts/Marketplace/auction/DutchAuction/DutchAuctionBase.sol\":442:470  uint256 public startingPrice */\n    tag_80:\n      sload(0x04)\n      dup2\n      jump\t// out\n        /* \"contracts/Marketplace/auction/DutchAuction/DutchAuctionBase.sol\":4684:4936  function getAuctionInfo() external view ... */\n    tag_84:\n        /* \"contracts/Marketplace/auction/DutchAuction/DutchAuctionBase.sol\":4736:4743  uint256 */\n      0x00\n        /* \"contracts/Marketplace/auction/DutchAuction/DutchAuctionBase.sol\":4745:4752  uint256 */\n      dup1\n        /* \"contracts/Marketplace/auction/DutchAuction/DutchAuctionBase.sol\":4754:4761  uint256 */\n      0x00\n        /* \"contracts/Marketplace/auction/DutchAuction/DutchAuctionBase.sol\":4763:4770  uint256 */\n      dup1\n        /* \"contracts/Marketplace/auction/DutchAuction/DutchAuctionBase.sol\":4772:4779  address */\n      0x00\n        /* \"contracts/Marketplace/auction/DutchAuction/DutchAuctionBase.sol\":4781:4788  uint256 */\n      dup1\n        /* \"contracts/Marketplace/auction/DutchAuction/DutchAuctionBase.sol\":4790:4794  bool */\n      0x00\n        /* \"contracts/Marketplace/auction/DutchAuction/DutchAuctionBase.sol\":4796:4803  address */\n      dup1\n        /* \"contracts/Marketplace/auction/DutchAuction/DutchAuctionBase.sol\":4828:4840  minimumPrice */\n      sload(0x03)\n        /* \"contracts/Marketplace/auction/DutchAuction/DutchAuctionBase.sol\":4842:4855  startingPrice */\n      sload(0x04)\n        /* \"contracts/Marketplace/auction/DutchAuction/DutchAuctionBase.sol\":4857:4869  numberOfStep */\n      sload(0x05)\n        /* \"contracts/Marketplace/auction/DutchAuction/DutchAuctionBase.sol\":4871:4883  stepDuration */\n      sload(0x06)\n        /* \"contracts/Marketplace/auction/DutchAuction/DutchAuctionBase.sol\":4885:4897  paymentToken */\n      0x07\n      0x00\n      swap1\n      sload\n      swap1\n      0x0100\n      exp\n      swap1\n      div\n      0xffffffffffffffffffffffffffffffffffffffff\n      and\n        /* \"contracts/Marketplace/auction/DutchAuction/DutchAuctionBase.sol\":4899:4911  startingTime */\n      sload(0x08)\n        /* \"contracts/Marketplace/auction/DutchAuction/DutchAuctionBase.sol\":4913:4920  isEnded */\n      0x09\n      0x00\n      swap1\n      sload\n      swap1\n      0x0100\n      exp\n      swap1\n      div\n      0xff\n      and\n        /* \"contracts/Marketplace/auction/DutchAuction/DutchAuctionBase.sol\":4922:4929  owner() */\n      tag_140\n        /* \"contracts/Marketplace/auction/DutchAuction/DutchAuctionBase.sol\":4922:4927  owner */\n      tag_68\n        /* \"contracts/Marketplace/auction/DutchAuction/DutchAuctionBase.sol\":4922:4929  owner() */\n      jump\t// in\n    tag_140:\n        /* \"contracts/Marketplace/auction/DutchAuction/DutchAuctionBase.sol\":4812:4930  return (... */\n      swap8\n      pop\n      swap8\n      pop\n      swap8\n      pop\n      swap8\n      pop\n      swap8\n      pop\n      swap8\n      pop\n      swap8\n      pop\n      swap8\n      pop\n        /* \"contracts/Marketplace/auction/DutchAuction/DutchAuctionBase.sol\":4684:4936  function getAuctionInfo() external view ... */\n      swap1\n      swap2\n      swap3\n      swap4\n      swap5\n      swap6\n      swap7\n      swap8\n      jump\t// out\n        /* \"contracts/Marketplace/auction/DutchAuction/DutchAuctionBase.sol\":2784:3151  function buy(uint256 _bidPrice) external payable nonReentrant {... */\n    tag_89:\n        /* \"@openzeppelin/contracts/security/ReentrancyGuard.sol\":2261:2282  _nonReentrantBefore() */\n      tag_142\n        /* \"@openzeppelin/contracts/security/ReentrancyGuard.sol\":2261:2280  _nonReentrantBefore */\n      tag_120\n        /* \"@openzeppelin/contracts/security/ReentrancyGuard.sol\":2261:2282  _nonReentrantBefore() */\n      jump\t// in\n    tag_142:\n        /* \"contracts/Marketplace/auction/DutchAuction/DutchAuctionBase.sol\":2877:2884  owner() */\n      tag_144\n        /* \"contracts/Marketplace/auction/DutchAuction/DutchAuctionBase.sol\":2877:2882  owner */\n      tag_68\n        /* \"contracts/Marketplace/auction/DutchAuction/DutchAuctionBase.sol\":2877:2884  owner() */\n      jump\t// in\n    tag_144:\n        /* \"contracts/Marketplace/auction/DutchAuction/DutchAuctionBase.sol\":2861:2884  _msgSender() != owner() */\n      0xffffffffffffffffffffffffffffffffffffffff\n      and\n        /* \"contracts/Marketplace/auction/DutchAuction/DutchAuctionBase.sol\":2861:2873  _msgSender() */\n      tag_145\n        /* \"contracts/Marketplace/auction/DutchAuction/DutchAuctionBase.sol\":2861:2871  _msgSender */\n      tag_123\n        /* \"contracts/Marketplace/auction/DutchAuction/DutchAuctionBase.sol\":2861:2873  _msgSender() */\n      jump\t// in\n    tag_145:\n        /* \"contracts/Marketplace/auction/DutchAuction/DutchAuctionBase.sol\":2861:2884  _msgSender() != owner() */\n      0xffffffffffffffffffffffffffffffffffffffff\n      and\n      sub\n        /* \"contracts/Marketplace/auction/DutchAuction/DutchAuctionBase.sol\":2853:2910  require(_msgSender() != owner(), \"Auctioneer cannot bid\") */\n      tag_146\n      jumpi\n      mload(0x40)\n      0x08c379a000000000000000000000000000000000000000000000000000000000\n      dup2\n      mstore\n      0x04\n      add\n      tag_147\n      swap1\n      tag_148\n      jump\t// in\n    tag_147:\n      mload(0x40)\n      dup1\n      swap2\n      sub\n      swap1\n      revert\n    tag_146:\n        /* \"contracts/Marketplace/auction/DutchAuction/DutchAuctionBase.sol\":2943:2955  startingTime */\n      sload(0x08)\n        /* \"contracts/Marketplace/auction/DutchAuction/DutchAuctionBase.sol\":2925:2940  block.timestamp */\n      timestamp\n        /* \"contracts/Marketplace/auction/DutchAuction/DutchAuctionBase.sol\":2925:2955  block.timestamp > startingTime */\n      gt\n        /* \"contracts/Marketplace/auction/DutchAuction/DutchAuctionBase.sol\":2917:2983  require(block.timestamp > startingTime, \"Auction not started yet\") */\n      tag_149\n      jumpi\n      mload(0x40)\n      0x08c379a000000000000000000000000000000000000000000000000000000000\n      dup2\n      mstore\n      0x04\n      add\n      tag_150\n      swap1\n      tag_151\n      jump\t// in\n    tag_150:\n      mload(0x40)\n      dup1\n      swap2\n      sub\n      swap1\n      revert\n    tag_149:\n        /* \"contracts/Marketplace/auction/DutchAuction/DutchAuctionBase.sol\":3017:3018  0 */\n      0x00\n        /* \"contracts/Marketplace/auction/DutchAuction/DutchAuctionBase.sol\":2993:3019  paymentToken == address(0) */\n      0xffffffffffffffffffffffffffffffffffffffff\n      and\n        /* \"contracts/Marketplace/auction/DutchAuction/DutchAuctionBase.sol\":2993:3005  paymentToken */\n      0x07\n      0x00\n      swap1\n      sload\n      swap1\n      0x0100\n      exp\n      swap1\n      div\n      0xffffffffffffffffffffffffffffffffffffffff\n      and\n        /* \"contracts/Marketplace/auction/DutchAuction/DutchAuctionBase.sol\":2993:3019  paymentToken == address(0) */\n      0xffffffffffffffffffffffffffffffffffffffff\n      and\n      sub\n        /* \"contracts/Marketplace/auction/DutchAuction/DutchAuctionBase.sol\":2990:3146  if(paymentToken == address(0)){... */\n      tag_152\n      jumpi\n        /* \"contracts/Marketplace/auction/DutchAuction/DutchAuctionBase.sol\":3029:3044  _buy(msg.value) */\n      tag_153\n        /* \"contracts/Marketplace/auction/DutchAuction/DutchAuctionBase.sol\":3034:3043  msg.value */\n      callvalue\n        /* \"contracts/Marketplace/auction/DutchAuction/DutchAuctionBase.sol\":3029:3033  _buy */\n      tag_154\n        /* \"contracts/Marketplace/auction/DutchAuction/DutchAuctionBase.sol\":3029:3044  _buy(msg.value) */\n      jump\t// in\n    tag_153:\n        /* \"contracts/Marketplace/auction/DutchAuction/DutchAuctionBase.sol\":2990:3146  if(paymentToken == address(0)){... */\n      jump(tag_155)\n    tag_152:\n        /* \"contracts/Marketplace/auction/DutchAuction/DutchAuctionBase.sol\":3067:3114  _payout(_msgSender(), address(this), _bidPrice) */\n      tag_156\n        /* \"contracts/Marketplace/auction/DutchAuction/DutchAuctionBase.sol\":3075:3087  _msgSender() */\n      tag_157\n        /* \"contracts/Marketplace/auction/DutchAuction/DutchAuctionBase.sol\":3075:3085  _msgSender */\n      tag_123\n        /* \"contracts/Marketplace/auction/DutchAuction/DutchAuctionBase.sol\":3075:3087  _msgSender() */\n      jump\t// in\n    tag_157:\n        /* \"contracts/Marketplace/auction/DutchAuction/DutchAuctionBase.sol\":3097:3101  this */\n      address\n        /* \"contracts/Marketplace/auction/DutchAuction/DutchAuctionBase.sol\":3104:3113  _bidPrice */\n      dup4\n        /* \"contracts/Marketplace/auction/DutchAuction/DutchAuctionBase.sol\":3067:3074  _payout */\n      tag_158\n        /* \"contracts/Marketplace/auction/DutchAuction/DutchAuctionBase.sol\":3067:3114  _payout(_msgSender(), address(this), _bidPrice) */\n      jump\t// in\n    tag_156:\n        /* \"contracts/Marketplace/auction/DutchAuction/DutchAuctionBase.sol\":3123:3138  _buy(_bidPrice) */\n      tag_159\n        /* \"contracts/Marketplace/auction/DutchAuction/DutchAuctionBase.sol\":3128:3137  _bidPrice */\n      dup2\n        /* \"contracts/Marketplace/auction/DutchAuction/DutchAuctionBase.sol\":3123:3127  _buy */\n      tag_154\n        /* \"contracts/Marketplace/auction/DutchAuction/DutchAuctionBase.sol\":3123:3138  _buy(_bidPrice) */\n      jump\t// in\n    tag_159:\n        /* \"contracts/Marketplace/auction/DutchAuction/DutchAuctionBase.sol\":2990:3146  if(paymentToken == address(0)){... */\n    tag_155:\n        /* \"@openzeppelin/contracts/security/ReentrancyGuard.sol\":2303:2323  _nonReentrantAfter() */\n      tag_160\n        /* \"@openzeppelin/contracts/security/ReentrancyGuard.sol\":2303:2321  _nonReentrantAfter */\n      tag_138\n        /* \"@openzeppelin/contracts/security/ReentrancyGuard.sol\":2303:2323  _nonReentrantAfter() */\n      jump\t// in\n    tag_160:\n        /* \"contracts/Marketplace/auction/DutchAuction/DutchAuctionBase.sol\":2784:3151  function buy(uint256 _bidPrice) external payable nonReentrant {... */\n      pop\n      jump\t// out\n        /* \"@openzeppelin/contracts/utils/Address.sol\":1412:1732  function isContract(address account) internal view returns (bool) {... */\n    tag_96:\n        /* \"@openzeppelin/contracts/utils/Address.sol\":1472:1476  bool */\n      0x00\n        /* \"@openzeppelin/contracts/utils/Address.sol\":1724:1725  0 */\n      dup1\n        /* \"@openzeppelin/contracts/utils/Address.sol\":1702:1709  account */\n      dup3\n        /* \"@openzeppelin/contracts/utils/Address.sol\":1702:1721  account.code.length */\n      0xffffffffffffffffffffffffffffffffffffffff\n      and\n      extcodesize\n        /* \"@openzeppelin/contracts/utils/Address.sol\":1702:1725  account.code.length > 0 */\n      gt\n        /* \"@openzeppelin/contracts/utils/Address.sol\":1695:1725  return account.code.length > 0 */\n      swap1\n      pop\n        /* \"@openzeppelin/contracts/utils/Address.sol\":1412:1732  function isContract(address account) internal view returns (bool) {... */\n      swap2\n      swap1\n      pop\n      jump\t// out\n        /* \"contracts/Marketplace/auction/DutchAuction/DutchAuctionBase.sol\":877:1417  function initialize(... */\n    tag_104:\n        /* \"contracts/Marketplace/auction/DutchAuction/DutchAuctionBase.sol\":1037:1049  minimumPrice */\n      sload(0x03)\n        /* \"contracts/Marketplace/auction/DutchAuction/DutchAuctionBase.sol\":1020:1033  startingPrice */\n      sload(0x04)\n        /* \"contracts/Marketplace/auction/DutchAuction/DutchAuctionBase.sol\":1020:1049  startingPrice >= minimumPrice */\n      lt\n      iszero\n        /* \"contracts/Marketplace/auction/DutchAuction/DutchAuctionBase.sol\":1012:1103  require(startingPrice >= minimumPrice, \"Starting price must be greater than minimum price\") */\n      tag_163\n      jumpi\n      mload(0x40)\n      0x08c379a000000000000000000000000000000000000000000000000000000000\n      dup2\n      mstore\n      0x04\n      add\n      tag_164\n      swap1\n      tag_165\n      jump\t// in\n    tag_164:\n      mload(0x40)\n      dup1\n      swap2\n      sub\n      swap1\n      revert\n    tag_163:\n        /* \"contracts/Marketplace/auction/DutchAuction/DutchAuctionBase.sol\":1112:1131  _setOwner(operator) */\n      tag_166\n        /* \"contracts/Marketplace/auction/DutchAuction/DutchAuctionBase.sol\":1122:1130  operator */\n      dup4\n        /* \"contracts/Marketplace/auction/DutchAuction/DutchAuctionBase.sol\":1112:1121  _setOwner */\n      tag_167\n        /* \"contracts/Marketplace/auction/DutchAuction/DutchAuctionBase.sol\":1112:1131  _setOwner(operator) */\n      jump\t// in\n    tag_166:\n        /* \"contracts/Marketplace/auction/DutchAuction/DutchAuctionBase.sol\":1148:1156  _factory */\n      dup2\n        /* \"contracts/Marketplace/auction/DutchAuction/DutchAuctionBase.sol\":1138:1145  factory */\n      0x02\n      0x00\n        /* \"contracts/Marketplace/auction/DutchAuction/DutchAuctionBase.sol\":1138:1156  factory = _factory */\n      0x0100\n      exp\n      dup2\n      sload\n      dup2\n      0xffffffffffffffffffffffffffffffffffffffff\n      mul\n      not\n      and\n      swap1\n      dup4\n      0xffffffffffffffffffffffffffffffffffffffff\n      and\n      mul\n      or\n      swap1\n      sstore\n      pop\n        /* \"contracts/Marketplace/auction/DutchAuction/DutchAuctionBase.sol\":1180:1186  params */\n      dup1\n        /* \"contracts/Marketplace/auction/DutchAuction/DutchAuctionBase.sol\":1180:1199  params.minimumPrice */\n      0x00\n      add\n      mload\n        /* \"contracts/Marketplace/auction/DutchAuction/DutchAuctionBase.sol\":1165:1177  minimumPrice */\n      0x03\n        /* \"contracts/Marketplace/auction/DutchAuction/DutchAuctionBase.sol\":1165:1199  minimumPrice = params.minimumPrice */\n      dup2\n      swap1\n      sstore\n      pop\n        /* \"contracts/Marketplace/auction/DutchAuction/DutchAuctionBase.sol\":1222:1228  params */\n      dup1\n        /* \"contracts/Marketplace/auction/DutchAuction/DutchAuctionBase.sol\":1222:1242  params.startingPrice */\n      0x20\n      add\n      mload\n        /* \"contracts/Marketplace/auction/DutchAuction/DutchAuctionBase.sol\":1206:1219  startingPrice */\n      0x04\n        /* \"contracts/Marketplace/auction/DutchAuction/DutchAuctionBase.sol\":1206:1242  startingPrice = params.startingPrice */\n      dup2\n      swap1\n      sstore\n      pop\n        /* \"contracts/Marketplace/auction/DutchAuction/DutchAuctionBase.sol\":1264:1270  params */\n      dup1\n        /* \"contracts/Marketplace/auction/DutchAuction/DutchAuctionBase.sol\":1264:1283  params.numberOfStep */\n      0x40\n      add\n      mload\n        /* \"contracts/Marketplace/auction/DutchAuction/DutchAuctionBase.sol\":1249:1261  numberOfStep */\n      0x05\n        /* \"contracts/Marketplace/auction/DutchAuction/DutchAuctionBase.sol\":1249:1283  numberOfStep = params.numberOfStep */\n      dup2\n      swap1\n      sstore\n      pop\n        /* \"contracts/Marketplace/auction/DutchAuction/DutchAuctionBase.sol\":1305:1311  params */\n      dup1\n        /* \"contracts/Marketplace/auction/DutchAuction/DutchAuctionBase.sol\":1305:1324  params.stepDuration */\n      0x60\n      add\n      mload\n        /* \"contracts/Marketplace/auction/DutchAuction/DutchAuctionBase.sol\":1290:1302  stepDuration */\n      0x06\n        /* \"contracts/Marketplace/auction/DutchAuction/DutchAuctionBase.sol\":1290:1324  stepDuration = params.stepDuration */\n      dup2\n      swap1\n      sstore\n      pop\n        /* \"contracts/Marketplace/auction/DutchAuction/DutchAuctionBase.sol\":1346:1352  params */\n      dup1\n        /* \"contracts/Marketplace/auction/DutchAuction/DutchAuctionBase.sol\":1346:1365  params.paymentToken */\n      0x80\n      add\n      mload\n        /* \"contracts/Marketplace/auction/DutchAuction/DutchAuctionBase.sol\":1331:1343  paymentToken */\n      0x07\n      0x00\n        /* \"contracts/Marketplace/auction/DutchAuction/DutchAuctionBase.sol\":1331:1365  paymentToken = params.paymentToken */\n      0x0100\n      exp\n      dup2\n      sload\n      dup2\n      0xffffffffffffffffffffffffffffffffffffffff\n      mul\n      not\n      and\n      swap1\n      dup4\n      0xffffffffffffffffffffffffffffffffffffffff\n      and\n      mul\n      or\n      swap1\n      sstore\n      pop\n        /* \"contracts/Marketplace/auction/DutchAuction/DutchAuctionBase.sol\":1389:1395  params */\n      dup1\n        /* \"contracts/Marketplace/auction/DutchAuction/DutchAuctionBase.sol\":1389:1411  params.waitBeforeStart */\n      0xa0\n      add\n      mload\n        /* \"contracts/Marketplace/auction/DutchAuction/DutchAuctionBase.sol\":1374:1386  startingTime */\n      0x08\n        /* \"contracts/Marketplace/auction/DutchAuction/DutchAuctionBase.sol\":1374:1411  startingTime = params.waitBeforeStart */\n      dup2\n      swap1\n      sstore\n      pop\n        /* \"contracts/Marketplace/auction/DutchAuction/DutchAuctionBase.sol\":877:1417  function initialize(... */\n      pop\n      pop\n      pop\n      jump\t// out\n        /* \"contracts/Marketplace/auction/Store721.sol\":240:427  function initialize(... */\n    tag_106:\n        /* \"contracts/Marketplace/auction/Store721.sol\":377:396  _NFTContractAddress */\n      dup2\n        /* \"contracts/Marketplace/auction/Store721.sol\":356:374  NFTContractAddress */\n      0x0a\n        /* \"contracts/Marketplace/auction/Store721.sol\":356:396  NFTContractAddress = _NFTContractAddress */\n      swap1\n      dup1\n      mload\n      swap1\n      0x20\n      add\n      swap1\n      tag_169\n      swap3\n      swap2\n      swap1\n      tag_170\n      jump\t// in\n    tag_169:\n      pop\n        /* \"contracts/Marketplace/auction/Store721.sol\":413:421  _tokenId */\n      dup1\n        /* \"contracts/Marketplace/auction/Store721.sol\":403:410  tokenId */\n      0x0b\n        /* \"contracts/Marketplace/auction/Store721.sol\":403:421  tokenId = _tokenId */\n      swap1\n      dup1\n      mload\n      swap1\n      0x20\n      add\n      swap1\n      tag_171\n      swap3\n      swap2\n      swap1\n      tag_172\n      jump\t// in\n    tag_171:\n      pop\n        /* \"contracts/Marketplace/auction/Store721.sol\":240:427  function initialize(... */\n      pop\n      pop\n      jump\t// out\n        /* \"@openzeppelin/contracts/security/ReentrancyGuard.sol\":2336:2623  function _nonReentrantBefore() private {... */\n    tag_120:\n        /* \"@openzeppelin/contracts/security/ReentrancyGuard.sol\":1759:1760  2 */\n      0x02\n        /* \"@openzeppelin/contracts/security/ReentrancyGuard.sol\":2468:2475  _status */\n      sload(0x01)\n        /* \"@openzeppelin/contracts/security/ReentrancyGuard.sol\":2468:2487  _status != _ENTERED */\n      sub\n        /* \"@openzeppelin/contracts/security/ReentrancyGuard.sol\":2460:2523  require(_status != _ENTERED, \"ReentrancyGuard: reentrant call\") */\n      tag_174\n      jumpi\n      mload(0x40)\n      0x08c379a000000000000000000000000000000000000000000000000000000000\n      dup2\n      mstore\n      0x04\n      add\n      tag_175\n      swap1\n      tag_176\n      jump\t// in\n    tag_175:\n      mload(0x40)\n      dup1\n      swap2\n      sub\n      swap1\n      revert\n    tag_174:\n        /* \"@openzeppelin/contracts/security/ReentrancyGuard.sol\":1759:1760  2 */\n      0x02\n        /* \"@openzeppelin/contracts/security/ReentrancyGuard.sol\":2598:2605  _status */\n      0x01\n        /* \"@openzeppelin/contracts/security/ReentrancyGuard.sol\":2598:2616  _status = _ENTERED */\n      dup2\n      swap1\n      sstore\n      pop\n        /* \"@openzeppelin/contracts/security/ReentrancyGuard.sol\":2336:2623  function _nonReentrantBefore() private {... */\n      jump\t// out\n        /* \"@openzeppelin/contracts/utils/Context.sol\":655:751  function _msgSender() internal view virtual returns (address) {... */\n    tag_123:\n        /* \"@openzeppelin/contracts/utils/Context.sol\":708:715  address */\n      0x00\n        /* \"@openzeppelin/contracts/utils/Context.sol\":734:744  msg.sender */\n      caller\n        /* \"@openzeppelin/contracts/utils/Context.sol\":727:744  return msg.sender */\n      swap1\n      pop\n        /* \"@openzeppelin/contracts/utils/Context.sol\":655:751  function _msgSender() internal view virtual returns (address) {... */\n      swap1\n      jump\t// out\n        /* \"contracts/Marketplace/auction/DutchAuction/DutchAuction721.sol\":573:684  function transferNFT(address from, address to) internal override {... */\n    tag_134:\n        /* \"contracts/Marketplace/auction/DutchAuction/DutchAuction721.sol\":645:678  Store721.transferERC721(from, to) */\n      tag_179\n        /* \"contracts/Marketplace/auction/DutchAuction/DutchAuction721.sol\":669:673  from */\n      dup3\n        /* \"contracts/Marketplace/auction/DutchAuction/DutchAuction721.sol\":675:677  to */\n      dup3\n        /* \"contracts/Marketplace/auction/DutchAuction/DutchAuction721.sol\":645:668  Store721.transferERC721 */\n      tag_180\n        /* \"contracts/Marketplace/auction/DutchAuction/DutchAuction721.sol\":645:678  Store721.transferERC721(from, to) */\n      jump\t// in\n    tag_179:\n        /* \"contracts/Marketplace/auction/DutchAuction/DutchAuction721.sol\":573:684  function transferNFT(address from, address to) internal override {... */\n      pop\n      pop\n      jump\t// out\n        /* \"contracts/Marketplace/auction/DutchAuction/DutchAuction721.sol\":688:794  function finalizeFac() internal override {... */\n    tag_136:\n        /* \"contracts/Marketplace/auction/DutchAuction/DutchAuction721.sol\":752:759  factory */\n      0x02\n      0x00\n      swap1\n      sload\n      swap1\n      0x0100\n      exp\n      swap1\n      div\n      0xffffffffffffffffffffffffffffffffffffffff\n      and\n        /* \"contracts/Marketplace/auction/DutchAuction/DutchAuction721.sol\":736:785  IAuctionFactory(factory).finalizeAuctionInFactory */\n      0xffffffffffffffffffffffffffffffffffffffff\n      and\n      0x5e62fea2\n        /* \"contracts/Marketplace/auction/DutchAuction/DutchAuction721.sol\":786:787  4 */\n      0x04\n        /* \"contracts/Marketplace/auction/DutchAuction/DutchAuction721.sol\":736:788  IAuctionFactory(factory).finalizeAuctionInFactory(4) */\n      mload(0x40)\n      dup3\n      0xffffffff\n      and\n      0xe0\n      shl\n      dup2\n      mstore\n      0x04\n      add\n      tag_182\n      swap2\n      swap1\n      tag_183\n      jump\t// in\n    tag_182:\n      0x00\n      mload(0x40)\n      dup1\n      dup4\n      sub\n      dup2\n      0x00\n      dup8\n      dup1\n      extcodesize\n      iszero\n      dup1\n      iszero\n      tag_184\n      jumpi\n      0x00\n      dup1\n      revert\n    tag_184:\n      pop\n      gas\n      call\n      iszero\n      dup1\n      iszero\n      tag_186\n      jumpi\n      returndatasize\n      0x00\n      dup1\n      returndatacopy\n      revert(0x00, returndatasize)\n    tag_186:\n      pop\n      pop\n      pop\n      pop\n        /* \"contracts/Marketplace/auction/DutchAuction/DutchAuction721.sol\":688:794  function finalizeFac() internal override {... */\n      jump\t// out\n        /* \"@openzeppelin/contracts/security/ReentrancyGuard.sol\":2629:2838  function _nonReentrantAfter() private {... */\n    tag_138:\n        /* \"@openzeppelin/contracts/security/ReentrancyGuard.sol\":1716:1717  1 */\n      0x01\n        /* \"@openzeppelin/contracts/security/ReentrancyGuard.sol\":2809:2816  _status */\n      dup1\n        /* \"@openzeppelin/contracts/security/ReentrancyGuard.sol\":2809:2831  _status = _NOT_ENTERED */\n      dup2\n      swap1\n      sstore\n      pop\n        /* \"@openzeppelin/contracts/security/ReentrancyGuard.sol\":2629:2838  function _nonReentrantAfter() private {... */\n      jump\t// out\n        /* \"contracts/Marketplace/auction/DutchAuction/DutchAuctionBase.sol\":2192:2780  function _buy(uint256 _bidPrice) internal {... */\n    tag_154:\n        /* \"contracts/Marketplace/auction/DutchAuction/DutchAuctionBase.sol\":2241:2258  uint currentPrice */\n      0x00\n        /* \"contracts/Marketplace/auction/DutchAuction/DutchAuctionBase.sol\":2261:2338  Math.min(((block.timestamp - startingTime) / stepDuration) + 1, numberOfStep) */\n      tag_189\n        /* \"contracts/Marketplace/auction/DutchAuction/DutchAuctionBase.sol\":2322:2323  1 */\n      0x01\n        /* \"contracts/Marketplace/auction/DutchAuction/DutchAuctionBase.sol\":2306:2318  stepDuration */\n      sload(0x06)\n        /* \"contracts/Marketplace/auction/DutchAuction/DutchAuctionBase.sol\":2290:2302  startingTime */\n      sload(0x08)\n        /* \"contracts/Marketplace/auction/DutchAuction/DutchAuctionBase.sol\":2272:2287  block.timestamp */\n      timestamp\n        /* \"contracts/Marketplace/auction/DutchAuction/DutchAuctionBase.sol\":2272:2302  block.timestamp - startingTime */\n      tag_190\n      swap2\n      swap1\n      tag_191\n      jump\t// in\n    tag_190:\n        /* \"contracts/Marketplace/auction/DutchAuction/DutchAuctionBase.sol\":2271:2318  (block.timestamp - startingTime) / stepDuration */\n      tag_192\n      swap2\n      swap1\n      tag_193\n      jump\t// in\n    tag_192:\n        /* \"contracts/Marketplace/auction/DutchAuction/DutchAuctionBase.sol\":2270:2323  ((block.timestamp - startingTime) / stepDuration) + 1 */\n      tag_194\n      swap2\n      swap1\n      tag_195\n      jump\t// in\n    tag_194:\n        /* \"contracts/Marketplace/auction/DutchAuction/DutchAuctionBase.sol\":2325:2337  numberOfStep */\n      sload(0x05)\n        /* \"contracts/Marketplace/auction/DutchAuction/DutchAuctionBase.sol\":2261:2269  Math.min */\n      tag_196\n        /* \"contracts/Marketplace/auction/DutchAuction/DutchAuctionBase.sol\":2261:2338  Math.min(((block.timestamp - startingTime) / stepDuration) + 1, numberOfStep) */\n      jump\t// in\n    tag_189:\n        /* \"contracts/Marketplace/auction/DutchAuction/DutchAuctionBase.sol\":2241:2338  uint currentPrice = Math.min(((block.timestamp - startingTime) / stepDuration) + 1, numberOfStep) */\n      swap1\n      pop\n        /* \"contracts/Marketplace/auction/DutchAuction/DutchAuctionBase.sol\":2364:2369  false */\n      0x00\n        /* \"contracts/Marketplace/auction/DutchAuction/DutchAuctionBase.sol\":2353:2369  isEnded == false */\n      iszero\n      iszero\n        /* \"contracts/Marketplace/auction/DutchAuction/DutchAuctionBase.sol\":2353:2360  isEnded */\n      0x09\n      0x00\n      swap1\n      sload\n      swap1\n      0x0100\n      exp\n      swap1\n      div\n      0xff\n      and\n        /* \"contracts/Marketplace/auction/DutchAuction/DutchAuctionBase.sol\":2353:2369  isEnded == false */\n      iszero\n      iszero\n      eq\n        /* \"contracts/Marketplace/auction/DutchAuction/DutchAuctionBase.sol\":2345:2387  require(isEnded == false, \"Auction ended\") */\n      tag_197\n      jumpi\n      mload(0x40)\n      0x08c379a000000000000000000000000000000000000000000000000000000000\n      dup2\n      mstore\n      0x04\n      add\n      tag_198\n      swap1\n      tag_131\n      jump\t// in\n    tag_198:\n      mload(0x40)\n      dup1\n      swap2\n      sub\n      swap1\n      revert\n    tag_197:\n        /* \"contracts/Marketplace/auction/DutchAuction/DutchAuctionBase.sol\":2415:2427  currentPrice */\n      dup1\n        /* \"contracts/Marketplace/auction/DutchAuction/DutchAuctionBase.sol\":2402:2411  _bidPrice */\n      dup3\n        /* \"contracts/Marketplace/auction/DutchAuction/DutchAuctionBase.sol\":2402:2427  _bidPrice >= currentPrice */\n      lt\n      iszero\n        /* \"contracts/Marketplace/auction/DutchAuction/DutchAuctionBase.sol\":2394:2449  require(_bidPrice >= currentPrice, \"Bid price too low\") */\n      tag_199\n      jumpi\n      mload(0x40)\n      0x08c379a000000000000000000000000000000000000000000000000000000000\n      dup2\n      mstore\n      0x04\n      add\n      tag_200\n      swap1\n      tag_201\n      jump\t// in\n    tag_200:\n      mload(0x40)\n      dup1\n      swap2\n      sub\n      swap1\n      revert\n    tag_199:\n        /* \"contracts/Marketplace/auction/DutchAuction/DutchAuctionBase.sol\":2456:2496  transferNFT(address(this), _msgSender()) */\n      tag_202\n        /* \"contracts/Marketplace/auction/DutchAuction/DutchAuctionBase.sol\":2476:2480  this */\n      address\n        /* \"contracts/Marketplace/auction/DutchAuction/DutchAuctionBase.sol\":2483:2495  _msgSender() */\n      tag_203\n        /* \"contracts/Marketplace/auction/DutchAuction/DutchAuctionBase.sol\":2483:2493  _msgSender */\n      tag_123\n        /* \"contracts/Marketplace/auction/DutchAuction/DutchAuctionBase.sol\":2483:2495  _msgSender() */\n      jump\t// in\n    tag_203:\n        /* \"contracts/Marketplace/auction/DutchAuction/DutchAuctionBase.sol\":2456:2467  transferNFT */\n      tag_134\n        /* \"contracts/Marketplace/auction/DutchAuction/DutchAuctionBase.sol\":2456:2496  transferNFT(address(this), _msgSender()) */\n      jump\t// in\n    tag_202:\n        /* \"contracts/Marketplace/auction/DutchAuction/DutchAuctionBase.sol\":2503:2553  sendTokenFromThisContractTo(owner(), currentPrice) */\n      tag_204\n        /* \"contracts/Marketplace/auction/DutchAuction/DutchAuctionBase.sol\":2531:2538  owner() */\n      tag_205\n        /* \"contracts/Marketplace/auction/DutchAuction/DutchAuctionBase.sol\":2531:2536  owner */\n      tag_68\n        /* \"contracts/Marketplace/auction/DutchAuction/DutchAuctionBase.sol\":2531:2538  owner() */\n      jump\t// in\n    tag_205:\n        /* \"contracts/Marketplace/auction/DutchAuction/DutchAuctionBase.sol\":2540:2552  currentPrice */\n      dup3\n        /* \"contracts/Marketplace/auction/DutchAuction/DutchAuctionBase.sol\":2503:2530  sendTokenFromThisContractTo */\n      tag_206\n        /* \"contracts/Marketplace/auction/DutchAuction/DutchAuctionBase.sol\":2503:2553  sendTokenFromThisContractTo(owner(), currentPrice) */\n      jump\t// in\n    tag_204:\n        /* \"contracts/Marketplace/auction/DutchAuction/DutchAuctionBase.sol\":2560:2574  uint256 refund */\n      0x00\n        /* \"contracts/Marketplace/auction/DutchAuction/DutchAuctionBase.sol\":2589:2601  currentPrice */\n      dup2\n        /* \"contracts/Marketplace/auction/DutchAuction/DutchAuctionBase.sol\":2577:2586  _bidPrice */\n      dup4\n        /* \"contracts/Marketplace/auction/DutchAuction/DutchAuctionBase.sol\":2577:2601  _bidPrice - currentPrice */\n      tag_207\n      swap2\n      swap1\n      tag_191\n      jump\t// in\n    tag_207:\n        /* \"contracts/Marketplace/auction/DutchAuction/DutchAuctionBase.sol\":2560:2601  uint256 refund = _bidPrice - currentPrice */\n      swap1\n      pop\n        /* \"contracts/Marketplace/auction/DutchAuction/DutchAuctionBase.sol\":2620:2621  0 */\n      0x00\n        /* \"contracts/Marketplace/auction/DutchAuction/DutchAuctionBase.sol\":2611:2617  refund */\n      dup2\n        /* \"contracts/Marketplace/auction/DutchAuction/DutchAuctionBase.sol\":2611:2621  refund > 0 */\n      gt\n        /* \"contracts/Marketplace/auction/DutchAuction/DutchAuctionBase.sol\":2608:2689  if(refund > 0) {... */\n      iszero\n      tag_208\n      jumpi\n        /* \"contracts/Marketplace/auction/DutchAuction/DutchAuctionBase.sol\":2632:2681  sendTokenFromThisContractTo(_msgSender(), refund) */\n      tag_209\n        /* \"contracts/Marketplace/auction/DutchAuction/DutchAuctionBase.sol\":2660:2672  _msgSender() */\n      tag_210\n        /* \"contracts/Marketplace/auction/DutchAuction/DutchAuctionBase.sol\":2660:2670  _msgSender */\n      tag_123\n        /* \"contracts/Marketplace/auction/DutchAuction/DutchAuctionBase.sol\":2660:2672  _msgSender() */\n      jump\t// in\n    tag_210:\n        /* \"contracts/Marketplace/auction/DutchAuction/DutchAuctionBase.sol\":2674:2680  refund */\n      dup3\n        /* \"contracts/Marketplace/auction/DutchAuction/DutchAuctionBase.sol\":2632:2659  sendTokenFromThisContractTo */\n      tag_206\n        /* \"contracts/Marketplace/auction/DutchAuction/DutchAuctionBase.sol\":2632:2681  sendTokenFromThisContractTo(_msgSender(), refund) */\n      jump\t// in\n    tag_209:\n        /* \"contracts/Marketplace/auction/DutchAuction/DutchAuctionBase.sol\":2608:2689  if(refund > 0) {... */\n    tag_208:\n        /* \"contracts/Marketplace/auction/DutchAuction/DutchAuctionBase.sol\":2705:2709  true */\n      0x01\n        /* \"contracts/Marketplace/auction/DutchAuction/DutchAuctionBase.sol\":2695:2702  isEnded */\n      0x09\n      0x00\n        /* \"contracts/Marketplace/auction/DutchAuction/DutchAuctionBase.sol\":2695:2709  isEnded = true */\n      0x0100\n      exp\n      dup2\n      sload\n      dup2\n      0xff\n      mul\n      not\n      and\n      swap1\n      dup4\n      iszero\n      iszero\n      mul\n      or\n      swap1\n      sstore\n      pop\n        /* \"contracts/Marketplace/auction/DutchAuction/DutchAuctionBase.sol\":2716:2754  bidAuctionFac(_msgSender(), _bidPrice) */\n      tag_211\n        /* \"contracts/Marketplace/auction/DutchAuction/DutchAuctionBase.sol\":2730:2742  _msgSender() */\n      tag_212\n        /* \"contracts/Marketplace/auction/DutchAuction/DutchAuctionBase.sol\":2730:2740  _msgSender */\n      tag_123\n        /* \"contracts/Marketplace/auction/DutchAuction/DutchAuctionBase.sol\":2730:2742  _msgSender() */\n      jump\t// in\n    tag_212:\n        /* \"contracts/Marketplace/auction/DutchAuction/DutchAuctionBase.sol\":2744:2753  _bidPrice */\n      dup5\n        /* \"contracts/Marketplace/auction/DutchAuction/DutchAuctionBase.sol\":2716:2729  bidAuctionFac */\n      tag_213\n        /* \"contracts/Marketplace/auction/DutchAuction/DutchAuctionBase.sol\":2716:2754  bidAuctionFac(_msgSender(), _bidPrice) */\n      jump\t// in\n    tag_211:\n        /* \"contracts/Marketplace/auction/DutchAuction/DutchAuctionBase.sol\":2761:2774  finalizeFac() */\n      tag_214\n        /* \"contracts/Marketplace/auction/DutchAuction/DutchAuctionBase.sol\":2761:2772  finalizeFac */\n      tag_136\n        /* \"contracts/Marketplace/auction/DutchAuction/DutchAuctionBase.sol\":2761:2774  finalizeFac() */\n      jump\t// in\n    tag_214:\n        /* \"contracts/Marketplace/auction/DutchAuction/DutchAuctionBase.sol\":2234:2780  {... */\n      pop\n      pop\n        /* \"contracts/Marketplace/auction/DutchAuction/DutchAuctionBase.sol\":2192:2780  function _buy(uint256 _bidPrice) internal {... */\n      pop\n      jump\t// out\n        /* \"contracts/Marketplace/auction/DutchAuction/DutchAuctionBase.sol\":3377:3670  function _payout(... */\n    tag_158:\n        /* \"contracts/Marketplace/auction/DutchAuction/DutchAuctionBase.sol\":3506:3510  this */\n      address\n        /* \"contracts/Marketplace/auction/DutchAuction/DutchAuctionBase.sol\":3487:3511  _sender == address(this) */\n      0xffffffffffffffffffffffffffffffffffffffff\n      and\n        /* \"contracts/Marketplace/auction/DutchAuction/DutchAuctionBase.sol\":3487:3494  _sender */\n      dup4\n        /* \"contracts/Marketplace/auction/DutchAuction/DutchAuctionBase.sol\":3487:3511  _sender == address(this) */\n      0xffffffffffffffffffffffffffffffffffffffff\n      and\n      sub\n        /* \"contracts/Marketplace/auction/DutchAuction/DutchAuctionBase.sol\":3484:3665  if(_sender == address(this)){... */\n      tag_216\n      jumpi\n        /* \"contracts/Marketplace/auction/DutchAuction/DutchAuctionBase.sol\":3528:3540  paymentToken */\n      0x07\n      0x00\n      swap1\n      sload\n      swap1\n      0x0100\n      exp\n      swap1\n      div\n      0xffffffffffffffffffffffffffffffffffffffff\n      and\n        /* \"contracts/Marketplace/auction/DutchAuction/DutchAuctionBase.sol\":3521:3550  IERC20(paymentToken).transfer */\n      0xffffffffffffffffffffffffffffffffffffffff\n      and\n      0xa9059cbb\n        /* \"contracts/Marketplace/auction/DutchAuction/DutchAuctionBase.sol\":3551:3561  _recipient */\n      dup4\n        /* \"contracts/Marketplace/auction/DutchAuction/DutchAuctionBase.sol\":3563:3570  _amount */\n      dup4\n        /* \"contracts/Marketplace/auction/DutchAuction/DutchAuctionBase.sol\":3521:3571  IERC20(paymentToken).transfer(_recipient, _amount) */\n      mload(0x40)\n      dup4\n      0xffffffff\n      and\n      0xe0\n      shl\n      dup2\n      mstore\n      0x04\n      add\n      tag_217\n      swap3\n      swap2\n      swap1\n      tag_218\n      jump\t// in\n    tag_217:\n      0x20\n      mload(0x40)\n      dup1\n      dup4\n      sub\n      dup2\n      0x00\n      dup8\n      gas\n      call\n      iszero\n      dup1\n      iszero\n      tag_220\n      jumpi\n      returndatasize\n      0x00\n      dup1\n      returndatacopy\n      revert(0x00, returndatasize)\n    tag_220:\n      pop\n      pop\n      pop\n      pop\n      mload(0x40)\n      returndatasize\n      not(0x1f)\n      0x1f\n      dup3\n      add\n      and\n      dup3\n      add\n      dup1\n      0x40\n      mstore\n      pop\n      dup2\n      add\n      swap1\n      tag_221\n      swap2\n      swap1\n      tag_222\n      jump\t// in\n    tag_221:\n      pop\n        /* \"contracts/Marketplace/auction/DutchAuction/DutchAuctionBase.sol\":3484:3665  if(_sender == address(this)){... */\n      jump(tag_223)\n    tag_216:\n        /* \"contracts/Marketplace/auction/DutchAuction/DutchAuctionBase.sol\":3601:3613  paymentToken */\n      0x07\n      0x00\n      swap1\n      sload\n      swap1\n      0x0100\n      exp\n      swap1\n      div\n      0xffffffffffffffffffffffffffffffffffffffff\n      and\n        /* \"contracts/Marketplace/auction/DutchAuction/DutchAuctionBase.sol\":3594:3627  IERC20(paymentToken).transferFrom */\n      0xffffffffffffffffffffffffffffffffffffffff\n      and\n      0x23b872dd\n        /* \"contracts/Marketplace/auction/DutchAuction/DutchAuctionBase.sol\":3628:3635  _sender */\n      dup5\n        /* \"contracts/Marketplace/auction/DutchAuction/DutchAuctionBase.sol\":3637:3647  _recipient */\n      dup5\n        /* \"contracts/Marketplace/auction/DutchAuction/DutchAuctionBase.sol\":3649:3656  _amount */\n      dup5\n        /* \"contracts/Marketplace/auction/DutchAuction/DutchAuctionBase.sol\":3594:3657  IERC20(paymentToken).transferFrom(_sender, _recipient, _amount) */\n      mload(0x40)\n      dup5\n      0xffffffff\n      and\n      0xe0\n      shl\n      dup2\n      mstore\n      0x04\n      add\n      tag_224\n      swap4\n      swap3\n      swap2\n      swap1\n      tag_225\n      jump\t// in\n    tag_224:\n      0x20\n      mload(0x40)\n      dup1\n      dup4\n      sub\n      dup2\n      0x00\n      dup8\n      gas\n      call\n      iszero\n      dup1\n      iszero\n      tag_227\n      jumpi\n      returndatasize\n      0x00\n      dup1\n      returndatacopy\n      revert(0x00, returndatasize)\n    tag_227:\n      pop\n      pop\n      pop\n      pop\n      mload(0x40)\n      returndatasize\n      not(0x1f)\n      0x1f\n      dup3\n      add\n      and\n      dup3\n      add\n      dup1\n      0x40\n      mstore\n      pop\n      dup2\n      add\n      swap1\n      tag_228\n      swap2\n      swap1\n      tag_222\n      jump\t// in\n    tag_228:\n      pop\n        /* \"contracts/Marketplace/auction/DutchAuction/DutchAuctionBase.sol\":3484:3665  if(_sender == address(this)){... */\n    tag_223:\n        /* \"contracts/Marketplace/auction/DutchAuction/DutchAuctionBase.sol\":3377:3670  function _payout(... */\n      pop\n      pop\n      pop\n      jump\t// out\n        /* \"contracts/Marketplace/utils/Ownable.sol\":389:465  function _setOwner(address newOwner) internal {... */\n    tag_167:\n        /* \"contracts/Marketplace/utils/Ownable.sol\":451:459  newOwner */\n      dup1\n        /* \"contracts/Marketplace/utils/Ownable.sol\":442:448  _owner */\n      0x00\n      dup1\n        /* \"contracts/Marketplace/utils/Ownable.sol\":442:459  _owner = newOwner */\n      0x0100\n      exp\n      dup2\n      sload\n      dup2\n      0xffffffffffffffffffffffffffffffffffffffff\n      mul\n      not\n      and\n      swap1\n      dup4\n      0xffffffffffffffffffffffffffffffffffffffff\n      and\n      mul\n      or\n      swap1\n      sstore\n      pop\n        /* \"contracts/Marketplace/utils/Ownable.sol\":389:465  function _setOwner(address newOwner) internal {... */\n      pop\n      jump\t// out\n        /* \"contracts/Marketplace/auction/Store721.sol\":433:645  function transferERC721(address from, address to) internal {... */\n    tag_180:\n        /* \"contracts/Marketplace/auction/Store721.sol\":503:512  uint256 i */\n      0x00\n        /* \"contracts/Marketplace/auction/Store721.sol\":499:640  for(uint256 i = 0; i < NFTContractAddress.length; i++) {... */\n    tag_231:\n        /* \"contracts/Marketplace/auction/Store721.sol\":522:540  NFTContractAddress */\n      0x0a\n        /* \"contracts/Marketplace/auction/Store721.sol\":522:547  NFTContractAddress.length */\n      dup1\n      sload\n      swap1\n      pop\n        /* \"contracts/Marketplace/auction/Store721.sol\":518:519  i */\n      dup2\n        /* \"contracts/Marketplace/auction/Store721.sol\":518:547  i < NFTContractAddress.length */\n      lt\n        /* \"contracts/Marketplace/auction/Store721.sol\":499:640  for(uint256 i = 0; i < NFTContractAddress.length; i++) {... */\n      iszero\n      tag_232\n      jumpi\n        /* \"contracts/Marketplace/auction/Store721.sol\":571:589  NFTContractAddress */\n      0x0a\n        /* \"contracts/Marketplace/auction/Store721.sol\":590:591  i */\n      dup2\n        /* \"contracts/Marketplace/auction/Store721.sol\":571:592  NFTContractAddress[i] */\n      dup2\n      sload\n      dup2\n      lt\n      tag_234\n      jumpi\n      tag_235\n      tag_236\n      jump\t// in\n    tag_235:\n    tag_234:\n      swap1\n      0x00\n      mstore\n      keccak256(0x00, 0x20)\n      add\n      0x00\n      swap1\n      sload\n      swap1\n      0x0100\n      exp\n      swap1\n      div\n      0xffffffffffffffffffffffffffffffffffffffff\n      and\n        /* \"contracts/Marketplace/auction/Store721.sol\":563:610  IERC721(NFTContractAddress[i]).safeTransferFrom */\n      0xffffffffffffffffffffffffffffffffffffffff\n      and\n      0x42842e0e\n        /* \"contracts/Marketplace/auction/Store721.sol\":611:615  from */\n      dup5\n        /* \"contracts/Marketplace/auction/Store721.sol\":617:619  to */\n      dup5\n        /* \"contracts/Marketplace/auction/Store721.sol\":621:628  tokenId */\n      0x0b\n        /* \"contracts/Marketplace/auction/Store721.sol\":629:630  i */\n      dup6\n        /* \"contracts/Marketplace/auction/Store721.sol\":621:631  tokenId[i] */\n      dup2\n      sload\n      dup2\n      lt\n      tag_238\n      jumpi\n      tag_239\n      tag_236\n      jump\t// in\n    tag_239:\n    tag_238:\n      swap1\n      0x00\n      mstore\n      keccak256(0x00, 0x20)\n      add\n      sload\n        /* \"contracts/Marketplace/auction/Store721.sol\":563:632  IERC721(NFTContractAddress[i]).safeTransferFrom(from, to, tokenId[i]) */\n      mload(0x40)\n      dup5\n      0xffffffff\n      and\n      0xe0\n      shl\n      dup2\n      mstore\n      0x04\n      add\n      tag_241\n      swap4\n      swap3\n      swap2\n      swap1\n      tag_225\n      jump\t// in\n    tag_241:\n      0x00\n      mload(0x40)\n      dup1\n      dup4\n      sub\n      dup2\n      0x00\n      dup8\n      dup1\n      extcodesize\n      iszero\n      dup1\n      iszero\n      tag_242\n      jumpi\n      0x00\n      dup1\n      revert\n    tag_242:\n      pop\n      gas\n      call\n      iszero\n      dup1\n      iszero\n      tag_244\n      jumpi\n      returndatasize\n      0x00\n      dup1\n      returndatacopy\n      revert(0x00, returndatasize)\n    tag_244:\n      pop\n      pop\n      pop\n      pop\n        /* \"contracts/Marketplace/auction/Store721.sol\":549:552  i++ */\n      dup1\n      dup1\n      0x01\n      add\n      swap2\n      pop\n      pop\n        /* \"contracts/Marketplace/auction/Store721.sol\":499:640  for(uint256 i = 0; i < NFTContractAddress.length; i++) {... */\n      jump(tag_231)\n    tag_232:\n      pop\n        /* \"contracts/Marketplace/auction/Store721.sol\":433:645  function transferERC721(address from, address to) internal {... */\n      pop\n      pop\n      jump\t// out\n        /* \"@openzeppelin/contracts/utils/math/Math.sol\":588:692  function min(uint256 a, uint256 b) internal pure returns (uint256) {... */\n    tag_196:\n        /* \"@openzeppelin/contracts/utils/math/Math.sol\":646:653  uint256 */\n      0x00\n        /* \"@openzeppelin/contracts/utils/math/Math.sol\":676:677  b */\n      dup2\n        /* \"@openzeppelin/contracts/utils/math/Math.sol\":672:673  a */\n      dup4\n        /* \"@openzeppelin/contracts/utils/math/Math.sol\":672:677  a < b */\n      lt\n        /* \"@openzeppelin/contracts/utils/math/Math.sol\":672:685  a < b ? a : b */\n      tag_246\n      jumpi\n        /* \"@openzeppelin/contracts/utils/math/Math.sol\":684:685  b */\n      dup2\n        /* \"@openzeppelin/contracts/utils/math/Math.sol\":672:685  a < b ? a : b */\n      jump(tag_247)\n    tag_246:\n        /* \"@openzeppelin/contracts/utils/math/Math.sol\":680:681  a */\n      dup3\n        /* \"@openzeppelin/contracts/utils/math/Math.sol\":672:685  a < b ? a : b */\n    tag_247:\n        /* \"@openzeppelin/contracts/utils/math/Math.sol\":665:685  return a < b ? a : b */\n      swap1\n      pop\n        /* \"@openzeppelin/contracts/utils/math/Math.sol\":588:692  function min(uint256 a, uint256 b) internal pure returns (uint256) {... */\n      swap3\n      swap2\n      pop\n      pop\n      jump\t// out\n        /* \"contracts/Marketplace/auction/DutchAuction/DutchAuctionBase.sol\":3674:3943  function sendTokenFromThisContractTo(address to, uint256 amount) internal {... */\n    tag_206:\n        /* \"contracts/Marketplace/auction/DutchAuction/DutchAuctionBase.sol\":3782:3783  0 */\n      0x00\n        /* \"contracts/Marketplace/auction/DutchAuction/DutchAuctionBase.sol\":3758:3784  paymentToken == address(0) */\n      0xffffffffffffffffffffffffffffffffffffffff\n      and\n        /* \"contracts/Marketplace/auction/DutchAuction/DutchAuctionBase.sol\":3758:3770  paymentToken */\n      0x07\n      0x00\n      swap1\n      sload\n      swap1\n      0x0100\n      exp\n      swap1\n      div\n      0xffffffffffffffffffffffffffffffffffffffff\n      and\n        /* \"contracts/Marketplace/auction/DutchAuction/DutchAuctionBase.sol\":3758:3784  paymentToken == address(0) */\n      0xffffffffffffffffffffffffffffffffffffffff\n      and\n      sub\n        /* \"contracts/Marketplace/auction/DutchAuction/DutchAuctionBase.sol\":3755:3938  if(paymentToken == address(0)){... */\n      tag_249\n      jumpi\n        /* \"contracts/Marketplace/auction/DutchAuction/DutchAuctionBase.sol\":3794:3873  TransferETHLib.transferETH(to, amount, IAuctionFactory(factory).WETH_ADDRESS()) */\n      tag_250\n        /* \"contracts/Marketplace/auction/DutchAuction/DutchAuctionBase.sol\":3821:3823  to */\n      dup3\n        /* \"contracts/Marketplace/auction/DutchAuction/DutchAuctionBase.sol\":3825:3831  amount */\n      dup3\n        /* \"contracts/Marketplace/auction/DutchAuction/DutchAuctionBase.sol\":3849:3856  factory */\n      0x02\n      0x00\n      swap1\n      sload\n      swap1\n      0x0100\n      exp\n      swap1\n      div\n      0xffffffffffffffffffffffffffffffffffffffff\n      and\n        /* \"contracts/Marketplace/auction/DutchAuction/DutchAuctionBase.sol\":3833:3870  IAuctionFactory(factory).WETH_ADDRESS */\n      0xffffffffffffffffffffffffffffffffffffffff\n      and\n      0x040141e5\n        /* \"contracts/Marketplace/auction/DutchAuction/DutchAuctionBase.sol\":3833:3872  IAuctionFactory(factory).WETH_ADDRESS() */\n      mload(0x40)\n      dup2\n      0xffffffff\n      and\n      0xe0\n      shl\n      dup2\n      mstore\n      0x04\n      add\n      0x20\n      mload(0x40)\n      dup1\n      dup4\n      sub\n      dup2\n      dup7\n      gas\n      staticcall\n      iszero\n      dup1\n      iszero\n      tag_252\n      jumpi\n      returndatasize\n      0x00\n      dup1\n      returndatacopy\n      revert(0x00, returndatasize)\n    tag_252:\n      pop\n      pop\n      pop\n      pop\n      mload(0x40)\n      returndatasize\n      not(0x1f)\n      0x1f\n      dup3\n      add\n      and\n      dup3\n      add\n      dup1\n      0x40\n      mstore\n      pop\n      dup2\n      add\n      swap1\n      tag_253\n      swap2\n      swap1\n      tag_254\n      jump\t// in\n    tag_253:\n        /* \"contracts/Marketplace/auction/DutchAuction/DutchAuctionBase.sol\":3794:3820  TransferETHLib.transferETH */\n      tag_255\n        /* \"contracts/Marketplace/auction/DutchAuction/DutchAuctionBase.sol\":3794:3873  TransferETHLib.transferETH(to, amount, IAuctionFactory(factory).WETH_ADDRESS()) */\n      jump\t// in\n    tag_250:\n      pop\n        /* \"contracts/Marketplace/auction/DutchAuction/DutchAuctionBase.sol\":3755:3938  if(paymentToken == address(0)){... */\n      jump(tag_256)\n    tag_249:\n        /* \"contracts/Marketplace/auction/DutchAuction/DutchAuctionBase.sol\":3896:3930  _payout(address(this), to, amount) */\n      tag_257\n        /* \"contracts/Marketplace/auction/DutchAuction/DutchAuctionBase.sol\":3912:3916  this */\n      address\n        /* \"contracts/Marketplace/auction/DutchAuction/DutchAuctionBase.sol\":3919:3921  to */\n      dup4\n        /* \"contracts/Marketplace/auction/DutchAuction/DutchAuctionBase.sol\":3923:3929  amount */\n      dup4\n        /* \"contracts/Marketplace/auction/DutchAuction/DutchAuctionBase.sol\":3896:3903  _payout */\n      tag_158\n        /* \"contracts/Marketplace/auction/DutchAuction/DutchAuctionBase.sol\":3896:3930  _payout(address(this), to, amount) */\n      jump\t// in\n    tag_257:\n        /* \"contracts/Marketplace/auction/DutchAuction/DutchAuctionBase.sol\":3755:3938  if(paymentToken == address(0)){... */\n    tag_256:\n        /* \"contracts/Marketplace/auction/DutchAuction/DutchAuctionBase.sol\":3674:3943  function sendTokenFromThisContractTo(address to, uint256 amount) internal {... */\n      pop\n      pop\n      jump\t// out\n        /* \"contracts/Marketplace/auction/DutchAuction/DutchAuction721.sol\":798:947  function bidAuctionFac(address bidder, uint256 amount) internal override {... */\n    tag_213:\n        /* \"contracts/Marketplace/auction/DutchAuction/DutchAuction721.sol\":894:901  factory */\n      0x02\n      0x00\n      swap1\n      sload\n      swap1\n      0x0100\n      exp\n      swap1\n      div\n      0xffffffffffffffffffffffffffffffffffffffff\n      and\n        /* \"contracts/Marketplace/auction/DutchAuction/DutchAuction721.sol\":878:922  IAuctionFactory(factory).bidAuctionInFactory */\n      0xffffffffffffffffffffffffffffffffffffffff\n      and\n      0xd611ee87\n        /* \"contracts/Marketplace/auction/DutchAuction/DutchAuction721.sol\":923:924  4 */\n      0x04\n        /* \"contracts/Marketplace/auction/DutchAuction/DutchAuction721.sol\":926:932  bidder */\n      dup5\n        /* \"contracts/Marketplace/auction/DutchAuction/DutchAuction721.sol\":934:940  amount */\n      dup5\n        /* \"contracts/Marketplace/auction/DutchAuction/DutchAuction721.sol\":878:941  IAuctionFactory(factory).bidAuctionInFactory(4, bidder, amount) */\n      mload(0x40)\n      dup5\n      0xffffffff\n      and\n      0xe0\n      shl\n      dup2\n      mstore\n      0x04\n      add\n      tag_259\n      swap4\n      swap3\n      swap2\n      swap1\n      tag_260\n      jump\t// in\n    tag_259:\n      0x00\n      mload(0x40)\n      dup1\n      dup4\n      sub\n      dup2\n      0x00\n      dup8\n      dup1\n      extcodesize\n      iszero\n      dup1\n      iszero\n      tag_261\n      jumpi\n      0x00\n      dup1\n      revert\n    tag_261:\n      pop\n      gas\n      call\n      iszero\n      dup1\n      iszero\n      tag_263\n      jumpi\n      returndatasize\n      0x00\n      dup1\n      returndatacopy\n      revert(0x00, returndatasize)\n    tag_263:\n      pop\n      pop\n      pop\n      pop\n        /* \"contracts/Marketplace/auction/DutchAuction/DutchAuction721.sol\":798:947  function bidAuctionFac(address bidder, uint256 amount) internal override {... */\n      pop\n      pop\n      jump\t// out\n        /* \"contracts/Marketplace/utils/TransferETHLib.sol\":114:426  function transferETH(address to, uint256 amount, address WETH_ADDRESS) internal returns(bool success){... */\n    tag_255:\n        /* \"contracts/Marketplace/utils/TransferETHLib.sol\":202:214  bool success */\n      0x00\n        /* \"contracts/Marketplace/utils/TransferETHLib.sol\":284:285  0 */\n      dup1\n        /* \"contracts/Marketplace/utils/TransferETHLib.sol\":281:282  0 */\n      0x00\n        /* \"contracts/Marketplace/utils/TransferETHLib.sol\":278:279  0 */\n      dup1\n        /* \"contracts/Marketplace/utils/TransferETHLib.sol\":275:276  0 */\n      0x00\n        /* \"contracts/Marketplace/utils/TransferETHLib.sol\":267:273  amount */\n      dup7\n        /* \"contracts/Marketplace/utils/TransferETHLib.sol\":263:265  to */\n      dup9\n        /* \"contracts/Marketplace/utils/TransferETHLib.sol\":256:261  gas() */\n      gas\n        /* \"contracts/Marketplace/utils/TransferETHLib.sol\":251:286  call(gas(), to, amount, 0, 0, 0, 0) */\n      call\n        /* \"contracts/Marketplace/utils/TransferETHLib.sol\":240:286  success := call(gas(), to, amount, 0, 0, 0, 0) */\n      swap1\n      pop\n        /* \"contracts/Marketplace/utils/TransferETHLib.sol\":303:310  success */\n      dup1\n        /* \"contracts/Marketplace/utils/TransferETHLib.sol\":299:421  if(!success){... */\n      tag_265\n      jumpi\n        /* \"contracts/Marketplace/utils/TransferETHLib.sol\":326:338  WETH_ADDRESS */\n      dup2\n        /* \"contracts/Marketplace/utils/TransferETHLib.sol\":320:347  IWETH(WETH_ADDRESS).deposit */\n      0xffffffffffffffffffffffffffffffffffffffff\n      and\n      0xd0e30db0\n        /* \"contracts/Marketplace/utils/TransferETHLib.sol\":355:361  amount */\n      dup5\n        /* \"contracts/Marketplace/utils/TransferETHLib.sol\":320:364  IWETH(WETH_ADDRESS).deposit{value: amount}() */\n      mload(0x40)\n      dup3\n      0xffffffff\n      and\n      0xe0\n      shl\n      dup2\n      mstore\n      0x04\n      add\n      0x00\n      mload(0x40)\n      dup1\n      dup4\n      sub\n      dup2\n      dup6\n      dup9\n      dup1\n      extcodesize\n      iszero\n      dup1\n      iszero\n      tag_266\n      jumpi\n      0x00\n      dup1\n      revert\n    tag_266:\n      pop\n      gas\n      call\n      iszero\n      dup1\n      iszero\n      tag_268\n      jumpi\n      returndatasize\n      0x00\n      dup1\n      returndatacopy\n      revert(0x00, returndatasize)\n    tag_268:\n      pop\n      pop\n      pop\n      pop\n      pop\n        /* \"contracts/Marketplace/utils/TransferETHLib.sol\":379:391  WETH_ADDRESS */\n      dup2\n        /* \"contracts/Marketplace/utils/TransferETHLib.sol\":373:401  IWETH(WETH_ADDRESS).transfer */\n      0xffffffffffffffffffffffffffffffffffffffff\n      and\n      0xa9059cbb\n        /* \"contracts/Marketplace/utils/TransferETHLib.sol\":402:404  to */\n      dup6\n        /* \"contracts/Marketplace/utils/TransferETHLib.sol\":406:412  amount */\n      dup6\n        /* \"contracts/Marketplace/utils/TransferETHLib.sol\":373:413  IWETH(WETH_ADDRESS).transfer(to, amount) */\n      mload(0x40)\n      dup4\n      0xffffffff\n      and\n      0xe0\n      shl\n      dup2\n      mstore\n      0x04\n      add\n      tag_269\n      swap3\n      swap2\n      swap1\n      tag_218\n      jump\t// in\n    tag_269:\n      0x20\n      mload(0x40)\n      dup1\n      dup4\n      sub\n      dup2\n      0x00\n      dup8\n      gas\n      call\n      iszero\n      dup1\n      iszero\n      tag_271\n      jumpi\n      returndatasize\n      0x00\n      dup1\n      returndatacopy\n      revert(0x00, returndatasize)\n    tag_271:\n      pop\n      pop\n      pop\n      pop\n      mload(0x40)\n      returndatasize\n      not(0x1f)\n      0x1f\n      dup3\n      add\n      and\n      dup3\n      add\n      dup1\n      0x40\n      mstore\n      pop\n      dup2\n      add\n      swap1\n      tag_272\n      swap2\n      swap1\n      tag_222\n      jump\t// in\n    tag_272:\n      pop\n        /* \"contracts/Marketplace/utils/TransferETHLib.sol\":299:421  if(!success){... */\n    tag_265:\n        /* \"contracts/Marketplace/utils/TransferETHLib.sol\":114:426  function transferETH(address to, uint256 amount, address WETH_ADDRESS) internal returns(bool success){... */\n      swap4\n      swap3\n      pop\n      pop\n      pop\n      jump\t// out\n    tag_170:\n      dup3\n      dup1\n      sload\n      dup3\n      dup3\n      sstore\n      swap1\n      0x00\n      mstore\n      keccak256(0x00, 0x20)\n      swap1\n      dup2\n      add\n      swap3\n      dup3\n      iszero\n      tag_273\n      jumpi\n      swap2\n      0x20\n      mul\n      dup3\n      add\n    tag_274:\n      dup3\n      dup2\n      gt\n      iszero\n      tag_275\n      jumpi\n      dup3\n      mload\n      dup3\n      exp(0x0100, 0x00)\n      dup2\n      sload\n      dup2\n      0xffffffffffffffffffffffffffffffffffffffff\n      mul\n      not\n      and\n      swap1\n      dup4\n      0xffffffffffffffffffffffffffffffffffffffff\n      and\n      mul\n      or\n      swap1\n      sstore\n      pop\n      swap2\n      0x20\n      add\n      swap2\n      swap1\n      0x01\n      add\n      swap1\n      jump(tag_274)\n    tag_275:\n    tag_273:\n      pop\n      swap1\n      pop\n      tag_276\n      swap2\n      swap1\n      tag_277\n      jump\t// in\n    tag_276:\n      pop\n      swap1\n      jump\t// out\n    tag_172:\n      dup3\n      dup1\n      sload\n      dup3\n      dup3\n      sstore\n      swap1\n      0x00\n      mstore\n      keccak256(0x00, 0x20)\n      swap1\n      dup2\n      add\n      swap3\n      dup3\n      iszero\n      tag_278\n      jumpi\n      swap2\n      0x20\n      mul\n      dup3\n      add\n    tag_279:\n      dup3\n      dup2\n      gt\n      iszero\n      tag_280\n      jumpi\n      dup3\n      mload\n      dup3\n      sstore\n      swap2\n      0x20\n      add\n      swap2\n      swap1\n      0x01\n      add\n      swap1\n      jump(tag_279)\n    tag_280:\n    tag_278:\n      pop\n      swap1\n      pop\n      tag_281\n      swap2\n      swap1\n      tag_277\n      jump\t// in\n    tag_281:\n      pop\n      swap1\n      jump\t// out\n    tag_277:\n    tag_282:\n      dup1\n      dup3\n      gt\n      iszero\n      tag_283\n      jumpi\n      0x00\n      dup2\n      0x00\n      swap1\n      sstore\n      pop\n      0x01\n      add\n      jump(tag_282)\n    tag_283:\n      pop\n      swap1\n      jump\t// out\n        /* \"#utility.yul\":7:82   */\n    tag_284:\n        /* \"#utility.yul\":40:46   */\n      0x00\n        /* \"#utility.yul\":73:75   */\n      0x40\n        /* \"#utility.yul\":67:76   */\n      mload\n        /* \"#utility.yul\":57:76   */\n      swap1\n      pop\n        /* \"#utility.yul\":7:82   */\n      swap1\n      jump\t// out\n        /* \"#utility.yul\":88:205   */\n    tag_285:\n        /* \"#utility.yul\":197:198   */\n      0x00\n        /* \"#utility.yul\":194:195   */\n      dup1\n        /* \"#utility.yul\":187:199   */\n      revert\n        /* \"#utility.yul\":211:328   */\n    tag_286:\n        /* \"#utility.yul\":320:321   */\n      0x00\n        /* \"#utility.yul\":317:318   */\n      dup1\n        /* \"#utility.yul\":310:322   */\n      revert\n        /* \"#utility.yul\":334:411   */\n    tag_287:\n        /* \"#utility.yul\":371:378   */\n      0x00\n        /* \"#utility.yul\":400:405   */\n      dup2\n        /* \"#utility.yul\":389:405   */\n      swap1\n      pop\n        /* \"#utility.yul\":334:411   */\n      swap2\n      swap1\n      pop\n      jump\t// out\n        /* \"#utility.yul\":417:539   */\n    tag_288:\n        /* \"#utility.yul\":490:514   */\n      tag_363\n        /* \"#utility.yul\":508:513   */\n      dup2\n        /* \"#utility.yul\":490:514   */\n      tag_287\n      jump\t// in\n    tag_363:\n        /* \"#utility.yul\":483:488   */\n      dup2\n        /* \"#utility.yul\":480:515   */\n      eq\n        /* \"#utility.yul\":470:533   */\n      tag_364\n      jumpi\n        /* \"#utility.yul\":529:530   */\n      0x00\n        /* \"#utility.yul\":526:527   */\n      dup1\n        /* \"#utility.yul\":519:531   */\n      revert\n        /* \"#utility.yul\":470:533   */\n    tag_364:\n        /* \"#utility.yul\":417:539   */\n      pop\n      jump\t// out\n        /* \"#utility.yul\":545:684   */\n    tag_289:\n        /* \"#utility.yul\":591:596   */\n      0x00\n        /* \"#utility.yul\":629:635   */\n      dup2\n        /* \"#utility.yul\":616:636   */\n      calldataload\n        /* \"#utility.yul\":607:636   */\n      swap1\n      pop\n        /* \"#utility.yul\":645:678   */\n      tag_366\n        /* \"#utility.yul\":672:677   */\n      dup2\n        /* \"#utility.yul\":645:678   */\n      tag_288\n      jump\t// in\n    tag_366:\n        /* \"#utility.yul\":545:684   */\n      swap3\n      swap2\n      pop\n      pop\n      jump\t// out\n        /* \"#utility.yul\":690:1019   */\n    tag_26:\n        /* \"#utility.yul\":749:755   */\n      0x00\n        /* \"#utility.yul\":798:800   */\n      0x20\n        /* \"#utility.yul\":786:795   */\n      dup3\n        /* \"#utility.yul\":777:784   */\n      dup5\n        /* \"#utility.yul\":773:796   */\n      sub\n        /* \"#utility.yul\":769:801   */\n      slt\n        /* \"#utility.yul\":766:885   */\n      iszero\n      tag_368\n      jumpi\n        /* \"#utility.yul\":804:883   */\n      tag_369\n      tag_285\n      jump\t// in\n    tag_369:\n        /* \"#utility.yul\":766:885   */\n    tag_368:\n        /* \"#utility.yul\":924:925   */\n      0x00\n        /* \"#utility.yul\":949:1002   */\n      tag_370\n        /* \"#utility.yul\":994:1001   */\n      dup5\n        /* \"#utility.yul\":985:991   */\n      dup3\n        /* \"#utility.yul\":974:983   */\n      dup6\n        /* \"#utility.yul\":970:992   */\n      add\n        /* \"#utility.yul\":949:1002   */\n      tag_289\n      jump\t// in\n    tag_370:\n        /* \"#utility.yul\":939:1002   */\n      swap2\n      pop\n        /* \"#utility.yul\":895:1012   */\n      pop\n        /* \"#utility.yul\":690:1019   */\n      swap3\n      swap2\n      pop\n      pop\n      jump\t// out\n        /* \"#utility.yul\":1025:1151   */\n    tag_290:\n        /* \"#utility.yul\":1062:1069   */\n      0x00\n        /* \"#utility.yul\":1102:1144   */\n      0xffffffffffffffffffffffffffffffffffffffff\n        /* \"#utility.yul\":1095:1100   */\n      dup3\n        /* \"#utility.yul\":1091:1145   */\n      and\n        /* \"#utility.yul\":1080:1145   */\n      swap1\n      pop\n        /* \"#utility.yul\":1025:1151   */\n      swap2\n      swap1\n      pop\n      jump\t// out\n        /* \"#utility.yul\":1157:1253   */\n    tag_291:\n        /* \"#utility.yul\":1194:1201   */\n      0x00\n        /* \"#utility.yul\":1223:1247   */\n      tag_373\n        /* \"#utility.yul\":1241:1246   */\n      dup3\n        /* \"#utility.yul\":1223:1247   */\n      tag_290\n      jump\t// in\n    tag_373:\n        /* \"#utility.yul\":1212:1247   */\n      swap1\n      pop\n        /* \"#utility.yul\":1157:1253   */\n      swap2\n      swap1\n      pop\n      jump\t// out\n        /* \"#utility.yul\":1259:1377   */\n    tag_292:\n        /* \"#utility.yul\":1346:1370   */\n      tag_375\n        /* \"#utility.yul\":1364:1369   */\n      dup2\n        /* \"#utility.yul\":1346:1370   */\n      tag_291\n      jump\t// in\n    tag_375:\n        /* \"#utility.yul\":1341:1344   */\n      dup3\n        /* \"#utility.yul\":1334:1371   */\n      mstore\n        /* \"#utility.yul\":1259:1377   */\n      pop\n      pop\n      jump\t// out\n        /* \"#utility.yul\":1383:1605   */\n    tag_29:\n        /* \"#utility.yul\":1476:1480   */\n      0x00\n        /* \"#utility.yul\":1514:1516   */\n      0x20\n        /* \"#utility.yul\":1503:1512   */\n      dup3\n        /* \"#utility.yul\":1499:1517   */\n      add\n        /* \"#utility.yul\":1491:1517   */\n      swap1\n      pop\n        /* \"#utility.yul\":1527:1598   */\n      tag_377\n        /* \"#utility.yul\":1595:1596   */\n      0x00\n        /* \"#utility.yul\":1584:1593   */\n      dup4\n        /* \"#utility.yul\":1580:1597   */\n      add\n        /* \"#utility.yul\":1571:1577   */\n      dup5\n        /* \"#utility.yul\":1527:1598   */\n      tag_292\n      jump\t// in\n    tag_377:\n        /* \"#utility.yul\":1383:1605   */\n      swap3\n      swap2\n      pop\n      pop\n      jump\t// out\n        /* \"#utility.yul\":1611:1733   */\n    tag_293:\n        /* \"#utility.yul\":1684:1708   */\n      tag_379\n        /* \"#utility.yul\":1702:1707   */\n      dup2\n        /* \"#utility.yul\":1684:1708   */\n      tag_291\n      jump\t// in\n    tag_379:\n        /* \"#utility.yul\":1677:1682   */\n      dup2\n        /* \"#utility.yul\":1674:1709   */\n      eq\n        /* \"#utility.yul\":1664:1727   */\n      tag_380\n      jumpi\n        /* \"#utility.yul\":1723:1724   */\n      0x00\n        /* \"#utility.yul\":1720:1721   */\n      dup1\n        /* \"#utility.yul\":1713:1725   */\n      revert\n        /* \"#utility.yul\":1664:1727   */\n    tag_380:\n        /* \"#utility.yul\":1611:1733   */\n      pop\n      jump\t// out\n        /* \"#utility.yul\":1739:1878   */\n    tag_294:\n        /* \"#utility.yul\":1785:1790   */\n      0x00\n        /* \"#utility.yul\":1823:1829   */\n      dup2\n        /* \"#utility.yul\":1810:1830   */\n      calldataload\n        /* \"#utility.yul\":1801:1830   */\n      swap1\n      pop\n        /* \"#utility.yul\":1839:1872   */\n      tag_382\n        /* \"#utility.yul\":1866:1871   */\n      dup2\n        /* \"#utility.yul\":1839:1872   */\n      tag_293\n      jump\t// in\n    tag_382:\n        /* \"#utility.yul\":1739:1878   */\n      swap3\n      swap2\n      pop\n      pop\n      jump\t// out\n        /* \"#utility.yul\":1884:2001   */\n    tag_295:\n        /* \"#utility.yul\":1993:1994   */\n      0x00\n        /* \"#utility.yul\":1990:1991   */\n      dup1\n        /* \"#utility.yul\":1983:1995   */\n      revert\n        /* \"#utility.yul\":2007:2109   */\n    tag_296:\n        /* \"#utility.yul\":2048:2054   */\n      0x00\n        /* \"#utility.yul\":2099:2101   */\n      0x1f\n        /* \"#utility.yul\":2095:2102   */\n      not\n        /* \"#utility.yul\":2090:2092   */\n      0x1f\n        /* \"#utility.yul\":2083:2088   */\n      dup4\n        /* \"#utility.yul\":2079:2093   */\n      add\n        /* \"#utility.yul\":2075:2103   */\n      and\n        /* \"#utility.yul\":2065:2103   */\n      swap1\n      pop\n        /* \"#utility.yul\":2007:2109   */\n      swap2\n      swap1\n      pop\n      jump\t// out\n        /* \"#utility.yul\":2115:2295   */\n    tag_297:\n        /* \"#utility.yul\":2163:2240   */\n      0x4e487b7100000000000000000000000000000000000000000000000000000000\n        /* \"#utility.yul\":2160:2161   */\n      0x00\n        /* \"#utility.yul\":2153:2241   */\n      mstore\n        /* \"#utility.yul\":2260:2264   */\n      0x41\n        /* \"#utility.yul\":2257:2258   */\n      0x04\n        /* \"#utility.yul\":2250:2265   */\n      mstore\n        /* \"#utility.yul\":2284:2288   */\n      0x24\n        /* \"#utility.yul\":2281:2282   */\n      0x00\n        /* \"#utility.yul\":2274:2289   */\n      revert\n        /* \"#utility.yul\":2301:2582   */\n    tag_298:\n        /* \"#utility.yul\":2384:2411   */\n      tag_387\n        /* \"#utility.yul\":2406:2410   */\n      dup3\n        /* \"#utility.yul\":2384:2411   */\n      tag_296\n      jump\t// in\n    tag_387:\n        /* \"#utility.yul\":2376:2382   */\n      dup2\n        /* \"#utility.yul\":2372:2412   */\n      add\n        /* \"#utility.yul\":2514:2520   */\n      dup2\n        /* \"#utility.yul\":2502:2512   */\n      dup2\n        /* \"#utility.yul\":2499:2521   */\n      lt\n        /* \"#utility.yul\":2478:2496   */\n      0xffffffffffffffff\n        /* \"#utility.yul\":2466:2476   */\n      dup3\n        /* \"#utility.yul\":2463:2497   */\n      gt\n        /* \"#utility.yul\":2460:2522   */\n      or\n        /* \"#utility.yul\":2457:2545   */\n      iszero\n      tag_388\n      jumpi\n        /* \"#utility.yul\":2525:2543   */\n      tag_389\n      tag_297\n      jump\t// in\n    tag_389:\n        /* \"#utility.yul\":2457:2545   */\n    tag_388:\n        /* \"#utility.yul\":2565:2575   */\n      dup1\n        /* \"#utility.yul\":2561:2563   */\n      0x40\n        /* \"#utility.yul\":2554:2576   */\n      mstore\n        /* \"#utility.yul\":2344:2582   */\n      pop\n        /* \"#utility.yul\":2301:2582   */\n      pop\n      pop\n      jump\t// out\n        /* \"#utility.yul\":2588:2717   */\n    tag_299:\n        /* \"#utility.yul\":2622:2628   */\n      0x00\n        /* \"#utility.yul\":2649:2669   */\n      tag_391\n      tag_284\n      jump\t// in\n    tag_391:\n        /* \"#utility.yul\":2639:2669   */\n      swap1\n      pop\n        /* \"#utility.yul\":2678:2711   */\n      tag_392\n        /* \"#utility.yul\":2706:2710   */\n      dup3\n        /* \"#utility.yul\":2698:2704   */\n      dup3\n        /* \"#utility.yul\":2678:2711   */\n      tag_298\n      jump\t// in\n    tag_392:\n        /* \"#utility.yul\":2588:2717   */\n      swap2\n      swap1\n      pop\n      jump\t// out\n        /* \"#utility.yul\":2723:3034   */\n    tag_300:\n        /* \"#utility.yul\":2800:2804   */\n      0x00\n        /* \"#utility.yul\":2890:2908   */\n      0xffffffffffffffff\n        /* \"#utility.yul\":2882:2888   */\n      dup3\n        /* \"#utility.yul\":2879:2909   */\n      gt\n        /* \"#utility.yul\":2876:2932   */\n      iszero\n      tag_394\n      jumpi\n        /* \"#utility.yul\":2912:2930   */\n      tag_395\n      tag_297\n      jump\t// in\n    tag_395:\n        /* \"#utility.yul\":2876:2932   */\n    tag_394:\n        /* \"#utility.yul\":2962:2966   */\n      0x20\n        /* \"#utility.yul\":2954:2960   */\n      dup3\n        /* \"#utility.yul\":2950:2967   */\n      mul\n        /* \"#utility.yul\":2942:2967   */\n      swap1\n      pop\n        /* \"#utility.yul\":3022:3026   */\n      0x20\n        /* \"#utility.yul\":3016:3020   */\n      dup2\n        /* \"#utility.yul\":3012:3027   */\n      add\n        /* \"#utility.yul\":3004:3027   */\n      swap1\n      pop\n        /* \"#utility.yul\":2723:3034   */\n      swap2\n      swap1\n      pop\n      jump\t// out\n        /* \"#utility.yul\":3040:3157   */\n    tag_301:\n        /* \"#utility.yul\":3149:3150   */\n      0x00\n        /* \"#utility.yul\":3146:3147   */\n      dup1\n        /* \"#utility.yul\":3139:3151   */\n      revert\n        /* \"#utility.yul\":3180:3890   */\n    tag_302:\n        /* \"#utility.yul\":3276:3281   */\n      0x00\n        /* \"#utility.yul\":3301:3382   */\n      tag_398\n        /* \"#utility.yul\":3317:3381   */\n      tag_399\n        /* \"#utility.yul\":3374:3380   */\n      dup5\n        /* \"#utility.yul\":3317:3381   */\n      tag_300\n      jump\t// in\n    tag_399:\n        /* \"#utility.yul\":3301:3382   */\n      tag_299\n      jump\t// in\n    tag_398:\n        /* \"#utility.yul\":3292:3382   */\n      swap1\n      pop\n        /* \"#utility.yul\":3402:3407   */\n      dup1\n        /* \"#utility.yul\":3431:3437   */\n      dup4\n        /* \"#utility.yul\":3424:3429   */\n      dup3\n        /* \"#utility.yul\":3417:3438   */\n      mstore\n        /* \"#utility.yul\":3465:3469   */\n      0x20\n        /* \"#utility.yul\":3458:3463   */\n      dup3\n        /* \"#utility.yul\":3454:3470   */\n      add\n        /* \"#utility.yul\":3447:3470   */\n      swap1\n      pop\n        /* \"#utility.yul\":3518:3522   */\n      0x20\n        /* \"#utility.yul\":3510:3516   */\n      dup5\n        /* \"#utility.yul\":3506:3523   */\n      mul\n        /* \"#utility.yul\":3498:3504   */\n      dup4\n        /* \"#utility.yul\":3494:3524   */\n      add\n        /* \"#utility.yul\":3547:3550   */\n      dup6\n        /* \"#utility.yul\":3539:3545   */\n      dup2\n        /* \"#utility.yul\":3536:3551   */\n      gt\n        /* \"#utility.yul\":3533:3655   */\n      iszero\n      tag_400\n      jumpi\n        /* \"#utility.yul\":3566:3645   */\n      tag_401\n      tag_301\n      jump\t// in\n    tag_401:\n        /* \"#utility.yul\":3533:3655   */\n    tag_400:\n        /* \"#utility.yul\":3681:3687   */\n      dup4\n        /* \"#utility.yul\":3664:3884   */\n    tag_402:\n        /* \"#utility.yul\":3698:3704   */\n      dup2\n        /* \"#utility.yul\":3693:3696   */\n      dup2\n        /* \"#utility.yul\":3690:3705   */\n      lt\n        /* \"#utility.yul\":3664:3884   */\n      iszero\n      tag_404\n      jumpi\n        /* \"#utility.yul\":3773:3776   */\n      dup1\n        /* \"#utility.yul\":3802:3839   */\n      tag_405\n        /* \"#utility.yul\":3835:3838   */\n      dup9\n        /* \"#utility.yul\":3823:3833   */\n      dup3\n        /* \"#utility.yul\":3802:3839   */\n      tag_294\n      jump\t// in\n    tag_405:\n        /* \"#utility.yul\":3797:3800   */\n      dup5\n        /* \"#utility.yul\":3790:3840   */\n      mstore\n        /* \"#utility.yul\":3869:3873   */\n      0x20\n        /* \"#utility.yul\":3864:3867   */\n      dup5\n        /* \"#utility.yul\":3860:3874   */\n      add\n        /* \"#utility.yul\":3853:3874   */\n      swap4\n      pop\n        /* \"#utility.yul\":3740:3884   */\n      pop\n        /* \"#utility.yul\":3724:3728   */\n      0x20\n        /* \"#utility.yul\":3719:3722   */\n      dup2\n        /* \"#utility.yul\":3715:3729   */\n      add\n        /* \"#utility.yul\":3708:3729   */\n      swap1\n      pop\n        /* \"#utility.yul\":3664:3884   */\n      jump(tag_402)\n    tag_404:\n        /* \"#utility.yul\":3668:3689   */\n      pop\n        /* \"#utility.yul\":3282:3890   */\n      pop\n      pop\n        /* \"#utility.yul\":3180:3890   */\n      swap4\n      swap3\n      pop\n      pop\n      pop\n      jump\t// out\n        /* \"#utility.yul\":3913:4283   */\n    tag_303:\n        /* \"#utility.yul\":3984:3989   */\n      0x00\n        /* \"#utility.yul\":4033:4036   */\n      dup3\n        /* \"#utility.yul\":4026:4030   */\n      0x1f\n        /* \"#utility.yul\":4018:4024   */\n      dup4\n        /* \"#utility.yul\":4014:4031   */\n      add\n        /* \"#utility.yul\":4010:4037   */\n      slt\n        /* \"#utility.yul\":4000:4122   */\n      tag_407\n      jumpi\n        /* \"#utility.yul\":4041:4120   */\n      tag_408\n      tag_295\n      jump\t// in\n    tag_408:\n        /* \"#utility.yul\":4000:4122   */\n    tag_407:\n        /* \"#utility.yul\":4158:4164   */\n      dup2\n        /* \"#utility.yul\":4145:4165   */\n      calldataload\n        /* \"#utility.yul\":4183:4277   */\n      tag_409\n        /* \"#utility.yul\":4273:4276   */\n      dup5\n        /* \"#utility.yul\":4265:4271   */\n      dup3\n        /* \"#utility.yul\":4258:4262   */\n      0x20\n        /* \"#utility.yul\":4250:4256   */\n      dup7\n        /* \"#utility.yul\":4246:4263   */\n      add\n        /* \"#utility.yul\":4183:4277   */\n      tag_302\n      jump\t// in\n    tag_409:\n        /* \"#utility.yul\":4174:4277   */\n      swap2\n      pop\n        /* \"#utility.yul\":3990:4283   */\n      pop\n        /* \"#utility.yul\":3913:4283   */\n      swap3\n      swap2\n      pop\n      pop\n      jump\t// out\n        /* \"#utility.yul\":4289:4600   */\n    tag_304:\n        /* \"#utility.yul\":4366:4370   */\n      0x00\n        /* \"#utility.yul\":4456:4474   */\n      0xffffffffffffffff\n        /* \"#utility.yul\":4448:4454   */\n      dup3\n        /* \"#utility.yul\":4445:4475   */\n      gt\n        /* \"#utility.yul\":4442:4498   */\n      iszero\n      tag_411\n      jumpi\n        /* \"#utility.yul\":4478:4496   */\n      tag_412\n      tag_297\n      jump\t// in\n    tag_412:\n        /* \"#utility.yul\":4442:4498   */\n    tag_411:\n        /* \"#utility.yul\":4528:4532   */\n      0x20\n        /* \"#utility.yul\":4520:4526   */\n      dup3\n        /* \"#utility.yul\":4516:4533   */\n      mul\n        /* \"#utility.yul\":4508:4533   */\n      swap1\n      pop\n        /* \"#utility.yul\":4588:4592   */\n      0x20\n        /* \"#utility.yul\":4582:4586   */\n      dup2\n        /* \"#utility.yul\":4578:4593   */\n      add\n        /* \"#utility.yul\":4570:4593   */\n      swap1\n      pop\n        /* \"#utility.yul\":4289:4600   */\n      swap2\n      swap1\n      pop\n      jump\t// out\n        /* \"#utility.yul\":4623:5333   */\n    tag_305:\n        /* \"#utility.yul\":4719:4724   */\n      0x00\n        /* \"#utility.yul\":4744:4825   */\n      tag_414\n        /* \"#utility.yul\":4760:4824   */\n      tag_415\n        /* \"#utility.yul\":4817:4823   */\n      dup5\n        /* \"#utility.yul\":4760:4824   */\n      tag_304\n      jump\t// in\n    tag_415:\n        /* \"#utility.yul\":4744:4825   */\n      tag_299\n      jump\t// in\n    tag_414:\n        /* \"#utility.yul\":4735:4825   */\n      swap1\n      pop\n        /* \"#utility.yul\":4845:4850   */\n      dup1\n        /* \"#utility.yul\":4874:4880   */\n      dup4\n        /* \"#utility.yul\":4867:4872   */\n      dup3\n        /* \"#utility.yul\":4860:4881   */\n      mstore\n        /* \"#utility.yul\":4908:4912   */\n      0x20\n        /* \"#utility.yul\":4901:4906   */\n      dup3\n        /* \"#utility.yul\":4897:4913   */\n      add\n        /* \"#utility.yul\":4890:4913   */\n      swap1\n      pop\n        /* \"#utility.yul\":4961:4965   */\n      0x20\n        /* \"#utility.yul\":4953:4959   */\n      dup5\n        /* \"#utility.yul\":4949:4966   */\n      mul\n        /* \"#utility.yul\":4941:4947   */\n      dup4\n        /* \"#utility.yul\":4937:4967   */\n      add\n        /* \"#utility.yul\":4990:4993   */\n      dup6\n        /* \"#utility.yul\":4982:4988   */\n      dup2\n        /* \"#utility.yul\":4979:4994   */\n      gt\n        /* \"#utility.yul\":4976:5098   */\n      iszero\n      tag_416\n      jumpi\n        /* \"#utility.yul\":5009:5088   */\n      tag_417\n      tag_301\n      jump\t// in\n    tag_417:\n        /* \"#utility.yul\":4976:5098   */\n    tag_416:\n        /* \"#utility.yul\":5124:5130   */\n      dup4\n        /* \"#utility.yul\":5107:5327   */\n    tag_418:\n        /* \"#utility.yul\":5141:5147   */\n      dup2\n        /* \"#utility.yul\":5136:5139   */\n      dup2\n        /* \"#utility.yul\":5133:5148   */\n      lt\n        /* \"#utility.yul\":5107:5327   */\n      iszero\n      tag_420\n      jumpi\n        /* \"#utility.yul\":5216:5219   */\n      dup1\n        /* \"#utility.yul\":5245:5282   */\n      tag_421\n        /* \"#utility.yul\":5278:5281   */\n      dup9\n        /* \"#utility.yul\":5266:5276   */\n      dup3\n        /* \"#utility.yul\":5245:5282   */\n      tag_289\n      jump\t// in\n    tag_421:\n        /* \"#utility.yul\":5240:5243   */\n      dup5\n        /* \"#utility.yul\":5233:5283   */\n      mstore\n        /* \"#utility.yul\":5312:5316   */\n      0x20\n        /* \"#utility.yul\":5307:5310   */\n      dup5\n        /* \"#utility.yul\":5303:5317   */\n      add\n        /* \"#utility.yul\":5296:5317   */\n      swap4\n      pop\n        /* \"#utility.yul\":5183:5327   */\n      pop\n        /* \"#utility.yul\":5167:5171   */\n      0x20\n        /* \"#utility.yul\":5162:5165   */\n      dup2\n        /* \"#utility.yul\":5158:5172   */\n      add\n        /* \"#utility.yul\":5151:5172   */\n      swap1\n      pop\n        /* \"#utility.yul\":5107:5327   */\n      jump(tag_418)\n    tag_420:\n        /* \"#utility.yul\":5111:5132   */\n      pop\n        /* \"#utility.yul\":4725:5333   */\n      pop\n      pop\n        /* \"#utility.yul\":4623:5333   */\n      swap4\n      swap3\n      pop\n      pop\n      pop\n      jump\t// out\n        /* \"#utility.yul\":5356:5726   */\n    tag_306:\n        /* \"#utility.yul\":5427:5432   */\n      0x00\n        /* \"#utility.yul\":5476:5479   */\n      dup3\n        /* \"#utility.yul\":5469:5473   */\n      0x1f\n        /* \"#utility.yul\":5461:5467   */\n      dup4\n        /* \"#utility.yul\":5457:5474   */\n      add\n        /* \"#utility.yul\":5453:5480   */\n      slt\n        /* \"#utility.yul\":5443:5565   */\n      tag_423\n      jumpi\n        /* \"#utility.yul\":5484:5563   */\n      tag_424\n      tag_295\n      jump\t// in\n    tag_424:\n        /* \"#utility.yul\":5443:5565   */\n    tag_423:\n        /* \"#utility.yul\":5601:5607   */\n      dup2\n        /* \"#utility.yul\":5588:5608   */\n      calldataload\n        /* \"#utility.yul\":5626:5720   */\n      tag_425\n        /* \"#utility.yul\":5716:5719   */\n      dup5\n        /* \"#utility.yul\":5708:5714   */\n      dup3\n        /* \"#utility.yul\":5701:5705   */\n      0x20\n        /* \"#utility.yul\":5693:5699   */\n      dup7\n        /* \"#utility.yul\":5689:5706   */\n      add\n        /* \"#utility.yul\":5626:5720   */\n      tag_305\n      jump\t// in\n    tag_425:\n        /* \"#utility.yul\":5617:5720   */\n      swap2\n      pop\n        /* \"#utility.yul\":5433:5726   */\n      pop\n        /* \"#utility.yul\":5356:5726   */\n      swap3\n      swap2\n      pop\n      pop\n      jump\t// out\n        /* \"#utility.yul\":5732:5849   */\n    tag_307:\n        /* \"#utility.yul\":5841:5842   */\n      0x00\n        /* \"#utility.yul\":5838:5839   */\n      dup1\n        /* \"#utility.yul\":5831:5843   */\n      revert\n        /* \"#utility.yul\":6020:7296   */\n    tag_309:\n        /* \"#utility.yul\":6098:6103   */\n      0x00\n        /* \"#utility.yul\":6142:6146   */\n      0xc0\n        /* \"#utility.yul\":6130:6139   */\n      dup3\n        /* \"#utility.yul\":6125:6128   */\n      dup5\n        /* \"#utility.yul\":6121:6140   */\n      sub\n        /* \"#utility.yul\":6117:6147   */\n      slt\n        /* \"#utility.yul\":6114:6231   */\n      iszero\n      tag_429\n      jumpi\n        /* \"#utility.yul\":6150:6229   */\n      tag_430\n      tag_307\n      jump\t// in\n    tag_430:\n        /* \"#utility.yul\":6114:6231   */\n    tag_429:\n        /* \"#utility.yul\":6249:6270   */\n      tag_431\n        /* \"#utility.yul\":6265:6269   */\n      0xc0\n        /* \"#utility.yul\":6249:6270   */\n      tag_299\n      jump\t// in\n    tag_431:\n        /* \"#utility.yul\":6240:6270   */\n      swap1\n      pop\n        /* \"#utility.yul\":6337:6338   */\n      0x00\n        /* \"#utility.yul\":6377:6426   */\n      tag_432\n        /* \"#utility.yul\":6422:6425   */\n      dup5\n        /* \"#utility.yul\":6413:6419   */\n      dup3\n        /* \"#utility.yul\":6402:6411   */\n      dup6\n        /* \"#utility.yul\":6398:6420   */\n      add\n        /* \"#utility.yul\":6377:6426   */\n      tag_289\n      jump\t// in\n    tag_432:\n        /* \"#utility.yul\":6370:6374   */\n      0x00\n        /* \"#utility.yul\":6363:6368   */\n      dup4\n        /* \"#utility.yul\":6359:6375   */\n      add\n        /* \"#utility.yul\":6352:6427   */\n      mstore\n        /* \"#utility.yul\":6280:6438   */\n      pop\n        /* \"#utility.yul\":6506:6508   */\n      0x20\n        /* \"#utility.yul\":6547:6596   */\n      tag_433\n        /* \"#utility.yul\":6592:6595   */\n      dup5\n        /* \"#utility.yul\":6583:6589   */\n      dup3\n        /* \"#utility.yul\":6572:6581   */\n      dup6\n        /* \"#utility.yul\":6568:6590   */\n      add\n        /* \"#utility.yul\":6547:6596   */\n      tag_289\n      jump\t// in\n    tag_433:\n        /* \"#utility.yul\":6540:6544   */\n      0x20\n        /* \"#utility.yul\":6533:6538   */\n      dup4\n        /* \"#utility.yul\":6529:6545   */\n      add\n        /* \"#utility.yul\":6522:6597   */\n      mstore\n        /* \"#utility.yul\":6448:6608   */\n      pop\n        /* \"#utility.yul\":6675:6677   */\n      0x40\n        /* \"#utility.yul\":6716:6765   */\n      tag_434\n        /* \"#utility.yul\":6761:6764   */\n      dup5\n        /* \"#utility.yul\":6752:6758   */\n      dup3\n        /* \"#utility.yul\":6741:6750   */\n      dup6\n        /* \"#utility.yul\":6737:6759   */\n      add\n        /* \"#utility.yul\":6716:6765   */\n      tag_289\n      jump\t// in\n    tag_434:\n        /* \"#utility.yul\":6709:6713   */\n      0x40\n        /* \"#utility.yul\":6702:6707   */\n      dup4\n        /* \"#utility.yul\":6698:6714   */\n      add\n        /* \"#utility.yul\":6691:6766   */\n      mstore\n        /* \"#utility.yul\":6618:6777   */\n      pop\n        /* \"#utility.yul\":6844:6846   */\n      0x60\n        /* \"#utility.yul\":6885:6934   */\n      tag_435\n        /* \"#utility.yul\":6930:6933   */\n      dup5\n        /* \"#utility.yul\":6921:6927   */\n      dup3\n        /* \"#utility.yul\":6910:6919   */\n      dup6\n        /* \"#utility.yul\":6906:6928   */\n      add\n        /* \"#utility.yul\":6885:6934   */\n      tag_289\n      jump\t// in\n    tag_435:\n        /* \"#utility.yul\":6878:6882   */\n      0x60\n        /* \"#utility.yul\":6871:6876   */\n      dup4\n        /* \"#utility.yul\":6867:6883   */\n      add\n        /* \"#utility.yul\":6860:6935   */\n      mstore\n        /* \"#utility.yul\":6787:6946   */\n      pop\n        /* \"#utility.yul\":7013:7016   */\n      0x80\n        /* \"#utility.yul\":7055:7104   */\n      tag_436\n        /* \"#utility.yul\":7100:7103   */\n      dup5\n        /* \"#utility.yul\":7091:7097   */\n      dup3\n        /* \"#utility.yul\":7080:7089   */\n      dup6\n        /* \"#utility.yul\":7076:7098   */\n      add\n        /* \"#utility.yul\":7055:7104   */\n      tag_294\n      jump\t// in\n    tag_436:\n        /* \"#utility.yul\":7048:7052   */\n      0x80\n        /* \"#utility.yul\":7041:7046   */\n      dup4\n        /* \"#utility.yul\":7037:7053   */\n      add\n        /* \"#utility.yul\":7030:7105   */\n      mstore\n        /* \"#utility.yul\":6956:7116   */\n      pop\n        /* \"#utility.yul\":7186:7189   */\n      0xa0\n        /* \"#utility.yul\":7228:7277   */\n      tag_437\n        /* \"#utility.yul\":7273:7276   */\n      dup5\n        /* \"#utility.yul\":7264:7270   */\n      dup3\n        /* \"#utility.yul\":7253:7262   */\n      dup6\n        /* \"#utility.yul\":7249:7271   */\n      add\n        /* \"#utility.yul\":7228:7277   */\n      tag_289\n      jump\t// in\n    tag_437:\n        /* \"#utility.yul\":7221:7225   */\n      0xa0\n        /* \"#utility.yul\":7214:7219   */\n      dup4\n        /* \"#utility.yul\":7210:7226   */\n      add\n        /* \"#utility.yul\":7203:7278   */\n      mstore\n        /* \"#utility.yul\":7126:7289   */\n      pop\n        /* \"#utility.yul\":6020:7296   */\n      swap3\n      swap2\n      pop\n      pop\n      jump\t// out\n        /* \"#utility.yul\":7302:8691   */\n    tag_33:\n        /* \"#utility.yul\":7476:7482   */\n      0x00\n        /* \"#utility.yul\":7484:7490   */\n      dup1\n        /* \"#utility.yul\":7492:7498   */\n      0x00\n        /* \"#utility.yul\":7500:7506   */\n      dup1\n        /* \"#utility.yul\":7508:7514   */\n      0x00\n        /* \"#utility.yul\":7557:7560   */\n      0x0140\n        /* \"#utility.yul\":7545:7554   */\n      dup7\n        /* \"#utility.yul\":7536:7543   */\n      dup9\n        /* \"#utility.yul\":7532:7555   */\n      sub\n        /* \"#utility.yul\":7528:7561   */\n      slt\n        /* \"#utility.yul\":7525:7645   */\n      iszero\n      tag_439\n      jumpi\n        /* \"#utility.yul\":7564:7643   */\n      tag_440\n      tag_285\n      jump\t// in\n    tag_440:\n        /* \"#utility.yul\":7525:7645   */\n    tag_439:\n        /* \"#utility.yul\":7684:7685   */\n      0x00\n        /* \"#utility.yul\":7709:7762   */\n      tag_441\n        /* \"#utility.yul\":7754:7761   */\n      dup9\n        /* \"#utility.yul\":7745:7751   */\n      dup3\n        /* \"#utility.yul\":7734:7743   */\n      dup10\n        /* \"#utility.yul\":7730:7752   */\n      add\n        /* \"#utility.yul\":7709:7762   */\n      tag_294\n      jump\t// in\n    tag_441:\n        /* \"#utility.yul\":7699:7762   */\n      swap6\n      pop\n        /* \"#utility.yul\":7655:7772   */\n      pop\n        /* \"#utility.yul\":7811:7813   */\n      0x20\n        /* \"#utility.yul\":7837:7890   */\n      tag_442\n        /* \"#utility.yul\":7882:7889   */\n      dup9\n        /* \"#utility.yul\":7873:7879   */\n      dup3\n        /* \"#utility.yul\":7862:7871   */\n      dup10\n        /* \"#utility.yul\":7858:7880   */\n      add\n        /* \"#utility.yul\":7837:7890   */\n      tag_294\n      jump\t// in\n    tag_442:\n        /* \"#utility.yul\":7827:7890   */\n      swap5\n      pop\n        /* \"#utility.yul\":7782:7900   */\n      pop\n        /* \"#utility.yul\":7967:7969   */\n      0x40\n        /* \"#utility.yul\":7956:7965   */\n      dup7\n        /* \"#utility.yul\":7952:7970   */\n      add\n        /* \"#utility.yul\":7939:7971   */\n      calldataload\n        /* \"#utility.yul\":7998:8016   */\n      0xffffffffffffffff\n        /* \"#utility.yul\":7990:7996   */\n      dup2\n        /* \"#utility.yul\":7987:8017   */\n      gt\n        /* \"#utility.yul\":7984:8101   */\n      iszero\n      tag_443\n      jumpi\n        /* \"#utility.yul\":8020:8099   */\n      tag_444\n      tag_286\n      jump\t// in\n    tag_444:\n        /* \"#utility.yul\":7984:8101   */\n    tag_443:\n        /* \"#utility.yul\":8125:8203   */\n      tag_445\n        /* \"#utility.yul\":8195:8202   */\n      dup9\n        /* \"#utility.yul\":8186:8192   */\n      dup3\n        /* \"#utility.yul\":8175:8184   */\n      dup10\n        /* \"#utility.yul\":8171:8193   */\n      add\n        /* \"#utility.yul\":8125:8203   */\n      tag_303\n      jump\t// in\n    tag_445:\n        /* \"#utility.yul\":8115:8203   */\n      swap4\n      pop\n        /* \"#utility.yul\":7910:8213   */\n      pop\n        /* \"#utility.yul\":8280:8282   */\n      0x60\n        /* \"#utility.yul\":8269:8278   */\n      dup7\n        /* \"#utility.yul\":8265:8283   */\n      add\n        /* \"#utility.yul\":8252:8284   */\n      calldataload\n        /* \"#utility.yul\":8311:8329   */\n      0xffffffffffffffff\n        /* \"#utility.yul\":8303:8309   */\n      dup2\n        /* \"#utility.yul\":8300:8330   */\n      gt\n        /* \"#utility.yul\":8297:8414   */\n      iszero\n      tag_446\n      jumpi\n        /* \"#utility.yul\":8333:8412   */\n      tag_447\n      tag_286\n      jump\t// in\n    tag_447:\n        /* \"#utility.yul\":8297:8414   */\n    tag_446:\n        /* \"#utility.yul\":8438:8516   */\n      tag_448\n        /* \"#utility.yul\":8508:8515   */\n      dup9\n        /* \"#utility.yul\":8499:8505   */\n      dup3\n        /* \"#utility.yul\":8488:8497   */\n      dup10\n        /* \"#utility.yul\":8484:8506   */\n      add\n        /* \"#utility.yul\":8438:8516   */\n      tag_306\n      jump\t// in\n    tag_448:\n        /* \"#utility.yul\":8428:8516   */\n      swap3\n      pop\n        /* \"#utility.yul\":8223:8526   */\n      pop\n        /* \"#utility.yul\":8565:8568   */\n      0x80\n        /* \"#utility.yul\":8592:8674   */\n      tag_449\n        /* \"#utility.yul\":8666:8673   */\n      dup9\n        /* \"#utility.yul\":8657:8663   */\n      dup3\n        /* \"#utility.yul\":8646:8655   */\n      dup10\n        /* \"#utility.yul\":8642:8664   */\n      add\n        /* \"#utility.yul\":8592:8674   */\n      tag_309\n      jump\t// in\n    tag_449:\n        /* \"#utility.yul\":8582:8674   */\n      swap2\n      pop\n        /* \"#utility.yul\":8536:8684   */\n      pop\n        /* \"#utility.yul\":7302:8691   */\n      swap3\n      swap6\n      pop\n      swap3\n      swap6\n      swap1\n      swap4\n      pop\n      jump\t// out\n        /* \"#utility.yul\":8697:8815   */\n    tag_310:\n        /* \"#utility.yul\":8784:8808   */\n      tag_451\n        /* \"#utility.yul\":8802:8807   */\n      dup2\n        /* \"#utility.yul\":8784:8808   */\n      tag_287\n      jump\t// in\n    tag_451:\n        /* \"#utility.yul\":8779:8782   */\n      dup3\n        /* \"#utility.yul\":8772:8809   */\n      mstore\n        /* \"#utility.yul\":8697:8815   */\n      pop\n      pop\n      jump\t// out\n        /* \"#utility.yul\":8821:9043   */\n    tag_39:\n        /* \"#utility.yul\":8914:8918   */\n      0x00\n        /* \"#utility.yul\":8952:8954   */\n      0x20\n        /* \"#utility.yul\":8941:8950   */\n      dup3\n        /* \"#utility.yul\":8937:8955   */\n      add\n        /* \"#utility.yul\":8929:8955   */\n      swap1\n      pop\n        /* \"#utility.yul\":8965:9036   */\n      tag_453\n        /* \"#utility.yul\":9033:9034   */\n      0x00\n        /* \"#utility.yul\":9022:9031   */\n      dup4\n        /* \"#utility.yul\":9018:9035   */\n      add\n        /* \"#utility.yul\":9009:9015   */\n      dup5\n        /* \"#utility.yul\":8965:9036   */\n      tag_310\n      jump\t// in\n    tag_453:\n        /* \"#utility.yul\":8821:9043   */\n      swap3\n      swap2\n      pop\n      pop\n      jump\t// out\n        /* \"#utility.yul\":9049:9163   */\n    tag_311:\n        /* \"#utility.yul\":9116:9122   */\n      0x00\n        /* \"#utility.yul\":9150:9155   */\n      dup2\n        /* \"#utility.yul\":9144:9156   */\n      mload\n        /* \"#utility.yul\":9134:9156   */\n      swap1\n      pop\n        /* \"#utility.yul\":9049:9163   */\n      swap2\n      swap1\n      pop\n      jump\t// out\n        /* \"#utility.yul\":9169:9353   */\n    tag_312:\n        /* \"#utility.yul\":9268:9279   */\n      0x00\n        /* \"#utility.yul\":9302:9308   */\n      dup3\n        /* \"#utility.yul\":9297:9300   */\n      dup3\n        /* \"#utility.yul\":9290:9309   */\n      mstore\n        /* \"#utility.yul\":9342:9346   */\n      0x20\n        /* \"#utility.yul\":9337:9340   */\n      dup3\n        /* \"#utility.yul\":9333:9347   */\n      add\n        /* \"#utility.yul\":9318:9347   */\n      swap1\n      pop\n        /* \"#utility.yul\":9169:9353   */\n      swap3\n      swap2\n      pop\n      pop\n      jump\t// out\n        /* \"#utility.yul\":9359:9491   */\n    tag_313:\n        /* \"#utility.yul\":9426:9430   */\n      0x00\n        /* \"#utility.yul\":9449:9452   */\n      dup2\n        /* \"#utility.yul\":9441:9452   */\n      swap1\n      pop\n        /* \"#utility.yul\":9479:9483   */\n      0x20\n        /* \"#utility.yul\":9474:9477   */\n      dup3\n        /* \"#utility.yul\":9470:9484   */\n      add\n        /* \"#utility.yul\":9462:9484   */\n      swap1\n      pop\n        /* \"#utility.yul\":9359:9491   */\n      swap2\n      swap1\n      pop\n      jump\t// out\n        /* \"#utility.yul\":9497:9605   */\n    tag_314:\n        /* \"#utility.yul\":9574:9598   */\n      tag_458\n        /* \"#utility.yul\":9592:9597   */\n      dup2\n        /* \"#utility.yul\":9574:9598   */\n      tag_291\n      jump\t// in\n    tag_458:\n        /* \"#utility.yul\":9569:9572   */\n      dup3\n        /* \"#utility.yul\":9562:9599   */\n      mstore\n        /* \"#utility.yul\":9497:9605   */\n      pop\n      pop\n      jump\t// out\n        /* \"#utility.yul\":9611:9790   */\n    tag_315:\n        /* \"#utility.yul\":9680:9690   */\n      0x00\n        /* \"#utility.yul\":9701:9747   */\n      tag_460\n        /* \"#utility.yul\":9743:9746   */\n      dup4\n        /* \"#utility.yul\":9735:9741   */\n      dup4\n        /* \"#utility.yul\":9701:9747   */\n      tag_314\n      jump\t// in\n    tag_460:\n        /* \"#utility.yul\":9779:9783   */\n      0x20\n        /* \"#utility.yul\":9774:9777   */\n      dup4\n        /* \"#utility.yul\":9770:9784   */\n      add\n        /* \"#utility.yul\":9756:9784   */\n      swap1\n      pop\n        /* \"#utility.yul\":9611:9790   */\n      swap3\n      swap2\n      pop\n      pop\n      jump\t// out\n        /* \"#utility.yul\":9796:9909   */\n    tag_316:\n        /* \"#utility.yul\":9866:9870   */\n      0x00\n        /* \"#utility.yul\":9898:9902   */\n      0x20\n        /* \"#utility.yul\":9893:9896   */\n      dup3\n        /* \"#utility.yul\":9889:9903   */\n      add\n        /* \"#utility.yul\":9881:9903   */\n      swap1\n      pop\n        /* \"#utility.yul\":9796:9909   */\n      swap2\n      swap1\n      pop\n      jump\t// out\n        /* \"#utility.yul\":9945:10677   */\n    tag_317:\n        /* \"#utility.yul\":10064:10067   */\n      0x00\n        /* \"#utility.yul\":10093:10147   */\n      tag_463\n        /* \"#utility.yul\":10141:10146   */\n      dup3\n        /* \"#utility.yul\":10093:10147   */\n      tag_311\n      jump\t// in\n    tag_463:\n        /* \"#utility.yul\":10163:10249   */\n      tag_464\n        /* \"#utility.yul\":10242:10248   */\n      dup2\n        /* \"#utility.yul\":10237:10240   */\n      dup6\n        /* \"#utility.yul\":10163:10249   */\n      tag_312\n      jump\t// in\n    tag_464:\n        /* \"#utility.yul\":10156:10249   */\n      swap4\n      pop\n        /* \"#utility.yul\":10273:10329   */\n      tag_465\n        /* \"#utility.yul\":10323:10328   */\n      dup4\n        /* \"#utility.yul\":10273:10329   */\n      tag_313\n      jump\t// in\n    tag_465:\n        /* \"#utility.yul\":10352:10359   */\n      dup1\n        /* \"#utility.yul\":10383:10384   */\n      0x00\n        /* \"#utility.yul\":10368:10652   */\n    tag_466:\n        /* \"#utility.yul\":10393:10399   */\n      dup4\n        /* \"#utility.yul\":10390:10391   */\n      dup2\n        /* \"#utility.yul\":10387:10400   */\n      lt\n        /* \"#utility.yul\":10368:10652   */\n      iszero\n      tag_468\n      jumpi\n        /* \"#utility.yul\":10469:10475   */\n      dup2\n        /* \"#utility.yul\":10463:10476   */\n      mload\n        /* \"#utility.yul\":10496:10559   */\n      tag_469\n        /* \"#utility.yul\":10555:10558   */\n      dup9\n        /* \"#utility.yul\":10540:10553   */\n      dup3\n        /* \"#utility.yul\":10496:10559   */\n      tag_315\n      jump\t// in\n    tag_469:\n        /* \"#utility.yul\":10489:10559   */\n      swap8\n      pop\n        /* \"#utility.yul\":10582:10642   */\n      tag_470\n        /* \"#utility.yul\":10635:10641   */\n      dup4\n        /* \"#utility.yul\":10582:10642   */\n      tag_316\n      jump\t// in\n    tag_470:\n        /* \"#utility.yul\":10572:10642   */\n      swap3\n      pop\n        /* \"#utility.yul\":10428:10652   */\n      pop\n        /* \"#utility.yul\":10415:10416   */\n      0x01\n        /* \"#utility.yul\":10412:10413   */\n      dup2\n        /* \"#utility.yul\":10408:10417   */\n      add\n        /* \"#utility.yul\":10403:10417   */\n      swap1\n      pop\n        /* \"#utility.yul\":10368:10652   */\n      jump(tag_466)\n    tag_468:\n        /* \"#utility.yul\":10372:10386   */\n      pop\n        /* \"#utility.yul\":10668:10671   */\n      dup6\n        /* \"#utility.yul\":10661:10671   */\n      swap4\n      pop\n        /* \"#utility.yul\":10069:10677   */\n      pop\n      pop\n      pop\n        /* \"#utility.yul\":9945:10677   */\n      swap3\n      swap2\n      pop\n      pop\n      jump\t// out\n        /* \"#utility.yul\":10683:10797   */\n    tag_318:\n        /* \"#utility.yul\":10750:10756   */\n      0x00\n        /* \"#utility.yul\":10784:10789   */\n      dup2\n        /* \"#utility.yul\":10778:10790   */\n      mload\n        /* \"#utility.yul\":10768:10790   */\n      swap1\n      pop\n        /* \"#utility.yul\":10683:10797   */\n      swap2\n      swap1\n      pop\n      jump\t// out\n        /* \"#utility.yul\":10803:10987   */\n    tag_319:\n        /* \"#utility.yul\":10902:10913   */\n      0x00\n        /* \"#utility.yul\":10936:10942   */\n      dup3\n        /* \"#utility.yul\":10931:10934   */\n      dup3\n        /* \"#utility.yul\":10924:10943   */\n      mstore\n        /* \"#utility.yul\":10976:10980   */\n      0x20\n        /* \"#utility.yul\":10971:10974   */\n      dup3\n        /* \"#utility.yul\":10967:10981   */\n      add\n        /* \"#utility.yul\":10952:10981   */\n      swap1\n      pop\n        /* \"#utility.yul\":10803:10987   */\n      swap3\n      swap2\n      pop\n      pop\n      jump\t// out\n        /* \"#utility.yul\":10993:11125   */\n    tag_320:\n        /* \"#utility.yul\":11060:11064   */\n      0x00\n        /* \"#utility.yul\":11083:11086   */\n      dup2\n        /* \"#utility.yul\":11075:11086   */\n      swap1\n      pop\n        /* \"#utility.yul\":11113:11117   */\n      0x20\n        /* \"#utility.yul\":11108:11111   */\n      dup3\n        /* \"#utility.yul\":11104:11118   */\n      add\n        /* \"#utility.yul\":11096:11118   */\n      swap1\n      pop\n        /* \"#utility.yul\":10993:11125   */\n      swap2\n      swap1\n      pop\n      jump\t// out\n        /* \"#utility.yul\":11131:11239   */\n    tag_321:\n        /* \"#utility.yul\":11208:11232   */\n      tag_475\n        /* \"#utility.yul\":11226:11231   */\n      dup2\n        /* \"#utility.yul\":11208:11232   */\n      tag_287\n      jump\t// in\n    tag_475:\n        /* \"#utility.yul\":11203:11206   */\n      dup3\n        /* \"#utility.yul\":11196:11233   */\n      mstore\n        /* \"#utility.yul\":11131:11239   */\n      pop\n      pop\n      jump\t// out\n        /* \"#utility.yul\":11245:11424   */\n    tag_322:\n        /* \"#utility.yul\":11314:11324   */\n      0x00\n        /* \"#utility.yul\":11335:11381   */\n      tag_477\n        /* \"#utility.yul\":11377:11380   */\n      dup4\n        /* \"#utility.yul\":11369:11375   */\n      dup4\n        /* \"#utility.yul\":11335:11381   */\n      tag_321\n      jump\t// in\n    tag_477:\n        /* \"#utility.yul\":11413:11417   */\n      0x20\n        /* \"#utility.yul\":11408:11411   */\n      dup4\n        /* \"#utility.yul\":11404:11418   */\n      add\n        /* \"#utility.yul\":11390:11418   */\n      swap1\n      pop\n        /* \"#utility.yul\":11245:11424   */\n      swap3\n      swap2\n      pop\n      pop\n      jump\t// out\n        /* \"#utility.yul\":11430:11543   */\n    tag_323:\n        /* \"#utility.yul\":11500:11504   */\n      0x00\n        /* \"#utility.yul\":11532:11536   */\n      0x20\n        /* \"#utility.yul\":11527:11530   */\n      dup3\n        /* \"#utility.yul\":11523:11537   */\n      add\n        /* \"#utility.yul\":11515:11537   */\n      swap1\n      pop\n        /* \"#utility.yul\":11430:11543   */\n      swap2\n      swap1\n      pop\n      jump\t// out\n        /* \"#utility.yul\":11579:12311   */\n    tag_324:\n        /* \"#utility.yul\":11698:11701   */\n      0x00\n        /* \"#utility.yul\":11727:11781   */\n      tag_480\n        /* \"#utility.yul\":11775:11780   */\n      dup3\n        /* \"#utility.yul\":11727:11781   */\n      tag_318\n      jump\t// in\n    tag_480:\n        /* \"#utility.yul\":11797:11883   */\n      tag_481\n        /* \"#utility.yul\":11876:11882   */\n      dup2\n        /* \"#utility.yul\":11871:11874   */\n      dup6\n        /* \"#utility.yul\":11797:11883   */\n      tag_319\n      jump\t// in\n    tag_481:\n        /* \"#utility.yul\":11790:11883   */\n      swap4\n      pop\n        /* \"#utility.yul\":11907:11963   */\n      tag_482\n        /* \"#utility.yul\":11957:11962   */\n      dup4\n        /* \"#utility.yul\":11907:11963   */\n      tag_320\n      jump\t// in\n    tag_482:\n        /* \"#utility.yul\":11986:11993   */\n      dup1\n        /* \"#utility.yul\":12017:12018   */\n      0x00\n        /* \"#utility.yul\":12002:12286   */\n    tag_483:\n        /* \"#utility.yul\":12027:12033   */\n      dup4\n        /* \"#utility.yul\":12024:12025   */\n      dup2\n        /* \"#utility.yul\":12021:12034   */\n      lt\n        /* \"#utility.yul\":12002:12286   */\n      iszero\n      tag_485\n      jumpi\n        /* \"#utility.yul\":12103:12109   */\n      dup2\n        /* \"#utility.yul\":12097:12110   */\n      mload\n        /* \"#utility.yul\":12130:12193   */\n      tag_486\n        /* \"#utility.yul\":12189:12192   */\n      dup9\n        /* \"#utility.yul\":12174:12187   */\n      dup3\n        /* \"#utility.yul\":12130:12193   */\n      tag_322\n      jump\t// in\n    tag_486:\n        /* \"#utility.yul\":12123:12193   */\n      swap8\n      pop\n        /* \"#utility.yul\":12216:12276   */\n      tag_487\n        /* \"#utility.yul\":12269:12275   */\n      dup4\n        /* \"#utility.yul\":12216:12276   */\n      tag_323\n      jump\t// in\n    tag_487:\n        /* \"#utility.yul\":12206:12276   */\n      swap3\n      pop\n        /* \"#utility.yul\":12062:12286   */\n      pop\n        /* \"#utility.yul\":12049:12050   */\n      0x01\n        /* \"#utility.yul\":12046:12047   */\n      dup2\n        /* \"#utility.yul\":12042:12051   */\n      add\n        /* \"#utility.yul\":12037:12051   */\n      swap1\n      pop\n        /* \"#utility.yul\":12002:12286   */\n      jump(tag_483)\n    tag_485:\n        /* \"#utility.yul\":12006:12020   */\n      pop\n        /* \"#utility.yul\":12302:12305   */\n      dup6\n        /* \"#utility.yul\":12295:12305   */\n      swap4\n      pop\n        /* \"#utility.yul\":11703:12311   */\n      pop\n      pop\n      pop\n        /* \"#utility.yul\":11579:12311   */\n      swap3\n      swap2\n      pop\n      pop\n      jump\t// out\n        /* \"#utility.yul\":12317:12951   */\n    tag_56:\n        /* \"#utility.yul\":12538:12542   */\n      0x00\n        /* \"#utility.yul\":12576:12578   */\n      0x40\n        /* \"#utility.yul\":12565:12574   */\n      dup3\n        /* \"#utility.yul\":12561:12579   */\n      add\n        /* \"#utility.yul\":12553:12579   */\n      swap1\n      pop\n        /* \"#utility.yul\":12625:12634   */\n      dup2\n        /* \"#utility.yul\":12619:12623   */\n      dup2\n        /* \"#utility.yul\":12615:12635   */\n      sub\n        /* \"#utility.yul\":12611:12612   */\n      0x00\n        /* \"#utility.yul\":12600:12609   */\n      dup4\n        /* \"#utility.yul\":12596:12613   */\n      add\n        /* \"#utility.yul\":12589:12636   */\n      mstore\n        /* \"#utility.yul\":12653:12761   */\n      tag_489\n        /* \"#utility.yul\":12756:12760   */\n      dup2\n        /* \"#utility.yul\":12747:12753   */\n      dup6\n        /* \"#utility.yul\":12653:12761   */\n      tag_317\n      jump\t// in\n    tag_489:\n        /* \"#utility.yul\":12645:12761   */\n      swap1\n      pop\n        /* \"#utility.yul\":12808:12817   */\n      dup2\n        /* \"#utility.yul\":12802:12806   */\n      dup2\n        /* \"#utility.yul\":12798:12818   */\n      sub\n        /* \"#utility.yul\":12793:12795   */\n      0x20\n        /* \"#utility.yul\":12782:12791   */\n      dup4\n        /* \"#utility.yul\":12778:12796   */\n      add\n        /* \"#utility.yul\":12771:12819   */\n      mstore\n        /* \"#utility.yul\":12836:12944   */\n      tag_490\n        /* \"#utility.yul\":12939:12943   */\n      dup2\n        /* \"#utility.yul\":12930:12936   */\n      dup5\n        /* \"#utility.yul\":12836:12944   */\n      tag_324\n      jump\t// in\n    tag_490:\n        /* \"#utility.yul\":12828:12944   */\n      swap1\n      pop\n        /* \"#utility.yul\":12317:12951   */\n      swap4\n      swap3\n      pop\n      pop\n      pop\n      jump\t// out\n        /* \"#utility.yul\":12957:13047   */\n    tag_325:\n        /* \"#utility.yul\":12991:12998   */\n      0x00\n        /* \"#utility.yul\":13034:13039   */\n      dup2\n        /* \"#utility.yul\":13027:13040   */\n      iszero\n        /* \"#utility.yul\":13020:13041   */\n      iszero\n        /* \"#utility.yul\":13009:13041   */\n      swap1\n      pop\n        /* \"#utility.yul\":12957:13047   */\n      swap2\n      swap1\n      pop\n      jump\t// out\n        /* \"#utility.yul\":13053:13162   */\n    tag_326:\n        /* \"#utility.yul\":13134:13155   */\n      tag_493\n        /* \"#utility.yul\":13149:13154   */\n      dup2\n        /* \"#utility.yul\":13134:13155   */\n      tag_325\n      jump\t// in\n    tag_493:\n        /* \"#utility.yul\":13129:13132   */\n      dup3\n        /* \"#utility.yul\":13122:13156   */\n      mstore\n        /* \"#utility.yul\":13053:13162   */\n      pop\n      pop\n      jump\t// out\n        /* \"#utility.yul\":13168:13378   */\n    tag_77:\n        /* \"#utility.yul\":13255:13259   */\n      0x00\n        /* \"#utility.yul\":13293:13295   */\n      0x20\n        /* \"#utility.yul\":13282:13291   */\n      dup3\n        /* \"#utility.yul\":13278:13296   */\n      add\n        /* \"#utility.yul\":13270:13296   */\n      swap1\n      pop\n        /* \"#utility.yul\":13306:13371   */\n      tag_495\n        /* \"#utility.yul\":13368:13369   */\n      0x00\n        /* \"#utility.yul\":13357:13366   */\n      dup4\n        /* \"#utility.yul\":13353:13370   */\n      add\n        /* \"#utility.yul\":13344:13350   */\n      dup5\n        /* \"#utility.yul\":13306:13371   */\n      tag_326\n      jump\t// in\n    tag_495:\n        /* \"#utility.yul\":13168:13378   */\n      swap3\n      swap2\n      pop\n      pop\n      jump\t// out\n        /* \"#utility.yul\":13384:14369   */\n    tag_86:\n        /* \"#utility.yul\":13667:13671   */\n      0x00\n        /* \"#utility.yul\":13705:13708   */\n      0x0100\n        /* \"#utility.yul\":13694:13703   */\n      dup3\n        /* \"#utility.yul\":13690:13709   */\n      add\n        /* \"#utility.yul\":13682:13709   */\n      swap1\n      pop\n        /* \"#utility.yul\":13719:13790   */\n      tag_497\n        /* \"#utility.yul\":13787:13788   */\n      0x00\n        /* \"#utility.yul\":13776:13785   */\n      dup4\n        /* \"#utility.yul\":13772:13789   */\n      add\n        /* \"#utility.yul\":13763:13769   */\n      dup12\n        /* \"#utility.yul\":13719:13790   */\n      tag_310\n      jump\t// in\n    tag_497:\n        /* \"#utility.yul\":13800:13872   */\n      tag_498\n        /* \"#utility.yul\":13868:13870   */\n      0x20\n        /* \"#utility.yul\":13857:13866   */\n      dup4\n        /* \"#utility.yul\":13853:13871   */\n      add\n        /* \"#utility.yul\":13844:13850   */\n      dup11\n        /* \"#utility.yul\":13800:13872   */\n      tag_310\n      jump\t// in\n    tag_498:\n        /* \"#utility.yul\":13882:13954   */\n      tag_499\n        /* \"#utility.yul\":13950:13952   */\n      0x40\n        /* \"#utility.yul\":13939:13948   */\n      dup4\n        /* \"#utility.yul\":13935:13953   */\n      add\n        /* \"#utility.yul\":13926:13932   */\n      dup10\n        /* \"#utility.yul\":13882:13954   */\n      tag_310\n      jump\t// in\n    tag_499:\n        /* \"#utility.yul\":13964:14036   */\n      tag_500\n        /* \"#utility.yul\":14032:14034   */\n      0x60\n        /* \"#utility.yul\":14021:14030   */\n      dup4\n        /* \"#utility.yul\":14017:14035   */\n      add\n        /* \"#utility.yul\":14008:14014   */\n      dup9\n        /* \"#utility.yul\":13964:14036   */\n      tag_310\n      jump\t// in\n    tag_500:\n        /* \"#utility.yul\":14046:14119   */\n      tag_501\n        /* \"#utility.yul\":14114:14117   */\n      0x80\n        /* \"#utility.yul\":14103:14112   */\n      dup4\n        /* \"#utility.yul\":14099:14118   */\n      add\n        /* \"#utility.yul\":14090:14096   */\n      dup8\n        /* \"#utility.yul\":14046:14119   */\n      tag_292\n      jump\t// in\n    tag_501:\n        /* \"#utility.yul\":14129:14202   */\n      tag_502\n        /* \"#utility.yul\":14197:14200   */\n      0xa0\n        /* \"#utility.yul\":14186:14195   */\n      dup4\n        /* \"#utility.yul\":14182:14201   */\n      add\n        /* \"#utility.yul\":14173:14179   */\n      dup7\n        /* \"#utility.yul\":14129:14202   */\n      tag_310\n      jump\t// in\n    tag_502:\n        /* \"#utility.yul\":14212:14279   */\n      tag_503\n        /* \"#utility.yul\":14274:14277   */\n      0xc0\n        /* \"#utility.yul\":14263:14272   */\n      dup4\n        /* \"#utility.yul\":14259:14278   */\n      add\n        /* \"#utility.yul\":14250:14256   */\n      dup6\n        /* \"#utility.yul\":14212:14279   */\n      tag_326\n      jump\t// in\n    tag_503:\n        /* \"#utility.yul\":14289:14362   */\n      tag_504\n        /* \"#utility.yul\":14357:14360   */\n      0xe0\n        /* \"#utility.yul\":14346:14355   */\n      dup4\n        /* \"#utility.yul\":14342:14361   */\n      add\n        /* \"#utility.yul\":14333:14339   */\n      dup5\n        /* \"#utility.yul\":14289:14362   */\n      tag_292\n      jump\t// in\n    tag_504:\n        /* \"#utility.yul\":13384:14369   */\n      swap10\n      swap9\n      pop\n      pop\n      pop\n      pop\n      pop\n      pop\n      pop\n      pop\n      pop\n      jump\t// out\n        /* \"#utility.yul\":14375:14544   */\n    tag_327:\n        /* \"#utility.yul\":14459:14470   */\n      0x00\n        /* \"#utility.yul\":14493:14499   */\n      dup3\n        /* \"#utility.yul\":14488:14491   */\n      dup3\n        /* \"#utility.yul\":14481:14500   */\n      mstore\n        /* \"#utility.yul\":14533:14537   */\n      0x20\n        /* \"#utility.yul\":14528:14531   */\n      dup3\n        /* \"#utility.yul\":14524:14538   */\n      add\n        /* \"#utility.yul\":14509:14538   */\n      swap1\n      pop\n        /* \"#utility.yul\":14375:14544   */\n      swap3\n      swap2\n      pop\n      pop\n      jump\t// out\n        /* \"#utility.yul\":14550:14783   */\n    tag_328:\n        /* \"#utility.yul\":14690:14724   */\n      0x496e697469616c697a61626c653a20636f6e747261637420697320616c726561\n        /* \"#utility.yul\":14686:14687   */\n      0x00\n        /* \"#utility.yul\":14678:14684   */\n      dup3\n        /* \"#utility.yul\":14674:14688   */\n      add\n        /* \"#utility.yul\":14667:14725   */\n      mstore\n        /* \"#utility.yul\":14759:14775   */\n      0x647920696e697469616c697a6564000000000000000000000000000000000000\n        /* \"#utility.yul\":14754:14756   */\n      0x20\n        /* \"#utility.yul\":14746:14752   */\n      dup3\n        /* \"#utility.yul\":14742:14757   */\n      add\n        /* \"#utility.yul\":14735:14776   */\n      mstore\n        /* \"#utility.yul\":14550:14783   */\n      pop\n      jump\t// out\n        /* \"#utility.yul\":14789:15155   */\n    tag_329:\n        /* \"#utility.yul\":14931:14934   */\n      0x00\n        /* \"#utility.yul\":14952:15019   */\n      tag_508\n        /* \"#utility.yul\":15016:15018   */\n      0x2e\n        /* \"#utility.yul\":15011:15014   */\n      dup4\n        /* \"#utility.yul\":14952:15019   */\n      tag_327\n      jump\t// in\n    tag_508:\n        /* \"#utility.yul\":14945:15019   */\n      swap2\n      pop\n        /* \"#utility.yul\":15028:15121   */\n      tag_509\n        /* \"#utility.yul\":15117:15120   */\n      dup3\n        /* \"#utility.yul\":15028:15121   */\n      tag_328\n      jump\t// in\n    tag_509:\n        /* \"#utility.yul\":15146:15148   */\n      0x40\n        /* \"#utility.yul\":15141:15144   */\n      dup3\n        /* \"#utility.yul\":15137:15149   */\n      add\n        /* \"#utility.yul\":15130:15149   */\n      swap1\n      pop\n        /* \"#utility.yul\":14789:15155   */\n      swap2\n      swap1\n      pop\n      jump\t// out\n        /* \"#utility.yul\":15161:15580   */\n    tag_100:\n        /* \"#utility.yul\":15327:15331   */\n      0x00\n        /* \"#utility.yul\":15365:15367   */\n      0x20\n        /* \"#utility.yul\":15354:15363   */\n      dup3\n        /* \"#utility.yul\":15350:15368   */\n      add\n        /* \"#utility.yul\":15342:15368   */\n      swap1\n      pop\n        /* \"#utility.yul\":15414:15423   */\n      dup2\n        /* \"#utility.yul\":15408:15412   */\n      dup2\n        /* \"#utility.yul\":15404:15424   */\n      sub\n        /* \"#utility.yul\":15400:15401   */\n      0x00\n        /* \"#utility.yul\":15389:15398   */\n      dup4\n        /* \"#utility.yul\":15385:15402   */\n      add\n        /* \"#utility.yul\":15378:15425   */\n      mstore\n        /* \"#utility.yul\":15442:15573   */\n      tag_511\n        /* \"#utility.yul\":15568:15572   */\n      dup2\n        /* \"#utility.yul\":15442:15573   */\n      tag_329\n      jump\t// in\n    tag_511:\n        /* \"#utility.yul\":15434:15573   */\n      swap1\n      pop\n        /* \"#utility.yul\":15161:15580   */\n      swap2\n      swap1\n      pop\n      jump\t// out\n        /* \"#utility.yul\":15586:15671   */\n    tag_330:\n        /* \"#utility.yul\":15631:15638   */\n      0x00\n        /* \"#utility.yul\":15660:15665   */\n      dup2\n        /* \"#utility.yul\":15649:15665   */\n      swap1\n      pop\n        /* \"#utility.yul\":15586:15671   */\n      swap2\n      swap1\n      pop\n      jump\t// out\n        /* \"#utility.yul\":15677:15763   */\n    tag_331:\n        /* \"#utility.yul\":15712:15719   */\n      0x00\n        /* \"#utility.yul\":15752:15756   */\n      0xff\n        /* \"#utility.yul\":15745:15750   */\n      dup3\n        /* \"#utility.yul\":15741:15757   */\n      and\n        /* \"#utility.yul\":15730:15757   */\n      swap1\n      pop\n        /* \"#utility.yul\":15677:15763   */\n      swap2\n      swap1\n      pop\n      jump\t// out\n        /* \"#utility.yul\":15769:15829   */\n    tag_332:\n        /* \"#utility.yul\":15797:15800   */\n      0x00\n        /* \"#utility.yul\":15818:15823   */\n      dup2\n        /* \"#utility.yul\":15811:15823   */\n      swap1\n      pop\n        /* \"#utility.yul\":15769:15829   */\n      swap2\n      swap1\n      pop\n      jump\t// out\n        /* \"#utility.yul\":15835:15989   */\n    tag_333:\n        /* \"#utility.yul\":15891:15900   */\n      0x00\n        /* \"#utility.yul\":15924:15983   */\n      tag_516\n        /* \"#utility.yul\":15940:15982   */\n      tag_517\n        /* \"#utility.yul\":15949:15981   */\n      tag_518\n        /* \"#utility.yul\":15975:15980   */\n      dup5\n        /* \"#utility.yul\":15949:15981   */\n      tag_330\n      jump\t// in\n    tag_518:\n        /* \"#utility.yul\":15940:15982   */\n      tag_332\n      jump\t// in\n    tag_517:\n        /* \"#utility.yul\":15924:15983   */\n      tag_331\n      jump\t// in\n    tag_516:\n        /* \"#utility.yul\":15911:15983   */\n      swap1\n      pop\n        /* \"#utility.yul\":15835:15989   */\n      swap2\n      swap1\n      pop\n      jump\t// out\n        /* \"#utility.yul\":15995:16138   */\n    tag_334:\n        /* \"#utility.yul\":16088:16131   */\n      tag_520\n        /* \"#utility.yul\":16125:16130   */\n      dup2\n        /* \"#utility.yul\":16088:16131   */\n      tag_333\n      jump\t// in\n    tag_520:\n        /* \"#utility.yul\":16083:16086   */\n      dup3\n        /* \"#utility.yul\":16076:16132   */\n      mstore\n        /* \"#utility.yul\":15995:16138   */\n      pop\n      pop\n      jump\t// out\n        /* \"#utility.yul\":16144:16378   */\n    tag_109:\n        /* \"#utility.yul\":16243:16247   */\n      0x00\n        /* \"#utility.yul\":16281:16283   */\n      0x20\n        /* \"#utility.yul\":16270:16279   */\n      dup3\n        /* \"#utility.yul\":16266:16284   */\n      add\n        /* \"#utility.yul\":16258:16284   */\n      swap1\n      pop\n        /* \"#utility.yul\":16294:16371   */\n      tag_522\n        /* \"#utility.yul\":16368:16369   */\n      0x00\n        /* \"#utility.yul\":16357:16366   */\n      dup4\n        /* \"#utility.yul\":16353:16370   */\n      add\n        /* \"#utility.yul\":16344:16350   */\n      dup5\n        /* \"#utility.yul\":16294:16371   */\n      tag_334\n      jump\t// in\n    tag_522:\n        /* \"#utility.yul\":16144:16378   */\n      swap3\n      swap2\n      pop\n      pop\n      jump\t// out\n        /* \"#utility.yul\":16384:16566   */\n    tag_335:\n        /* \"#utility.yul\":16524:16558   */\n      0x4f776e61626c653a2063616c6c6572206973206e6f7420746865206f776e6572\n        /* \"#utility.yul\":16520:16521   */\n      0x00\n        /* \"#utility.yul\":16512:16518   */\n      dup3\n        /* \"#utility.yul\":16508:16522   */\n      add\n        /* \"#utility.yul\":16501:16559   */\n      mstore\n        /* \"#utility.yul\":16384:16566   */\n      pop\n      jump\t// out\n        /* \"#utility.yul\":16572:16938   */\n    tag_336:\n        /* \"#utility.yul\":16714:16717   */\n      0x00\n        /* \"#utility.yul\":16735:16802   */\n      tag_525\n        /* \"#utility.yul\":16799:16801   */\n      0x20\n        /* \"#utility.yul\":16794:16797   */\n      dup4\n        /* \"#utility.yul\":16735:16802   */\n      tag_327\n      jump\t// in\n    tag_525:\n        /* \"#utility.yul\":16728:16802   */\n      swap2\n      pop\n        /* \"#utility.yul\":16811:16904   */\n      tag_526\n        /* \"#utility.yul\":16900:16903   */\n      dup3\n        /* \"#utility.yul\":16811:16904   */\n      tag_335\n      jump\t// in\n    tag_526:\n        /* \"#utility.yul\":16929:16931   */\n      0x20\n        /* \"#utility.yul\":16924:16927   */\n      dup3\n        /* \"#utility.yul\":16920:16932   */\n      add\n        /* \"#utility.yul\":16913:16932   */\n      swap1\n      pop\n        /* \"#utility.yul\":16572:16938   */\n      swap2\n      swap1\n      pop\n      jump\t// out\n        /* \"#utility.yul\":16944:17363   */\n    tag_127:\n        /* \"#utility.yul\":17110:17114   */\n      0x00\n        /* \"#utility.yul\":17148:17150   */\n      0x20\n        /* \"#utility.yul\":17137:17146   */\n      dup3\n        /* \"#utility.yul\":17133:17151   */\n      add\n        /* \"#utility.yul\":17125:17151   */\n      swap1\n      pop\n        /* \"#utility.yul\":17197:17206   */\n      dup2\n        /* \"#utility.yul\":17191:17195   */\n      dup2\n        /* \"#utility.yul\":17187:17207   */\n      sub\n        /* \"#utility.yul\":17183:17184   */\n      0x00\n        /* \"#utility.yul\":17172:17181   */\n      dup4\n        /* \"#utility.yul\":17168:17185   */\n      add\n        /* \"#utility.yul\":17161:17208   */\n      mstore\n        /* \"#utility.yul\":17225:17356   */\n      tag_528\n        /* \"#utility.yul\":17351:17355   */\n      dup2\n        /* \"#utility.yul\":17225:17356   */\n      tag_336\n      jump\t// in\n    tag_528:\n        /* \"#utility.yul\":17217:17356   */\n      swap1\n      pop\n        /* \"#utility.yul\":16944:17363   */\n      swap2\n      swap1\n      pop\n      jump\t// out\n        /* \"#utility.yul\":17369:17532   */\n    tag_337:\n        /* \"#utility.yul\":17509:17524   */\n      0x41756374696f6e20656e64656400000000000000000000000000000000000000\n        /* \"#utility.yul\":17505:17506   */\n      0x00\n        /* \"#utility.yul\":17497:17503   */\n      dup3\n        /* \"#utility.yul\":17493:17507   */\n      add\n        /* \"#utility.yul\":17486:17525   */\n      mstore\n        /* \"#utility.yul\":17369:17532   */\n      pop\n      jump\t// out\n        /* \"#utility.yul\":17538:17904   */\n    tag_338:\n        /* \"#utility.yul\":17680:17683   */\n      0x00\n        /* \"#utility.yul\":17701:17768   */\n      tag_531\n        /* \"#utility.yul\":17765:17767   */\n      0x0d\n        /* \"#utility.yul\":17760:17763   */\n      dup4\n        /* \"#utility.yul\":17701:17768   */\n      tag_327\n      jump\t// in\n    tag_531:\n        /* \"#utility.yul\":17694:17768   */\n      swap2\n      pop\n        /* \"#utility.yul\":17777:17870   */\n      tag_532\n        /* \"#utility.yul\":17866:17869   */\n      dup3\n        /* \"#utility.yul\":17777:17870   */\n      tag_337\n      jump\t// in\n    tag_532:\n        /* \"#utility.yul\":17895:17897   */\n      0x20\n        /* \"#utility.yul\":17890:17893   */\n      dup3\n        /* \"#utility.yul\":17886:17898   */\n      add\n        /* \"#utility.yul\":17879:17898   */\n      swap1\n      pop\n        /* \"#utility.yul\":17538:17904   */\n      swap2\n      swap1\n      pop\n      jump\t// out\n        /* \"#utility.yul\":17910:18329   */\n    tag_131:\n        /* \"#utility.yul\":18076:18080   */\n      0x00\n        /* \"#utility.yul\":18114:18116   */\n      0x20\n        /* \"#utility.yul\":18103:18112   */\n      dup3\n        /* \"#utility.yul\":18099:18117   */\n      add\n        /* \"#utility.yul\":18091:18117   */\n      swap1\n      pop\n        /* \"#utility.yul\":18163:18172   */\n      dup2\n        /* \"#utility.yul\":18157:18161   */\n      dup2\n        /* \"#utility.yul\":18153:18173   */\n      sub\n        /* \"#utility.yul\":18149:18150   */\n      0x00\n        /* \"#utility.yul\":18138:18147   */\n      dup4\n        /* \"#utility.yul\":18134:18151   */\n      add\n        /* \"#utility.yul\":18127:18174   */\n      mstore\n        /* \"#utility.yul\":18191:18322   */\n      tag_534\n        /* \"#utility.yul\":18317:18321   */\n      dup2\n        /* \"#utility.yul\":18191:18322   */\n      tag_338\n      jump\t// in\n    tag_534:\n        /* \"#utility.yul\":18183:18322   */\n      swap1\n      pop\n        /* \"#utility.yul\":17910:18329   */\n      swap2\n      swap1\n      pop\n      jump\t// out\n        /* \"#utility.yul\":18335:18506   */\n    tag_339:\n        /* \"#utility.yul\":18475:18498   */\n      0x41756374696f6e6565722063616e6e6f74206269640000000000000000000000\n        /* \"#utility.yul\":18471:18472   */\n      0x00\n        /* \"#utility.yul\":18463:18469   */\n      dup3\n        /* \"#utility.yul\":18459:18473   */\n      add\n        /* \"#utility.yul\":18452:18499   */\n      mstore\n        /* \"#utility.yul\":18335:18506   */\n      pop\n      jump\t// out\n        /* \"#utility.yul\":18512:18878   */\n    tag_340:\n        /* \"#utility.yul\":18654:18657   */\n      0x00\n        /* \"#utility.yul\":18675:18742   */\n      tag_537\n        /* \"#utility.yul\":18739:18741   */\n      0x15\n        /* \"#utility.yul\":18734:18737   */\n      dup4\n        /* \"#utility.yul\":18675:18742   */\n      tag_327\n      jump\t// in\n    tag_537:\n        /* \"#utility.yul\":18668:18742   */\n      swap2\n      pop\n        /* \"#utility.yul\":18751:18844   */\n      tag_538\n        /* \"#utility.yul\":18840:18843   */\n      dup3\n        /* \"#utility.yul\":18751:18844   */\n      tag_339\n      jump\t// in\n    tag_538:\n        /* \"#utility.yul\":18869:18871   */\n      0x20\n        /* \"#utility.yul\":18864:18867   */\n      dup3\n        /* \"#utility.yul\":18860:18872   */\n      add\n        /* \"#utility.yul\":18853:18872   */\n      swap1\n      pop\n        /* \"#utility.yul\":18512:18878   */\n      swap2\n      swap1\n      pop\n      jump\t// out\n        /* \"#utility.yul\":18884:19303   */\n    tag_148:\n        /* \"#utility.yul\":19050:19054   */\n      0x00\n        /* \"#utility.yul\":19088:19090   */\n      0x20\n        /* \"#utility.yul\":19077:19086   */\n      dup3\n        /* \"#utility.yul\":19073:19091   */\n      add\n        /* \"#utility.yul\":19065:19091   */\n      swap1\n      pop\n        /* \"#utility.yul\":19137:19146   */\n      dup2\n        /* \"#utility.yul\":19131:19135   */\n      dup2\n        /* \"#utility.yul\":19127:19147   */\n      sub\n        /* \"#utility.yul\":19123:19124   */\n      0x00\n        /* \"#utility.yul\":19112:19121   */\n      dup4\n        /* \"#utility.yul\":19108:19125   */\n      add\n        /* \"#utility.yul\":19101:19148   */\n      mstore\n        /* \"#utility.yul\":19165:19296   */\n      tag_540\n        /* \"#utility.yul\":19291:19295   */\n      dup2\n        /* \"#utility.yul\":19165:19296   */\n      tag_340\n      jump\t// in\n    tag_540:\n        /* \"#utility.yul\":19157:19296   */\n      swap1\n      pop\n        /* \"#utility.yul\":18884:19303   */\n      swap2\n      swap1\n      pop\n      jump\t// out\n        /* \"#utility.yul\":19309:19482   */\n    tag_341:\n        /* \"#utility.yul\":19449:19474   */\n      0x41756374696f6e206e6f74207374617274656420796574000000000000000000\n        /* \"#utility.yul\":19445:19446   */\n      0x00\n        /* \"#utility.yul\":19437:19443   */\n      dup3\n        /* \"#utility.yul\":19433:19447   */\n      add\n        /* \"#utility.yul\":19426:19475   */\n      mstore\n        /* \"#utility.yul\":19309:19482   */\n      pop\n      jump\t// out\n        /* \"#utility.yul\":19488:19854   */\n    tag_342:\n        /* \"#utility.yul\":19630:19633   */\n      0x00\n        /* \"#utility.yul\":19651:19718   */\n      tag_543\n        /* \"#utility.yul\":19715:19717   */\n      0x17\n        /* \"#utility.yul\":19710:19713   */\n      dup4\n        /* \"#utility.yul\":19651:19718   */\n      tag_327\n      jump\t// in\n    tag_543:\n        /* \"#utility.yul\":19644:19718   */\n      swap2\n      pop\n        /* \"#utility.yul\":19727:19820   */\n      tag_544\n        /* \"#utility.yul\":19816:19819   */\n      dup3\n        /* \"#utility.yul\":19727:19820   */\n      tag_341\n      jump\t// in\n    tag_544:\n        /* \"#utility.yul\":19845:19847   */\n      0x20\n        /* \"#utility.yul\":19840:19843   */\n      dup3\n        /* \"#utility.yul\":19836:19848   */\n      add\n        /* \"#utility.yul\":19829:19848   */\n      swap1\n      pop\n        /* \"#utility.yul\":19488:19854   */\n      swap2\n      swap1\n      pop\n      jump\t// out\n        /* \"#utility.yul\":19860:20279   */\n    tag_151:\n        /* \"#utility.yul\":20026:20030   */\n      0x00\n        /* \"#utility.yul\":20064:20066   */\n      0x20\n        /* \"#utility.yul\":20053:20062   */\n      dup3\n        /* \"#utility.yul\":20049:20067   */\n      add\n        /* \"#utility.yul\":20041:20067   */\n      swap1\n      pop\n        /* \"#utility.yul\":20113:20122   */\n      dup2\n        /* \"#utility.yul\":20107:20111   */\n      dup2\n        /* \"#utility.yul\":20103:20123   */\n      sub\n        /* \"#utility.yul\":20099:20100   */\n      0x00\n        /* \"#utility.yul\":20088:20097   */\n      dup4\n        /* \"#utility.yul\":20084:20101   */\n      add\n        /* \"#utility.yul\":20077:20124   */\n      mstore\n        /* \"#utility.yul\":20141:20272   */\n      tag_546\n        /* \"#utility.yul\":20267:20271   */\n      dup2\n        /* \"#utility.yul\":20141:20272   */\n      tag_342\n      jump\t// in\n    tag_546:\n        /* \"#utility.yul\":20133:20272   */\n      swap1\n      pop\n        /* \"#utility.yul\":19860:20279   */\n      swap2\n      swap1\n      pop\n      jump\t// out\n        /* \"#utility.yul\":20285:20521   */\n    tag_343:\n        /* \"#utility.yul\":20425:20459   */\n      0x5374617274696e67207072696365206d75737420626520677265617465722074\n        /* \"#utility.yul\":20421:20422   */\n      0x00\n        /* \"#utility.yul\":20413:20419   */\n      dup3\n        /* \"#utility.yul\":20409:20423   */\n      add\n        /* \"#utility.yul\":20402:20460   */\n      mstore\n        /* \"#utility.yul\":20494:20513   */\n      0x68616e206d696e696d756d207072696365000000000000000000000000000000\n        /* \"#utility.yul\":20489:20491   */\n      0x20\n        /* \"#utility.yul\":20481:20487   */\n      dup3\n        /* \"#utility.yul\":20477:20492   */\n      add\n        /* \"#utility.yul\":20470:20514   */\n      mstore\n        /* \"#utility.yul\":20285:20521   */\n      pop\n      jump\t// out\n        /* \"#utility.yul\":20527:20893   */\n    tag_344:\n        /* \"#utility.yul\":20669:20672   */\n      0x00\n        /* \"#utility.yul\":20690:20757   */\n      tag_549\n        /* \"#utility.yul\":20754:20756   */\n      0x31\n        /* \"#utility.yul\":20749:20752   */\n      dup4\n        /* \"#utility.yul\":20690:20757   */\n      tag_327\n      jump\t// in\n    tag_549:\n        /* \"#utility.yul\":20683:20757   */\n      swap2\n      pop\n        /* \"#utility.yul\":20766:20859   */\n      tag_550\n        /* \"#utility.yul\":20855:20858   */\n      dup3\n        /* \"#utility.yul\":20766:20859   */\n      tag_343\n      jump\t// in\n    tag_550:\n        /* \"#utility.yul\":20884:20886   */\n      0x40\n        /* \"#utility.yul\":20879:20882   */\n      dup3\n        /* \"#utility.yul\":20875:20887   */\n      add\n        /* \"#utility.yul\":20868:20887   */\n      swap1\n      pop\n        /* \"#utility.yul\":20527:20893   */\n      swap2\n      swap1\n      pop\n      jump\t// out\n        /* \"#utility.yul\":20899:21318   */\n    tag_165:\n        /* \"#utility.yul\":21065:21069   */\n      0x00\n        /* \"#utility.yul\":21103:21105   */\n      0x20\n        /* \"#utility.yul\":21092:21101   */\n      dup3\n        /* \"#utility.yul\":21088:21106   */\n      add\n        /* \"#utility.yul\":21080:21106   */\n      swap1\n      pop\n        /* \"#utility.yul\":21152:21161   */\n      dup2\n        /* \"#utility.yul\":21146:21150   */\n      dup2\n        /* \"#utility.yul\":21142:21162   */\n      sub\n        /* \"#utility.yul\":21138:21139   */\n      0x00\n        /* \"#utility.yul\":21127:21136   */\n      dup4\n        /* \"#utility.yul\":21123:21140   */\n      add\n        /* \"#utility.yul\":21116:21163   */\n      mstore\n        /* \"#utility.yul\":21180:21311   */\n      tag_552\n        /* \"#utility.yul\":21306:21310   */\n      dup2\n        /* \"#utility.yul\":21180:21311   */\n      tag_344\n      jump\t// in\n    tag_552:\n        /* \"#utility.yul\":21172:21311   */\n      swap1\n      pop\n        /* \"#utility.yul\":20899:21318   */\n      swap2\n      swap1\n      pop\n      jump\t// out\n        /* \"#utility.yul\":21324:21505   */\n    tag_345:\n        /* \"#utility.yul\":21464:21497   */\n      0x5265656e7472616e637947756172643a207265656e7472616e742063616c6c00\n        /* \"#utility.yul\":21460:21461   */\n      0x00\n        /* \"#utility.yul\":21452:21458   */\n      dup3\n        /* \"#utility.yul\":21448:21462   */\n      add\n        /* \"#utility.yul\":21441:21498   */\n      mstore\n        /* \"#utility.yul\":21324:21505   */\n      pop\n      jump\t// out\n        /* \"#utility.yul\":21511:21877   */\n    tag_346:\n        /* \"#utility.yul\":21653:21656   */\n      0x00\n        /* \"#utility.yul\":21674:21741   */\n      tag_555\n        /* \"#utility.yul\":21738:21740   */\n      0x1f\n        /* \"#utility.yul\":21733:21736   */\n      dup4\n        /* \"#utility.yul\":21674:21741   */\n      tag_327\n      jump\t// in\n    tag_555:\n        /* \"#utility.yul\":21667:21741   */\n      swap2\n      pop\n        /* \"#utility.yul\":21750:21843   */\n      tag_556\n        /* \"#utility.yul\":21839:21842   */\n      dup3\n        /* \"#utility.yul\":21750:21843   */\n      tag_345\n      jump\t// in\n    tag_556:\n        /* \"#utility.yul\":21868:21870   */\n      0x20\n        /* \"#utility.yul\":21863:21866   */\n      dup3\n        /* \"#utility.yul\":21859:21871   */\n      add\n        /* \"#utility.yul\":21852:21871   */\n      swap1\n      pop\n        /* \"#utility.yul\":21511:21877   */\n      swap2\n      swap1\n      pop\n      jump\t// out\n        /* \"#utility.yul\":21883:22302   */\n    tag_176:\n        /* \"#utility.yul\":22049:22053   */\n      0x00\n        /* \"#utility.yul\":22087:22089   */\n      0x20\n        /* \"#utility.yul\":22076:22085   */\n      dup3\n        /* \"#utility.yul\":22072:22090   */\n      add\n        /* \"#utility.yul\":22064:22090   */\n      swap1\n      pop\n        /* \"#utility.yul\":22136:22145   */\n      dup2\n        /* \"#utility.yul\":22130:22134   */\n      dup2\n        /* \"#utility.yul\":22126:22146   */\n      sub\n        /* \"#utility.yul\":22122:22123   */\n      0x00\n        /* \"#utility.yul\":22111:22120   */\n      dup4\n        /* \"#utility.yul\":22107:22124   */\n      add\n        /* \"#utility.yul\":22100:22147   */\n      mstore\n        /* \"#utility.yul\":22164:22295   */\n      tag_558\n        /* \"#utility.yul\":22290:22294   */\n      dup2\n        /* \"#utility.yul\":22164:22295   */\n      tag_346\n      jump\t// in\n    tag_558:\n        /* \"#utility.yul\":22156:22295   */\n      swap1\n      pop\n        /* \"#utility.yul\":21883:22302   */\n      swap2\n      swap1\n      pop\n      jump\t// out\n        /* \"#utility.yul\":22308:22393   */\n    tag_347:\n        /* \"#utility.yul\":22353:22360   */\n      0x00\n        /* \"#utility.yul\":22382:22387   */\n      dup2\n        /* \"#utility.yul\":22371:22387   */\n      swap1\n      pop\n        /* \"#utility.yul\":22308:22393   */\n      swap2\n      swap1\n      pop\n      jump\t// out\n        /* \"#utility.yul\":22399:22557   */\n    tag_348:\n        /* \"#utility.yul\":22457:22466   */\n      0x00\n        /* \"#utility.yul\":22490:22551   */\n      tag_561\n        /* \"#utility.yul\":22508:22550   */\n      tag_562\n        /* \"#utility.yul\":22517:22549   */\n      tag_563\n        /* \"#utility.yul\":22543:22548   */\n      dup5\n        /* \"#utility.yul\":22517:22549   */\n      tag_347\n      jump\t// in\n    tag_563:\n        /* \"#utility.yul\":22508:22550   */\n      tag_332\n      jump\t// in\n    tag_562:\n        /* \"#utility.yul\":22490:22551   */\n      tag_287\n      jump\t// in\n    tag_561:\n        /* \"#utility.yul\":22477:22551   */\n      swap1\n      pop\n        /* \"#utility.yul\":22399:22557   */\n      swap2\n      swap1\n      pop\n      jump\t// out\n        /* \"#utility.yul\":22563:22710   */\n    tag_349:\n        /* \"#utility.yul\":22658:22703   */\n      tag_565\n        /* \"#utility.yul\":22697:22702   */\n      dup2\n        /* \"#utility.yul\":22658:22703   */\n      tag_348\n      jump\t// in\n    tag_565:\n        /* \"#utility.yul\":22653:22656   */\n      dup3\n        /* \"#utility.yul\":22646:22704   */\n      mstore\n        /* \"#utility.yul\":22563:22710   */\n      pop\n      pop\n      jump\t// out\n        /* \"#utility.yul\":22716:22954   */\n    tag_183:\n        /* \"#utility.yul\":22817:22821   */\n      0x00\n        /* \"#utility.yul\":22855:22857   */\n      0x20\n        /* \"#utility.yul\":22844:22853   */\n      dup3\n        /* \"#utility.yul\":22840:22858   */\n      add\n        /* \"#utility.yul\":22832:22858   */\n      swap1\n      pop\n        /* \"#utility.yul\":22868:22947   */\n      tag_567\n        /* \"#utility.yul\":22944:22945   */\n      0x00\n        /* \"#utility.yul\":22933:22942   */\n      dup4\n        /* \"#utility.yul\":22929:22946   */\n      add\n        /* \"#utility.yul\":22920:22926   */\n      dup5\n        /* \"#utility.yul\":22868:22947   */\n      tag_349\n      jump\t// in\n    tag_567:\n        /* \"#utility.yul\":22716:22954   */\n      swap3\n      swap2\n      pop\n      pop\n      jump\t// out\n        /* \"#utility.yul\":22960:23140   */\n    tag_350:\n        /* \"#utility.yul\":23008:23085   */\n      0x4e487b7100000000000000000000000000000000000000000000000000000000\n        /* \"#utility.yul\":23005:23006   */\n      0x00\n        /* \"#utility.yul\":22998:23086   */\n      mstore\n        /* \"#utility.yul\":23105:23109   */\n      0x11\n        /* \"#utility.yul\":23102:23103   */\n      0x04\n        /* \"#utility.yul\":23095:23110   */\n      mstore\n        /* \"#utility.yul\":23129:23133   */\n      0x24\n        /* \"#utility.yul\":23126:23127   */\n      0x00\n        /* \"#utility.yul\":23119:23134   */\n      revert\n        /* \"#utility.yul\":23146:23340   */\n    tag_191:\n        /* \"#utility.yul\":23186:23190   */\n      0x00\n        /* \"#utility.yul\":23206:23226   */\n      tag_570\n        /* \"#utility.yul\":23224:23225   */\n      dup3\n        /* \"#utility.yul\":23206:23226   */\n      tag_287\n      jump\t// in\n    tag_570:\n        /* \"#utility.yul\":23201:23226   */\n      swap2\n      pop\n        /* \"#utility.yul\":23240:23260   */\n      tag_571\n        /* \"#utility.yul\":23258:23259   */\n      dup4\n        /* \"#utility.yul\":23240:23260   */\n      tag_287\n      jump\t// in\n    tag_571:\n        /* \"#utility.yul\":23235:23260   */\n      swap3\n      pop\n        /* \"#utility.yul\":23284:23285   */\n      dup3\n        /* \"#utility.yul\":23281:23282   */\n      dup3\n        /* \"#utility.yul\":23277:23286   */\n      sub\n        /* \"#utility.yul\":23269:23286   */\n      swap1\n      pop\n        /* \"#utility.yul\":23308:23309   */\n      dup2\n        /* \"#utility.yul\":23302:23306   */\n      dup2\n        /* \"#utility.yul\":23299:23310   */\n      gt\n        /* \"#utility.yul\":23296:23333   */\n      iszero\n      tag_572\n      jumpi\n        /* \"#utility.yul\":23313:23331   */\n      tag_573\n      tag_350\n      jump\t// in\n    tag_573:\n        /* \"#utility.yul\":23296:23333   */\n    tag_572:\n        /* \"#utility.yul\":23146:23340   */\n      swap3\n      swap2\n      pop\n      pop\n      jump\t// out\n        /* \"#utility.yul\":23346:23526   */\n    tag_351:\n        /* \"#utility.yul\":23394:23471   */\n      0x4e487b7100000000000000000000000000000000000000000000000000000000\n        /* \"#utility.yul\":23391:23392   */\n      0x00\n        /* \"#utility.yul\":23384:23472   */\n      mstore\n        /* \"#utility.yul\":23491:23495   */\n      0x12\n        /* \"#utility.yul\":23488:23489   */\n      0x04\n        /* \"#utility.yul\":23481:23496   */\n      mstore\n        /* \"#utility.yul\":23515:23519   */\n      0x24\n        /* \"#utility.yul\":23512:23513   */\n      0x00\n        /* \"#utility.yul\":23505:23520   */\n      revert\n        /* \"#utility.yul\":23532:23717   */\n    tag_193:\n        /* \"#utility.yul\":23572:23573   */\n      0x00\n        /* \"#utility.yul\":23589:23609   */\n      tag_576\n        /* \"#utility.yul\":23607:23608   */\n      dup3\n        /* \"#utility.yul\":23589:23609   */\n      tag_287\n      jump\t// in\n    tag_576:\n        /* \"#utility.yul\":23584:23609   */\n      swap2\n      pop\n        /* \"#utility.yul\":23623:23643   */\n      tag_577\n        /* \"#utility.yul\":23641:23642   */\n      dup4\n        /* \"#utility.yul\":23623:23643   */\n      tag_287\n      jump\t// in\n    tag_577:\n        /* \"#utility.yul\":23618:23643   */\n      swap3\n      pop\n        /* \"#utility.yul\":23662:23663   */\n      dup3\n        /* \"#utility.yul\":23652:23687   */\n      tag_578\n      jumpi\n        /* \"#utility.yul\":23667:23685   */\n      tag_579\n      tag_351\n      jump\t// in\n    tag_579:\n        /* \"#utility.yul\":23652:23687   */\n    tag_578:\n        /* \"#utility.yul\":23709:23710   */\n      dup3\n        /* \"#utility.yul\":23706:23707   */\n      dup3\n        /* \"#utility.yul\":23702:23711   */\n      div\n        /* \"#utility.yul\":23697:23711   */\n      swap1\n      pop\n        /* \"#utility.yul\":23532:23717   */\n      swap3\n      swap2\n      pop\n      pop\n      jump\t// out\n        /* \"#utility.yul\":23723:23914   */\n    tag_195:\n        /* \"#utility.yul\":23763:23766   */\n      0x00\n        /* \"#utility.yul\":23782:23802   */\n      tag_581\n        /* \"#utility.yul\":23800:23801   */\n      dup3\n        /* \"#utility.yul\":23782:23802   */\n      tag_287\n      jump\t// in\n    tag_581:\n        /* \"#utility.yul\":23777:23802   */\n      swap2\n      pop\n        /* \"#utility.yul\":23816:23836   */\n      tag_582\n        /* \"#utility.yul\":23834:23835   */\n      dup4\n        /* \"#utility.yul\":23816:23836   */\n      tag_287\n      jump\t// in\n    tag_582:\n        /* \"#utility.yul\":23811:23836   */\n      swap3\n      pop\n        /* \"#utility.yul\":23859:23860   */\n      dup3\n        /* \"#utility.yul\":23856:23857   */\n      dup3\n        /* \"#utility.yul\":23852:23861   */\n      add\n        /* \"#utility.yul\":23845:23861   */\n      swap1\n      pop\n        /* \"#utility.yul\":23880:23883   */\n      dup1\n        /* \"#utility.yul\":23877:23878   */\n      dup3\n        /* \"#utility.yul\":23874:23884   */\n      gt\n        /* \"#utility.yul\":23871:23907   */\n      iszero\n      tag_583\n      jumpi\n        /* \"#utility.yul\":23887:23905   */\n      tag_584\n      tag_350\n      jump\t// in\n    tag_584:\n        /* \"#utility.yul\":23871:23907   */\n    tag_583:\n        /* \"#utility.yul\":23723:23914   */\n      swap3\n      swap2\n      pop\n      pop\n      jump\t// out\n        /* \"#utility.yul\":23920:24087   */\n    tag_352:\n        /* \"#utility.yul\":24060:24079   */\n      0x42696420707269636520746f6f206c6f77000000000000000000000000000000\n        /* \"#utility.yul\":24056:24057   */\n      0x00\n        /* \"#utility.yul\":24048:24054   */\n      dup3\n        /* \"#utility.yul\":24044:24058   */\n      add\n        /* \"#utility.yul\":24037:24080   */\n      mstore\n        /* \"#utility.yul\":23920:24087   */\n      pop\n      jump\t// out\n        /* \"#utility.yul\":24093:24459   */\n    tag_353:\n        /* \"#utility.yul\":24235:24238   */\n      0x00\n        /* \"#utility.yul\":24256:24323   */\n      tag_587\n        /* \"#utility.yul\":24320:24322   */\n      0x11\n        /* \"#utility.yul\":24315:24318   */\n      dup4\n        /* \"#utility.yul\":24256:24323   */\n      tag_327\n      jump\t// in\n    tag_587:\n        /* \"#utility.yul\":24249:24323   */\n      swap2\n      pop\n        /* \"#utility.yul\":24332:24425   */\n      tag_588\n        /* \"#utility.yul\":24421:24424   */\n      dup3\n        /* \"#utility.yul\":24332:24425   */\n      tag_352\n      jump\t// in\n    tag_588:\n        /* \"#utility.yul\":24450:24452   */\n      0x20\n        /* \"#utility.yul\":24445:24448   */\n      dup3\n        /* \"#utility.yul\":24441:24453   */\n      add\n        /* \"#utility.yul\":24434:24453   */\n      swap1\n      pop\n        /* \"#utility.yul\":24093:24459   */\n      swap2\n      swap1\n      pop\n      jump\t// out\n        /* \"#utility.yul\":24465:24884   */\n    tag_201:\n        /* \"#utility.yul\":24631:24635   */\n      0x00\n        /* \"#utility.yul\":24669:24671   */\n      0x20\n        /* \"#utility.yul\":24658:24667   */\n      dup3\n        /* \"#utility.yul\":24654:24672   */\n      add\n        /* \"#utility.yul\":24646:24672   */\n      swap1\n      pop\n        /* \"#utility.yul\":24718:24727   */\n      dup2\n        /* \"#utility.yul\":24712:24716   */\n      dup2\n        /* \"#utility.yul\":24708:24728   */\n      sub\n        /* \"#utility.yul\":24704:24705   */\n      0x00\n        /* \"#utility.yul\":24693:24702   */\n      dup4\n        /* \"#utility.yul\":24689:24706   */\n      add\n        /* \"#utility.yul\":24682:24729   */\n      mstore\n        /* \"#utility.yul\":24746:24877   */\n      tag_590\n        /* \"#utility.yul\":24872:24876   */\n      dup2\n        /* \"#utility.yul\":24746:24877   */\n      tag_353\n      jump\t// in\n    tag_590:\n        /* \"#utility.yul\":24738:24877   */\n      swap1\n      pop\n        /* \"#utility.yul\":24465:24884   */\n      swap2\n      swap1\n      pop\n      jump\t// out\n        /* \"#utility.yul\":24890:25222   */\n    tag_218:\n        /* \"#utility.yul\":25011:25015   */\n      0x00\n        /* \"#utility.yul\":25049:25051   */\n      0x40\n        /* \"#utility.yul\":25038:25047   */\n      dup3\n        /* \"#utility.yul\":25034:25052   */\n      add\n        /* \"#utility.yul\":25026:25052   */\n      swap1\n      pop\n        /* \"#utility.yul\":25062:25133   */\n      tag_592\n        /* \"#utility.yul\":25130:25131   */\n      0x00\n        /* \"#utility.yul\":25119:25128   */\n      dup4\n        /* \"#utility.yul\":25115:25132   */\n      add\n        /* \"#utility.yul\":25106:25112   */\n      dup6\n        /* \"#utility.yul\":25062:25133   */\n      tag_292\n      jump\t// in\n    tag_592:\n        /* \"#utility.yul\":25143:25215   */\n      tag_593\n        /* \"#utility.yul\":25211:25213   */\n      0x20\n        /* \"#utility.yul\":25200:25209   */\n      dup4\n        /* \"#utility.yul\":25196:25214   */\n      add\n        /* \"#utility.yul\":25187:25193   */\n      dup5\n        /* \"#utility.yul\":25143:25215   */\n      tag_310\n      jump\t// in\n    tag_593:\n        /* \"#utility.yul\":24890:25222   */\n      swap4\n      swap3\n      pop\n      pop\n      pop\n      jump\t// out\n        /* \"#utility.yul\":25228:25344   */\n    tag_354:\n        /* \"#utility.yul\":25298:25319   */\n      tag_595\n        /* \"#utility.yul\":25313:25318   */\n      dup2\n        /* \"#utility.yul\":25298:25319   */\n      tag_325\n      jump\t// in\n    tag_595:\n        /* \"#utility.yul\":25291:25296   */\n      dup2\n        /* \"#utility.yul\":25288:25320   */\n      eq\n        /* \"#utility.yul\":25278:25338   */\n      tag_596\n      jumpi\n        /* \"#utility.yul\":25334:25335   */\n      0x00\n        /* \"#utility.yul\":25331:25332   */\n      dup1\n        /* \"#utility.yul\":25324:25336   */\n      revert\n        /* \"#utility.yul\":25278:25338   */\n    tag_596:\n        /* \"#utility.yul\":25228:25344   */\n      pop\n      jump\t// out\n        /* \"#utility.yul\":25350:25487   */\n    tag_355:\n        /* \"#utility.yul\":25404:25409   */\n      0x00\n        /* \"#utility.yul\":25435:25441   */\n      dup2\n        /* \"#utility.yul\":25429:25442   */\n      mload\n        /* \"#utility.yul\":25420:25442   */\n      swap1\n      pop\n        /* \"#utility.yul\":25451:25481   */\n      tag_598\n        /* \"#utility.yul\":25475:25480   */\n      dup2\n        /* \"#utility.yul\":25451:25481   */\n      tag_354\n      jump\t// in\n    tag_598:\n        /* \"#utility.yul\":25350:25487   */\n      swap3\n      swap2\n      pop\n      pop\n      jump\t// out\n        /* \"#utility.yul\":25493:25838   */\n    tag_222:\n        /* \"#utility.yul\":25560:25566   */\n      0x00\n        /* \"#utility.yul\":25609:25611   */\n      0x20\n        /* \"#utility.yul\":25597:25606   */\n      dup3\n        /* \"#utility.yul\":25588:25595   */\n      dup5\n        /* \"#utility.yul\":25584:25607   */\n      sub\n        /* \"#utility.yul\":25580:25612   */\n      slt\n        /* \"#utility.yul\":25577:25696   */\n      iszero\n      tag_600\n      jumpi\n        /* \"#utility.yul\":25615:25694   */\n      tag_601\n      tag_285\n      jump\t// in\n    tag_601:\n        /* \"#utility.yul\":25577:25696   */\n    tag_600:\n        /* \"#utility.yul\":25735:25736   */\n      0x00\n        /* \"#utility.yul\":25760:25821   */\n      tag_602\n        /* \"#utility.yul\":25813:25820   */\n      dup5\n        /* \"#utility.yul\":25804:25810   */\n      dup3\n        /* \"#utility.yul\":25793:25802   */\n      dup6\n        /* \"#utility.yul\":25789:25811   */\n      add\n        /* \"#utility.yul\":25760:25821   */\n      tag_355\n      jump\t// in\n    tag_602:\n        /* \"#utility.yul\":25750:25821   */\n      swap2\n      pop\n        /* \"#utility.yul\":25706:25831   */\n      pop\n        /* \"#utility.yul\":25493:25838   */\n      swap3\n      swap2\n      pop\n      pop\n      jump\t// out\n        /* \"#utility.yul\":25844:26286   */\n    tag_225:\n        /* \"#utility.yul\":25993:25997   */\n      0x00\n        /* \"#utility.yul\":26031:26033   */\n      0x60\n        /* \"#utility.yul\":26020:26029   */\n      dup3\n        /* \"#utility.yul\":26016:26034   */\n      add\n        /* \"#utility.yul\":26008:26034   */\n      swap1\n      pop\n        /* \"#utility.yul\":26044:26115   */\n      tag_604\n        /* \"#utility.yul\":26112:26113   */\n      0x00\n        /* \"#utility.yul\":26101:26110   */\n      dup4\n        /* \"#utility.yul\":26097:26114   */\n      add\n        /* \"#utility.yul\":26088:26094   */\n      dup7\n        /* \"#utility.yul\":26044:26115   */\n      tag_292\n      jump\t// in\n    tag_604:\n        /* \"#utility.yul\":26125:26197   */\n      tag_605\n        /* \"#utility.yul\":26193:26195   */\n      0x20\n        /* \"#utility.yul\":26182:26191   */\n      dup4\n        /* \"#utility.yul\":26178:26196   */\n      add\n        /* \"#utility.yul\":26169:26175   */\n      dup6\n        /* \"#utility.yul\":26125:26197   */\n      tag_292\n      jump\t// in\n    tag_605:\n        /* \"#utility.yul\":26207:26279   */\n      tag_606\n        /* \"#utility.yul\":26275:26277   */\n      0x40\n        /* \"#utility.yul\":26264:26273   */\n      dup4\n        /* \"#utility.yul\":26260:26278   */\n      add\n        /* \"#utility.yul\":26251:26257   */\n      dup5\n        /* \"#utility.yul\":26207:26279   */\n      tag_310\n      jump\t// in\n    tag_606:\n        /* \"#utility.yul\":25844:26286   */\n      swap5\n      swap4\n      pop\n      pop\n      pop\n      pop\n      jump\t// out\n        /* \"#utility.yul\":26292:26472   */\n    tag_236:\n        /* \"#utility.yul\":26340:26417   */\n      0x4e487b7100000000000000000000000000000000000000000000000000000000\n        /* \"#utility.yul\":26337:26338   */\n      0x00\n        /* \"#utility.yul\":26330:26418   */\n      mstore\n        /* \"#utility.yul\":26437:26441   */\n      0x32\n        /* \"#utility.yul\":26434:26435   */\n      0x04\n        /* \"#utility.yul\":26427:26442   */\n      mstore\n        /* \"#utility.yul\":26461:26465   */\n      0x24\n        /* \"#utility.yul\":26458:26459   */\n      0x00\n        /* \"#utility.yul\":26451:26466   */\n      revert\n        /* \"#utility.yul\":26478:26621   */\n    tag_356:\n        /* \"#utility.yul\":26535:26540   */\n      0x00\n        /* \"#utility.yul\":26566:26572   */\n      dup2\n        /* \"#utility.yul\":26560:26573   */\n      mload\n        /* \"#utility.yul\":26551:26573   */\n      swap1\n      pop\n        /* \"#utility.yul\":26582:26615   */\n      tag_609\n        /* \"#utility.yul\":26609:26614   */\n      dup2\n        /* \"#utility.yul\":26582:26615   */\n      tag_293\n      jump\t// in\n    tag_609:\n        /* \"#utility.yul\":26478:26621   */\n      swap3\n      swap2\n      pop\n      pop\n      jump\t// out\n        /* \"#utility.yul\":26627:26978   */\n    tag_254:\n        /* \"#utility.yul\":26697:26703   */\n      0x00\n        /* \"#utility.yul\":26746:26748   */\n      0x20\n        /* \"#utility.yul\":26734:26743   */\n      dup3\n        /* \"#utility.yul\":26725:26732   */\n      dup5\n        /* \"#utility.yul\":26721:26744   */\n      sub\n        /* \"#utility.yul\":26717:26749   */\n      slt\n        /* \"#utility.yul\":26714:26833   */\n      iszero\n      tag_611\n      jumpi\n        /* \"#utility.yul\":26752:26831   */\n      tag_612\n      tag_285\n      jump\t// in\n    tag_612:\n        /* \"#utility.yul\":26714:26833   */\n    tag_611:\n        /* \"#utility.yul\":26872:26873   */\n      0x00\n        /* \"#utility.yul\":26897:26961   */\n      tag_613\n        /* \"#utility.yul\":26953:26960   */\n      dup5\n        /* \"#utility.yul\":26944:26950   */\n      dup3\n        /* \"#utility.yul\":26933:26942   */\n      dup6\n        /* \"#utility.yul\":26929:26951   */\n      add\n        /* \"#utility.yul\":26897:26961   */\n      tag_356\n      jump\t// in\n    tag_613:\n        /* \"#utility.yul\":26887:26961   */\n      swap2\n      pop\n        /* \"#utility.yul\":26843:26971   */\n      pop\n        /* \"#utility.yul\":26627:26978   */\n      swap3\n      swap2\n      pop\n      pop\n      jump\t// out\n        /* \"#utility.yul\":26984:27442   */\n    tag_260:\n        /* \"#utility.yul\":27141:27145   */\n      0x00\n        /* \"#utility.yul\":27179:27181   */\n      0x60\n        /* \"#utility.yul\":27168:27177   */\n      dup3\n        /* \"#utility.yul\":27164:27182   */\n      add\n        /* \"#utility.yul\":27156:27182   */\n      swap1\n      pop\n        /* \"#utility.yul\":27192:27271   */\n      tag_615\n        /* \"#utility.yul\":27268:27269   */\n      0x00\n        /* \"#utility.yul\":27257:27266   */\n      dup4\n        /* \"#utility.yul\":27253:27270   */\n      add\n        /* \"#utility.yul\":27244:27250   */\n      dup7\n        /* \"#utility.yul\":27192:27271   */\n      tag_349\n      jump\t// in\n    tag_615:\n        /* \"#utility.yul\":27281:27353   */\n      tag_616\n        /* \"#utility.yul\":27349:27351   */\n      0x20\n        /* \"#utility.yul\":27338:27347   */\n      dup4\n        /* \"#utility.yul\":27334:27352   */\n      add\n        /* \"#utility.yul\":27325:27331   */\n      dup6\n        /* \"#utility.yul\":27281:27353   */\n      tag_292\n      jump\t// in\n    tag_616:\n        /* \"#utility.yul\":27363:27435   */\n      tag_617\n        /* \"#utility.yul\":27431:27433   */\n      0x40\n        /* \"#utility.yul\":27420:27429   */\n      dup4\n        /* \"#utility.yul\":27416:27434   */\n      add\n        /* \"#utility.yul\":27407:27413   */\n      dup5\n        /* \"#utility.yul\":27363:27435   */\n      tag_310\n      jump\t// in\n    tag_617:\n        /* \"#utility.yul\":26984:27442   */\n      swap5\n      swap4\n      pop\n      pop\n      pop\n      pop\n      jump\t// out\n\n    auxdata: 0xa2646970667358221220644046ee6fd18487e4dbe9b192a5c63b2565b22c1b5a61334d7d0b64eeda082f64736f6c63430008180033\n}\n",
				"bytecode": {
					"linkReferences": {},
					"object": "608060405234801561000f575f80fd5b50600180819055506120b6806100245f395ff3fe6080604052600436106100eb575f3560e01c80637dcb0e5f11610089578063a4fd6f5611610058578063a4fd6f56146102d3578063d6fbf202146102fd578063d94a350514610327578063d96a094a14610358576100f2565b80637dcb0e5f1461022d5780637f386b6c146102695780638da5cb5b146102935780638fa8b790146102bd576100f2565b80633013ce29116100c55780633013ce291461018457806339518b5e146101ae5780634a4e5776146101d85780634d21e01914610202576100f2565b80630521cc59146100f65780630c5d9d86146101325780631e6f36771461015a576100f2565b366100f257005b5f80fd5b348015610101575f80fd5b5061011c60048036038101906101179190611361565b610374565b60405161012991906113cb565b60405180910390f35b34801561013d575f80fd5b50610158600480360381019061015391906116bf565b6103af565b005b348015610165575f80fd5b5061016e6104fe565b60405161017b919061177e565b60405180910390f35b34801561018f575f80fd5b50610198610504565b6040516101a591906113cb565b60405180910390f35b3480156101b9575f80fd5b506101c2610529565b6040516101cf919061177e565b60405180910390f35b3480156101e3575f80fd5b506101ec61052f565b6040516101f9919061177e565b60405180910390f35b34801561020d575f80fd5b50610216610535565b604051610224929190611905565b60405180910390f35b348015610238575f80fd5b50610253600480360381019061024e9190611361565b610619565b604051610260919061177e565b60405180910390f35b348015610274575f80fd5b5061027d610639565b60405161028a919061177e565b60405180910390f35b34801561029e575f80fd5b506102a761063f565b6040516102b491906113cb565b60405180910390f35b3480156102c8575f80fd5b506102d1610666565b005b3480156102de575f80fd5b506102e761077b565b6040516102f49190611954565b60405180910390f35b348015610308575f80fd5b5061031161078d565b60405161031e919061177e565b60405180910390f35b348015610332575f80fd5b5061033b610793565b60405161034f98979695949392919061196d565b60405180910390f35b610372600480360381019061036d9190611361565b6107fd565b005b600a8181548110610383575f80fd5b905f5260205f20015f915054906101000a900473ffffffffffffffffffffffffffffffffffffffff1681565b5f8060159054906101000a900460ff161590508080156103e0575060015f60149054906101000a900460ff1660ff16105b8061040e57506103ef3061094e565b15801561040d575060015f60149054906101000a900460ff1660ff16145b5b61044d576040517f08c379a000000000000000000000000000000000000000000000000000000000815260040161044490611a69565b60405180910390fd5b60015f60146101000a81548160ff021916908360ff16021790555080156104895760015f60156101000a81548160ff0219169083151502179055505b610494868684610970565b61049e8484610a7f565b80156104f6575f8060156101000a81548160ff0219169083151502179055507f7f26b83ff96e1f2b6a682f133852f6798a09c465da95921460cefb384740249860016040516104ed9190611ad5565b60405180910390a15b505050505050565b60055481565b60075f9054906101000a900473ffffffffffffffffffffffffffffffffffffffff1681565b60085481565b60065481565b606080600a600b818054806020026020016040519081016040528092919081815260200182805480156105ba57602002820191905f5260205f20905b815f9054906101000a900473ffffffffffffffffffffffffffffffffffffffff1673ffffffffffffffffffffffffffffffffffffffff1681526020019060010190808311610571575b505050505091508080548060200260200160405190810160405280929190818152602001828054801561060a57602002820191905f5260205f20905b8154815260200190600101908083116105f6575b50505050509050915091509091565b600b8181548110610628575f80fd5b905f5260205f20015f915090505481565b60035481565b5f805f9054906101000a900473ffffffffffffffffffffffffffffffffffffffff16905090565b61066e610ab1565b610676610b00565b73ffffffffffffffffffffffffffffffffffffffff1661069461063f565b73ffffffffffffffffffffffffffffffffffffffff16146106ea576040517f08c379a00000000000000000000000000000000000000000000000000000000081526004016106e190611b38565b60405180910390fd5b5f151560095f9054906101000a900460ff1615151461073e576040517f08c379a000000000000000000000000000000000000000000000000000000000815260040161073590611ba0565b60405180910390fd5b600160095f6101000a81548160ff02191690831515021790555061076930610764610b00565b610b07565b610771610b15565b610779610b9f565b565b60095f9054906101000a900460ff1681565b60045481565b5f805f805f805f8060035460045460055460065460075f9054906101000a900473ffffffffffffffffffffffffffffffffffffffff1660085460095f9054906101000a900460ff166107e361063f565b975097509750975097509750975097509091929394959697565b610805610ab1565b61080d61063f565b73ffffffffffffffffffffffffffffffffffffffff1661082b610b00565b73ffffffffffffffffffffffffffffffffffffffff1603610881576040517f08c379a000000000000000000000000000000000000000000000000000000000815260040161087890611c08565b60405180910390fd5b60085442116108c5576040517f08c379a00000000000000000000000000000000000000000000000000000000081526004016108bc90611c70565b60405180910390fd5b5f73ffffffffffffffffffffffffffffffffffffffff1660075f9054906101000a900473ffffffffffffffffffffffffffffffffffffffff1673ffffffffffffffffffffffffffffffffffffffff16036109275761092234610ba8565b610943565b610939610932610b00565b3083610cf7565b61094281610ba8565b5b61094b610b9f565b50565b5f808273ffffffffffffffffffffffffffffffffffffffff163b119050919050565b60035460045410156109b7576040517f08c379a00000000000000000000000000000000000000000000000000000000081526004016109ae90611cfe565b60405180910390fd5b6109c083610e71565b8160025f6101000a81548173ffffffffffffffffffffffffffffffffffffffff021916908373ffffffffffffffffffffffffffffffffffffffff160217905550805f0151600381905550806020015160048190555080604001516005819055508060600151600681905550806080015160075f6101000a81548173ffffffffffffffffffffffffffffffffffffffff021916908373ffffffffffffffffffffffffffffffffffffffff1602179055508060a00151600881905550505050565b81600a9080519060200190610a95929190611230565b5080600b9080519060200190610aac9291906112b7565b505050565b600260015403610af6576040517f08c379a0000000000000000000000000000000000000000000000000000000008152600401610aed90611d66565b60405180910390fd5b6002600181905550565b5f33905090565b610b118282610eb3565b5050565b60025f9054906101000a900473ffffffffffffffffffffffffffffffffffffffff1673ffffffffffffffffffffffffffffffffffffffff16635e62fea260046040518263ffffffff1660e01b8152600401610b709190611dbd565b5f604051808303815f87803b158015610b87575f80fd5b505af1158015610b99573d5f803e3d5ffd5b50505050565b60018081905550565b5f610bdb600160065460085442610bbf9190611e03565b610bc99190611e63565b610bd39190611e93565b600554610f95565b90505f151560095f9054906101000a900460ff16151514610c31576040517f08c379a0000000000000000000000000000000000000000000000000000000008152600401610c2890611ba0565b60405180910390fd5b80821015610c74576040517f08c379a0000000000000000000000000000000000000000000000000000000008152600401610c6b90611f10565b60405180910390fd5b610c8530610c80610b00565b610b07565b610c96610c9061063f565b82610fad565b5f8183610ca39190611e03565b90505f811115610cbf57610cbe610cb8610b00565b82610fad565b5b600160095f6101000a81548160ff021916908315150217905550610cea610ce4610b00565b846110af565b610cf2610b15565b505050565b3073ffffffffffffffffffffffffffffffffffffffff168373ffffffffffffffffffffffffffffffffffffffff1603610dcc5760075f9054906101000a900473ffffffffffffffffffffffffffffffffffffffff1673ffffffffffffffffffffffffffffffffffffffff1663a9059cbb83836040518363ffffffff1660e01b8152600401610d86929190611f2e565b6020604051808303815f875af1158015610da2573d5f803e3d5ffd5b505050506040513d601f19601f82011682018060405250810190610dc69190611f7f565b50610e6c565b60075f9054906101000a900473ffffffffffffffffffffffffffffffffffffffff1673ffffffffffffffffffffffffffffffffffffffff166323b872dd8484846040518463ffffffff1660e01b8152600401610e2a93929190611faa565b6020604051808303815f875af1158015610e46573d5f803e3d5ffd5b505050506040513d601f19601f82011682018060405250810190610e6a9190611f7f565b505b505050565b805f806101000a81548173ffffffffffffffffffffffffffffffffffffffff021916908373ffffffffffffffffffffffffffffffffffffffff16021790555050565b5f5b600a80549050811015610f9057600a8181548110610ed657610ed5611fdf565b5b905f5260205f20015f9054906101000a900473ffffffffffffffffffffffffffffffffffffffff1673ffffffffffffffffffffffffffffffffffffffff166342842e0e8484600b8581548110610f2f57610f2e611fdf565b5b905f5260205f2001546040518463ffffffff1660e01b8152600401610f5693929190611faa565b5f604051808303815f87803b158015610f6d575f80fd5b505af1158015610f7f573d5f803e3d5ffd5b505050508080600101915050610eb5565b505050565b5f818310610fa35781610fa5565b825b905092915050565b5f73ffffffffffffffffffffffffffffffffffffffff1660075f9054906101000a900473ffffffffffffffffffffffffffffffffffffffff1673ffffffffffffffffffffffffffffffffffffffff160361109f57611099828260025f9054906101000a900473ffffffffffffffffffffffffffffffffffffffff1673ffffffffffffffffffffffffffffffffffffffff1663040141e56040518163ffffffff1660e01b8152600401602060405180830381865afa158015611070573d5f803e3d5ffd5b505050506040513d601f19601f820116820180604052508101906110949190612020565b61113f565b506110ab565b6110aa308383610cf7565b5b5050565b60025f9054906101000a900473ffffffffffffffffffffffffffffffffffffffff1673ffffffffffffffffffffffffffffffffffffffff1663d611ee87600484846040518463ffffffff1660e01b815260040161110e9392919061204b565b5f604051808303815f87803b158015611125575f80fd5b505af1158015611137573d5f803e3d5ffd5b505050505050565b5f805f805f86885af1905080611229578173ffffffffffffffffffffffffffffffffffffffff1663d0e30db0846040518263ffffffff1660e01b81526004015f604051808303818588803b158015611195575f80fd5b505af11580156111a7573d5f803e3d5ffd5b50505050508173ffffffffffffffffffffffffffffffffffffffff1663a9059cbb85856040518363ffffffff1660e01b81526004016111e7929190611f2e565b6020604051808303815f875af1158015611203573d5f803e3d5ffd5b505050506040513d601f19601f820116820180604052508101906112279190611f7f565b505b9392505050565b828054828255905f5260205f209081019282156112a6579160200282015b828111156112a5578251825f6101000a81548173ffffffffffffffffffffffffffffffffffffffff021916908373ffffffffffffffffffffffffffffffffffffffff1602179055509160200191906001019061124e565b5b5090506112b39190611302565b5090565b828054828255905f5260205f209081019282156112f1579160200282015b828111156112f05782518255916020019190600101906112d5565b5b5090506112fe9190611302565b5090565b5b80821115611319575f815f905550600101611303565b5090565b5f604051905090565b5f80fd5b5f80fd5b5f819050919050565b6113408161132e565b811461134a575f80fd5b50565b5f8135905061135b81611337565b92915050565b5f6020828403121561137657611375611326565b5b5f6113838482850161134d565b91505092915050565b5f73ffffffffffffffffffffffffffffffffffffffff82169050919050565b5f6113b58261138c565b9050919050565b6113c5816113ab565b82525050565b5f6020820190506113de5f8301846113bc565b92915050565b6113ed816113ab565b81146113f7575f80fd5b50565b5f81359050611408816113e4565b92915050565b5f80fd5b5f601f19601f8301169050919050565b7f4e487b71000000000000000000000000000000000000000000000000000000005f52604160045260245ffd5b61145882611412565b810181811067ffffffffffffffff8211171561147757611476611422565b5b80604052505050565b5f61148961131d565b9050611495828261144f565b919050565b5f67ffffffffffffffff8211156114b4576114b3611422565b5b602082029050602081019050919050565b5f80fd5b5f6114db6114d68461149a565b611480565b905080838252602082019050602084028301858111156114fe576114fd6114c5565b5b835b81811015611527578061151388826113fa565b845260208401935050602081019050611500565b5050509392505050565b5f82601f8301126115455761154461140e565b5b81356115558482602086016114c9565b91505092915050565b5f67ffffffffffffffff82111561157857611577611422565b5b602082029050602081019050919050565b5f61159b6115968461155e565b611480565b905080838252602082019050602084028301858111156115be576115bd6114c5565b5b835b818110156115e757806115d3888261134d565b8452602084019350506020810190506115c0565b5050509392505050565b5f82601f8301126116055761160461140e565b5b8135611615848260208601611589565b91505092915050565b5f80fd5b5f60c082840312156116375761163661161e565b5b61164160c0611480565b90505f6116508482850161134d565b5f8301525060206116638482850161134d565b60208301525060406116778482850161134d565b604083015250606061168b8482850161134d565b606083015250608061169f848285016113fa565b60808301525060a06116b38482850161134d565b60a08301525092915050565b5f805f805f61014086880312156116d9576116d8611326565b5b5f6116e6888289016113fa565b95505060206116f7888289016113fa565b945050604086013567ffffffffffffffff8111156117185761171761132a565b5b61172488828901611531565b935050606086013567ffffffffffffffff8111156117455761174461132a565b5b611751888289016115f1565b925050608061176288828901611622565b9150509295509295909350565b6117788161132e565b82525050565b5f6020820190506117915f83018461176f565b92915050565b5f81519050919050565b5f82825260208201905092915050565b5f819050602082019050919050565b6117c9816113ab565b82525050565b5f6117da83836117c0565b60208301905092915050565b5f602082019050919050565b5f6117fc82611797565b61180681856117a1565b9350611811836117b1565b805f5b8381101561184157815161182888826117cf565b9750611833836117e6565b925050600181019050611814565b5085935050505092915050565b5f81519050919050565b5f82825260208201905092915050565b5f819050602082019050919050565b6118808161132e565b82525050565b5f6118918383611877565b60208301905092915050565b5f602082019050919050565b5f6118b38261184e565b6118bd8185611858565b93506118c883611868565b805f5b838110156118f85781516118df8882611886565b97506118ea8361189d565b9250506001810190506118cb565b5085935050505092915050565b5f6040820190508181035f83015261191d81856117f2565b9050818103602083015261193181846118a9565b90509392505050565b5f8115159050919050565b61194e8161193a565b82525050565b5f6020820190506119675f830184611945565b92915050565b5f610100820190506119815f83018b61176f565b61198e602083018a61176f565b61199b604083018961176f565b6119a8606083018861176f565b6119b560808301876113bc565b6119c260a083018661176f565b6119cf60c0830185611945565b6119dc60e08301846113bc565b9998505050505050505050565b5f82825260208201905092915050565b7f496e697469616c697a61626c653a20636f6e747261637420697320616c7265615f8201527f647920696e697469616c697a6564000000000000000000000000000000000000602082015250565b5f611a53602e836119e9565b9150611a5e826119f9565b604082019050919050565b5f6020820190508181035f830152611a8081611a47565b9050919050565b5f819050919050565b5f60ff82169050919050565b5f819050919050565b5f611abf611aba611ab584611a87565b611a9c565b611a90565b9050919050565b611acf81611aa5565b82525050565b5f602082019050611ae85f830184611ac6565b92915050565b7f4f776e61626c653a2063616c6c6572206973206e6f7420746865206f776e65725f82015250565b5f611b226020836119e9565b9150611b2d82611aee565b602082019050919050565b5f6020820190508181035f830152611b4f81611b16565b9050919050565b7f41756374696f6e20656e646564000000000000000000000000000000000000005f82015250565b5f611b8a600d836119e9565b9150611b9582611b56565b602082019050919050565b5f6020820190508181035f830152611bb781611b7e565b9050919050565b7f41756374696f6e6565722063616e6e6f742062696400000000000000000000005f82015250565b5f611bf26015836119e9565b9150611bfd82611bbe565b602082019050919050565b5f6020820190508181035f830152611c1f81611be6565b9050919050565b7f41756374696f6e206e6f742073746172746564207965740000000000000000005f82015250565b5f611c5a6017836119e9565b9150611c6582611c26565b602082019050919050565b5f6020820190508181035f830152611c8781611c4e565b9050919050565b7f5374617274696e67207072696365206d757374206265206772656174657220745f8201527f68616e206d696e696d756d207072696365000000000000000000000000000000602082015250565b5f611ce86031836119e9565b9150611cf382611c8e565b604082019050919050565b5f6020820190508181035f830152611d1581611cdc565b9050919050565b7f5265656e7472616e637947756172643a207265656e7472616e742063616c6c005f82015250565b5f611d50601f836119e9565b9150611d5b82611d1c565b602082019050919050565b5f6020820190508181035f830152611d7d81611d44565b9050919050565b5f819050919050565b5f611da7611da2611d9d84611d84565b611a9c565b61132e565b9050919050565b611db781611d8d565b82525050565b5f602082019050611dd05f830184611dae565b92915050565b7f4e487b71000000000000000000000000000000000000000000000000000000005f52601160045260245ffd5b5f611e0d8261132e565b9150611e188361132e565b9250828203905081811115611e3057611e2f611dd6565b5b92915050565b7f4e487b71000000000000000000000000000000000000000000000000000000005f52601260045260245ffd5b5f611e6d8261132e565b9150611e788361132e565b925082611e8857611e87611e36565b5b828204905092915050565b5f611e9d8261132e565b9150611ea88361132e565b9250828201905080821115611ec057611ebf611dd6565b5b92915050565b7f42696420707269636520746f6f206c6f770000000000000000000000000000005f82015250565b5f611efa6011836119e9565b9150611f0582611ec6565b602082019050919050565b5f6020820190508181035f830152611f2781611eee565b9050919050565b5f604082019050611f415f8301856113bc565b611f4e602083018461176f565b9392505050565b611f5e8161193a565b8114611f68575f80fd5b50565b5f81519050611f7981611f55565b92915050565b5f60208284031215611f9457611f93611326565b5b5f611fa184828501611f6b565b91505092915050565b5f606082019050611fbd5f8301866113bc565b611fca60208301856113bc565b611fd7604083018461176f565b949350505050565b7f4e487b71000000000000000000000000000000000000000000000000000000005f52603260045260245ffd5b5f8151905061201a816113e4565b92915050565b5f6020828403121561203557612034611326565b5b5f6120428482850161200c565b91505092915050565b5f60608201905061205e5f830186611dae565b61206b60208301856113bc565b612078604083018461176f565b94935050505056fea2646970667358221220644046ee6fd18487e4dbe9b192a5c63b2565b22c1b5a61334d7d0b64eeda082f64736f6c63430008180033",
					"opcodes": "PUSH1 0x80 PUSH1 0x40 MSTORE CALLVALUE DUP1 ISZERO PUSH2 0xF JUMPI PUSH0 DUP1 REVERT JUMPDEST POP PUSH1 0x1 DUP1 DUP2 SWAP1 SSTORE POP PUSH2 0x20B6 DUP1 PUSH2 0x24 PUSH0 CODECOPY PUSH0 RETURN INVALID PUSH1 0x80 PUSH1 0x40 MSTORE PUSH1 0x4 CALLDATASIZE LT PUSH2 0xEB JUMPI PUSH0 CALLDATALOAD PUSH1 0xE0 SHR DUP1 PUSH4 0x7DCB0E5F GT PUSH2 0x89 JUMPI DUP1 PUSH4 0xA4FD6F56 GT PUSH2 0x58 JUMPI DUP1 PUSH4 0xA4FD6F56 EQ PUSH2 0x2D3 JUMPI DUP1 PUSH4 0xD6FBF202 EQ PUSH2 0x2FD JUMPI DUP1 PUSH4 0xD94A3505 EQ PUSH2 0x327 JUMPI DUP1 PUSH4 0xD96A094A EQ PUSH2 0x358 JUMPI PUSH2 0xF2 JUMP JUMPDEST DUP1 PUSH4 0x7DCB0E5F EQ PUSH2 0x22D JUMPI DUP1 PUSH4 0x7F386B6C EQ PUSH2 0x269 JUMPI DUP1 PUSH4 0x8DA5CB5B EQ PUSH2 0x293 JUMPI DUP1 PUSH4 0x8FA8B790 EQ PUSH2 0x2BD JUMPI PUSH2 0xF2 JUMP JUMPDEST DUP1 PUSH4 0x3013CE29 GT PUSH2 0xC5 JUMPI DUP1 PUSH4 0x3013CE29 EQ PUSH2 0x184 JUMPI DUP1 PUSH4 0x39518B5E EQ PUSH2 0x1AE JUMPI DUP1 PUSH4 0x4A4E5776 EQ PUSH2 0x1D8 JUMPI DUP1 PUSH4 0x4D21E019 EQ PUSH2 0x202 JUMPI PUSH2 0xF2 JUMP JUMPDEST DUP1 PUSH4 0x521CC59 EQ PUSH2 0xF6 JUMPI DUP1 PUSH4 0xC5D9D86 EQ PUSH2 0x132 JUMPI DUP1 PUSH4 0x1E6F3677 EQ PUSH2 0x15A JUMPI PUSH2 0xF2 JUMP JUMPDEST CALLDATASIZE PUSH2 0xF2 JUMPI STOP JUMPDEST PUSH0 DUP1 REVERT JUMPDEST CALLVALUE DUP1 ISZERO PUSH2 0x101 JUMPI PUSH0 DUP1 REVERT JUMPDEST POP PUSH2 0x11C PUSH1 0x4 DUP1 CALLDATASIZE SUB DUP2 ADD SWAP1 PUSH2 0x117 SWAP2 SWAP1 PUSH2 0x1361 JUMP JUMPDEST PUSH2 0x374 JUMP JUMPDEST PUSH1 0x40 MLOAD PUSH2 0x129 SWAP2 SWAP1 PUSH2 0x13CB JUMP JUMPDEST PUSH1 0x40 MLOAD DUP1 SWAP2 SUB SWAP1 RETURN JUMPDEST CALLVALUE DUP1 ISZERO PUSH2 0x13D JUMPI PUSH0 DUP1 REVERT JUMPDEST POP PUSH2 0x158 PUSH1 0x4 DUP1 CALLDATASIZE SUB DUP2 ADD SWAP1 PUSH2 0x153 SWAP2 SWAP1 PUSH2 0x16BF JUMP JUMPDEST PUSH2 0x3AF JUMP JUMPDEST STOP JUMPDEST CALLVALUE DUP1 ISZERO PUSH2 0x165 JUMPI PUSH0 DUP1 REVERT JUMPDEST POP PUSH2 0x16E PUSH2 0x4FE JUMP JUMPDEST PUSH1 0x40 MLOAD PUSH2 0x17B SWAP2 SWAP1 PUSH2 0x177E JUMP JUMPDEST PUSH1 0x40 MLOAD DUP1 SWAP2 SUB SWAP1 RETURN JUMPDEST CALLVALUE DUP1 ISZERO PUSH2 0x18F JUMPI PUSH0 DUP1 REVERT JUMPDEST POP PUSH2 0x198 PUSH2 0x504 JUMP JUMPDEST PUSH1 0x40 MLOAD PUSH2 0x1A5 SWAP2 SWAP1 PUSH2 0x13CB JUMP JUMPDEST PUSH1 0x40 MLOAD DUP1 SWAP2 SUB SWAP1 RETURN JUMPDEST CALLVALUE DUP1 ISZERO PUSH2 0x1B9 JUMPI PUSH0 DUP1 REVERT JUMPDEST POP PUSH2 0x1C2 PUSH2 0x529 JUMP JUMPDEST PUSH1 0x40 MLOAD PUSH2 0x1CF SWAP2 SWAP1 PUSH2 0x177E JUMP JUMPDEST PUSH1 0x40 MLOAD DUP1 SWAP2 SUB SWAP1 RETURN JUMPDEST CALLVALUE DUP1 ISZERO PUSH2 0x1E3 JUMPI PUSH0 DUP1 REVERT JUMPDEST POP PUSH2 0x1EC PUSH2 0x52F JUMP JUMPDEST PUSH1 0x40 MLOAD PUSH2 0x1F9 SWAP2 SWAP1 PUSH2 0x177E JUMP JUMPDEST PUSH1 0x40 MLOAD DUP1 SWAP2 SUB SWAP1 RETURN JUMPDEST CALLVALUE DUP1 ISZERO PUSH2 0x20D JUMPI PUSH0 DUP1 REVERT JUMPDEST POP PUSH2 0x216 PUSH2 0x535 JUMP JUMPDEST PUSH1 0x40 MLOAD PUSH2 0x224 SWAP3 SWAP2 SWAP1 PUSH2 0x1905 JUMP JUMPDEST PUSH1 0x40 MLOAD DUP1 SWAP2 SUB SWAP1 RETURN JUMPDEST CALLVALUE DUP1 ISZERO PUSH2 0x238 JUMPI PUSH0 DUP1 REVERT JUMPDEST POP PUSH2 0x253 PUSH1 0x4 DUP1 CALLDATASIZE SUB DUP2 ADD SWAP1 PUSH2 0x24E SWAP2 SWAP1 PUSH2 0x1361 JUMP JUMPDEST PUSH2 0x619 JUMP JUMPDEST PUSH1 0x40 MLOAD PUSH2 0x260 SWAP2 SWAP1 PUSH2 0x177E JUMP JUMPDEST PUSH1 0x40 MLOAD DUP1 SWAP2 SUB SWAP1 RETURN JUMPDEST CALLVALUE DUP1 ISZERO PUSH2 0x274 JUMPI PUSH0 DUP1 REVERT JUMPDEST POP PUSH2 0x27D PUSH2 0x639 JUMP JUMPDEST PUSH1 0x40 MLOAD PUSH2 0x28A SWAP2 SWAP1 PUSH2 0x177E JUMP JUMPDEST PUSH1 0x40 MLOAD DUP1 SWAP2 SUB SWAP1 RETURN JUMPDEST CALLVALUE DUP1 ISZERO PUSH2 0x29E JUMPI PUSH0 DUP1 REVERT JUMPDEST POP PUSH2 0x2A7 PUSH2 0x63F JUMP JUMPDEST PUSH1 0x40 MLOAD PUSH2 0x2B4 SWAP2 SWAP1 PUSH2 0x13CB JUMP JUMPDEST PUSH1 0x40 MLOAD DUP1 SWAP2 SUB SWAP1 RETURN JUMPDEST CALLVALUE DUP1 ISZERO PUSH2 0x2C8 JUMPI PUSH0 DUP1 REVERT JUMPDEST POP PUSH2 0x2D1 PUSH2 0x666 JUMP JUMPDEST STOP JUMPDEST CALLVALUE DUP1 ISZERO PUSH2 0x2DE JUMPI PUSH0 DUP1 REVERT JUMPDEST POP PUSH2 0x2E7 PUSH2 0x77B JUMP JUMPDEST PUSH1 0x40 MLOAD PUSH2 0x2F4 SWAP2 SWAP1 PUSH2 0x1954 JUMP JUMPDEST PUSH1 0x40 MLOAD DUP1 SWAP2 SUB SWAP1 RETURN JUMPDEST CALLVALUE DUP1 ISZERO PUSH2 0x308 JUMPI PUSH0 DUP1 REVERT JUMPDEST POP PUSH2 0x311 PUSH2 0x78D JUMP JUMPDEST PUSH1 0x40 MLOAD PUSH2 0x31E SWAP2 SWAP1 PUSH2 0x177E JUMP JUMPDEST PUSH1 0x40 MLOAD DUP1 SWAP2 SUB SWAP1 RETURN JUMPDEST CALLVALUE DUP1 ISZERO PUSH2 0x332 JUMPI PUSH0 DUP1 REVERT JUMPDEST POP PUSH2 0x33B PUSH2 0x793 JUMP JUMPDEST PUSH1 0x40 MLOAD PUSH2 0x34F SWAP9 SWAP8 SWAP7 SWAP6 SWAP5 SWAP4 SWAP3 SWAP2 SWAP1 PUSH2 0x196D JUMP JUMPDEST PUSH1 0x40 MLOAD DUP1 SWAP2 SUB SWAP1 RETURN JUMPDEST PUSH2 0x372 PUSH1 0x4 DUP1 CALLDATASIZE SUB DUP2 ADD SWAP1 PUSH2 0x36D SWAP2 SWAP1 PUSH2 0x1361 JUMP JUMPDEST PUSH2 0x7FD JUMP JUMPDEST STOP JUMPDEST PUSH1 0xA DUP2 DUP2 SLOAD DUP2 LT PUSH2 0x383 JUMPI PUSH0 DUP1 REVERT JUMPDEST SWAP1 PUSH0 MSTORE PUSH1 0x20 PUSH0 KECCAK256 ADD PUSH0 SWAP2 POP SLOAD SWAP1 PUSH2 0x100 EXP SWAP1 DIV PUSH20 0xFFFFFFFFFFFFFFFFFFFFFFFFFFFFFFFFFFFFFFFF AND DUP2 JUMP JUMPDEST PUSH0 DUP1 PUSH1 0x15 SWAP1 SLOAD SWAP1 PUSH2 0x100 EXP SWAP1 DIV PUSH1 0xFF AND ISZERO SWAP1 POP DUP1 DUP1 ISZERO PUSH2 0x3E0 JUMPI POP PUSH1 0x1 PUSH0 PUSH1 0x14 SWAP1 SLOAD SWAP1 PUSH2 0x100 EXP SWAP1 DIV PUSH1 0xFF AND PUSH1 0xFF AND LT JUMPDEST DUP1 PUSH2 0x40E JUMPI POP PUSH2 0x3EF ADDRESS PUSH2 0x94E JUMP JUMPDEST ISZERO DUP1 ISZERO PUSH2 0x40D JUMPI POP PUSH1 0x1 PUSH0 PUSH1 0x14 SWAP1 SLOAD SWAP1 PUSH2 0x100 EXP SWAP1 DIV PUSH1 0xFF AND PUSH1 0xFF AND EQ JUMPDEST JUMPDEST PUSH2 0x44D JUMPI PUSH1 0x40 MLOAD PUSH32 0x8C379A000000000000000000000000000000000000000000000000000000000 DUP2 MSTORE PUSH1 0x4 ADD PUSH2 0x444 SWAP1 PUSH2 0x1A69 JUMP JUMPDEST PUSH1 0x40 MLOAD DUP1 SWAP2 SUB SWAP1 REVERT JUMPDEST PUSH1 0x1 PUSH0 PUSH1 0x14 PUSH2 0x100 EXP DUP2 SLOAD DUP2 PUSH1 0xFF MUL NOT AND SWAP1 DUP4 PUSH1 0xFF AND MUL OR SWAP1 SSTORE POP DUP1 ISZERO PUSH2 0x489 JUMPI PUSH1 0x1 PUSH0 PUSH1 0x15 PUSH2 0x100 EXP DUP2 SLOAD DUP2 PUSH1 0xFF MUL NOT AND SWAP1 DUP4 ISZERO ISZERO MUL OR SWAP1 SSTORE POP JUMPDEST PUSH2 0x494 DUP7 DUP7 DUP5 PUSH2 0x970 JUMP JUMPDEST PUSH2 0x49E DUP5 DUP5 PUSH2 0xA7F JUMP JUMPDEST DUP1 ISZERO PUSH2 0x4F6 JUMPI PUSH0 DUP1 PUSH1 0x15 PUSH2 0x100 EXP DUP2 SLOAD DUP2 PUSH1 0xFF MUL NOT AND SWAP1 DUP4 ISZERO ISZERO MUL OR SWAP1 SSTORE POP PUSH32 0x7F26B83FF96E1F2B6A682F133852F6798A09C465DA95921460CEFB3847402498 PUSH1 0x1 PUSH1 0x40 MLOAD PUSH2 0x4ED SWAP2 SWAP1 PUSH2 0x1AD5 JUMP JUMPDEST PUSH1 0x40 MLOAD DUP1 SWAP2 SUB SWAP1 LOG1 JUMPDEST POP POP POP POP POP POP JUMP JUMPDEST PUSH1 0x5 SLOAD DUP2 JUMP JUMPDEST PUSH1 0x7 PUSH0 SWAP1 SLOAD SWAP1 PUSH2 0x100 EXP SWAP1 DIV PUSH20 0xFFFFFFFFFFFFFFFFFFFFFFFFFFFFFFFFFFFFFFFF AND DUP2 JUMP JUMPDEST PUSH1 0x8 SLOAD DUP2 JUMP JUMPDEST PUSH1 0x6 SLOAD DUP2 JUMP JUMPDEST PUSH1 0x60 DUP1 PUSH1 0xA PUSH1 0xB DUP2 DUP1 SLOAD DUP1 PUSH1 0x20 MUL PUSH1 0x20 ADD PUSH1 0x40 MLOAD SWAP1 DUP2 ADD PUSH1 0x40 MSTORE DUP1 SWAP3 SWAP2 SWAP1 DUP2 DUP2 MSTORE PUSH1 0x20 ADD DUP3 DUP1 SLOAD DUP1 ISZERO PUSH2 0x5BA JUMPI PUSH1 0x20 MUL DUP3 ADD SWAP2 SWAP1 PUSH0 MSTORE PUSH1 0x20 PUSH0 KECCAK256 SWAP1 JUMPDEST DUP2 PUSH0 SWAP1 SLOAD SWAP1 PUSH2 0x100 EXP SWAP1 DIV PUSH20 0xFFFFFFFFFFFFFFFFFFFFFFFFFFFFFFFFFFFFFFFF AND PUSH20 0xFFFFFFFFFFFFFFFFFFFFFFFFFFFFFFFFFFFFFFFF AND DUP2 MSTORE PUSH1 0x20 ADD SWAP1 PUSH1 0x1 ADD SWAP1 DUP1 DUP4 GT PUSH2 0x571 JUMPI JUMPDEST POP POP POP POP POP SWAP2 POP DUP1 DUP1 SLOAD DUP1 PUSH1 0x20 MUL PUSH1 0x20 ADD PUSH1 0x40 MLOAD SWAP1 DUP2 ADD PUSH1 0x40 MSTORE DUP1 SWAP3 SWAP2 SWAP1 DUP2 DUP2 MSTORE PUSH1 0x20 ADD DUP3 DUP1 SLOAD DUP1 ISZERO PUSH2 0x60A JUMPI PUSH1 0x20 MUL DUP3 ADD SWAP2 SWAP1 PUSH0 MSTORE PUSH1 0x20 PUSH0 KECCAK256 SWAP1 JUMPDEST DUP2 SLOAD DUP2 MSTORE PUSH1 0x20 ADD SWAP1 PUSH1 0x1 ADD SWAP1 DUP1 DUP4 GT PUSH2 0x5F6 JUMPI JUMPDEST POP POP POP POP POP SWAP1 POP SWAP2 POP SWAP2 POP SWAP1 SWAP2 JUMP JUMPDEST PUSH1 0xB DUP2 DUP2 SLOAD DUP2 LT PUSH2 0x628 JUMPI PUSH0 DUP1 REVERT JUMPDEST SWAP1 PUSH0 MSTORE PUSH1 0x20 PUSH0 KECCAK256 ADD PUSH0 SWAP2 POP SWAP1 POP SLOAD DUP2 JUMP JUMPDEST PUSH1 0x3 SLOAD DUP2 JUMP JUMPDEST PUSH0 DUP1 PUSH0 SWAP1 SLOAD SWAP1 PUSH2 0x100 EXP SWAP1 DIV PUSH20 0xFFFFFFFFFFFFFFFFFFFFFFFFFFFFFFFFFFFFFFFF AND SWAP1 POP SWAP1 JUMP JUMPDEST PUSH2 0x66E PUSH2 0xAB1 JUMP JUMPDEST PUSH2 0x676 PUSH2 0xB00 JUMP JUMPDEST PUSH20 0xFFFFFFFFFFFFFFFFFFFFFFFFFFFFFFFFFFFFFFFF AND PUSH2 0x694 PUSH2 0x63F JUMP JUMPDEST PUSH20 0xFFFFFFFFFFFFFFFFFFFFFFFFFFFFFFFFFFFFFFFF AND EQ PUSH2 0x6EA JUMPI PUSH1 0x40 MLOAD PUSH32 0x8C379A000000000000000000000000000000000000000000000000000000000 DUP2 MSTORE PUSH1 0x4 ADD PUSH2 0x6E1 SWAP1 PUSH2 0x1B38 JUMP JUMPDEST PUSH1 0x40 MLOAD DUP1 SWAP2 SUB SWAP1 REVERT JUMPDEST PUSH0 ISZERO ISZERO PUSH1 0x9 PUSH0 SWAP1 SLOAD SWAP1 PUSH2 0x100 EXP SWAP1 DIV PUSH1 0xFF AND ISZERO ISZERO EQ PUSH2 0x73E JUMPI PUSH1 0x40 MLOAD PUSH32 0x8C379A000000000000000000000000000000000000000000000000000000000 DUP2 MSTORE PUSH1 0x4 ADD PUSH2 0x735 SWAP1 PUSH2 0x1BA0 JUMP JUMPDEST PUSH1 0x40 MLOAD DUP1 SWAP2 SUB SWAP1 REVERT JUMPDEST PUSH1 0x1 PUSH1 0x9 PUSH0 PUSH2 0x100 EXP DUP2 SLOAD DUP2 PUSH1 0xFF MUL NOT AND SWAP1 DUP4 ISZERO ISZERO MUL OR SWAP1 SSTORE POP PUSH2 0x769 ADDRESS PUSH2 0x764 PUSH2 0xB00 JUMP JUMPDEST PUSH2 0xB07 JUMP JUMPDEST PUSH2 0x771 PUSH2 0xB15 JUMP JUMPDEST PUSH2 0x779 PUSH2 0xB9F JUMP JUMPDEST JUMP JUMPDEST PUSH1 0x9 PUSH0 SWAP1 SLOAD SWAP1 PUSH2 0x100 EXP SWAP1 DIV PUSH1 0xFF AND DUP2 JUMP JUMPDEST PUSH1 0x4 SLOAD DUP2 JUMP JUMPDEST PUSH0 DUP1 PUSH0 DUP1 PUSH0 DUP1 PUSH0 DUP1 PUSH1 0x3 SLOAD PUSH1 0x4 SLOAD PUSH1 0x5 SLOAD PUSH1 0x6 SLOAD PUSH1 0x7 PUSH0 SWAP1 SLOAD SWAP1 PUSH2 0x100 EXP SWAP1 DIV PUSH20 0xFFFFFFFFFFFFFFFFFFFFFFFFFFFFFFFFFFFFFFFF AND PUSH1 0x8 SLOAD PUSH1 0x9 PUSH0 SWAP1 SLOAD SWAP1 PUSH2 0x100 EXP SWAP1 DIV PUSH1 0xFF AND PUSH2 0x7E3 PUSH2 0x63F JUMP JUMPDEST SWAP8 POP SWAP8 POP SWAP8 POP SWAP8 POP SWAP8 POP SWAP8 POP SWAP8 POP SWAP8 POP SWAP1 SWAP2 SWAP3 SWAP4 SWAP5 SWAP6 SWAP7 SWAP8 JUMP JUMPDEST PUSH2 0x805 PUSH2 0xAB1 JUMP JUMPDEST PUSH2 0x80D PUSH2 0x63F JUMP JUMPDEST PUSH20 0xFFFFFFFFFFFFFFFFFFFFFFFFFFFFFFFFFFFFFFFF AND PUSH2 0x82B PUSH2 0xB00 JUMP JUMPDEST PUSH20 0xFFFFFFFFFFFFFFFFFFFFFFFFFFFFFFFFFFFFFFFF AND SUB PUSH2 0x881 JUMPI PUSH1 0x40 MLOAD PUSH32 0x8C379A000000000000000000000000000000000000000000000000000000000 DUP2 MSTORE PUSH1 0x4 ADD PUSH2 0x878 SWAP1 PUSH2 0x1C08 JUMP JUMPDEST PUSH1 0x40 MLOAD DUP1 SWAP2 SUB SWAP1 REVERT JUMPDEST PUSH1 0x8 SLOAD TIMESTAMP GT PUSH2 0x8C5 JUMPI PUSH1 0x40 MLOAD PUSH32 0x8C379A000000000000000000000000000000000000000000000000000000000 DUP2 MSTORE PUSH1 0x4 ADD PUSH2 0x8BC SWAP1 PUSH2 0x1C70 JUMP JUMPDEST PUSH1 0x40 MLOAD DUP1 SWAP2 SUB SWAP1 REVERT JUMPDEST PUSH0 PUSH20 0xFFFFFFFFFFFFFFFFFFFFFFFFFFFFFFFFFFFFFFFF AND PUSH1 0x7 PUSH0 SWAP1 SLOAD SWAP1 PUSH2 0x100 EXP SWAP1 DIV PUSH20 0xFFFFFFFFFFFFFFFFFFFFFFFFFFFFFFFFFFFFFFFF AND PUSH20 0xFFFFFFFFFFFFFFFFFFFFFFFFFFFFFFFFFFFFFFFF AND SUB PUSH2 0x927 JUMPI PUSH2 0x922 CALLVALUE PUSH2 0xBA8 JUMP JUMPDEST PUSH2 0x943 JUMP JUMPDEST PUSH2 0x939 PUSH2 0x932 PUSH2 0xB00 JUMP JUMPDEST ADDRESS DUP4 PUSH2 0xCF7 JUMP JUMPDEST PUSH2 0x942 DUP2 PUSH2 0xBA8 JUMP JUMPDEST JUMPDEST PUSH2 0x94B PUSH2 0xB9F JUMP JUMPDEST POP JUMP JUMPDEST PUSH0 DUP1 DUP3 PUSH20 0xFFFFFFFFFFFFFFFFFFFFFFFFFFFFFFFFFFFFFFFF AND EXTCODESIZE GT SWAP1 POP SWAP2 SWAP1 POP JUMP JUMPDEST PUSH1 0x3 SLOAD PUSH1 0x4 SLOAD LT ISZERO PUSH2 0x9B7 JUMPI PUSH1 0x40 MLOAD PUSH32 0x8C379A000000000000000000000000000000000000000000000000000000000 DUP2 MSTORE PUSH1 0x4 ADD PUSH2 0x9AE SWAP1 PUSH2 0x1CFE JUMP JUMPDEST PUSH1 0x40 MLOAD DUP1 SWAP2 SUB SWAP1 REVERT JUMPDEST PUSH2 0x9C0 DUP4 PUSH2 0xE71 JUMP JUMPDEST DUP2 PUSH1 0x2 PUSH0 PUSH2 0x100 EXP DUP2 SLOAD DUP2 PUSH20 0xFFFFFFFFFFFFFFFFFFFFFFFFFFFFFFFFFFFFFFFF MUL NOT AND SWAP1 DUP4 PUSH20 0xFFFFFFFFFFFFFFFFFFFFFFFFFFFFFFFFFFFFFFFF AND MUL OR SWAP1 SSTORE POP DUP1 PUSH0 ADD MLOAD PUSH1 0x3 DUP2 SWAP1 SSTORE POP DUP1 PUSH1 0x20 ADD MLOAD PUSH1 0x4 DUP2 SWAP1 SSTORE POP DUP1 PUSH1 0x40 ADD MLOAD PUSH1 0x5 DUP2 SWAP1 SSTORE POP DUP1 PUSH1 0x60 ADD MLOAD PUSH1 0x6 DUP2 SWAP1 SSTORE POP DUP1 PUSH1 0x80 ADD MLOAD PUSH1 0x7 PUSH0 PUSH2 0x100 EXP DUP2 SLOAD DUP2 PUSH20 0xFFFFFFFFFFFFFFFFFFFFFFFFFFFFFFFFFFFFFFFF MUL NOT AND SWAP1 DUP4 PUSH20 0xFFFFFFFFFFFFFFFFFFFFFFFFFFFFFFFFFFFFFFFF AND MUL OR SWAP1 SSTORE POP DUP1 PUSH1 0xA0 ADD MLOAD PUSH1 0x8 DUP2 SWAP1 SSTORE POP POP POP POP JUMP JUMPDEST DUP2 PUSH1 0xA SWAP1 DUP1 MLOAD SWAP1 PUSH1 0x20 ADD SWAP1 PUSH2 0xA95 SWAP3 SWAP2 SWAP1 PUSH2 0x1230 JUMP JUMPDEST POP DUP1 PUSH1 0xB SWAP1 DUP1 MLOAD SWAP1 PUSH1 0x20 ADD SWAP1 PUSH2 0xAAC SWAP3 SWAP2 SWAP1 PUSH2 0x12B7 JUMP JUMPDEST POP POP POP JUMP JUMPDEST PUSH1 0x2 PUSH1 0x1 SLOAD SUB PUSH2 0xAF6 JUMPI PUSH1 0x40 MLOAD PUSH32 0x8C379A000000000000000000000000000000000000000000000000000000000 DUP2 MSTORE PUSH1 0x4 ADD PUSH2 0xAED SWAP1 PUSH2 0x1D66 JUMP JUMPDEST PUSH1 0x40 MLOAD DUP1 SWAP2 SUB SWAP1 REVERT JUMPDEST PUSH1 0x2 PUSH1 0x1 DUP2 SWAP1 SSTORE POP JUMP JUMPDEST PUSH0 CALLER SWAP1 POP SWAP1 JUMP JUMPDEST PUSH2 0xB11 DUP3 DUP3 PUSH2 0xEB3 JUMP JUMPDEST POP POP JUMP JUMPDEST PUSH1 0x2 PUSH0 SWAP1 SLOAD SWAP1 PUSH2 0x100 EXP SWAP1 DIV PUSH20 0xFFFFFFFFFFFFFFFFFFFFFFFFFFFFFFFFFFFFFFFF AND PUSH20 0xFFFFFFFFFFFFFFFFFFFFFFFFFFFFFFFFFFFFFFFF AND PUSH4 0x5E62FEA2 PUSH1 0x4 PUSH1 0x40 MLOAD DUP3 PUSH4 0xFFFFFFFF AND PUSH1 0xE0 SHL DUP2 MSTORE PUSH1 0x4 ADD PUSH2 0xB70 SWAP2 SWAP1 PUSH2 0x1DBD JUMP JUMPDEST PUSH0 PUSH1 0x40 MLOAD DUP1 DUP4 SUB DUP2 PUSH0 DUP8 DUP1 EXTCODESIZE ISZERO DUP1 ISZERO PUSH2 0xB87 JUMPI PUSH0 DUP1 REVERT JUMPDEST POP GAS CALL ISZERO DUP1 ISZERO PUSH2 0xB99 JUMPI RETURNDATASIZE PUSH0 DUP1 RETURNDATACOPY RETURNDATASIZE PUSH0 REVERT JUMPDEST POP POP POP POP JUMP JUMPDEST PUSH1 0x1 DUP1 DUP2 SWAP1 SSTORE POP JUMP JUMPDEST PUSH0 PUSH2 0xBDB PUSH1 0x1 PUSH1 0x6 SLOAD PUSH1 0x8 SLOAD TIMESTAMP PUSH2 0xBBF SWAP2 SWAP1 PUSH2 0x1E03 JUMP JUMPDEST PUSH2 0xBC9 SWAP2 SWAP1 PUSH2 0x1E63 JUMP JUMPDEST PUSH2 0xBD3 SWAP2 SWAP1 PUSH2 0x1E93 JUMP JUMPDEST PUSH1 0x5 SLOAD PUSH2 0xF95 JUMP JUMPDEST SWAP1 POP PUSH0 ISZERO ISZERO PUSH1 0x9 PUSH0 SWAP1 SLOAD SWAP1 PUSH2 0x100 EXP SWAP1 DIV PUSH1 0xFF AND ISZERO ISZERO EQ PUSH2 0xC31 JUMPI PUSH1 0x40 MLOAD PUSH32 0x8C379A000000000000000000000000000000000000000000000000000000000 DUP2 MSTORE PUSH1 0x4 ADD PUSH2 0xC28 SWAP1 PUSH2 0x1BA0 JUMP JUMPDEST PUSH1 0x40 MLOAD DUP1 SWAP2 SUB SWAP1 REVERT JUMPDEST DUP1 DUP3 LT ISZERO PUSH2 0xC74 JUMPI PUSH1 0x40 MLOAD PUSH32 0x8C379A000000000000000000000000000000000000000000000000000000000 DUP2 MSTORE PUSH1 0x4 ADD PUSH2 0xC6B SWAP1 PUSH2 0x1F10 JUMP JUMPDEST PUSH1 0x40 MLOAD DUP1 SWAP2 SUB SWAP1 REVERT JUMPDEST PUSH2 0xC85 ADDRESS PUSH2 0xC80 PUSH2 0xB00 JUMP JUMPDEST PUSH2 0xB07 JUMP JUMPDEST PUSH2 0xC96 PUSH2 0xC90 PUSH2 0x63F JUMP JUMPDEST DUP3 PUSH2 0xFAD JUMP JUMPDEST PUSH0 DUP2 DUP4 PUSH2 0xCA3 SWAP2 SWAP1 PUSH2 0x1E03 JUMP JUMPDEST SWAP1 POP PUSH0 DUP2 GT ISZERO PUSH2 0xCBF JUMPI PUSH2 0xCBE PUSH2 0xCB8 PUSH2 0xB00 JUMP JUMPDEST DUP3 PUSH2 0xFAD JUMP JUMPDEST JUMPDEST PUSH1 0x1 PUSH1 0x9 PUSH0 PUSH2 0x100 EXP DUP2 SLOAD DUP2 PUSH1 0xFF MUL NOT AND SWAP1 DUP4 ISZERO ISZERO MUL OR SWAP1 SSTORE POP PUSH2 0xCEA PUSH2 0xCE4 PUSH2 0xB00 JUMP JUMPDEST DUP5 PUSH2 0x10AF JUMP JUMPDEST PUSH2 0xCF2 PUSH2 0xB15 JUMP JUMPDEST POP POP POP JUMP JUMPDEST ADDRESS PUSH20 0xFFFFFFFFFFFFFFFFFFFFFFFFFFFFFFFFFFFFFFFF AND DUP4 PUSH20 0xFFFFFFFFFFFFFFFFFFFFFFFFFFFFFFFFFFFFFFFF AND SUB PUSH2 0xDCC JUMPI PUSH1 0x7 PUSH0 SWAP1 SLOAD SWAP1 PUSH2 0x100 EXP SWAP1 DIV PUSH20 0xFFFFFFFFFFFFFFFFFFFFFFFFFFFFFFFFFFFFFFFF AND PUSH20 0xFFFFFFFFFFFFFFFFFFFFFFFFFFFFFFFFFFFFFFFF AND PUSH4 0xA9059CBB DUP4 DUP4 PUSH1 0x40 MLOAD DUP4 PUSH4 0xFFFFFFFF AND PUSH1 0xE0 SHL DUP2 MSTORE PUSH1 0x4 ADD PUSH2 0xD86 SWAP3 SWAP2 SWAP1 PUSH2 0x1F2E JUMP JUMPDEST PUSH1 0x20 PUSH1 0x40 MLOAD DUP1 DUP4 SUB DUP2 PUSH0 DUP8 GAS CALL ISZERO DUP1 ISZERO PUSH2 0xDA2 JUMPI RETURNDATASIZE PUSH0 DUP1 RETURNDATACOPY RETURNDATASIZE PUSH0 REVERT JUMPDEST POP POP POP POP PUSH1 0x40 MLOAD RETURNDATASIZE PUSH1 0x1F NOT PUSH1 0x1F DUP3 ADD AND DUP3 ADD DUP1 PUSH1 0x40 MSTORE POP DUP2 ADD SWAP1 PUSH2 0xDC6 SWAP2 SWAP1 PUSH2 0x1F7F JUMP JUMPDEST POP PUSH2 0xE6C JUMP JUMPDEST PUSH1 0x7 PUSH0 SWAP1 SLOAD SWAP1 PUSH2 0x100 EXP SWAP1 DIV PUSH20 0xFFFFFFFFFFFFFFFFFFFFFFFFFFFFFFFFFFFFFFFF AND PUSH20 0xFFFFFFFFFFFFFFFFFFFFFFFFFFFFFFFFFFFFFFFF AND PUSH4 0x23B872DD DUP5 DUP5 DUP5 PUSH1 0x40 MLOAD DUP5 PUSH4 0xFFFFFFFF AND PUSH1 0xE0 SHL DUP2 MSTORE PUSH1 0x4 ADD PUSH2 0xE2A SWAP4 SWAP3 SWAP2 SWAP1 PUSH2 0x1FAA JUMP JUMPDEST PUSH1 0x20 PUSH1 0x40 MLOAD DUP1 DUP4 SUB DUP2 PUSH0 DUP8 GAS CALL ISZERO DUP1 ISZERO PUSH2 0xE46 JUMPI RETURNDATASIZE PUSH0 DUP1 RETURNDATACOPY RETURNDATASIZE PUSH0 REVERT JUMPDEST POP POP POP POP PUSH1 0x40 MLOAD RETURNDATASIZE PUSH1 0x1F NOT PUSH1 0x1F DUP3 ADD AND DUP3 ADD DUP1 PUSH1 0x40 MSTORE POP DUP2 ADD SWAP1 PUSH2 0xE6A SWAP2 SWAP1 PUSH2 0x1F7F JUMP JUMPDEST POP JUMPDEST POP POP POP JUMP JUMPDEST DUP1 PUSH0 DUP1 PUSH2 0x100 EXP DUP2 SLOAD DUP2 PUSH20 0xFFFFFFFFFFFFFFFFFFFFFFFFFFFFFFFFFFFFFFFF MUL NOT AND SWAP1 DUP4 PUSH20 0xFFFFFFFFFFFFFFFFFFFFFFFFFFFFFFFFFFFFFFFF AND MUL OR SWAP1 SSTORE POP POP JUMP JUMPDEST PUSH0 JUMPDEST PUSH1 0xA DUP1 SLOAD SWAP1 POP DUP2 LT ISZERO PUSH2 0xF90 JUMPI PUSH1 0xA DUP2 DUP2 SLOAD DUP2 LT PUSH2 0xED6 JUMPI PUSH2 0xED5 PUSH2 0x1FDF JUMP JUMPDEST JUMPDEST SWAP1 PUSH0 MSTORE PUSH1 0x20 PUSH0 KECCAK256 ADD PUSH0 SWAP1 SLOAD SWAP1 PUSH2 0x100 EXP SWAP1 DIV PUSH20 0xFFFFFFFFFFFFFFFFFFFFFFFFFFFFFFFFFFFFFFFF AND PUSH20 0xFFFFFFFFFFFFFFFFFFFFFFFFFFFFFFFFFFFFFFFF AND PUSH4 0x42842E0E DUP5 DUP5 PUSH1 0xB DUP6 DUP2 SLOAD DUP2 LT PUSH2 0xF2F JUMPI PUSH2 0xF2E PUSH2 0x1FDF JUMP JUMPDEST JUMPDEST SWAP1 PUSH0 MSTORE PUSH1 0x20 PUSH0 KECCAK256 ADD SLOAD PUSH1 0x40 MLOAD DUP5 PUSH4 0xFFFFFFFF AND PUSH1 0xE0 SHL DUP2 MSTORE PUSH1 0x4 ADD PUSH2 0xF56 SWAP4 SWAP3 SWAP2 SWAP1 PUSH2 0x1FAA JUMP JUMPDEST PUSH0 PUSH1 0x40 MLOAD DUP1 DUP4 SUB DUP2 PUSH0 DUP8 DUP1 EXTCODESIZE ISZERO DUP1 ISZERO PUSH2 0xF6D JUMPI PUSH0 DUP1 REVERT JUMPDEST POP GAS CALL ISZERO DUP1 ISZERO PUSH2 0xF7F JUMPI RETURNDATASIZE PUSH0 DUP1 RETURNDATACOPY RETURNDATASIZE PUSH0 REVERT JUMPDEST POP POP POP POP DUP1 DUP1 PUSH1 0x1 ADD SWAP2 POP POP PUSH2 0xEB5 JUMP JUMPDEST POP POP POP JUMP JUMPDEST PUSH0 DUP2 DUP4 LT PUSH2 0xFA3 JUMPI DUP2 PUSH2 0xFA5 JUMP JUMPDEST DUP3 JUMPDEST SWAP1 POP SWAP3 SWAP2 POP POP JUMP JUMPDEST PUSH0 PUSH20 0xFFFFFFFFFFFFFFFFFFFFFFFFFFFFFFFFFFFFFFFF AND PUSH1 0x7 PUSH0 SWAP1 SLOAD SWAP1 PUSH2 0x100 EXP SWAP1 DIV PUSH20 0xFFFFFFFFFFFFFFFFFFFFFFFFFFFFFFFFFFFFFFFF AND PUSH20 0xFFFFFFFFFFFFFFFFFFFFFFFFFFFFFFFFFFFFFFFF AND SUB PUSH2 0x109F JUMPI PUSH2 0x1099 DUP3 DUP3 PUSH1 0x2 PUSH0 SWAP1 SLOAD SWAP1 PUSH2 0x100 EXP SWAP1 DIV PUSH20 0xFFFFFFFFFFFFFFFFFFFFFFFFFFFFFFFFFFFFFFFF AND PUSH20 0xFFFFFFFFFFFFFFFFFFFFFFFFFFFFFFFFFFFFFFFF AND PUSH4 0x40141E5 PUSH1 0x40 MLOAD DUP2 PUSH4 0xFFFFFFFF AND PUSH1 0xE0 SHL DUP2 MSTORE PUSH1 0x4 ADD PUSH1 0x20 PUSH1 0x40 MLOAD DUP1 DUP4 SUB DUP2 DUP7 GAS STATICCALL ISZERO DUP1 ISZERO PUSH2 0x1070 JUMPI RETURNDATASIZE PUSH0 DUP1 RETURNDATACOPY RETURNDATASIZE PUSH0 REVERT JUMPDEST POP POP POP POP PUSH1 0x40 MLOAD RETURNDATASIZE PUSH1 0x1F NOT PUSH1 0x1F DUP3 ADD AND DUP3 ADD DUP1 PUSH1 0x40 MSTORE POP DUP2 ADD SWAP1 PUSH2 0x1094 SWAP2 SWAP1 PUSH2 0x2020 JUMP JUMPDEST PUSH2 0x113F JUMP JUMPDEST POP PUSH2 0x10AB JUMP JUMPDEST PUSH2 0x10AA ADDRESS DUP4 DUP4 PUSH2 0xCF7 JUMP JUMPDEST JUMPDEST POP POP JUMP JUMPDEST PUSH1 0x2 PUSH0 SWAP1 SLOAD SWAP1 PUSH2 0x100 EXP SWAP1 DIV PUSH20 0xFFFFFFFFFFFFFFFFFFFFFFFFFFFFFFFFFFFFFFFF AND PUSH20 0xFFFFFFFFFFFFFFFFFFFFFFFFFFFFFFFFFFFFFFFF AND PUSH4 0xD611EE87 PUSH1 0x4 DUP5 DUP5 PUSH1 0x40 MLOAD DUP5 PUSH4 0xFFFFFFFF AND PUSH1 0xE0 SHL DUP2 MSTORE PUSH1 0x4 ADD PUSH2 0x110E SWAP4 SWAP3 SWAP2 SWAP1 PUSH2 0x204B JUMP JUMPDEST PUSH0 PUSH1 0x40 MLOAD DUP1 DUP4 SUB DUP2 PUSH0 DUP8 DUP1 EXTCODESIZE ISZERO DUP1 ISZERO PUSH2 0x1125 JUMPI PUSH0 DUP1 REVERT JUMPDEST POP GAS CALL ISZERO DUP1 ISZERO PUSH2 0x1137 JUMPI RETURNDATASIZE PUSH0 DUP1 RETURNDATACOPY RETURNDATASIZE PUSH0 REVERT JUMPDEST POP POP POP POP POP POP JUMP JUMPDEST PUSH0 DUP1 PUSH0 DUP1 PUSH0 DUP7 DUP9 GAS CALL SWAP1 POP DUP1 PUSH2 0x1229 JUMPI DUP2 PUSH20 0xFFFFFFFFFFFFFFFFFFFFFFFFFFFFFFFFFFFFFFFF AND PUSH4 0xD0E30DB0 DUP5 PUSH1 0x40 MLOAD DUP3 PUSH4 0xFFFFFFFF AND PUSH1 0xE0 SHL DUP2 MSTORE PUSH1 0x4 ADD PUSH0 PUSH1 0x40 MLOAD DUP1 DUP4 SUB DUP2 DUP6 DUP9 DUP1 EXTCODESIZE ISZERO DUP1 ISZERO PUSH2 0x1195 JUMPI PUSH0 DUP1 REVERT JUMPDEST POP GAS CALL ISZERO DUP1 ISZERO PUSH2 0x11A7 JUMPI RETURNDATASIZE PUSH0 DUP1 RETURNDATACOPY RETURNDATASIZE PUSH0 REVERT JUMPDEST POP POP POP POP POP DUP2 PUSH20 0xFFFFFFFFFFFFFFFFFFFFFFFFFFFFFFFFFFFFFFFF AND PUSH4 0xA9059CBB DUP6 DUP6 PUSH1 0x40 MLOAD DUP4 PUSH4 0xFFFFFFFF AND PUSH1 0xE0 SHL DUP2 MSTORE PUSH1 0x4 ADD PUSH2 0x11E7 SWAP3 SWAP2 SWAP1 PUSH2 0x1F2E JUMP JUMPDEST PUSH1 0x20 PUSH1 0x40 MLOAD DUP1 DUP4 SUB DUP2 PUSH0 DUP8 GAS CALL ISZERO DUP1 ISZERO PUSH2 0x1203 JUMPI RETURNDATASIZE PUSH0 DUP1 RETURNDATACOPY RETURNDATASIZE PUSH0 REVERT JUMPDEST POP POP POP POP PUSH1 0x40 MLOAD RETURNDATASIZE PUSH1 0x1F NOT PUSH1 0x1F DUP3 ADD AND DUP3 ADD DUP1 PUSH1 0x40 MSTORE POP DUP2 ADD SWAP1 PUSH2 0x1227 SWAP2 SWAP1 PUSH2 0x1F7F JUMP JUMPDEST POP JUMPDEST SWAP4 SWAP3 POP POP POP JUMP JUMPDEST DUP3 DUP1 SLOAD DUP3 DUP3 SSTORE SWAP1 PUSH0 MSTORE PUSH1 0x20 PUSH0 KECCAK256 SWAP1 DUP2 ADD SWAP3 DUP3 ISZERO PUSH2 0x12A6 JUMPI SWAP2 PUSH1 0x20 MUL DUP3 ADD JUMPDEST DUP3 DUP2 GT ISZERO PUSH2 0x12A5 JUMPI DUP3 MLOAD DUP3 PUSH0 PUSH2 0x100 EXP DUP2 SLOAD DUP2 PUSH20 0xFFFFFFFFFFFFFFFFFFFFFFFFFFFFFFFFFFFFFFFF MUL NOT AND SWAP1 DUP4 PUSH20 0xFFFFFFFFFFFFFFFFFFFFFFFFFFFFFFFFFFFFFFFF AND MUL OR SWAP1 SSTORE POP SWAP2 PUSH1 0x20 ADD SWAP2 SWAP1 PUSH1 0x1 ADD SWAP1 PUSH2 0x124E JUMP JUMPDEST JUMPDEST POP SWAP1 POP PUSH2 0x12B3 SWAP2 SWAP1 PUSH2 0x1302 JUMP JUMPDEST POP SWAP1 JUMP JUMPDEST DUP3 DUP1 SLOAD DUP3 DUP3 SSTORE SWAP1 PUSH0 MSTORE PUSH1 0x20 PUSH0 KECCAK256 SWAP1 DUP2 ADD SWAP3 DUP3 ISZERO PUSH2 0x12F1 JUMPI SWAP2 PUSH1 0x20 MUL DUP3 ADD JUMPDEST DUP3 DUP2 GT ISZERO PUSH2 0x12F0 JUMPI DUP3 MLOAD DUP3 SSTORE SWAP2 PUSH1 0x20 ADD SWAP2 SWAP1 PUSH1 0x1 ADD SWAP1 PUSH2 0x12D5 JUMP JUMPDEST JUMPDEST POP SWAP1 POP PUSH2 0x12FE SWAP2 SWAP1 PUSH2 0x1302 JUMP JUMPDEST POP SWAP1 JUMP JUMPDEST JUMPDEST DUP1 DUP3 GT ISZERO PUSH2 0x1319 JUMPI PUSH0 DUP2 PUSH0 SWAP1 SSTORE POP PUSH1 0x1 ADD PUSH2 0x1303 JUMP JUMPDEST POP SWAP1 JUMP JUMPDEST PUSH0 PUSH1 0x40 MLOAD SWAP1 POP SWAP1 JUMP JUMPDEST PUSH0 DUP1 REVERT JUMPDEST PUSH0 DUP1 REVERT JUMPDEST PUSH0 DUP2 SWAP1 POP SWAP2 SWAP1 POP JUMP JUMPDEST PUSH2 0x1340 DUP2 PUSH2 0x132E JUMP JUMPDEST DUP2 EQ PUSH2 0x134A JUMPI PUSH0 DUP1 REVERT JUMPDEST POP JUMP JUMPDEST PUSH0 DUP2 CALLDATALOAD SWAP1 POP PUSH2 0x135B DUP2 PUSH2 0x1337 JUMP JUMPDEST SWAP3 SWAP2 POP POP JUMP JUMPDEST PUSH0 PUSH1 0x20 DUP3 DUP5 SUB SLT ISZERO PUSH2 0x1376 JUMPI PUSH2 0x1375 PUSH2 0x1326 JUMP JUMPDEST JUMPDEST PUSH0 PUSH2 0x1383 DUP5 DUP3 DUP6 ADD PUSH2 0x134D JUMP JUMPDEST SWAP2 POP POP SWAP3 SWAP2 POP POP JUMP JUMPDEST PUSH0 PUSH20 0xFFFFFFFFFFFFFFFFFFFFFFFFFFFFFFFFFFFFFFFF DUP3 AND SWAP1 POP SWAP2 SWAP1 POP JUMP JUMPDEST PUSH0 PUSH2 0x13B5 DUP3 PUSH2 0x138C JUMP JUMPDEST SWAP1 POP SWAP2 SWAP1 POP JUMP JUMPDEST PUSH2 0x13C5 DUP2 PUSH2 0x13AB JUMP JUMPDEST DUP3 MSTORE POP POP JUMP JUMPDEST PUSH0 PUSH1 0x20 DUP3 ADD SWAP1 POP PUSH2 0x13DE PUSH0 DUP4 ADD DUP5 PUSH2 0x13BC JUMP JUMPDEST SWAP3 SWAP2 POP POP JUMP JUMPDEST PUSH2 0x13ED DUP2 PUSH2 0x13AB JUMP JUMPDEST DUP2 EQ PUSH2 0x13F7 JUMPI PUSH0 DUP1 REVERT JUMPDEST POP JUMP JUMPDEST PUSH0 DUP2 CALLDATALOAD SWAP1 POP PUSH2 0x1408 DUP2 PUSH2 0x13E4 JUMP JUMPDEST SWAP3 SWAP2 POP POP JUMP JUMPDEST PUSH0 DUP1 REVERT JUMPDEST PUSH0 PUSH1 0x1F NOT PUSH1 0x1F DUP4 ADD AND SWAP1 POP SWAP2 SWAP1 POP JUMP JUMPDEST PUSH32 0x4E487B7100000000000000000000000000000000000000000000000000000000 PUSH0 MSTORE PUSH1 0x41 PUSH1 0x4 MSTORE PUSH1 0x24 PUSH0 REVERT JUMPDEST PUSH2 0x1458 DUP3 PUSH2 0x1412 JUMP JUMPDEST DUP2 ADD DUP2 DUP2 LT PUSH8 0xFFFFFFFFFFFFFFFF DUP3 GT OR ISZERO PUSH2 0x1477 JUMPI PUSH2 0x1476 PUSH2 0x1422 JUMP JUMPDEST JUMPDEST DUP1 PUSH1 0x40 MSTORE POP POP POP JUMP JUMPDEST PUSH0 PUSH2 0x1489 PUSH2 0x131D JUMP JUMPDEST SWAP1 POP PUSH2 0x1495 DUP3 DUP3 PUSH2 0x144F JUMP JUMPDEST SWAP2 SWAP1 POP JUMP JUMPDEST PUSH0 PUSH8 0xFFFFFFFFFFFFFFFF DUP3 GT ISZERO PUSH2 0x14B4 JUMPI PUSH2 0x14B3 PUSH2 0x1422 JUMP JUMPDEST JUMPDEST PUSH1 0x20 DUP3 MUL SWAP1 POP PUSH1 0x20 DUP2 ADD SWAP1 POP SWAP2 SWAP1 POP JUMP JUMPDEST PUSH0 DUP1 REVERT JUMPDEST PUSH0 PUSH2 0x14DB PUSH2 0x14D6 DUP5 PUSH2 0x149A JUMP JUMPDEST PUSH2 0x1480 JUMP JUMPDEST SWAP1 POP DUP1 DUP4 DUP3 MSTORE PUSH1 0x20 DUP3 ADD SWAP1 POP PUSH1 0x20 DUP5 MUL DUP4 ADD DUP6 DUP2 GT ISZERO PUSH2 0x14FE JUMPI PUSH2 0x14FD PUSH2 0x14C5 JUMP JUMPDEST JUMPDEST DUP4 JUMPDEST DUP2 DUP2 LT ISZERO PUSH2 0x1527 JUMPI DUP1 PUSH2 0x1513 DUP9 DUP3 PUSH2 0x13FA JUMP JUMPDEST DUP5 MSTORE PUSH1 0x20 DUP5 ADD SWAP4 POP POP PUSH1 0x20 DUP2 ADD SWAP1 POP PUSH2 0x1500 JUMP JUMPDEST POP POP POP SWAP4 SWAP3 POP POP POP JUMP JUMPDEST PUSH0 DUP3 PUSH1 0x1F DUP4 ADD SLT PUSH2 0x1545 JUMPI PUSH2 0x1544 PUSH2 0x140E JUMP JUMPDEST JUMPDEST DUP2 CALLDATALOAD PUSH2 0x1555 DUP5 DUP3 PUSH1 0x20 DUP7 ADD PUSH2 0x14C9 JUMP JUMPDEST SWAP2 POP POP SWAP3 SWAP2 POP POP JUMP JUMPDEST PUSH0 PUSH8 0xFFFFFFFFFFFFFFFF DUP3 GT ISZERO PUSH2 0x1578 JUMPI PUSH2 0x1577 PUSH2 0x1422 JUMP JUMPDEST JUMPDEST PUSH1 0x20 DUP3 MUL SWAP1 POP PUSH1 0x20 DUP2 ADD SWAP1 POP SWAP2 SWAP1 POP JUMP JUMPDEST PUSH0 PUSH2 0x159B PUSH2 0x1596 DUP5 PUSH2 0x155E JUMP JUMPDEST PUSH2 0x1480 JUMP JUMPDEST SWAP1 POP DUP1 DUP4 DUP3 MSTORE PUSH1 0x20 DUP3 ADD SWAP1 POP PUSH1 0x20 DUP5 MUL DUP4 ADD DUP6 DUP2 GT ISZERO PUSH2 0x15BE JUMPI PUSH2 0x15BD PUSH2 0x14C5 JUMP JUMPDEST JUMPDEST DUP4 JUMPDEST DUP2 DUP2 LT ISZERO PUSH2 0x15E7 JUMPI DUP1 PUSH2 0x15D3 DUP9 DUP3 PUSH2 0x134D JUMP JUMPDEST DUP5 MSTORE PUSH1 0x20 DUP5 ADD SWAP4 POP POP PUSH1 0x20 DUP2 ADD SWAP1 POP PUSH2 0x15C0 JUMP JUMPDEST POP POP POP SWAP4 SWAP3 POP POP POP JUMP JUMPDEST PUSH0 DUP3 PUSH1 0x1F DUP4 ADD SLT PUSH2 0x1605 JUMPI PUSH2 0x1604 PUSH2 0x140E JUMP JUMPDEST JUMPDEST DUP2 CALLDATALOAD PUSH2 0x1615 DUP5 DUP3 PUSH1 0x20 DUP7 ADD PUSH2 0x1589 JUMP JUMPDEST SWAP2 POP POP SWAP3 SWAP2 POP POP JUMP JUMPDEST PUSH0 DUP1 REVERT JUMPDEST PUSH0 PUSH1 0xC0 DUP3 DUP5 SUB SLT ISZERO PUSH2 0x1637 JUMPI PUSH2 0x1636 PUSH2 0x161E JUMP JUMPDEST JUMPDEST PUSH2 0x1641 PUSH1 0xC0 PUSH2 0x1480 JUMP JUMPDEST SWAP1 POP PUSH0 PUSH2 0x1650 DUP5 DUP3 DUP6 ADD PUSH2 0x134D JUMP JUMPDEST PUSH0 DUP4 ADD MSTORE POP PUSH1 0x20 PUSH2 0x1663 DUP5 DUP3 DUP6 ADD PUSH2 0x134D JUMP JUMPDEST PUSH1 0x20 DUP4 ADD MSTORE POP PUSH1 0x40 PUSH2 0x1677 DUP5 DUP3 DUP6 ADD PUSH2 0x134D JUMP JUMPDEST PUSH1 0x40 DUP4 ADD MSTORE POP PUSH1 0x60 PUSH2 0x168B DUP5 DUP3 DUP6 ADD PUSH2 0x134D JUMP JUMPDEST PUSH1 0x60 DUP4 ADD MSTORE POP PUSH1 0x80 PUSH2 0x169F DUP5 DUP3 DUP6 ADD PUSH2 0x13FA JUMP JUMPDEST PUSH1 0x80 DUP4 ADD MSTORE POP PUSH1 0xA0 PUSH2 0x16B3 DUP5 DUP3 DUP6 ADD PUSH2 0x134D JUMP JUMPDEST PUSH1 0xA0 DUP4 ADD MSTORE POP SWAP3 SWAP2 POP POP JUMP JUMPDEST PUSH0 DUP1 PUSH0 DUP1 PUSH0 PUSH2 0x140 DUP7 DUP9 SUB SLT ISZERO PUSH2 0x16D9 JUMPI PUSH2 0x16D8 PUSH2 0x1326 JUMP JUMPDEST JUMPDEST PUSH0 PUSH2 0x16E6 DUP9 DUP3 DUP10 ADD PUSH2 0x13FA JUMP JUMPDEST SWAP6 POP POP PUSH1 0x20 PUSH2 0x16F7 DUP9 DUP3 DUP10 ADD PUSH2 0x13FA JUMP JUMPDEST SWAP5 POP POP PUSH1 0x40 DUP7 ADD CALLDATALOAD PUSH8 0xFFFFFFFFFFFFFFFF DUP2 GT ISZERO PUSH2 0x1718 JUMPI PUSH2 0x1717 PUSH2 0x132A JUMP JUMPDEST JUMPDEST PUSH2 0x1724 DUP9 DUP3 DUP10 ADD PUSH2 0x1531 JUMP JUMPDEST SWAP4 POP POP PUSH1 0x60 DUP7 ADD CALLDATALOAD PUSH8 0xFFFFFFFFFFFFFFFF DUP2 GT ISZERO PUSH2 0x1745 JUMPI PUSH2 0x1744 PUSH2 0x132A JUMP JUMPDEST JUMPDEST PUSH2 0x1751 DUP9 DUP3 DUP10 ADD PUSH2 0x15F1 JUMP JUMPDEST SWAP3 POP POP PUSH1 0x80 PUSH2 0x1762 DUP9 DUP3 DUP10 ADD PUSH2 0x1622 JUMP JUMPDEST SWAP2 POP POP SWAP3 SWAP6 POP SWAP3 SWAP6 SWAP1 SWAP4 POP JUMP JUMPDEST PUSH2 0x1778 DUP2 PUSH2 0x132E JUMP JUMPDEST DUP3 MSTORE POP POP JUMP JUMPDEST PUSH0 PUSH1 0x20 DUP3 ADD SWAP1 POP PUSH2 0x1791 PUSH0 DUP4 ADD DUP5 PUSH2 0x176F JUMP JUMPDEST SWAP3 SWAP2 POP POP JUMP JUMPDEST PUSH0 DUP2 MLOAD SWAP1 POP SWAP2 SWAP1 POP JUMP JUMPDEST PUSH0 DUP3 DUP3 MSTORE PUSH1 0x20 DUP3 ADD SWAP1 POP SWAP3 SWAP2 POP POP JUMP JUMPDEST PUSH0 DUP2 SWAP1 POP PUSH1 0x20 DUP3 ADD SWAP1 POP SWAP2 SWAP1 POP JUMP JUMPDEST PUSH2 0x17C9 DUP2 PUSH2 0x13AB JUMP JUMPDEST DUP3 MSTORE POP POP JUMP JUMPDEST PUSH0 PUSH2 0x17DA DUP4 DUP4 PUSH2 0x17C0 JUMP JUMPDEST PUSH1 0x20 DUP4 ADD SWAP1 POP SWAP3 SWAP2 POP POP JUMP JUMPDEST PUSH0 PUSH1 0x20 DUP3 ADD SWAP1 POP SWAP2 SWAP1 POP JUMP JUMPDEST PUSH0 PUSH2 0x17FC DUP3 PUSH2 0x1797 JUMP JUMPDEST PUSH2 0x1806 DUP2 DUP6 PUSH2 0x17A1 JUMP JUMPDEST SWAP4 POP PUSH2 0x1811 DUP4 PUSH2 0x17B1 JUMP JUMPDEST DUP1 PUSH0 JUMPDEST DUP4 DUP2 LT ISZERO PUSH2 0x1841 JUMPI DUP2 MLOAD PUSH2 0x1828 DUP9 DUP3 PUSH2 0x17CF JUMP JUMPDEST SWAP8 POP PUSH2 0x1833 DUP4 PUSH2 0x17E6 JUMP JUMPDEST SWAP3 POP POP PUSH1 0x1 DUP2 ADD SWAP1 POP PUSH2 0x1814 JUMP JUMPDEST POP DUP6 SWAP4 POP POP POP POP SWAP3 SWAP2 POP POP JUMP JUMPDEST PUSH0 DUP2 MLOAD SWAP1 POP SWAP2 SWAP1 POP JUMP JUMPDEST PUSH0 DUP3 DUP3 MSTORE PUSH1 0x20 DUP3 ADD SWAP1 POP SWAP3 SWAP2 POP POP JUMP JUMPDEST PUSH0 DUP2 SWAP1 POP PUSH1 0x20 DUP3 ADD SWAP1 POP SWAP2 SWAP1 POP JUMP JUMPDEST PUSH2 0x1880 DUP2 PUSH2 0x132E JUMP JUMPDEST DUP3 MSTORE POP POP JUMP JUMPDEST PUSH0 PUSH2 0x1891 DUP4 DUP4 PUSH2 0x1877 JUMP JUMPDEST PUSH1 0x20 DUP4 ADD SWAP1 POP SWAP3 SWAP2 POP POP JUMP JUMPDEST PUSH0 PUSH1 0x20 DUP3 ADD SWAP1 POP SWAP2 SWAP1 POP JUMP JUMPDEST PUSH0 PUSH2 0x18B3 DUP3 PUSH2 0x184E JUMP JUMPDEST PUSH2 0x18BD DUP2 DUP6 PUSH2 0x1858 JUMP JUMPDEST SWAP4 POP PUSH2 0x18C8 DUP4 PUSH2 0x1868 JUMP JUMPDEST DUP1 PUSH0 JUMPDEST DUP4 DUP2 LT ISZERO PUSH2 0x18F8 JUMPI DUP2 MLOAD PUSH2 0x18DF DUP9 DUP3 PUSH2 0x1886 JUMP JUMPDEST SWAP8 POP PUSH2 0x18EA DUP4 PUSH2 0x189D JUMP JUMPDEST SWAP3 POP POP PUSH1 0x1 DUP2 ADD SWAP1 POP PUSH2 0x18CB JUMP JUMPDEST POP DUP6 SWAP4 POP POP POP POP SWAP3 SWAP2 POP POP JUMP JUMPDEST PUSH0 PUSH1 0x40 DUP3 ADD SWAP1 POP DUP2 DUP2 SUB PUSH0 DUP4 ADD MSTORE PUSH2 0x191D DUP2 DUP6 PUSH2 0x17F2 JUMP JUMPDEST SWAP1 POP DUP2 DUP2 SUB PUSH1 0x20 DUP4 ADD MSTORE PUSH2 0x1931 DUP2 DUP5 PUSH2 0x18A9 JUMP JUMPDEST SWAP1 POP SWAP4 SWAP3 POP POP POP JUMP JUMPDEST PUSH0 DUP2 ISZERO ISZERO SWAP1 POP SWAP2 SWAP1 POP JUMP JUMPDEST PUSH2 0x194E DUP2 PUSH2 0x193A JUMP JUMPDEST DUP3 MSTORE POP POP JUMP JUMPDEST PUSH0 PUSH1 0x20 DUP3 ADD SWAP1 POP PUSH2 0x1967 PUSH0 DUP4 ADD DUP5 PUSH2 0x1945 JUMP JUMPDEST SWAP3 SWAP2 POP POP JUMP JUMPDEST PUSH0 PUSH2 0x100 DUP3 ADD SWAP1 POP PUSH2 0x1981 PUSH0 DUP4 ADD DUP12 PUSH2 0x176F JUMP JUMPDEST PUSH2 0x198E PUSH1 0x20 DUP4 ADD DUP11 PUSH2 0x176F JUMP JUMPDEST PUSH2 0x199B PUSH1 0x40 DUP4 ADD DUP10 PUSH2 0x176F JUMP JUMPDEST PUSH2 0x19A8 PUSH1 0x60 DUP4 ADD DUP9 PUSH2 0x176F JUMP JUMPDEST PUSH2 0x19B5 PUSH1 0x80 DUP4 ADD DUP8 PUSH2 0x13BC JUMP JUMPDEST PUSH2 0x19C2 PUSH1 0xA0 DUP4 ADD DUP7 PUSH2 0x176F JUMP JUMPDEST PUSH2 0x19CF PUSH1 0xC0 DUP4 ADD DUP6 PUSH2 0x1945 JUMP JUMPDEST PUSH2 0x19DC PUSH1 0xE0 DUP4 ADD DUP5 PUSH2 0x13BC JUMP JUMPDEST SWAP10 SWAP9 POP POP POP POP POP POP POP POP POP JUMP JUMPDEST PUSH0 DUP3 DUP3 MSTORE PUSH1 0x20 DUP3 ADD SWAP1 POP SWAP3 SWAP2 POP POP JUMP JUMPDEST PUSH32 0x496E697469616C697A61626C653A20636F6E747261637420697320616C726561 PUSH0 DUP3 ADD MSTORE PUSH32 0x647920696E697469616C697A6564000000000000000000000000000000000000 PUSH1 0x20 DUP3 ADD MSTORE POP JUMP JUMPDEST PUSH0 PUSH2 0x1A53 PUSH1 0x2E DUP4 PUSH2 0x19E9 JUMP JUMPDEST SWAP2 POP PUSH2 0x1A5E DUP3 PUSH2 0x19F9 JUMP JUMPDEST PUSH1 0x40 DUP3 ADD SWAP1 POP SWAP2 SWAP1 POP JUMP JUMPDEST PUSH0 PUSH1 0x20 DUP3 ADD SWAP1 POP DUP2 DUP2 SUB PUSH0 DUP4 ADD MSTORE PUSH2 0x1A80 DUP2 PUSH2 0x1A47 JUMP JUMPDEST SWAP1 POP SWAP2 SWAP1 POP JUMP JUMPDEST PUSH0 DUP2 SWAP1 POP SWAP2 SWAP1 POP JUMP JUMPDEST PUSH0 PUSH1 0xFF DUP3 AND SWAP1 POP SWAP2 SWAP1 POP JUMP JUMPDEST PUSH0 DUP2 SWAP1 POP SWAP2 SWAP1 POP JUMP JUMPDEST PUSH0 PUSH2 0x1ABF PUSH2 0x1ABA PUSH2 0x1AB5 DUP5 PUSH2 0x1A87 JUMP JUMPDEST PUSH2 0x1A9C JUMP JUMPDEST PUSH2 0x1A90 JUMP JUMPDEST SWAP1 POP SWAP2 SWAP1 POP JUMP JUMPDEST PUSH2 0x1ACF DUP2 PUSH2 0x1AA5 JUMP JUMPDEST DUP3 MSTORE POP POP JUMP JUMPDEST PUSH0 PUSH1 0x20 DUP3 ADD SWAP1 POP PUSH2 0x1AE8 PUSH0 DUP4 ADD DUP5 PUSH2 0x1AC6 JUMP JUMPDEST SWAP3 SWAP2 POP POP JUMP JUMPDEST PUSH32 0x4F776E61626C653A2063616C6C6572206973206E6F7420746865206F776E6572 PUSH0 DUP3 ADD MSTORE POP JUMP JUMPDEST PUSH0 PUSH2 0x1B22 PUSH1 0x20 DUP4 PUSH2 0x19E9 JUMP JUMPDEST SWAP2 POP PUSH2 0x1B2D DUP3 PUSH2 0x1AEE JUMP JUMPDEST PUSH1 0x20 DUP3 ADD SWAP1 POP SWAP2 SWAP1 POP JUMP JUMPDEST PUSH0 PUSH1 0x20 DUP3 ADD SWAP1 POP DUP2 DUP2 SUB PUSH0 DUP4 ADD MSTORE PUSH2 0x1B4F DUP2 PUSH2 0x1B16 JUMP JUMPDEST SWAP1 POP SWAP2 SWAP1 POP JUMP JUMPDEST PUSH32 0x41756374696F6E20656E64656400000000000000000000000000000000000000 PUSH0 DUP3 ADD MSTORE POP JUMP JUMPDEST PUSH0 PUSH2 0x1B8A PUSH1 0xD DUP4 PUSH2 0x19E9 JUMP JUMPDEST SWAP2 POP PUSH2 0x1B95 DUP3 PUSH2 0x1B56 JUMP JUMPDEST PUSH1 0x20 DUP3 ADD SWAP1 POP SWAP2 SWAP1 POP JUMP JUMPDEST PUSH0 PUSH1 0x20 DUP3 ADD SWAP1 POP DUP2 DUP2 SUB PUSH0 DUP4 ADD MSTORE PUSH2 0x1BB7 DUP2 PUSH2 0x1B7E JUMP JUMPDEST SWAP1 POP SWAP2 SWAP1 POP JUMP JUMPDEST PUSH32 0x41756374696F6E6565722063616E6E6F74206269640000000000000000000000 PUSH0 DUP3 ADD MSTORE POP JUMP JUMPDEST PUSH0 PUSH2 0x1BF2 PUSH1 0x15 DUP4 PUSH2 0x19E9 JUMP JUMPDEST SWAP2 POP PUSH2 0x1BFD DUP3 PUSH2 0x1BBE JUMP JUMPDEST PUSH1 0x20 DUP3 ADD SWAP1 POP SWAP2 SWAP1 POP JUMP JUMPDEST PUSH0 PUSH1 0x20 DUP3 ADD SWAP1 POP DUP2 DUP2 SUB PUSH0 DUP4 ADD MSTORE PUSH2 0x1C1F DUP2 PUSH2 0x1BE6 JUMP JUMPDEST SWAP1 POP SWAP2 SWAP1 POP JUMP JUMPDEST PUSH32 0x41756374696F6E206E6F74207374617274656420796574000000000000000000 PUSH0 DUP3 ADD MSTORE POP JUMP JUMPDEST PUSH0 PUSH2 0x1C5A PUSH1 0x17 DUP4 PUSH2 0x19E9 JUMP JUMPDEST SWAP2 POP PUSH2 0x1C65 DUP3 PUSH2 0x1C26 JUMP JUMPDEST PUSH1 0x20 DUP3 ADD SWAP1 POP SWAP2 SWAP1 POP JUMP JUMPDEST PUSH0 PUSH1 0x20 DUP3 ADD SWAP1 POP DUP2 DUP2 SUB PUSH0 DUP4 ADD MSTORE PUSH2 0x1C87 DUP2 PUSH2 0x1C4E JUMP JUMPDEST SWAP1 POP SWAP2 SWAP1 POP JUMP JUMPDEST PUSH32 0x5374617274696E67207072696365206D75737420626520677265617465722074 PUSH0 DUP3 ADD MSTORE PUSH32 0x68616E206D696E696D756D207072696365000000000000000000000000000000 PUSH1 0x20 DUP3 ADD MSTORE POP JUMP JUMPDEST PUSH0 PUSH2 0x1CE8 PUSH1 0x31 DUP4 PUSH2 0x19E9 JUMP JUMPDEST SWAP2 POP PUSH2 0x1CF3 DUP3 PUSH2 0x1C8E JUMP JUMPDEST PUSH1 0x40 DUP3 ADD SWAP1 POP SWAP2 SWAP1 POP JUMP JUMPDEST PUSH0 PUSH1 0x20 DUP3 ADD SWAP1 POP DUP2 DUP2 SUB PUSH0 DUP4 ADD MSTORE PUSH2 0x1D15 DUP2 PUSH2 0x1CDC JUMP JUMPDEST SWAP1 POP SWAP2 SWAP1 POP JUMP JUMPDEST PUSH32 0x5265656E7472616E637947756172643A207265656E7472616E742063616C6C00 PUSH0 DUP3 ADD MSTORE POP JUMP JUMPDEST PUSH0 PUSH2 0x1D50 PUSH1 0x1F DUP4 PUSH2 0x19E9 JUMP JUMPDEST SWAP2 POP PUSH2 0x1D5B DUP3 PUSH2 0x1D1C JUMP JUMPDEST PUSH1 0x20 DUP3 ADD SWAP1 POP SWAP2 SWAP1 POP JUMP JUMPDEST PUSH0 PUSH1 0x20 DUP3 ADD SWAP1 POP DUP2 DUP2 SUB PUSH0 DUP4 ADD MSTORE PUSH2 0x1D7D DUP2 PUSH2 0x1D44 JUMP JUMPDEST SWAP1 POP SWAP2 SWAP1 POP JUMP JUMPDEST PUSH0 DUP2 SWAP1 POP SWAP2 SWAP1 POP JUMP JUMPDEST PUSH0 PUSH2 0x1DA7 PUSH2 0x1DA2 PUSH2 0x1D9D DUP5 PUSH2 0x1D84 JUMP JUMPDEST PUSH2 0x1A9C JUMP JUMPDEST PUSH2 0x132E JUMP JUMPDEST SWAP1 POP SWAP2 SWAP1 POP JUMP JUMPDEST PUSH2 0x1DB7 DUP2 PUSH2 0x1D8D JUMP JUMPDEST DUP3 MSTORE POP POP JUMP JUMPDEST PUSH0 PUSH1 0x20 DUP3 ADD SWAP1 POP PUSH2 0x1DD0 PUSH0 DUP4 ADD DUP5 PUSH2 0x1DAE JUMP JUMPDEST SWAP3 SWAP2 POP POP JUMP JUMPDEST PUSH32 0x4E487B7100000000000000000000000000000000000000000000000000000000 PUSH0 MSTORE PUSH1 0x11 PUSH1 0x4 MSTORE PUSH1 0x24 PUSH0 REVERT JUMPDEST PUSH0 PUSH2 0x1E0D DUP3 PUSH2 0x132E JUMP JUMPDEST SWAP2 POP PUSH2 0x1E18 DUP4 PUSH2 0x132E JUMP JUMPDEST SWAP3 POP DUP3 DUP3 SUB SWAP1 POP DUP2 DUP2 GT ISZERO PUSH2 0x1E30 JUMPI PUSH2 0x1E2F PUSH2 0x1DD6 JUMP JUMPDEST JUMPDEST SWAP3 SWAP2 POP POP JUMP JUMPDEST PUSH32 0x4E487B7100000000000000000000000000000000000000000000000000000000 PUSH0 MSTORE PUSH1 0x12 PUSH1 0x4 MSTORE PUSH1 0x24 PUSH0 REVERT JUMPDEST PUSH0 PUSH2 0x1E6D DUP3 PUSH2 0x132E JUMP JUMPDEST SWAP2 POP PUSH2 0x1E78 DUP4 PUSH2 0x132E JUMP JUMPDEST SWAP3 POP DUP3 PUSH2 0x1E88 JUMPI PUSH2 0x1E87 PUSH2 0x1E36 JUMP JUMPDEST JUMPDEST DUP3 DUP3 DIV SWAP1 POP SWAP3 SWAP2 POP POP JUMP JUMPDEST PUSH0 PUSH2 0x1E9D DUP3 PUSH2 0x132E JUMP JUMPDEST SWAP2 POP PUSH2 0x1EA8 DUP4 PUSH2 0x132E JUMP JUMPDEST SWAP3 POP DUP3 DUP3 ADD SWAP1 POP DUP1 DUP3 GT ISZERO PUSH2 0x1EC0 JUMPI PUSH2 0x1EBF PUSH2 0x1DD6 JUMP JUMPDEST JUMPDEST SWAP3 SWAP2 POP POP JUMP JUMPDEST PUSH32 0x42696420707269636520746F6F206C6F77000000000000000000000000000000 PUSH0 DUP3 ADD MSTORE POP JUMP JUMPDEST PUSH0 PUSH2 0x1EFA PUSH1 0x11 DUP4 PUSH2 0x19E9 JUMP JUMPDEST SWAP2 POP PUSH2 0x1F05 DUP3 PUSH2 0x1EC6 JUMP JUMPDEST PUSH1 0x20 DUP3 ADD SWAP1 POP SWAP2 SWAP1 POP JUMP JUMPDEST PUSH0 PUSH1 0x20 DUP3 ADD SWAP1 POP DUP2 DUP2 SUB PUSH0 DUP4 ADD MSTORE PUSH2 0x1F27 DUP2 PUSH2 0x1EEE JUMP JUMPDEST SWAP1 POP SWAP2 SWAP1 POP JUMP JUMPDEST PUSH0 PUSH1 0x40 DUP3 ADD SWAP1 POP PUSH2 0x1F41 PUSH0 DUP4 ADD DUP6 PUSH2 0x13BC JUMP JUMPDEST PUSH2 0x1F4E PUSH1 0x20 DUP4 ADD DUP5 PUSH2 0x176F JUMP JUMPDEST SWAP4 SWAP3 POP POP POP JUMP JUMPDEST PUSH2 0x1F5E DUP2 PUSH2 0x193A JUMP JUMPDEST DUP2 EQ PUSH2 0x1F68 JUMPI PUSH0 DUP1 REVERT JUMPDEST POP JUMP JUMPDEST PUSH0 DUP2 MLOAD SWAP1 POP PUSH2 0x1F79 DUP2 PUSH2 0x1F55 JUMP JUMPDEST SWAP3 SWAP2 POP POP JUMP JUMPDEST PUSH0 PUSH1 0x20 DUP3 DUP5 SUB SLT ISZERO PUSH2 0x1F94 JUMPI PUSH2 0x1F93 PUSH2 0x1326 JUMP JUMPDEST JUMPDEST PUSH0 PUSH2 0x1FA1 DUP5 DUP3 DUP6 ADD PUSH2 0x1F6B JUMP JUMPDEST SWAP2 POP POP SWAP3 SWAP2 POP POP JUMP JUMPDEST PUSH0 PUSH1 0x60 DUP3 ADD SWAP1 POP PUSH2 0x1FBD PUSH0 DUP4 ADD DUP7 PUSH2 0x13BC JUMP JUMPDEST PUSH2 0x1FCA PUSH1 0x20 DUP4 ADD DUP6 PUSH2 0x13BC JUMP JUMPDEST PUSH2 0x1FD7 PUSH1 0x40 DUP4 ADD DUP5 PUSH2 0x176F JUMP JUMPDEST SWAP5 SWAP4 POP POP POP POP JUMP JUMPDEST PUSH32 0x4E487B7100000000000000000000000000000000000000000000000000000000 PUSH0 MSTORE PUSH1 0x32 PUSH1 0x4 MSTORE PUSH1 0x24 PUSH0 REVERT JUMPDEST PUSH0 DUP2 MLOAD SWAP1 POP PUSH2 0x201A DUP2 PUSH2 0x13E4 JUMP JUMPDEST SWAP3 SWAP2 POP POP JUMP JUMPDEST PUSH0 PUSH1 0x20 DUP3 DUP5 SUB SLT ISZERO PUSH2 0x2035 JUMPI PUSH2 0x2034 PUSH2 0x1326 JUMP JUMPDEST JUMPDEST PUSH0 PUSH2 0x2042 DUP5 DUP3 DUP6 ADD PUSH2 0x200C JUMP JUMPDEST SWAP2 POP POP SWAP3 SWAP2 POP POP JUMP JUMPDEST PUSH0 PUSH1 0x60 DUP3 ADD SWAP1 POP PUSH2 0x205E PUSH0 DUP4 ADD DUP7 PUSH2 0x1DAE JUMP JUMPDEST PUSH2 0x206B PUSH1 0x20 DUP4 ADD DUP6 PUSH2 0x13BC JUMP JUMPDEST PUSH2 0x2078 PUSH1 0x40 DUP4 ADD DUP5 PUSH2 0x176F JUMP JUMPDEST SWAP5 SWAP4 POP POP POP POP JUMP INVALID LOG2 PUSH5 0x6970667358 0x22 SLT KECCAK256 PUSH5 0x4046EE6FD1 DUP5 DUP8 0xE4 0xDB 0xE9 0xB1 SWAP3 0xA5 0xC6 EXTCODESIZE 0x25 PUSH6 0xB22C1B5A6133 0x4D PUSH30 0xB64EEDA082F64736F6C6343000818003300000000000000000000000000 "
				},
				"gasEstimates": {
					"creation": {
						"codeDepositCost": "1674800",
						"executionCost": "23869",
						"totalCost": "1698669"
					},
					"external": {
						"NFTContractAddress(uint256)": "4968",
						"buy(uint256)": "infinite",
						"cancelAuction()": "infinite",
						"getAuctionInfo()": "infinite",
						"getNFTInfo()": "infinite",
						"initialize(address,address,address[],uint256[],(uint256,uint256,uint256,uint256,address,uint256))": "infinite",
						"isEnded()": "2488",
						"minimumPrice()": "2470",
						"numberOfStep()": "2493",
						"owner()": "2582",
						"paymentToken()": "2531",
						"startingPrice()": "2469",
						"startingTime()": "2470",
						"stepDuration()": "2492",
						"tokenId(uint256)": "infinite"
					},
					"internal": {
						"bidAuctionFac(address,uint256)": "infinite",
						"finalizeFac()": "infinite",
						"transferNFT(address,address)": "infinite"
					}
				},
				"methodIdentifiers": {
					"NFTContractAddress(uint256)": "0521cc59",
					"buy(uint256)": "d96a094a",
					"cancelAuction()": "8fa8b790",
					"getAuctionInfo()": "d94a3505",
					"getNFTInfo()": "4d21e019",
					"initialize(address,address,address[],uint256[],(uint256,uint256,uint256,uint256,address,uint256))": "0c5d9d86",
					"isEnded()": "a4fd6f56",
					"minimumPrice()": "7f386b6c",
					"numberOfStep()": "1e6f3677",
					"owner()": "8da5cb5b",
					"paymentToken()": "3013ce29",
					"startingPrice()": "d6fbf202",
					"startingTime()": "39518b5e",
					"stepDuration()": "4a4e5776",
					"tokenId(uint256)": "7dcb0e5f"
				}
			},
			"storageLayout": {
				"storage": [
					{
						"astId": 2479,
						"contract": "contracts/Marketplace/auction/DutchAuction/DutchAuction721.sol:DutchAuction721",
						"label": "_owner",
						"offset": 0,
						"slot": "0",
						"type": "t_address"
					},
					{
						"astId": 6,
						"contract": "contracts/Marketplace/auction/DutchAuction/DutchAuction721.sol:DutchAuction721",
						"label": "_initialized",
						"offset": 20,
						"slot": "0",
						"type": "t_uint8"
					},
					{
						"astId": 9,
						"contract": "contracts/Marketplace/auction/DutchAuction/DutchAuction721.sol:DutchAuction721",
						"label": "_initializing",
						"offset": 21,
						"slot": "0",
						"type": "t_bool"
					},
					{
						"astId": 179,
						"contract": "contracts/Marketplace/auction/DutchAuction/DutchAuction721.sol:DutchAuction721",
						"label": "_status",
						"offset": 0,
						"slot": "1",
						"type": "t_uint256"
					},
					{
						"astId": 1971,
						"contract": "contracts/Marketplace/auction/DutchAuction/DutchAuction721.sol:DutchAuction721",
						"label": "factory",
						"offset": 0,
						"slot": "2",
						"type": "t_address"
					},
					{
						"astId": 1973,
						"contract": "contracts/Marketplace/auction/DutchAuction/DutchAuction721.sol:DutchAuction721",
						"label": "minimumPrice",
						"offset": 0,
						"slot": "3",
						"type": "t_uint256"
					},
					{
						"astId": 1975,
						"contract": "contracts/Marketplace/auction/DutchAuction/DutchAuction721.sol:DutchAuction721",
						"label": "startingPrice",
						"offset": 0,
						"slot": "4",
						"type": "t_uint256"
					},
					{
						"astId": 1977,
						"contract": "contracts/Marketplace/auction/DutchAuction/DutchAuction721.sol:DutchAuction721",
						"label": "numberOfStep",
						"offset": 0,
						"slot": "5",
						"type": "t_uint256"
					},
					{
						"astId": 1979,
						"contract": "contracts/Marketplace/auction/DutchAuction/DutchAuction721.sol:DutchAuction721",
						"label": "stepDuration",
						"offset": 0,
						"slot": "6",
						"type": "t_uint256"
					},
					{
						"astId": 1981,
						"contract": "contracts/Marketplace/auction/DutchAuction/DutchAuction721.sol:DutchAuction721",
						"label": "paymentToken",
						"offset": 0,
						"slot": "7",
						"type": "t_address"
					},
					{
						"astId": 1983,
						"contract": "contracts/Marketplace/auction/DutchAuction/DutchAuction721.sol:DutchAuction721",
						"label": "startingTime",
						"offset": 0,
						"slot": "8",
						"type": "t_uint256"
					},
					{
						"astId": 1985,
						"contract": "contracts/Marketplace/auction/DutchAuction/DutchAuction721.sol:DutchAuction721",
						"label": "isEnded",
						"offset": 0,
						"slot": "9",
						"type": "t_bool"
					},
					{
						"astId": 2331,
						"contract": "contracts/Marketplace/auction/DutchAuction/DutchAuction721.sol:DutchAuction721",
						"label": "NFTContractAddress",
						"offset": 0,
						"slot": "10",
						"type": "t_array(t_address)dyn_storage"
					},
					{
						"astId": 2334,
						"contract": "contracts/Marketplace/auction/DutchAuction/DutchAuction721.sol:DutchAuction721",
						"label": "tokenId",
						"offset": 0,
						"slot": "11",
						"type": "t_array(t_uint256)dyn_storage"
					}
				],
				"types": {
					"t_address": {
						"encoding": "inplace",
						"label": "address",
						"numberOfBytes": "20"
					},
					"t_array(t_address)dyn_storage": {
						"base": "t_address",
						"encoding": "dynamic_array",
						"label": "address[]",
						"numberOfBytes": "32"
					},
					"t_array(t_uint256)dyn_storage": {
						"base": "t_uint256",
						"encoding": "dynamic_array",
						"label": "uint256[]",
						"numberOfBytes": "32"
					},
					"t_bool": {
						"encoding": "inplace",
						"label": "bool",
						"numberOfBytes": "1"
					},
					"t_uint256": {
						"encoding": "inplace",
						"label": "uint256",
						"numberOfBytes": "32"
					},
					"t_uint8": {
						"encoding": "inplace",
						"label": "uint8",
						"numberOfBytes": "1"
					}
				}
			},
			"userdoc": {
				"kind": "user",
				"methods": {},
				"version": 1
			}
		}
	}
}