{
	"data": {
		"bytecode": {
			"linkReferences": {},
			"object": "608060405234801561000f575f80fd5b50600180819055506134db806100245f395ff3fe60806040526004361061019f575f3560e01c8063a9dc6fb2116100eb578063d33db69711610089578063e88c86c911610063578063e88c86c9146105b1578063f23a6e61146105d9578063f77282ab14610615578063f821a9151461062b576101a6565b8063d33db6971461052c578063d94a350514610556578063def1810114610587576101a6565b8063bc197c81116100c5578063bc197c8114610460578063bee8bc891461049c578063c45a0155146104c6578063c6c9bd47146104f0576101a6565b8063a9dc6fb2146103e2578063b06326021461040c578063b9fdd56914610436576101a6565b80634d21e0191161015857806382aa96e91161013257806382aa96e91461034e5780638da5cb5b146103785780638fa8b790146103a2578063a001ecdd146103b8576101a6565b80634d21e019146102bc578063677ed495146102e857806378e9792514610324576101a6565b806301ffc9a7146101aa5780630521cc59146101e65780630ed5a93314610222578063175b23041461024c5780633013ce29146102685780633197cbb614610292576101a6565b366101a657005b5f80fd5b3480156101b5575f80fd5b506101d060048036038101906101cb9190611f94565b610653565b6040516101dd9190611fd9565b60405180910390f35b3480156101f1575f80fd5b5061020c60048036038101906102079190612025565b6106cc565b604051610219919061208f565b60405180910390f35b34801561022d575f80fd5b50610236610707565b6040516102439190611fd9565b60405180910390f35b61026660048036038101906102619190612025565b610719565b005b348015610273575f80fd5b5061027c610858565b604051610289919061208f565b60405180910390f35b34801561029d575f80fd5b506102a661087d565b6040516102b391906120b7565b60405180910390f35b3480156102c7575f80fd5b506102d0610883565b6040516102df9392919061223e565b60405180910390f35b3480156102f3575f80fd5b5061030e60048036038101906103099190612025565b6109be565b60405161031b91906120b7565b60405180910390f35b34801561032f575f80fd5b506103386109de565b60405161034591906120b7565b60405180910390f35b348015610359575f80fd5b506103626109e4565b60405161036f9190611fd9565b60405180910390f35b348015610383575f80fd5b5061038c610a0d565b604051610399919061208f565b60405180910390f35b3480156103ad575f80fd5b506103b6610a34565b005b3480156103c3575f80fd5b506103cc610b39565b6040516103d991906120b7565b60405180910390f35b3480156103ed575f80fd5b506103f6610b3f565b60405161040391906120b7565b60405180910390f35b348015610417575f80fd5b50610420610b45565b60405161042d91906120b7565b60405180910390f35b348015610441575f80fd5b5061044a610b4b565b60405161045791906120b7565b60405180910390f35b34801561046b575f80fd5b50610486600480360381019061048191906124b2565b610b51565b604051610493919061258c565b60405180910390f35b3480156104a7575f80fd5b506104b0610b65565b6040516104bd91906120b7565b60405180910390f35b3480156104d1575f80fd5b506104da610b6b565b6040516104e7919061208f565b60405180910390f35b3480156104fb575f80fd5b5061051660048036038101906105119190612025565b610b90565b60405161052391906120b7565b60405180910390f35b348015610537575f80fd5b50610540610bb0565b60405161054d919061208f565b60405180910390f35b348015610561575f80fd5b5061056a610bd5565b60405161057e9897969594939291906125a5565b60405180910390f35b348015610592575f80fd5b5061059b610c52565b6040516105a891906120b7565b60405180910390f35b3480156105bc575f80fd5b506105d760048036038101906105d2919061275a565b610c58565b005b3480156105e4575f80fd5b506105ff60048036038101906105fa9190612838565b610da9565b60405161060c919061258c565b60405180910390f35b348015610620575f80fd5b50610629610dbd565b005b348015610636575f80fd5b50610651600480360381019061064c91906128cb565b610ed2565b005b5f7f4e2312e0000000000000000000000000000000000000000000000000000000007bffffffffffffffffffffffffffffffffffffffffffffffffffffffff1916827bffffffffffffffffffffffffffffffffffffffffffffffffffffffff191614806106c557506106c482610ff4565b5b9050919050565b600e81815481106106db575f80fd5b905f5260205f20015f915054906101000a900473ffffffffffffffffffffffffffffffffffffffff1681565b600d5f9054906101000a900460ff1681565b61072161105d565b610729610a0d565b73ffffffffffffffffffffffffffffffffffffffff166107476110ac565b73ffffffffffffffffffffffffffffffffffffffff160361079d576040517f08c379a000000000000000000000000000000000000000000000000000000000815260040161079490612963565b60405180910390fd5b60055442116107e1576040517f08c379a00000000000000000000000000000000000000000000000000000000081526004016107d8906129cb565b60405180910390fd5b5f73ffffffffffffffffffffffffffffffffffffffff1660035f9054906101000a900473ffffffffffffffffffffffffffffffffffffffff1673ffffffffffffffffffffffffffffffffffffffff16036108435761083e346110b3565b61084d565b61084c816110b3565b5b610855611444565b50565b60035f9054906101000a900473ffffffffffffffffffffffffffffffffffffffff1681565b60065481565b6060806060600e600f60108280548060200260200160405190810160405280929190818152602001828054801561090c57602002820191905f5260205f20905b815f9054906101000a900473ffffffffffffffffffffffffffffffffffffffff1673ffffffffffffffffffffffffffffffffffffffff16815260200190600101908083116108c3575b505050505092508180548060200260200160405190810160405280929190818152602001828054801561095c57602002820191905f5260205f20905b815481526020019060010190808311610948575b50505050509150808054806020026020016040519081016040528092919081815260200182805480156109ac57602002820191905f5260205f20905b815481526020019060010190808311610998575b50505050509050925092509250909192565b601081815481106109cd575f80fd5b905f5260205f20015f915090505481565b60055481565b5f6006544211158015610a0857505f1515600d5f9054906101000a900460ff161515145b905090565b5f805f9054906101000a900473ffffffffffffffffffffffffffffffffffffffff16905090565b610a3c61105d565b610a446110ac565b73ffffffffffffffffffffffffffffffffffffffff16610a62610a0d565b73ffffffffffffffffffffffffffffffffffffffff1614610ab8576040517f08c379a0000000000000000000000000000000000000000000000000000000008152600401610aaf90612a33565b60405180910390fd5b5f600c5414610afc576040517f08c379a0000000000000000000000000000000000000000000000000000000008152600401610af390612a9b565b60405180910390fd5b6001600d5f6101000a81548160ff021916908315150217905550610b2730610b226110ac565b61144d565b610b2f61145b565b610b37611444565b565b60085481565b60095481565b60075481565b60045481565b5f63bc197c8160e01b905095945050505050565b600c5481565b60025f9054906101000a900473ffffffffffffffffffffffffffffffffffffffff1681565b600f8181548110610b9f575f80fd5b905f5260205f20015f915090505481565b600a5f9054906101000a900473ffffffffffffffffffffffffffffffffffffffff1681565b5f805f805f805f80610be5610a0d565b600454600a5f9054906101000a900473ffffffffffffffffffffffffffffffffffffffff16600b54600554600654600c5460035f9054906101000a900473ffffffffffffffffffffffffffffffffffffffff16975097509750975097509750975097509091929394959697565b600b5481565b5f8060159054906101000a900460ff16159050808015610c89575060015f60149054906101000a900460ff1660ff16105b80610cb75750610c98306114e5565b158015610cb6575060015f60149054906101000a900460ff1660ff16145b5b610cf6576040517f08c379a0000000000000000000000000000000000000000000000000000000008152600401610ced90612b29565b60405180910390fd5b60015f60146101000a81548160ff021916908360ff1602179055508015610d325760015f60156101000a81548160ff0219169083151502179055505b610d3d878784611507565b610d488585856116e0565b8015610da0575f8060156101000a81548160ff0219169083151502179055507f7f26b83ff96e1f2b6a682f133852f6798a09c465da95921460cefb38474024986001604051610d979190612b95565b60405180910390a15b50505050505050565b5f63f23a6e6160e01b905095945050505050565b5f600c5403610e01576040517f08c379a0000000000000000000000000000000000000000000000000000000008152600401610df890612bf8565b60405180910390fd5b610e096109e4565b15610e49576040517f08c379a0000000000000000000000000000000000000000000000000000000008152600401610e4090612c60565b60405180910390fd5b5f6001600c5403610e5e57600b549050610e8b565b612710600854612710610e719190612cab565b600b54610e7e9190612cde565b610e889190612d4c565b90505b610e9c610e96610a0d565b8261172a565b610ec730600a5f9054906101000a900473ffffffffffffffffffffffffffffffffffffffff1661144d565b610ecf61145b565b50565b610eda61105d565b610ee26110ac565b73ffffffffffffffffffffffffffffffffffffffff16610f00610a0d565b73ffffffffffffffffffffffffffffffffffffffff1614610f56576040517f08c379a0000000000000000000000000000000000000000000000000000000008152600401610f4d90612a33565b60405180910390fd5b5f600c5414610f9a576040517f08c379a0000000000000000000000000000000000000000000000000000000008152600401610f9190612dc6565b60405180910390fd5b6006544210610fde576040517f08c379a0000000000000000000000000000000000000000000000000000000008152600401610fd590612e2e565b60405180910390fd5b610fe8828261182c565b610ff0611444565b5050565b5f7f01ffc9a7000000000000000000000000000000000000000000000000000000007bffffffffffffffffffffffffffffffffffffffffffffffffffffffff1916827bffffffffffffffffffffffffffffffffffffffffffffffffffffffff1916149050919050565b6002600154036110a2576040517f08c379a000000000000000000000000000000000000000000000000000000000815260040161109990612e96565b60405180910390fd5b6002600181905550565b5f33905090565b5f600c540361110657600454811015611101576040517f08c379a00000000000000000000000000000000000000000000000000000000081526004016110f890612efe565b60405180910390fd5b611173565b6127106007546127106111199190612f1c565b600b546111269190612cde565b6111309190612d4c565b811015611172576040517f08c379a000000000000000000000000000000000000000000000000000000000815260040161116990612efe565b60405180910390fd5b5b61117b6109e4565b6111ba576040517f08c379a00000000000000000000000000000000000000000000000000000000081526004016111b190612f99565b60405180910390fd5b600a5f9054906101000a900473ffffffffffffffffffffffffffffffffffffffff1673ffffffffffffffffffffffffffffffffffffffff166111fa6110ac565b73ffffffffffffffffffffffffffffffffffffffff1603611250576040517f08c379a000000000000000000000000000000000000000000000000000000000815260040161124790613001565b60405180910390fd5b5f73ffffffffffffffffffffffffffffffffffffffff1660035f9054906101000a900473ffffffffffffffffffffffffffffffffffffffff1673ffffffffffffffffffffffffffffffffffffffff16146112b7576112b66112af6110ac565b30836118b9565b5b5f80600c54111561134e576001600c54036112fb57612710600854836112dd9190612cde565b6112e79190612d4c565b600b546112f49190612f1c565b905061134d565b6127106008548361130c9190612cde565b6113169190612d4c565b6127106008546127106113299190612cab565b600b546113369190612cde565b6113409190612d4c565b61134a9190612f1c565b90505b5b5f81111561138257611381600a5f9054906101000a900473ffffffffffffffffffffffffffffffffffffffff168261172a565b5b81600b819055506113916110ac565b600a5f6101000a81548173ffffffffffffffffffffffffffffffffffffffff021916908373ffffffffffffffffffffffffffffffffffffffff1602179055506001600c5f8282546113e29190612f1c565b92505081905550600954426006546113fa9190612cab565b1015611415576009544261140e9190612f1c565b6006819055505b611440600a5f9054906101000a900473ffffffffffffffffffffffffffffffffffffffff1683611a33565b5050565b60018081905550565b6114578282611ac3565b5050565b60025f9054906101000a900473ffffffffffffffffffffffffffffffffffffffff1673ffffffffffffffffffffffffffffffffffffffff16635e62fea260016040518263ffffffff1660e01b81526004016114b6919061304f565b5f604051808303815f87803b1580156114cd575f80fd5b505af11580156114df573d5f803e3d5ffd5b50505050565b5f808273ffffffffffffffffffffffffffffffffffffffff163b119050919050565b61151083611c84565b8160025f6101000a81548173ffffffffffffffffffffffffffffffffffffffff021916908373ffffffffffffffffffffffffffffffffffffffff160217905550806040015160035f6101000a81548173ffffffffffffffffffffffffffffffffffffffff021916908373ffffffffffffffffffffffffffffffffffffffff160217905550805f01516004819055508060600151426115ae9190612f1c565b60058190555080602001516005546115c69190612f1c565b6006819055505f805f60025f9054906101000a900473ffffffffffffffffffffffffffffffffffffffff1673ffffffffffffffffffffffffffffffffffffffff166302ecf2b36040518163ffffffff1660e01b8152600401606060405180830381865afa158015611639573d5f803e3d5ffd5b505050506040513d601f19601f8201168201806040525081019061165d919061307c565b9250925092508160088190555080600781905550826009819055505f60045411801561168c57505f8460200151115b801561169957505f600754115b6116d8576040517f08c379a00000000000000000000000000000000000000000000000000000000081526004016116cf90613116565b60405180910390fd5b505050505050565b82600e90805190602001906116f6929190611e41565b5081600f908051906020019061170d929190611ec8565b508060109080519060200190611724929190611ec8565b50505050565b5f73ffffffffffffffffffffffffffffffffffffffff1660035f9054906101000a900473ffffffffffffffffffffffffffffffffffffffff1673ffffffffffffffffffffffffffffffffffffffff160361181c57611816828260025f9054906101000a900473ffffffffffffffffffffffffffffffffffffffff1673ffffffffffffffffffffffffffffffffffffffff1663040141e56040518163ffffffff1660e01b8152600401602060405180830381865afa1580156117ed573d5f803e3d5ffd5b505050506040513d601f19601f820116820180604052508101906118119190613148565b611cc6565b50611828565b6118273083836118b9565b5b5050565b5f81146118975742816005546118429190612f1c565b11611882576040517f08c379a0000000000000000000000000000000000000000000000000000000008152600401611879906131bd565b60405180910390fd5b806005546118909190612f1c565b6006819055505b5f82146118ad578160048190555081600b819055505b6118b5611db7565b5050565b3073ffffffffffffffffffffffffffffffffffffffff168373ffffffffffffffffffffffffffffffffffffffff160361198e5760035f9054906101000a900473ffffffffffffffffffffffffffffffffffffffff1673ffffffffffffffffffffffffffffffffffffffff1663a9059cbb83836040518363ffffffff1660e01b81526004016119489291906131db565b6020604051808303815f875af1158015611964573d5f803e3d5ffd5b505050506040513d601f19601f82011682018060405250810190611988919061322c565b50611a2e565b60035f9054906101000a900473ffffffffffffffffffffffffffffffffffffffff1673ffffffffffffffffffffffffffffffffffffffff166323b872dd8484846040518463ffffffff1660e01b81526004016119ec93929190613257565b6020604051808303815f875af1158015611a08573d5f803e3d5ffd5b505050506040513d601f19601f82011682018060405250810190611a2c919061322c565b505b505050565b60025f9054906101000a900473ffffffffffffffffffffffffffffffffffffffff1673ffffffffffffffffffffffffffffffffffffffff1663d611ee87600184846040518463ffffffff1660e01b8152600401611a929392919061328c565b5f604051808303815f87803b158015611aa9575f80fd5b505af1158015611abb573d5f803e3d5ffd5b505050505050565b600e80549050600f805490501115611b8357600e5f81548110611ae957611ae86132c1565b5b905f5260205f20015f9054906101000a900473ffffffffffffffffffffffffffffffffffffffff1673ffffffffffffffffffffffffffffffffffffffff16632eb2c2d68383600f60106040518563ffffffff1660e01b8152600401611b5194939291906133eb565b5f604051808303815f87803b158015611b68575f80fd5b505af1158015611b7a573d5f803e3d5ffd5b50505050611c80565b5f5b600e80549050811015611c7e57600e8181548110611ba657611ba56132c1565b5b905f5260205f20015f9054906101000a900473ffffffffffffffffffffffffffffffffffffffff1673ffffffffffffffffffffffffffffffffffffffff1663f242432a8484600f8581548110611bff57611bfe6132c1565b5b905f5260205f20015460108681548110611c1c57611c1b6132c1565b5b905f5260205f2001546040518563ffffffff1660e01b8152600401611c44949392919061344f565b5f604051808303815f87803b158015611c5b575f80fd5b505af1158015611c6d573d5f803e3d5ffd5b505050508080600101915050611b85565b505b5050565b805f806101000a81548173ffffffffffffffffffffffffffffffffffffffff021916908373ffffffffffffffffffffffffffffffffffffffff16021790555050565b5f805f805f86885af1905080611db0578173ffffffffffffffffffffffffffffffffffffffff1663d0e30db0846040518263ffffffff1660e01b81526004015f604051808303818588803b158015611d1c575f80fd5b505af1158015611d2e573d5f803e3d5ffd5b50505050508173ffffffffffffffffffffffffffffffffffffffff1663a9059cbb85856040518363ffffffff1660e01b8152600401611d6e9291906131db565b6020604051808303815f875af1158015611d8a573d5f803e3d5ffd5b505050506040513d601f19601f82011682018060405250810190611dae919061322c565b505b9392505050565b60025f9054906101000a900473ffffffffffffffffffffffffffffffffffffffff1673ffffffffffffffffffffffffffffffffffffffff1663c0538b0560016040518263ffffffff1660e01b8152600401611e12919061304f565b5f604051808303815f87803b158015611e29575f80fd5b505af1158015611e3b573d5f803e3d5ffd5b50505050565b828054828255905f5260205f20908101928215611eb7579160200282015b82811115611eb6578251825f6101000a81548173ffffffffffffffffffffffffffffffffffffffff021916908373ffffffffffffffffffffffffffffffffffffffff16021790555091602001919060010190611e5f565b5b509050611ec49190611f13565b5090565b828054828255905f5260205f20908101928215611f02579160200282015b82811115611f01578251825591602001919060010190611ee6565b5b509050611f0f9190611f13565b5090565b5b80821115611f2a575f815f905550600101611f14565b5090565b5f604051905090565b5f80fd5b5f80fd5b5f7fffffffff0000000000000000000000000000000000000000000000000000000082169050919050565b611f7381611f3f565b8114611f7d575f80fd5b50565b5f81359050611f8e81611f6a565b92915050565b5f60208284031215611fa957611fa8611f37565b5b5f611fb684828501611f80565b91505092915050565b5f8115159050919050565b611fd381611fbf565b82525050565b5f602082019050611fec5f830184611fca565b92915050565b5f819050919050565b61200481611ff2565b811461200e575f80fd5b50565b5f8135905061201f81611ffb565b92915050565b5f6020828403121561203a57612039611f37565b5b5f61204784828501612011565b91505092915050565b5f73ffffffffffffffffffffffffffffffffffffffff82169050919050565b5f61207982612050565b9050919050565b6120898161206f565b82525050565b5f6020820190506120a25f830184612080565b92915050565b6120b181611ff2565b82525050565b5f6020820190506120ca5f8301846120a8565b92915050565b5f81519050919050565b5f82825260208201905092915050565b5f819050602082019050919050565b6121028161206f565b82525050565b5f61211383836120f9565b60208301905092915050565b5f602082019050919050565b5f612135826120d0565b61213f81856120da565b935061214a836120ea565b805f5b8381101561217a5781516121618882612108565b975061216c8361211f565b92505060018101905061214d565b5085935050505092915050565b5f81519050919050565b5f82825260208201905092915050565b5f819050602082019050919050565b6121b981611ff2565b82525050565b5f6121ca83836121b0565b60208301905092915050565b5f602082019050919050565b5f6121ec82612187565b6121f68185612191565b9350612201836121a1565b805f5b8381101561223157815161221888826121bf565b9750612223836121d6565b925050600181019050612204565b5085935050505092915050565b5f6060820190508181035f830152612256818661212b565b9050818103602083015261226a81856121e2565b9050818103604083015261227e81846121e2565b9050949350505050565b6122918161206f565b811461229b575f80fd5b50565b5f813590506122ac81612288565b92915050565b5f80fd5b5f601f19601f8301169050919050565b7f4e487b71000000000000000000000000000000000000000000000000000000005f52604160045260245ffd5b6122fc826122b6565b810181811067ffffffffffffffff8211171561231b5761231a6122c6565b5b80604052505050565b5f61232d611f2e565b905061233982826122f3565b919050565b5f67ffffffffffffffff821115612358576123576122c6565b5b602082029050602081019050919050565b5f80fd5b5f61237f61237a8461233e565b612324565b905080838252602082019050602084028301858111156123a2576123a1612369565b5b835b818110156123cb57806123b78882612011565b8452602084019350506020810190506123a4565b5050509392505050565b5f82601f8301126123e9576123e86122b2565b5b81356123f984826020860161236d565b91505092915050565b5f80fd5b5f67ffffffffffffffff8211156124205761241f6122c6565b5b612429826122b6565b9050602081019050919050565b828183375f83830152505050565b5f61245661245184612406565b612324565b90508281526020810184848401111561247257612471612402565b5b61247d848285612436565b509392505050565b5f82601f830112612499576124986122b2565b5b81356124a9848260208601612444565b91505092915050565b5f805f805f60a086880312156124cb576124ca611f37565b5b5f6124d88882890161229e565b95505060206124e98882890161229e565b945050604086013567ffffffffffffffff81111561250a57612509611f3b565b5b612516888289016123d5565b935050606086013567ffffffffffffffff81111561253757612536611f3b565b5b612543888289016123d5565b925050608086013567ffffffffffffffff81111561256457612563611f3b565b5b61257088828901612485565b9150509295509295909350565b61258681611f3f565b82525050565b5f60208201905061259f5f83018461257d565b92915050565b5f610100820190506125b95f83018b612080565b6125c6602083018a6120a8565b6125d36040830189612080565b6125e060608301886120a8565b6125ed60808301876120a8565b6125fa60a08301866120a8565b61260760c08301856120a8565b61261460e0830184612080565b9998505050505050505050565b5f67ffffffffffffffff82111561263b5761263a6122c6565b5b602082029050602081019050919050565b5f61265e61265984612621565b612324565b9050808382526020820190506020840283018581111561268157612680612369565b5b835b818110156126aa5780612696888261229e565b845260208401935050602081019050612683565b5050509392505050565b5f82601f8301126126c8576126c76122b2565b5b81356126d884826020860161264c565b91505092915050565b5f80fd5b5f608082840312156126fa576126f96126e1565b5b6127046080612324565b90505f61271384828501612011565b5f83015250602061272684828501612011565b602083015250604061273a8482850161229e565b604083015250606061274e84828501612011565b60608301525092915050565b5f805f805f80610120878903121561277557612774611f37565b5b5f61278289828a0161229e565b965050602061279389828a0161229e565b955050604087013567ffffffffffffffff8111156127b4576127b3611f3b565b5b6127c089828a016126b4565b945050606087013567ffffffffffffffff8111156127e1576127e0611f3b565b5b6127ed89828a016123d5565b935050608087013567ffffffffffffffff81111561280e5761280d611f3b565b5b61281a89828a016123d5565b92505060a061282b89828a016126e5565b9150509295509295509295565b5f805f805f60a0868803121561285157612850611f37565b5b5f61285e8882890161229e565b955050602061286f8882890161229e565b945050604061288088828901612011565b935050606061289188828901612011565b925050608086013567ffffffffffffffff8111156128b2576128b1611f3b565b5b6128be88828901612485565b9150509295509295909350565b5f80604083850312156128e1576128e0611f37565b5b5f6128ee85828601612011565b92505060206128ff85828601612011565b9150509250929050565b5f82825260208201905092915050565b7f41756374696f6e6565722063616e6e6f742062696400000000000000000000005f82015250565b5f61294d601583612909565b915061295882612919565b602082019050919050565b5f6020820190508181035f83015261297a81612941565b9050919050565b7f41756374696f6e20686173206e6f7420737461727465642079657400000000005f82015250565b5f6129b5601b83612909565b91506129c082612981565b602082019050919050565b5f6020820190508181035f8301526129e2816129a9565b9050919050565b7f4f776e61626c653a2063616c6c6572206973206e6f7420746865206f776e65725f82015250565b5f612a1d602083612909565b9150612a28826129e9565b602082019050919050565b5f6020820190508181035f830152612a4a81612a11565b9050919050565b7f43616e6e6f742063616e63656c206f6e676f696e672061756374696f6e0000005f82015250565b5f612a85601d83612909565b9150612a9082612a51565b602082019050919050565b5f6020820190508181035f830152612ab281612a79565b9050919050565b7f496e697469616c697a61626c653a20636f6e747261637420697320616c7265615f8201527f647920696e697469616c697a6564000000000000000000000000000000000000602082015250565b5f612b13602e83612909565b9150612b1e82612ab9565b604082019050919050565b5f6020820190508181035f830152612b4081612b07565b9050919050565b5f819050919050565b5f60ff82169050919050565b5f819050919050565b5f612b7f612b7a612b7584612b47565b612b5c565b612b50565b9050919050565b612b8f81612b65565b82525050565b5f602082019050612ba85f830184612b86565b92915050565b7f4e6f206f6e6520686173206269640000000000000000000000000000000000005f82015250565b5f612be2600e83612909565b9150612bed82612bae565b602082019050919050565b5f6020820190508181035f830152612c0f81612bd6565b9050919050565b7f546869732061756374696f6e2063616e6e6f742062652066696e616c697a65645f82015250565b5f612c4a602083612909565b9150612c5582612c16565b602082019050919050565b5f6020820190508181035f830152612c7781612c3e565b9050919050565b7f4e487b71000000000000000000000000000000000000000000000000000000005f52601160045260245ffd5b5f612cb582611ff2565b9150612cc083611ff2565b9250828203905081811115612cd857612cd7612c7e565b5b92915050565b5f612ce882611ff2565b9150612cf383611ff2565b9250828202612d0181611ff2565b91508282048414831517612d1857612d17612c7e565b5b5092915050565b7f4e487b71000000000000000000000000000000000000000000000000000000005f52601260045260245ffd5b5f612d5682611ff2565b9150612d6183611ff2565b925082612d7157612d70612d1f565b5b828204905092915050565b7f43616e6e6f742065646974206f6e676f696e672061756374696f6e00000000005f82015250565b5f612db0601b83612909565b9150612dbb82612d7c565b602082019050919050565b5f6020820190508181035f830152612ddd81612da4565b9050919050565b7f43616e6e6f74206564697420656e6465642061756374696f6e000000000000005f82015250565b5f612e18601983612909565b9150612e2382612de4565b602082019050919050565b5f6020820190508181035f830152612e4581612e0c565b9050919050565b7f5265656e7472616e637947756172643a207265656e7472616e742063616c6c005f82015250565b5f612e80601f83612909565b9150612e8b82612e4c565b602082019050919050565b5f6020820190508181035f830152612ead81612e74565b9050919050565b7f42696420707269636520746f6f206c6f770000000000000000000000000000005f82015250565b5f612ee8601183612909565b9150612ef382612eb4565b602082019050919050565b5f6020820190508181035f830152612f1581612edc565b9050919050565b5f612f2682611ff2565b9150612f3183611ff2565b9250828201905080821115612f4957612f48612c7e565b5b92915050565b7f41756374696f6e2068617320636c6f73656400000000000000000000000000005f82015250565b5f612f83601283612909565b9150612f8e82612f4f565b602082019050919050565b5f6020820190508181035f830152612fb081612f77565b9050919050565b7f416c7265616479206869676865737420626964646572000000000000000000005f82015250565b5f612feb601683612909565b9150612ff682612fb7565b602082019050919050565b5f6020820190508181035f83015261301881612fdf565b9050919050565b5f61303961303461302f84612b47565b612b5c565b611ff2565b9050919050565b6130498161301f565b82525050565b5f6020820190506130625f830184613040565b92915050565b5f8151905061307681611ffb565b92915050565b5f805f6060848603121561309357613092611f37565b5b5f6130a086828701613068565b93505060206130b186828701613068565b92505060406130c286828701613068565b9150509250925092565b7f496e76616c696420706172616d730000000000000000000000000000000000005f82015250565b5f613100600e83612909565b915061310b826130cc565b602082019050919050565b5f6020820190508181035f83015261312d816130f4565b9050919050565b5f8151905061314281612288565b92915050565b5f6020828403121561315d5761315c611f37565b5b5f61316a84828501613134565b91505092915050565b7f4e6577206475726174696f6e20746f6f2073686f7274000000000000000000005f82015250565b5f6131a7601683612909565b91506131b282613173565b602082019050919050565b5f6020820190508181035f8301526131d48161319b565b9050919050565b5f6040820190506131ee5f830185612080565b6131fb60208301846120a8565b9392505050565b61320b81611fbf565b8114613215575f80fd5b50565b5f8151905061322681613202565b92915050565b5f6020828403121561324157613240611f37565b5b5f61324e84828501613218565b91505092915050565b5f60608201905061326a5f830186612080565b6132776020830185612080565b61328460408301846120a8565b949350505050565b5f60608201905061329f5f830186613040565b6132ac6020830185612080565b6132b960408301846120a8565b949350505050565b7f4e487b71000000000000000000000000000000000000000000000000000000005f52603260045260245ffd5b5f81549050919050565b5f819050815f5260205f209050919050565b5f815f1c9050919050565b5f819050919050565b5f61333061332b8361330a565b613315565b9050919050565b5f613342825461331e565b9050919050565b5f600182019050919050565b5f61335f826132ee565b6133698185612191565b9350613374836132f8565b805f5b838110156133ab5761338882613337565b61339288826121bf565b975061339d83613349565b925050600181019050613377565b5085935050505092915050565b5f82825260208201905092915050565b50565b5f6133d65f836133b8565b91506133e1826133c8565b5f82019050919050565b5f60a0820190506133fe5f830187612080565b61340b6020830186612080565b818103604083015261341d8185613355565b905081810360608301526134318184613355565b90508181036080830152613444816133cb565b905095945050505050565b5f60a0820190506134625f830187612080565b61346f6020830186612080565b61347c60408301856120a8565b61348960608301846120a8565b818103608083015261349a816133cb565b90509594505050505056fea2646970667358221220ca31e1cb52bc9d527545613be38ce8b7d88612338c82a1c196485e67e5272af164736f6c63430008180033",
			"opcodes": "PUSH1 0x80 PUSH1 0x40 MSTORE CALLVALUE DUP1 ISZERO PUSH2 0xF JUMPI PUSH0 DUP1 REVERT JUMPDEST POP PUSH1 0x1 DUP1 DUP2 SWAP1 SSTORE POP PUSH2 0x34DB DUP1 PUSH2 0x24 PUSH0 CODECOPY PUSH0 RETURN INVALID PUSH1 0x80 PUSH1 0x40 MSTORE PUSH1 0x4 CALLDATASIZE LT PUSH2 0x19F JUMPI PUSH0 CALLDATALOAD PUSH1 0xE0 SHR DUP1 PUSH4 0xA9DC6FB2 GT PUSH2 0xEB JUMPI DUP1 PUSH4 0xD33DB697 GT PUSH2 0x89 JUMPI DUP1 PUSH4 0xE88C86C9 GT PUSH2 0x63 JUMPI DUP1 PUSH4 0xE88C86C9 EQ PUSH2 0x5B1 JUMPI DUP1 PUSH4 0xF23A6E61 EQ PUSH2 0x5D9 JUMPI DUP1 PUSH4 0xF77282AB EQ PUSH2 0x615 JUMPI DUP1 PUSH4 0xF821A915 EQ PUSH2 0x62B JUMPI PUSH2 0x1A6 JUMP JUMPDEST DUP1 PUSH4 0xD33DB697 EQ PUSH2 0x52C JUMPI DUP1 PUSH4 0xD94A3505 EQ PUSH2 0x556 JUMPI DUP1 PUSH4 0xDEF18101 EQ PUSH2 0x587 JUMPI PUSH2 0x1A6 JUMP JUMPDEST DUP1 PUSH4 0xBC197C81 GT PUSH2 0xC5 JUMPI DUP1 PUSH4 0xBC197C81 EQ PUSH2 0x460 JUMPI DUP1 PUSH4 0xBEE8BC89 EQ PUSH2 0x49C JUMPI DUP1 PUSH4 0xC45A0155 EQ PUSH2 0x4C6 JUMPI DUP1 PUSH4 0xC6C9BD47 EQ PUSH2 0x4F0 JUMPI PUSH2 0x1A6 JUMP JUMPDEST DUP1 PUSH4 0xA9DC6FB2 EQ PUSH2 0x3E2 JUMPI DUP1 PUSH4 0xB0632602 EQ PUSH2 0x40C JUMPI DUP1 PUSH4 0xB9FDD569 EQ PUSH2 0x436 JUMPI PUSH2 0x1A6 JUMP JUMPDEST DUP1 PUSH4 0x4D21E019 GT PUSH2 0x158 JUMPI DUP1 PUSH4 0x82AA96E9 GT PUSH2 0x132 JUMPI DUP1 PUSH4 0x82AA96E9 EQ PUSH2 0x34E JUMPI DUP1 PUSH4 0x8DA5CB5B EQ PUSH2 0x378 JUMPI DUP1 PUSH4 0x8FA8B790 EQ PUSH2 0x3A2 JUMPI DUP1 PUSH4 0xA001ECDD EQ PUSH2 0x3B8 JUMPI PUSH2 0x1A6 JUMP JUMPDEST DUP1 PUSH4 0x4D21E019 EQ PUSH2 0x2BC JUMPI DUP1 PUSH4 0x677ED495 EQ PUSH2 0x2E8 JUMPI DUP1 PUSH4 0x78E97925 EQ PUSH2 0x324 JUMPI PUSH2 0x1A6 JUMP JUMPDEST DUP1 PUSH4 0x1FFC9A7 EQ PUSH2 0x1AA JUMPI DUP1 PUSH4 0x521CC59 EQ PUSH2 0x1E6 JUMPI DUP1 PUSH4 0xED5A933 EQ PUSH2 0x222 JUMPI DUP1 PUSH4 0x175B2304 EQ PUSH2 0x24C JUMPI DUP1 PUSH4 0x3013CE29 EQ PUSH2 0x268 JUMPI DUP1 PUSH4 0x3197CBB6 EQ PUSH2 0x292 JUMPI PUSH2 0x1A6 JUMP JUMPDEST CALLDATASIZE PUSH2 0x1A6 JUMPI STOP JUMPDEST PUSH0 DUP1 REVERT JUMPDEST CALLVALUE DUP1 ISZERO PUSH2 0x1B5 JUMPI PUSH0 DUP1 REVERT JUMPDEST POP PUSH2 0x1D0 PUSH1 0x4 DUP1 CALLDATASIZE SUB DUP2 ADD SWAP1 PUSH2 0x1CB SWAP2 SWAP1 PUSH2 0x1F94 JUMP JUMPDEST PUSH2 0x653 JUMP JUMPDEST PUSH1 0x40 MLOAD PUSH2 0x1DD SWAP2 SWAP1 PUSH2 0x1FD9 JUMP JUMPDEST PUSH1 0x40 MLOAD DUP1 SWAP2 SUB SWAP1 RETURN JUMPDEST CALLVALUE DUP1 ISZERO PUSH2 0x1F1 JUMPI PUSH0 DUP1 REVERT JUMPDEST POP PUSH2 0x20C PUSH1 0x4 DUP1 CALLDATASIZE SUB DUP2 ADD SWAP1 PUSH2 0x207 SWAP2 SWAP1 PUSH2 0x2025 JUMP JUMPDEST PUSH2 0x6CC JUMP JUMPDEST PUSH1 0x40 MLOAD PUSH2 0x219 SWAP2 SWAP1 PUSH2 0x208F JUMP JUMPDEST PUSH1 0x40 MLOAD DUP1 SWAP2 SUB SWAP1 RETURN JUMPDEST CALLVALUE DUP1 ISZERO PUSH2 0x22D JUMPI PUSH0 DUP1 REVERT JUMPDEST POP PUSH2 0x236 PUSH2 0x707 JUMP JUMPDEST PUSH1 0x40 MLOAD PUSH2 0x243 SWAP2 SWAP1 PUSH2 0x1FD9 JUMP JUMPDEST PUSH1 0x40 MLOAD DUP1 SWAP2 SUB SWAP1 RETURN JUMPDEST PUSH2 0x266 PUSH1 0x4 DUP1 CALLDATASIZE SUB DUP2 ADD SWAP1 PUSH2 0x261 SWAP2 SWAP1 PUSH2 0x2025 JUMP JUMPDEST PUSH2 0x719 JUMP JUMPDEST STOP JUMPDEST CALLVALUE DUP1 ISZERO PUSH2 0x273 JUMPI PUSH0 DUP1 REVERT JUMPDEST POP PUSH2 0x27C PUSH2 0x858 JUMP JUMPDEST PUSH1 0x40 MLOAD PUSH2 0x289 SWAP2 SWAP1 PUSH2 0x208F JUMP JUMPDEST PUSH1 0x40 MLOAD DUP1 SWAP2 SUB SWAP1 RETURN JUMPDEST CALLVALUE DUP1 ISZERO PUSH2 0x29D JUMPI PUSH0 DUP1 REVERT JUMPDEST POP PUSH2 0x2A6 PUSH2 0x87D JUMP JUMPDEST PUSH1 0x40 MLOAD PUSH2 0x2B3 SWAP2 SWAP1 PUSH2 0x20B7 JUMP JUMPDEST PUSH1 0x40 MLOAD DUP1 SWAP2 SUB SWAP1 RETURN JUMPDEST CALLVALUE DUP1 ISZERO PUSH2 0x2C7 JUMPI PUSH0 DUP1 REVERT JUMPDEST POP PUSH2 0x2D0 PUSH2 0x883 JUMP JUMPDEST PUSH1 0x40 MLOAD PUSH2 0x2DF SWAP4 SWAP3 SWAP2 SWAP1 PUSH2 0x223E JUMP JUMPDEST PUSH1 0x40 MLOAD DUP1 SWAP2 SUB SWAP1 RETURN JUMPDEST CALLVALUE DUP1 ISZERO PUSH2 0x2F3 JUMPI PUSH0 DUP1 REVERT JUMPDEST POP PUSH2 0x30E PUSH1 0x4 DUP1 CALLDATASIZE SUB DUP2 ADD SWAP1 PUSH2 0x309 SWAP2 SWAP1 PUSH2 0x2025 JUMP JUMPDEST PUSH2 0x9BE JUMP JUMPDEST PUSH1 0x40 MLOAD PUSH2 0x31B SWAP2 SWAP1 PUSH2 0x20B7 JUMP JUMPDEST PUSH1 0x40 MLOAD DUP1 SWAP2 SUB SWAP1 RETURN JUMPDEST CALLVALUE DUP1 ISZERO PUSH2 0x32F JUMPI PUSH0 DUP1 REVERT JUMPDEST POP PUSH2 0x338 PUSH2 0x9DE JUMP JUMPDEST PUSH1 0x40 MLOAD PUSH2 0x345 SWAP2 SWAP1 PUSH2 0x20B7 JUMP JUMPDEST PUSH1 0x40 MLOAD DUP1 SWAP2 SUB SWAP1 RETURN JUMPDEST CALLVALUE DUP1 ISZERO PUSH2 0x359 JUMPI PUSH0 DUP1 REVERT JUMPDEST POP PUSH2 0x362 PUSH2 0x9E4 JUMP JUMPDEST PUSH1 0x40 MLOAD PUSH2 0x36F SWAP2 SWAP1 PUSH2 0x1FD9 JUMP JUMPDEST PUSH1 0x40 MLOAD DUP1 SWAP2 SUB SWAP1 RETURN JUMPDEST CALLVALUE DUP1 ISZERO PUSH2 0x383 JUMPI PUSH0 DUP1 REVERT JUMPDEST POP PUSH2 0x38C PUSH2 0xA0D JUMP JUMPDEST PUSH1 0x40 MLOAD PUSH2 0x399 SWAP2 SWAP1 PUSH2 0x208F JUMP JUMPDEST PUSH1 0x40 MLOAD DUP1 SWAP2 SUB SWAP1 RETURN JUMPDEST CALLVALUE DUP1 ISZERO PUSH2 0x3AD JUMPI PUSH0 DUP1 REVERT JUMPDEST POP PUSH2 0x3B6 PUSH2 0xA34 JUMP JUMPDEST STOP JUMPDEST CALLVALUE DUP1 ISZERO PUSH2 0x3C3 JUMPI PUSH0 DUP1 REVERT JUMPDEST POP PUSH2 0x3CC PUSH2 0xB39 JUMP JUMPDEST PUSH1 0x40 MLOAD PUSH2 0x3D9 SWAP2 SWAP1 PUSH2 0x20B7 JUMP JUMPDEST PUSH1 0x40 MLOAD DUP1 SWAP2 SUB SWAP1 RETURN JUMPDEST CALLVALUE DUP1 ISZERO PUSH2 0x3ED JUMPI PUSH0 DUP1 REVERT JUMPDEST POP PUSH2 0x3F6 PUSH2 0xB3F JUMP JUMPDEST PUSH1 0x40 MLOAD PUSH2 0x403 SWAP2 SWAP1 PUSH2 0x20B7 JUMP JUMPDEST PUSH1 0x40 MLOAD DUP1 SWAP2 SUB SWAP1 RETURN JUMPDEST CALLVALUE DUP1 ISZERO PUSH2 0x417 JUMPI PUSH0 DUP1 REVERT JUMPDEST POP PUSH2 0x420 PUSH2 0xB45 JUMP JUMPDEST PUSH1 0x40 MLOAD PUSH2 0x42D SWAP2 SWAP1 PUSH2 0x20B7 JUMP JUMPDEST PUSH1 0x40 MLOAD DUP1 SWAP2 SUB SWAP1 RETURN JUMPDEST CALLVALUE DUP1 ISZERO PUSH2 0x441 JUMPI PUSH0 DUP1 REVERT JUMPDEST POP PUSH2 0x44A PUSH2 0xB4B JUMP JUMPDEST PUSH1 0x40 MLOAD PUSH2 0x457 SWAP2 SWAP1 PUSH2 0x20B7 JUMP JUMPDEST PUSH1 0x40 MLOAD DUP1 SWAP2 SUB SWAP1 RETURN JUMPDEST CALLVALUE DUP1 ISZERO PUSH2 0x46B JUMPI PUSH0 DUP1 REVERT JUMPDEST POP PUSH2 0x486 PUSH1 0x4 DUP1 CALLDATASIZE SUB DUP2 ADD SWAP1 PUSH2 0x481 SWAP2 SWAP1 PUSH2 0x24B2 JUMP JUMPDEST PUSH2 0xB51 JUMP JUMPDEST PUSH1 0x40 MLOAD PUSH2 0x493 SWAP2 SWAP1 PUSH2 0x258C JUMP JUMPDEST PUSH1 0x40 MLOAD DUP1 SWAP2 SUB SWAP1 RETURN JUMPDEST CALLVALUE DUP1 ISZERO PUSH2 0x4A7 JUMPI PUSH0 DUP1 REVERT JUMPDEST POP PUSH2 0x4B0 PUSH2 0xB65 JUMP JUMPDEST PUSH1 0x40 MLOAD PUSH2 0x4BD SWAP2 SWAP1 PUSH2 0x20B7 JUMP JUMPDEST PUSH1 0x40 MLOAD DUP1 SWAP2 SUB SWAP1 RETURN JUMPDEST CALLVALUE DUP1 ISZERO PUSH2 0x4D1 JUMPI PUSH0 DUP1 REVERT JUMPDEST POP PUSH2 0x4DA PUSH2 0xB6B JUMP JUMPDEST PUSH1 0x40 MLOAD PUSH2 0x4E7 SWAP2 SWAP1 PUSH2 0x208F JUMP JUMPDEST PUSH1 0x40 MLOAD DUP1 SWAP2 SUB SWAP1 RETURN JUMPDEST CALLVALUE DUP1 ISZERO PUSH2 0x4FB JUMPI PUSH0 DUP1 REVERT JUMPDEST POP PUSH2 0x516 PUSH1 0x4 DUP1 CALLDATASIZE SUB DUP2 ADD SWAP1 PUSH2 0x511 SWAP2 SWAP1 PUSH2 0x2025 JUMP JUMPDEST PUSH2 0xB90 JUMP JUMPDEST PUSH1 0x40 MLOAD PUSH2 0x523 SWAP2 SWAP1 PUSH2 0x20B7 JUMP JUMPDEST PUSH1 0x40 MLOAD DUP1 SWAP2 SUB SWAP1 RETURN JUMPDEST CALLVALUE DUP1 ISZERO PUSH2 0x537 JUMPI PUSH0 DUP1 REVERT JUMPDEST POP PUSH2 0x540 PUSH2 0xBB0 JUMP JUMPDEST PUSH1 0x40 MLOAD PUSH2 0x54D SWAP2 SWAP1 PUSH2 0x208F JUMP JUMPDEST PUSH1 0x40 MLOAD DUP1 SWAP2 SUB SWAP1 RETURN JUMPDEST CALLVALUE DUP1 ISZERO PUSH2 0x561 JUMPI PUSH0 DUP1 REVERT JUMPDEST POP PUSH2 0x56A PUSH2 0xBD5 JUMP JUMPDEST PUSH1 0x40 MLOAD PUSH2 0x57E SWAP9 SWAP8 SWAP7 SWAP6 SWAP5 SWAP4 SWAP3 SWAP2 SWAP1 PUSH2 0x25A5 JUMP JUMPDEST PUSH1 0x40 MLOAD DUP1 SWAP2 SUB SWAP1 RETURN JUMPDEST CALLVALUE DUP1 ISZERO PUSH2 0x592 JUMPI PUSH0 DUP1 REVERT JUMPDEST POP PUSH2 0x59B PUSH2 0xC52 JUMP JUMPDEST PUSH1 0x40 MLOAD PUSH2 0x5A8 SWAP2 SWAP1 PUSH2 0x20B7 JUMP JUMPDEST PUSH1 0x40 MLOAD DUP1 SWAP2 SUB SWAP1 RETURN JUMPDEST CALLVALUE DUP1 ISZERO PUSH2 0x5BC JUMPI PUSH0 DUP1 REVERT JUMPDEST POP PUSH2 0x5D7 PUSH1 0x4 DUP1 CALLDATASIZE SUB DUP2 ADD SWAP1 PUSH2 0x5D2 SWAP2 SWAP1 PUSH2 0x275A JUMP JUMPDEST PUSH2 0xC58 JUMP JUMPDEST STOP JUMPDEST CALLVALUE DUP1 ISZERO PUSH2 0x5E4 JUMPI PUSH0 DUP1 REVERT JUMPDEST POP PUSH2 0x5FF PUSH1 0x4 DUP1 CALLDATASIZE SUB DUP2 ADD SWAP1 PUSH2 0x5FA SWAP2 SWAP1 PUSH2 0x2838 JUMP JUMPDEST PUSH2 0xDA9 JUMP JUMPDEST PUSH1 0x40 MLOAD PUSH2 0x60C SWAP2 SWAP1 PUSH2 0x258C JUMP JUMPDEST PUSH1 0x40 MLOAD DUP1 SWAP2 SUB SWAP1 RETURN JUMPDEST CALLVALUE DUP1 ISZERO PUSH2 0x620 JUMPI PUSH0 DUP1 REVERT JUMPDEST POP PUSH2 0x629 PUSH2 0xDBD JUMP JUMPDEST STOP JUMPDEST CALLVALUE DUP1 ISZERO PUSH2 0x636 JUMPI PUSH0 DUP1 REVERT JUMPDEST POP PUSH2 0x651 PUSH1 0x4 DUP1 CALLDATASIZE SUB DUP2 ADD SWAP1 PUSH2 0x64C SWAP2 SWAP1 PUSH2 0x28CB JUMP JUMPDEST PUSH2 0xED2 JUMP JUMPDEST STOP JUMPDEST PUSH0 PUSH32 0x4E2312E000000000000000000000000000000000000000000000000000000000 PUSH28 0xFFFFFFFFFFFFFFFFFFFFFFFFFFFFFFFFFFFFFFFFFFFFFFFFFFFFFFFF NOT AND DUP3 PUSH28 0xFFFFFFFFFFFFFFFFFFFFFFFFFFFFFFFFFFFFFFFFFFFFFFFFFFFFFFFF NOT AND EQ DUP1 PUSH2 0x6C5 JUMPI POP PUSH2 0x6C4 DUP3 PUSH2 0xFF4 JUMP JUMPDEST JUMPDEST SWAP1 POP SWAP2 SWAP1 POP JUMP JUMPDEST PUSH1 0xE DUP2 DUP2 SLOAD DUP2 LT PUSH2 0x6DB JUMPI PUSH0 DUP1 REVERT JUMPDEST SWAP1 PUSH0 MSTORE PUSH1 0x20 PUSH0 KECCAK256 ADD PUSH0 SWAP2 POP SLOAD SWAP1 PUSH2 0x100 EXP SWAP1 DIV PUSH20 0xFFFFFFFFFFFFFFFFFFFFFFFFFFFFFFFFFFFFFFFF AND DUP2 JUMP JUMPDEST PUSH1 0xD PUSH0 SWAP1 SLOAD SWAP1 PUSH2 0x100 EXP SWAP1 DIV PUSH1 0xFF AND DUP2 JUMP JUMPDEST PUSH2 0x721 PUSH2 0x105D JUMP JUMPDEST PUSH2 0x729 PUSH2 0xA0D JUMP JUMPDEST PUSH20 0xFFFFFFFFFFFFFFFFFFFFFFFFFFFFFFFFFFFFFFFF AND PUSH2 0x747 PUSH2 0x10AC JUMP JUMPDEST PUSH20 0xFFFFFFFFFFFFFFFFFFFFFFFFFFFFFFFFFFFFFFFF AND SUB PUSH2 0x79D JUMPI PUSH1 0x40 MLOAD PUSH32 0x8C379A000000000000000000000000000000000000000000000000000000000 DUP2 MSTORE PUSH1 0x4 ADD PUSH2 0x794 SWAP1 PUSH2 0x2963 JUMP JUMPDEST PUSH1 0x40 MLOAD DUP1 SWAP2 SUB SWAP1 REVERT JUMPDEST PUSH1 0x5 SLOAD TIMESTAMP GT PUSH2 0x7E1 JUMPI PUSH1 0x40 MLOAD PUSH32 0x8C379A000000000000000000000000000000000000000000000000000000000 DUP2 MSTORE PUSH1 0x4 ADD PUSH2 0x7D8 SWAP1 PUSH2 0x29CB JUMP JUMPDEST PUSH1 0x40 MLOAD DUP1 SWAP2 SUB SWAP1 REVERT JUMPDEST PUSH0 PUSH20 0xFFFFFFFFFFFFFFFFFFFFFFFFFFFFFFFFFFFFFFFF AND PUSH1 0x3 PUSH0 SWAP1 SLOAD SWAP1 PUSH2 0x100 EXP SWAP1 DIV PUSH20 0xFFFFFFFFFFFFFFFFFFFFFFFFFFFFFFFFFFFFFFFF AND PUSH20 0xFFFFFFFFFFFFFFFFFFFFFFFFFFFFFFFFFFFFFFFF AND SUB PUSH2 0x843 JUMPI PUSH2 0x83E CALLVALUE PUSH2 0x10B3 JUMP JUMPDEST PUSH2 0x84D JUMP JUMPDEST PUSH2 0x84C DUP2 PUSH2 0x10B3 JUMP JUMPDEST JUMPDEST PUSH2 0x855 PUSH2 0x1444 JUMP JUMPDEST POP JUMP JUMPDEST PUSH1 0x3 PUSH0 SWAP1 SLOAD SWAP1 PUSH2 0x100 EXP SWAP1 DIV PUSH20 0xFFFFFFFFFFFFFFFFFFFFFFFFFFFFFFFFFFFFFFFF AND DUP2 JUMP JUMPDEST PUSH1 0x6 SLOAD DUP2 JUMP JUMPDEST PUSH1 0x60 DUP1 PUSH1 0x60 PUSH1 0xE PUSH1 0xF PUSH1 0x10 DUP3 DUP1 SLOAD DUP1 PUSH1 0x20 MUL PUSH1 0x20 ADD PUSH1 0x40 MLOAD SWAP1 DUP2 ADD PUSH1 0x40 MSTORE DUP1 SWAP3 SWAP2 SWAP1 DUP2 DUP2 MSTORE PUSH1 0x20 ADD DUP3 DUP1 SLOAD DUP1 ISZERO PUSH2 0x90C JUMPI PUSH1 0x20 MUL DUP3 ADD SWAP2 SWAP1 PUSH0 MSTORE PUSH1 0x20 PUSH0 KECCAK256 SWAP1 JUMPDEST DUP2 PUSH0 SWAP1 SLOAD SWAP1 PUSH2 0x100 EXP SWAP1 DIV PUSH20 0xFFFFFFFFFFFFFFFFFFFFFFFFFFFFFFFFFFFFFFFF AND PUSH20 0xFFFFFFFFFFFFFFFFFFFFFFFFFFFFFFFFFFFFFFFF AND DUP2 MSTORE PUSH1 0x20 ADD SWAP1 PUSH1 0x1 ADD SWAP1 DUP1 DUP4 GT PUSH2 0x8C3 JUMPI JUMPDEST POP POP POP POP POP SWAP3 POP DUP2 DUP1 SLOAD DUP1 PUSH1 0x20 MUL PUSH1 0x20 ADD PUSH1 0x40 MLOAD SWAP1 DUP2 ADD PUSH1 0x40 MSTORE DUP1 SWAP3 SWAP2 SWAP1 DUP2 DUP2 MSTORE PUSH1 0x20 ADD DUP3 DUP1 SLOAD DUP1 ISZERO PUSH2 0x95C JUMPI PUSH1 0x20 MUL DUP3 ADD SWAP2 SWAP1 PUSH0 MSTORE PUSH1 0x20 PUSH0 KECCAK256 SWAP1 JUMPDEST DUP2 SLOAD DUP2 MSTORE PUSH1 0x20 ADD SWAP1 PUSH1 0x1 ADD SWAP1 DUP1 DUP4 GT PUSH2 0x948 JUMPI JUMPDEST POP POP POP POP POP SWAP2 POP DUP1 DUP1 SLOAD DUP1 PUSH1 0x20 MUL PUSH1 0x20 ADD PUSH1 0x40 MLOAD SWAP1 DUP2 ADD PUSH1 0x40 MSTORE DUP1 SWAP3 SWAP2 SWAP1 DUP2 DUP2 MSTORE PUSH1 0x20 ADD DUP3 DUP1 SLOAD DUP1 ISZERO PUSH2 0x9AC JUMPI PUSH1 0x20 MUL DUP3 ADD SWAP2 SWAP1 PUSH0 MSTORE PUSH1 0x20 PUSH0 KECCAK256 SWAP1 JUMPDEST DUP2 SLOAD DUP2 MSTORE PUSH1 0x20 ADD SWAP1 PUSH1 0x1 ADD SWAP1 DUP1 DUP4 GT PUSH2 0x998 JUMPI JUMPDEST POP POP POP POP POP SWAP1 POP SWAP3 POP SWAP3 POP SWAP3 POP SWAP1 SWAP2 SWAP3 JUMP JUMPDEST PUSH1 0x10 DUP2 DUP2 SLOAD DUP2 LT PUSH2 0x9CD JUMPI PUSH0 DUP1 REVERT JUMPDEST SWAP1 PUSH0 MSTORE PUSH1 0x20 PUSH0 KECCAK256 ADD PUSH0 SWAP2 POP SWAP1 POP SLOAD DUP2 JUMP JUMPDEST PUSH1 0x5 SLOAD DUP2 JUMP JUMPDEST PUSH0 PUSH1 0x6 SLOAD TIMESTAMP GT ISZERO DUP1 ISZERO PUSH2 0xA08 JUMPI POP PUSH0 ISZERO ISZERO PUSH1 0xD PUSH0 SWAP1 SLOAD SWAP1 PUSH2 0x100 EXP SWAP1 DIV PUSH1 0xFF AND ISZERO ISZERO EQ JUMPDEST SWAP1 POP SWAP1 JUMP JUMPDEST PUSH0 DUP1 PUSH0 SWAP1 SLOAD SWAP1 PUSH2 0x100 EXP SWAP1 DIV PUSH20 0xFFFFFFFFFFFFFFFFFFFFFFFFFFFFFFFFFFFFFFFF AND SWAP1 POP SWAP1 JUMP JUMPDEST PUSH2 0xA3C PUSH2 0x105D JUMP JUMPDEST PUSH2 0xA44 PUSH2 0x10AC JUMP JUMPDEST PUSH20 0xFFFFFFFFFFFFFFFFFFFFFFFFFFFFFFFFFFFFFFFF AND PUSH2 0xA62 PUSH2 0xA0D JUMP JUMPDEST PUSH20 0xFFFFFFFFFFFFFFFFFFFFFFFFFFFFFFFFFFFFFFFF AND EQ PUSH2 0xAB8 JUMPI PUSH1 0x40 MLOAD PUSH32 0x8C379A000000000000000000000000000000000000000000000000000000000 DUP2 MSTORE PUSH1 0x4 ADD PUSH2 0xAAF SWAP1 PUSH2 0x2A33 JUMP JUMPDEST PUSH1 0x40 MLOAD DUP1 SWAP2 SUB SWAP1 REVERT JUMPDEST PUSH0 PUSH1 0xC SLOAD EQ PUSH2 0xAFC JUMPI PUSH1 0x40 MLOAD PUSH32 0x8C379A000000000000000000000000000000000000000000000000000000000 DUP2 MSTORE PUSH1 0x4 ADD PUSH2 0xAF3 SWAP1 PUSH2 0x2A9B JUMP JUMPDEST PUSH1 0x40 MLOAD DUP1 SWAP2 SUB SWAP1 REVERT JUMPDEST PUSH1 0x1 PUSH1 0xD PUSH0 PUSH2 0x100 EXP DUP2 SLOAD DUP2 PUSH1 0xFF MUL NOT AND SWAP1 DUP4 ISZERO ISZERO MUL OR SWAP1 SSTORE POP PUSH2 0xB27 ADDRESS PUSH2 0xB22 PUSH2 0x10AC JUMP JUMPDEST PUSH2 0x144D JUMP JUMPDEST PUSH2 0xB2F PUSH2 0x145B JUMP JUMPDEST PUSH2 0xB37 PUSH2 0x1444 JUMP JUMPDEST JUMP JUMPDEST PUSH1 0x8 SLOAD DUP2 JUMP JUMPDEST PUSH1 0x9 SLOAD DUP2 JUMP JUMPDEST PUSH1 0x7 SLOAD DUP2 JUMP JUMPDEST PUSH1 0x4 SLOAD DUP2 JUMP JUMPDEST PUSH0 PUSH4 0xBC197C81 PUSH1 0xE0 SHL SWAP1 POP SWAP6 SWAP5 POP POP POP POP POP JUMP JUMPDEST PUSH1 0xC SLOAD DUP2 JUMP JUMPDEST PUSH1 0x2 PUSH0 SWAP1 SLOAD SWAP1 PUSH2 0x100 EXP SWAP1 DIV PUSH20 0xFFFFFFFFFFFFFFFFFFFFFFFFFFFFFFFFFFFFFFFF AND DUP2 JUMP JUMPDEST PUSH1 0xF DUP2 DUP2 SLOAD DUP2 LT PUSH2 0xB9F JUMPI PUSH0 DUP1 REVERT JUMPDEST SWAP1 PUSH0 MSTORE PUSH1 0x20 PUSH0 KECCAK256 ADD PUSH0 SWAP2 POP SWAP1 POP SLOAD DUP2 JUMP JUMPDEST PUSH1 0xA PUSH0 SWAP1 SLOAD SWAP1 PUSH2 0x100 EXP SWAP1 DIV PUSH20 0xFFFFFFFFFFFFFFFFFFFFFFFFFFFFFFFFFFFFFFFF AND DUP2 JUMP JUMPDEST PUSH0 DUP1 PUSH0 DUP1 PUSH0 DUP1 PUSH0 DUP1 PUSH2 0xBE5 PUSH2 0xA0D JUMP JUMPDEST PUSH1 0x4 SLOAD PUSH1 0xA PUSH0 SWAP1 SLOAD SWAP1 PUSH2 0x100 EXP SWAP1 DIV PUSH20 0xFFFFFFFFFFFFFFFFFFFFFFFFFFFFFFFFFFFFFFFF AND PUSH1 0xB SLOAD PUSH1 0x5 SLOAD PUSH1 0x6 SLOAD PUSH1 0xC SLOAD PUSH1 0x3 PUSH0 SWAP1 SLOAD SWAP1 PUSH2 0x100 EXP SWAP1 DIV PUSH20 0xFFFFFFFFFFFFFFFFFFFFFFFFFFFFFFFFFFFFFFFF AND SWAP8 POP SWAP8 POP SWAP8 POP SWAP8 POP SWAP8 POP SWAP8 POP SWAP8 POP SWAP8 POP SWAP1 SWAP2 SWAP3 SWAP4 SWAP5 SWAP6 SWAP7 SWAP8 JUMP JUMPDEST PUSH1 0xB SLOAD DUP2 JUMP JUMPDEST PUSH0 DUP1 PUSH1 0x15 SWAP1 SLOAD SWAP1 PUSH2 0x100 EXP SWAP1 DIV PUSH1 0xFF AND ISZERO SWAP1 POP DUP1 DUP1 ISZERO PUSH2 0xC89 JUMPI POP PUSH1 0x1 PUSH0 PUSH1 0x14 SWAP1 SLOAD SWAP1 PUSH2 0x100 EXP SWAP1 DIV PUSH1 0xFF AND PUSH1 0xFF AND LT JUMPDEST DUP1 PUSH2 0xCB7 JUMPI POP PUSH2 0xC98 ADDRESS PUSH2 0x14E5 JUMP JUMPDEST ISZERO DUP1 ISZERO PUSH2 0xCB6 JUMPI POP PUSH1 0x1 PUSH0 PUSH1 0x14 SWAP1 SLOAD SWAP1 PUSH2 0x100 EXP SWAP1 DIV PUSH1 0xFF AND PUSH1 0xFF AND EQ JUMPDEST JUMPDEST PUSH2 0xCF6 JUMPI PUSH1 0x40 MLOAD PUSH32 0x8C379A000000000000000000000000000000000000000000000000000000000 DUP2 MSTORE PUSH1 0x4 ADD PUSH2 0xCED SWAP1 PUSH2 0x2B29 JUMP JUMPDEST PUSH1 0x40 MLOAD DUP1 SWAP2 SUB SWAP1 REVERT JUMPDEST PUSH1 0x1 PUSH0 PUSH1 0x14 PUSH2 0x100 EXP DUP2 SLOAD DUP2 PUSH1 0xFF MUL NOT AND SWAP1 DUP4 PUSH1 0xFF AND MUL OR SWAP1 SSTORE POP DUP1 ISZERO PUSH2 0xD32 JUMPI PUSH1 0x1 PUSH0 PUSH1 0x15 PUSH2 0x100 EXP DUP2 SLOAD DUP2 PUSH1 0xFF MUL NOT AND SWAP1 DUP4 ISZERO ISZERO MUL OR SWAP1 SSTORE POP JUMPDEST PUSH2 0xD3D DUP8 DUP8 DUP5 PUSH2 0x1507 JUMP JUMPDEST PUSH2 0xD48 DUP6 DUP6 DUP6 PUSH2 0x16E0 JUMP JUMPDEST DUP1 ISZERO PUSH2 0xDA0 JUMPI PUSH0 DUP1 PUSH1 0x15 PUSH2 0x100 EXP DUP2 SLOAD DUP2 PUSH1 0xFF MUL NOT AND SWAP1 DUP4 ISZERO ISZERO MUL OR SWAP1 SSTORE POP PUSH32 0x7F26B83FF96E1F2B6A682F133852F6798A09C465DA95921460CEFB3847402498 PUSH1 0x1 PUSH1 0x40 MLOAD PUSH2 0xD97 SWAP2 SWAP1 PUSH2 0x2B95 JUMP JUMPDEST PUSH1 0x40 MLOAD DUP1 SWAP2 SUB SWAP1 LOG1 JUMPDEST POP POP POP POP POP POP POP JUMP JUMPDEST PUSH0 PUSH4 0xF23A6E61 PUSH1 0xE0 SHL SWAP1 POP SWAP6 SWAP5 POP POP POP POP POP JUMP JUMPDEST PUSH0 PUSH1 0xC SLOAD SUB PUSH2 0xE01 JUMPI PUSH1 0x40 MLOAD PUSH32 0x8C379A000000000000000000000000000000000000000000000000000000000 DUP2 MSTORE PUSH1 0x4 ADD PUSH2 0xDF8 SWAP1 PUSH2 0x2BF8 JUMP JUMPDEST PUSH1 0x40 MLOAD DUP1 SWAP2 SUB SWAP1 REVERT JUMPDEST PUSH2 0xE09 PUSH2 0x9E4 JUMP JUMPDEST ISZERO PUSH2 0xE49 JUMPI PUSH1 0x40 MLOAD PUSH32 0x8C379A000000000000000000000000000000000000000000000000000000000 DUP2 MSTORE PUSH1 0x4 ADD PUSH2 0xE40 SWAP1 PUSH2 0x2C60 JUMP JUMPDEST PUSH1 0x40 MLOAD DUP1 SWAP2 SUB SWAP1 REVERT JUMPDEST PUSH0 PUSH1 0x1 PUSH1 0xC SLOAD SUB PUSH2 0xE5E JUMPI PUSH1 0xB SLOAD SWAP1 POP PUSH2 0xE8B JUMP JUMPDEST PUSH2 0x2710 PUSH1 0x8 SLOAD PUSH2 0x2710 PUSH2 0xE71 SWAP2 SWAP1 PUSH2 0x2CAB JUMP JUMPDEST PUSH1 0xB SLOAD PUSH2 0xE7E SWAP2 SWAP1 PUSH2 0x2CDE JUMP JUMPDEST PUSH2 0xE88 SWAP2 SWAP1 PUSH2 0x2D4C JUMP JUMPDEST SWAP1 POP JUMPDEST PUSH2 0xE9C PUSH2 0xE96 PUSH2 0xA0D JUMP JUMPDEST DUP3 PUSH2 0x172A JUMP JUMPDEST PUSH2 0xEC7 ADDRESS PUSH1 0xA PUSH0 SWAP1 SLOAD SWAP1 PUSH2 0x100 EXP SWAP1 DIV PUSH20 0xFFFFFFFFFFFFFFFFFFFFFFFFFFFFFFFFFFFFFFFF AND PUSH2 0x144D JUMP JUMPDEST PUSH2 0xECF PUSH2 0x145B JUMP JUMPDEST POP JUMP JUMPDEST PUSH2 0xEDA PUSH2 0x105D JUMP JUMPDEST PUSH2 0xEE2 PUSH2 0x10AC JUMP JUMPDEST PUSH20 0xFFFFFFFFFFFFFFFFFFFFFFFFFFFFFFFFFFFFFFFF AND PUSH2 0xF00 PUSH2 0xA0D JUMP JUMPDEST PUSH20 0xFFFFFFFFFFFFFFFFFFFFFFFFFFFFFFFFFFFFFFFF AND EQ PUSH2 0xF56 JUMPI PUSH1 0x40 MLOAD PUSH32 0x8C379A000000000000000000000000000000000000000000000000000000000 DUP2 MSTORE PUSH1 0x4 ADD PUSH2 0xF4D SWAP1 PUSH2 0x2A33 JUMP JUMPDEST PUSH1 0x40 MLOAD DUP1 SWAP2 SUB SWAP1 REVERT JUMPDEST PUSH0 PUSH1 0xC SLOAD EQ PUSH2 0xF9A JUMPI PUSH1 0x40 MLOAD PUSH32 0x8C379A000000000000000000000000000000000000000000000000000000000 DUP2 MSTORE PUSH1 0x4 ADD PUSH2 0xF91 SWAP1 PUSH2 0x2DC6 JUMP JUMPDEST PUSH1 0x40 MLOAD DUP1 SWAP2 SUB SWAP1 REVERT JUMPDEST PUSH1 0x6 SLOAD TIMESTAMP LT PUSH2 0xFDE JUMPI PUSH1 0x40 MLOAD PUSH32 0x8C379A000000000000000000000000000000000000000000000000000000000 DUP2 MSTORE PUSH1 0x4 ADD PUSH2 0xFD5 SWAP1 PUSH2 0x2E2E JUMP JUMPDEST PUSH1 0x40 MLOAD DUP1 SWAP2 SUB SWAP1 REVERT JUMPDEST PUSH2 0xFE8 DUP3 DUP3 PUSH2 0x182C JUMP JUMPDEST PUSH2 0xFF0 PUSH2 0x1444 JUMP JUMPDEST POP POP JUMP JUMPDEST PUSH0 PUSH32 0x1FFC9A700000000000000000000000000000000000000000000000000000000 PUSH28 0xFFFFFFFFFFFFFFFFFFFFFFFFFFFFFFFFFFFFFFFFFFFFFFFFFFFFFFFF NOT AND DUP3 PUSH28 0xFFFFFFFFFFFFFFFFFFFFFFFFFFFFFFFFFFFFFFFFFFFFFFFFFFFFFFFF NOT AND EQ SWAP1 POP SWAP2 SWAP1 POP JUMP JUMPDEST PUSH1 0x2 PUSH1 0x1 SLOAD SUB PUSH2 0x10A2 JUMPI PUSH1 0x40 MLOAD PUSH32 0x8C379A000000000000000000000000000000000000000000000000000000000 DUP2 MSTORE PUSH1 0x4 ADD PUSH2 0x1099 SWAP1 PUSH2 0x2E96 JUMP JUMPDEST PUSH1 0x40 MLOAD DUP1 SWAP2 SUB SWAP1 REVERT JUMPDEST PUSH1 0x2 PUSH1 0x1 DUP2 SWAP1 SSTORE POP JUMP JUMPDEST PUSH0 CALLER SWAP1 POP SWAP1 JUMP JUMPDEST PUSH0 PUSH1 0xC SLOAD SUB PUSH2 0x1106 JUMPI PUSH1 0x4 SLOAD DUP2 LT ISZERO PUSH2 0x1101 JUMPI PUSH1 0x40 MLOAD PUSH32 0x8C379A000000000000000000000000000000000000000000000000000000000 DUP2 MSTORE PUSH1 0x4 ADD PUSH2 0x10F8 SWAP1 PUSH2 0x2EFE JUMP JUMPDEST PUSH1 0x40 MLOAD DUP1 SWAP2 SUB SWAP1 REVERT JUMPDEST PUSH2 0x1173 JUMP JUMPDEST PUSH2 0x2710 PUSH1 0x7 SLOAD PUSH2 0x2710 PUSH2 0x1119 SWAP2 SWAP1 PUSH2 0x2F1C JUMP JUMPDEST PUSH1 0xB SLOAD PUSH2 0x1126 SWAP2 SWAP1 PUSH2 0x2CDE JUMP JUMPDEST PUSH2 0x1130 SWAP2 SWAP1 PUSH2 0x2D4C JUMP JUMPDEST DUP2 LT ISZERO PUSH2 0x1172 JUMPI PUSH1 0x40 MLOAD PUSH32 0x8C379A000000000000000000000000000000000000000000000000000000000 DUP2 MSTORE PUSH1 0x4 ADD PUSH2 0x1169 SWAP1 PUSH2 0x2EFE JUMP JUMPDEST PUSH1 0x40 MLOAD DUP1 SWAP2 SUB SWAP1 REVERT JUMPDEST JUMPDEST PUSH2 0x117B PUSH2 0x9E4 JUMP JUMPDEST PUSH2 0x11BA JUMPI PUSH1 0x40 MLOAD PUSH32 0x8C379A000000000000000000000000000000000000000000000000000000000 DUP2 MSTORE PUSH1 0x4 ADD PUSH2 0x11B1 SWAP1 PUSH2 0x2F99 JUMP JUMPDEST PUSH1 0x40 MLOAD DUP1 SWAP2 SUB SWAP1 REVERT JUMPDEST PUSH1 0xA PUSH0 SWAP1 SLOAD SWAP1 PUSH2 0x100 EXP SWAP1 DIV PUSH20 0xFFFFFFFFFFFFFFFFFFFFFFFFFFFFFFFFFFFFFFFF AND PUSH20 0xFFFFFFFFFFFFFFFFFFFFFFFFFFFFFFFFFFFFFFFF AND PUSH2 0x11FA PUSH2 0x10AC JUMP JUMPDEST PUSH20 0xFFFFFFFFFFFFFFFFFFFFFFFFFFFFFFFFFFFFFFFF AND SUB PUSH2 0x1250 JUMPI PUSH1 0x40 MLOAD PUSH32 0x8C379A000000000000000000000000000000000000000000000000000000000 DUP2 MSTORE PUSH1 0x4 ADD PUSH2 0x1247 SWAP1 PUSH2 0x3001 JUMP JUMPDEST PUSH1 0x40 MLOAD DUP1 SWAP2 SUB SWAP1 REVERT JUMPDEST PUSH0 PUSH20 0xFFFFFFFFFFFFFFFFFFFFFFFFFFFFFFFFFFFFFFFF AND PUSH1 0x3 PUSH0 SWAP1 SLOAD SWAP1 PUSH2 0x100 EXP SWAP1 DIV PUSH20 0xFFFFFFFFFFFFFFFFFFFFFFFFFFFFFFFFFFFFFFFF AND PUSH20 0xFFFFFFFFFFFFFFFFFFFFFFFFFFFFFFFFFFFFFFFF AND EQ PUSH2 0x12B7 JUMPI PUSH2 0x12B6 PUSH2 0x12AF PUSH2 0x10AC JUMP JUMPDEST ADDRESS DUP4 PUSH2 0x18B9 JUMP JUMPDEST JUMPDEST PUSH0 DUP1 PUSH1 0xC SLOAD GT ISZERO PUSH2 0x134E JUMPI PUSH1 0x1 PUSH1 0xC SLOAD SUB PUSH2 0x12FB JUMPI PUSH2 0x2710 PUSH1 0x8 SLOAD DUP4 PUSH2 0x12DD SWAP2 SWAP1 PUSH2 0x2CDE JUMP JUMPDEST PUSH2 0x12E7 SWAP2 SWAP1 PUSH2 0x2D4C JUMP JUMPDEST PUSH1 0xB SLOAD PUSH2 0x12F4 SWAP2 SWAP1 PUSH2 0x2F1C JUMP JUMPDEST SWAP1 POP PUSH2 0x134D JUMP JUMPDEST PUSH2 0x2710 PUSH1 0x8 SLOAD DUP4 PUSH2 0x130C SWAP2 SWAP1 PUSH2 0x2CDE JUMP JUMPDEST PUSH2 0x1316 SWAP2 SWAP1 PUSH2 0x2D4C JUMP JUMPDEST PUSH2 0x2710 PUSH1 0x8 SLOAD PUSH2 0x2710 PUSH2 0x1329 SWAP2 SWAP1 PUSH2 0x2CAB JUMP JUMPDEST PUSH1 0xB SLOAD PUSH2 0x1336 SWAP2 SWAP1 PUSH2 0x2CDE JUMP JUMPDEST PUSH2 0x1340 SWAP2 SWAP1 PUSH2 0x2D4C JUMP JUMPDEST PUSH2 0x134A SWAP2 SWAP1 PUSH2 0x2F1C JUMP JUMPDEST SWAP1 POP JUMPDEST JUMPDEST PUSH0 DUP2 GT ISZERO PUSH2 0x1382 JUMPI PUSH2 0x1381 PUSH1 0xA PUSH0 SWAP1 SLOAD SWAP1 PUSH2 0x100 EXP SWAP1 DIV PUSH20 0xFFFFFFFFFFFFFFFFFFFFFFFFFFFFFFFFFFFFFFFF AND DUP3 PUSH2 0x172A JUMP JUMPDEST JUMPDEST DUP2 PUSH1 0xB DUP2 SWAP1 SSTORE POP PUSH2 0x1391 PUSH2 0x10AC JUMP JUMPDEST PUSH1 0xA PUSH0 PUSH2 0x100 EXP DUP2 SLOAD DUP2 PUSH20 0xFFFFFFFFFFFFFFFFFFFFFFFFFFFFFFFFFFFFFFFF MUL NOT AND SWAP1 DUP4 PUSH20 0xFFFFFFFFFFFFFFFFFFFFFFFFFFFFFFFFFFFFFFFF AND MUL OR SWAP1 SSTORE POP PUSH1 0x1 PUSH1 0xC PUSH0 DUP3 DUP3 SLOAD PUSH2 0x13E2 SWAP2 SWAP1 PUSH2 0x2F1C JUMP JUMPDEST SWAP3 POP POP DUP2 SWAP1 SSTORE POP PUSH1 0x9 SLOAD TIMESTAMP PUSH1 0x6 SLOAD PUSH2 0x13FA SWAP2 SWAP1 PUSH2 0x2CAB JUMP JUMPDEST LT ISZERO PUSH2 0x1415 JUMPI PUSH1 0x9 SLOAD TIMESTAMP PUSH2 0x140E SWAP2 SWAP1 PUSH2 0x2F1C JUMP JUMPDEST PUSH1 0x6 DUP2 SWAP1 SSTORE POP JUMPDEST PUSH2 0x1440 PUSH1 0xA PUSH0 SWAP1 SLOAD SWAP1 PUSH2 0x100 EXP SWAP1 DIV PUSH20 0xFFFFFFFFFFFFFFFFFFFFFFFFFFFFFFFFFFFFFFFF AND DUP4 PUSH2 0x1A33 JUMP JUMPDEST POP POP JUMP JUMPDEST PUSH1 0x1 DUP1 DUP2 SWAP1 SSTORE POP JUMP JUMPDEST PUSH2 0x1457 DUP3 DUP3 PUSH2 0x1AC3 JUMP JUMPDEST POP POP JUMP JUMPDEST PUSH1 0x2 PUSH0 SWAP1 SLOAD SWAP1 PUSH2 0x100 EXP SWAP1 DIV PUSH20 0xFFFFFFFFFFFFFFFFFFFFFFFFFFFFFFFFFFFFFFFF AND PUSH20 0xFFFFFFFFFFFFFFFFFFFFFFFFFFFFFFFFFFFFFFFF AND PUSH4 0x5E62FEA2 PUSH1 0x1 PUSH1 0x40 MLOAD DUP3 PUSH4 0xFFFFFFFF AND PUSH1 0xE0 SHL DUP2 MSTORE PUSH1 0x4 ADD PUSH2 0x14B6 SWAP2 SWAP1 PUSH2 0x304F JUMP JUMPDEST PUSH0 PUSH1 0x40 MLOAD DUP1 DUP4 SUB DUP2 PUSH0 DUP8 DUP1 EXTCODESIZE ISZERO DUP1 ISZERO PUSH2 0x14CD JUMPI PUSH0 DUP1 REVERT JUMPDEST POP GAS CALL ISZERO DUP1 ISZERO PUSH2 0x14DF JUMPI RETURNDATASIZE PUSH0 DUP1 RETURNDATACOPY RETURNDATASIZE PUSH0 REVERT JUMPDEST POP POP POP POP JUMP JUMPDEST PUSH0 DUP1 DUP3 PUSH20 0xFFFFFFFFFFFFFFFFFFFFFFFFFFFFFFFFFFFFFFFF AND EXTCODESIZE GT SWAP1 POP SWAP2 SWAP1 POP JUMP JUMPDEST PUSH2 0x1510 DUP4 PUSH2 0x1C84 JUMP JUMPDEST DUP2 PUSH1 0x2 PUSH0 PUSH2 0x100 EXP DUP2 SLOAD DUP2 PUSH20 0xFFFFFFFFFFFFFFFFFFFFFFFFFFFFFFFFFFFFFFFF MUL NOT AND SWAP1 DUP4 PUSH20 0xFFFFFFFFFFFFFFFFFFFFFFFFFFFFFFFFFFFFFFFF AND MUL OR SWAP1 SSTORE POP DUP1 PUSH1 0x40 ADD MLOAD PUSH1 0x3 PUSH0 PUSH2 0x100 EXP DUP2 SLOAD DUP2 PUSH20 0xFFFFFFFFFFFFFFFFFFFFFFFFFFFFFFFFFFFFFFFF MUL NOT AND SWAP1 DUP4 PUSH20 0xFFFFFFFFFFFFFFFFFFFFFFFFFFFFFFFFFFFFFFFF AND MUL OR SWAP1 SSTORE POP DUP1 PUSH0 ADD MLOAD PUSH1 0x4 DUP2 SWAP1 SSTORE POP DUP1 PUSH1 0x60 ADD MLOAD TIMESTAMP PUSH2 0x15AE SWAP2 SWAP1 PUSH2 0x2F1C JUMP JUMPDEST PUSH1 0x5 DUP2 SWAP1 SSTORE POP DUP1 PUSH1 0x20 ADD MLOAD PUSH1 0x5 SLOAD PUSH2 0x15C6 SWAP2 SWAP1 PUSH2 0x2F1C JUMP JUMPDEST PUSH1 0x6 DUP2 SWAP1 SSTORE POP PUSH0 DUP1 PUSH0 PUSH1 0x2 PUSH0 SWAP1 SLOAD SWAP1 PUSH2 0x100 EXP SWAP1 DIV PUSH20 0xFFFFFFFFFFFFFFFFFFFFFFFFFFFFFFFFFFFFFFFF AND PUSH20 0xFFFFFFFFFFFFFFFFFFFFFFFFFFFFFFFFFFFFFFFF AND PUSH4 0x2ECF2B3 PUSH1 0x40 MLOAD DUP2 PUSH4 0xFFFFFFFF AND PUSH1 0xE0 SHL DUP2 MSTORE PUSH1 0x4 ADD PUSH1 0x60 PUSH1 0x40 MLOAD DUP1 DUP4 SUB DUP2 DUP7 GAS STATICCALL ISZERO DUP1 ISZERO PUSH2 0x1639 JUMPI RETURNDATASIZE PUSH0 DUP1 RETURNDATACOPY RETURNDATASIZE PUSH0 REVERT JUMPDEST POP POP POP POP PUSH1 0x40 MLOAD RETURNDATASIZE PUSH1 0x1F NOT PUSH1 0x1F DUP3 ADD AND DUP3 ADD DUP1 PUSH1 0x40 MSTORE POP DUP2 ADD SWAP1 PUSH2 0x165D SWAP2 SWAP1 PUSH2 0x307C JUMP JUMPDEST SWAP3 POP SWAP3 POP SWAP3 POP DUP2 PUSH1 0x8 DUP2 SWAP1 SSTORE POP DUP1 PUSH1 0x7 DUP2 SWAP1 SSTORE POP DUP3 PUSH1 0x9 DUP2 SWAP1 SSTORE POP PUSH0 PUSH1 0x4 SLOAD GT DUP1 ISZERO PUSH2 0x168C JUMPI POP PUSH0 DUP5 PUSH1 0x20 ADD MLOAD GT JUMPDEST DUP1 ISZERO PUSH2 0x1699 JUMPI POP PUSH0 PUSH1 0x7 SLOAD GT JUMPDEST PUSH2 0x16D8 JUMPI PUSH1 0x40 MLOAD PUSH32 0x8C379A000000000000000000000000000000000000000000000000000000000 DUP2 MSTORE PUSH1 0x4 ADD PUSH2 0x16CF SWAP1 PUSH2 0x3116 JUMP JUMPDEST PUSH1 0x40 MLOAD DUP1 SWAP2 SUB SWAP1 REVERT JUMPDEST POP POP POP POP POP POP JUMP JUMPDEST DUP3 PUSH1 0xE SWAP1 DUP1 MLOAD SWAP1 PUSH1 0x20 ADD SWAP1 PUSH2 0x16F6 SWAP3 SWAP2 SWAP1 PUSH2 0x1E41 JUMP JUMPDEST POP DUP2 PUSH1 0xF SWAP1 DUP1 MLOAD SWAP1 PUSH1 0x20 ADD SWAP1 PUSH2 0x170D SWAP3 SWAP2 SWAP1 PUSH2 0x1EC8 JUMP JUMPDEST POP DUP1 PUSH1 0x10 SWAP1 DUP1 MLOAD SWAP1 PUSH1 0x20 ADD SWAP1 PUSH2 0x1724 SWAP3 SWAP2 SWAP1 PUSH2 0x1EC8 JUMP JUMPDEST POP POP POP POP JUMP JUMPDEST PUSH0 PUSH20 0xFFFFFFFFFFFFFFFFFFFFFFFFFFFFFFFFFFFFFFFF AND PUSH1 0x3 PUSH0 SWAP1 SLOAD SWAP1 PUSH2 0x100 EXP SWAP1 DIV PUSH20 0xFFFFFFFFFFFFFFFFFFFFFFFFFFFFFFFFFFFFFFFF AND PUSH20 0xFFFFFFFFFFFFFFFFFFFFFFFFFFFFFFFFFFFFFFFF AND SUB PUSH2 0x181C JUMPI PUSH2 0x1816 DUP3 DUP3 PUSH1 0x2 PUSH0 SWAP1 SLOAD SWAP1 PUSH2 0x100 EXP SWAP1 DIV PUSH20 0xFFFFFFFFFFFFFFFFFFFFFFFFFFFFFFFFFFFFFFFF AND PUSH20 0xFFFFFFFFFFFFFFFFFFFFFFFFFFFFFFFFFFFFFFFF AND PUSH4 0x40141E5 PUSH1 0x40 MLOAD DUP2 PUSH4 0xFFFFFFFF AND PUSH1 0xE0 SHL DUP2 MSTORE PUSH1 0x4 ADD PUSH1 0x20 PUSH1 0x40 MLOAD DUP1 DUP4 SUB DUP2 DUP7 GAS STATICCALL ISZERO DUP1 ISZERO PUSH2 0x17ED JUMPI RETURNDATASIZE PUSH0 DUP1 RETURNDATACOPY RETURNDATASIZE PUSH0 REVERT JUMPDEST POP POP POP POP PUSH1 0x40 MLOAD RETURNDATASIZE PUSH1 0x1F NOT PUSH1 0x1F DUP3 ADD AND DUP3 ADD DUP1 PUSH1 0x40 MSTORE POP DUP2 ADD SWAP1 PUSH2 0x1811 SWAP2 SWAP1 PUSH2 0x3148 JUMP JUMPDEST PUSH2 0x1CC6 JUMP JUMPDEST POP PUSH2 0x1828 JUMP JUMPDEST PUSH2 0x1827 ADDRESS DUP4 DUP4 PUSH2 0x18B9 JUMP JUMPDEST JUMPDEST POP POP JUMP JUMPDEST PUSH0 DUP2 EQ PUSH2 0x1897 JUMPI TIMESTAMP DUP2 PUSH1 0x5 SLOAD PUSH2 0x1842 SWAP2 SWAP1 PUSH2 0x2F1C JUMP JUMPDEST GT PUSH2 0x1882 JUMPI PUSH1 0x40 MLOAD PUSH32 0x8C379A000000000000000000000000000000000000000000000000000000000 DUP2 MSTORE PUSH1 0x4 ADD PUSH2 0x1879 SWAP1 PUSH2 0x31BD JUMP JUMPDEST PUSH1 0x40 MLOAD DUP1 SWAP2 SUB SWAP1 REVERT JUMPDEST DUP1 PUSH1 0x5 SLOAD PUSH2 0x1890 SWAP2 SWAP1 PUSH2 0x2F1C JUMP JUMPDEST PUSH1 0x6 DUP2 SWAP1 SSTORE POP JUMPDEST PUSH0 DUP3 EQ PUSH2 0x18AD JUMPI DUP2 PUSH1 0x4 DUP2 SWAP1 SSTORE POP DUP2 PUSH1 0xB DUP2 SWAP1 SSTORE POP JUMPDEST PUSH2 0x18B5 PUSH2 0x1DB7 JUMP JUMPDEST POP POP JUMP JUMPDEST ADDRESS PUSH20 0xFFFFFFFFFFFFFFFFFFFFFFFFFFFFFFFFFFFFFFFF AND DUP4 PUSH20 0xFFFFFFFFFFFFFFFFFFFFFFFFFFFFFFFFFFFFFFFF AND SUB PUSH2 0x198E JUMPI PUSH1 0x3 PUSH0 SWAP1 SLOAD SWAP1 PUSH2 0x100 EXP SWAP1 DIV PUSH20 0xFFFFFFFFFFFFFFFFFFFFFFFFFFFFFFFFFFFFFFFF AND PUSH20 0xFFFFFFFFFFFFFFFFFFFFFFFFFFFFFFFFFFFFFFFF AND PUSH4 0xA9059CBB DUP4 DUP4 PUSH1 0x40 MLOAD DUP4 PUSH4 0xFFFFFFFF AND PUSH1 0xE0 SHL DUP2 MSTORE PUSH1 0x4 ADD PUSH2 0x1948 SWAP3 SWAP2 SWAP1 PUSH2 0x31DB JUMP JUMPDEST PUSH1 0x20 PUSH1 0x40 MLOAD DUP1 DUP4 SUB DUP2 PUSH0 DUP8 GAS CALL ISZERO DUP1 ISZERO PUSH2 0x1964 JUMPI RETURNDATASIZE PUSH0 DUP1 RETURNDATACOPY RETURNDATASIZE PUSH0 REVERT JUMPDEST POP POP POP POP PUSH1 0x40 MLOAD RETURNDATASIZE PUSH1 0x1F NOT PUSH1 0x1F DUP3 ADD AND DUP3 ADD DUP1 PUSH1 0x40 MSTORE POP DUP2 ADD SWAP1 PUSH2 0x1988 SWAP2 SWAP1 PUSH2 0x322C JUMP JUMPDEST POP PUSH2 0x1A2E JUMP JUMPDEST PUSH1 0x3 PUSH0 SWAP1 SLOAD SWAP1 PUSH2 0x100 EXP SWAP1 DIV PUSH20 0xFFFFFFFFFFFFFFFFFFFFFFFFFFFFFFFFFFFFFFFF AND PUSH20 0xFFFFFFFFFFFFFFFFFFFFFFFFFFFFFFFFFFFFFFFF AND PUSH4 0x23B872DD DUP5 DUP5 DUP5 PUSH1 0x40 MLOAD DUP5 PUSH4 0xFFFFFFFF AND PUSH1 0xE0 SHL DUP2 MSTORE PUSH1 0x4 ADD PUSH2 0x19EC SWAP4 SWAP3 SWAP2 SWAP1 PUSH2 0x3257 JUMP JUMPDEST PUSH1 0x20 PUSH1 0x40 MLOAD DUP1 DUP4 SUB DUP2 PUSH0 DUP8 GAS CALL ISZERO DUP1 ISZERO PUSH2 0x1A08 JUMPI RETURNDATASIZE PUSH0 DUP1 RETURNDATACOPY RETURNDATASIZE PUSH0 REVERT JUMPDEST POP POP POP POP PUSH1 0x40 MLOAD RETURNDATASIZE PUSH1 0x1F NOT PUSH1 0x1F DUP3 ADD AND DUP3 ADD DUP1 PUSH1 0x40 MSTORE POP DUP2 ADD SWAP1 PUSH2 0x1A2C SWAP2 SWAP1 PUSH2 0x322C JUMP JUMPDEST POP JUMPDEST POP POP POP JUMP JUMPDEST PUSH1 0x2 PUSH0 SWAP1 SLOAD SWAP1 PUSH2 0x100 EXP SWAP1 DIV PUSH20 0xFFFFFFFFFFFFFFFFFFFFFFFFFFFFFFFFFFFFFFFF AND PUSH20 0xFFFFFFFFFFFFFFFFFFFFFFFFFFFFFFFFFFFFFFFF AND PUSH4 0xD611EE87 PUSH1 0x1 DUP5 DUP5 PUSH1 0x40 MLOAD DUP5 PUSH4 0xFFFFFFFF AND PUSH1 0xE0 SHL DUP2 MSTORE PUSH1 0x4 ADD PUSH2 0x1A92 SWAP4 SWAP3 SWAP2 SWAP1 PUSH2 0x328C JUMP JUMPDEST PUSH0 PUSH1 0x40 MLOAD DUP1 DUP4 SUB DUP2 PUSH0 DUP8 DUP1 EXTCODESIZE ISZERO DUP1 ISZERO PUSH2 0x1AA9 JUMPI PUSH0 DUP1 REVERT JUMPDEST POP GAS CALL ISZERO DUP1 ISZERO PUSH2 0x1ABB JUMPI RETURNDATASIZE PUSH0 DUP1 RETURNDATACOPY RETURNDATASIZE PUSH0 REVERT JUMPDEST POP POP POP POP POP POP JUMP JUMPDEST PUSH1 0xE DUP1 SLOAD SWAP1 POP PUSH1 0xF DUP1 SLOAD SWAP1 POP GT ISZERO PUSH2 0x1B83 JUMPI PUSH1 0xE PUSH0 DUP2 SLOAD DUP2 LT PUSH2 0x1AE9 JUMPI PUSH2 0x1AE8 PUSH2 0x32C1 JUMP JUMPDEST JUMPDEST SWAP1 PUSH0 MSTORE PUSH1 0x20 PUSH0 KECCAK256 ADD PUSH0 SWAP1 SLOAD SWAP1 PUSH2 0x100 EXP SWAP1 DIV PUSH20 0xFFFFFFFFFFFFFFFFFFFFFFFFFFFFFFFFFFFFFFFF AND PUSH20 0xFFFFFFFFFFFFFFFFFFFFFFFFFFFFFFFFFFFFFFFF AND PUSH4 0x2EB2C2D6 DUP4 DUP4 PUSH1 0xF PUSH1 0x10 PUSH1 0x40 MLOAD DUP6 PUSH4 0xFFFFFFFF AND PUSH1 0xE0 SHL DUP2 MSTORE PUSH1 0x4 ADD PUSH2 0x1B51 SWAP5 SWAP4 SWAP3 SWAP2 SWAP1 PUSH2 0x33EB JUMP JUMPDEST PUSH0 PUSH1 0x40 MLOAD DUP1 DUP4 SUB DUP2 PUSH0 DUP8 DUP1 EXTCODESIZE ISZERO DUP1 ISZERO PUSH2 0x1B68 JUMPI PUSH0 DUP1 REVERT JUMPDEST POP GAS CALL ISZERO DUP1 ISZERO PUSH2 0x1B7A JUMPI RETURNDATASIZE PUSH0 DUP1 RETURNDATACOPY RETURNDATASIZE PUSH0 REVERT JUMPDEST POP POP POP POP PUSH2 0x1C80 JUMP JUMPDEST PUSH0 JUMPDEST PUSH1 0xE DUP1 SLOAD SWAP1 POP DUP2 LT ISZERO PUSH2 0x1C7E JUMPI PUSH1 0xE DUP2 DUP2 SLOAD DUP2 LT PUSH2 0x1BA6 JUMPI PUSH2 0x1BA5 PUSH2 0x32C1 JUMP JUMPDEST JUMPDEST SWAP1 PUSH0 MSTORE PUSH1 0x20 PUSH0 KECCAK256 ADD PUSH0 SWAP1 SLOAD SWAP1 PUSH2 0x100 EXP SWAP1 DIV PUSH20 0xFFFFFFFFFFFFFFFFFFFFFFFFFFFFFFFFFFFFFFFF AND PUSH20 0xFFFFFFFFFFFFFFFFFFFFFFFFFFFFFFFFFFFFFFFF AND PUSH4 0xF242432A DUP5 DUP5 PUSH1 0xF DUP6 DUP2 SLOAD DUP2 LT PUSH2 0x1BFF JUMPI PUSH2 0x1BFE PUSH2 0x32C1 JUMP JUMPDEST JUMPDEST SWAP1 PUSH0 MSTORE PUSH1 0x20 PUSH0 KECCAK256 ADD SLOAD PUSH1 0x10 DUP7 DUP2 SLOAD DUP2 LT PUSH2 0x1C1C JUMPI PUSH2 0x1C1B PUSH2 0x32C1 JUMP JUMPDEST JUMPDEST SWAP1 PUSH0 MSTORE PUSH1 0x20 PUSH0 KECCAK256 ADD SLOAD PUSH1 0x40 MLOAD DUP6 PUSH4 0xFFFFFFFF AND PUSH1 0xE0 SHL DUP2 MSTORE PUSH1 0x4 ADD PUSH2 0x1C44 SWAP5 SWAP4 SWAP3 SWAP2 SWAP1 PUSH2 0x344F JUMP JUMPDEST PUSH0 PUSH1 0x40 MLOAD DUP1 DUP4 SUB DUP2 PUSH0 DUP8 DUP1 EXTCODESIZE ISZERO DUP1 ISZERO PUSH2 0x1C5B JUMPI PUSH0 DUP1 REVERT JUMPDEST POP GAS CALL ISZERO DUP1 ISZERO PUSH2 0x1C6D JUMPI RETURNDATASIZE PUSH0 DUP1 RETURNDATACOPY RETURNDATASIZE PUSH0 REVERT JUMPDEST POP POP POP POP DUP1 DUP1 PUSH1 0x1 ADD SWAP2 POP POP PUSH2 0x1B85 JUMP JUMPDEST POP JUMPDEST POP POP JUMP JUMPDEST DUP1 PUSH0 DUP1 PUSH2 0x100 EXP DUP2 SLOAD DUP2 PUSH20 0xFFFFFFFFFFFFFFFFFFFFFFFFFFFFFFFFFFFFFFFF MUL NOT AND SWAP1 DUP4 PUSH20 0xFFFFFFFFFFFFFFFFFFFFFFFFFFFFFFFFFFFFFFFF AND MUL OR SWAP1 SSTORE POP POP JUMP JUMPDEST PUSH0 DUP1 PUSH0 DUP1 PUSH0 DUP7 DUP9 GAS CALL SWAP1 POP DUP1 PUSH2 0x1DB0 JUMPI DUP2 PUSH20 0xFFFFFFFFFFFFFFFFFFFFFFFFFFFFFFFFFFFFFFFF AND PUSH4 0xD0E30DB0 DUP5 PUSH1 0x40 MLOAD DUP3 PUSH4 0xFFFFFFFF AND PUSH1 0xE0 SHL DUP2 MSTORE PUSH1 0x4 ADD PUSH0 PUSH1 0x40 MLOAD DUP1 DUP4 SUB DUP2 DUP6 DUP9 DUP1 EXTCODESIZE ISZERO DUP1 ISZERO PUSH2 0x1D1C JUMPI PUSH0 DUP1 REVERT JUMPDEST POP GAS CALL ISZERO DUP1 ISZERO PUSH2 0x1D2E JUMPI RETURNDATASIZE PUSH0 DUP1 RETURNDATACOPY RETURNDATASIZE PUSH0 REVERT JUMPDEST POP POP POP POP POP DUP2 PUSH20 0xFFFFFFFFFFFFFFFFFFFFFFFFFFFFFFFFFFFFFFFF AND PUSH4 0xA9059CBB DUP6 DUP6 PUSH1 0x40 MLOAD DUP4 PUSH4 0xFFFFFFFF AND PUSH1 0xE0 SHL DUP2 MSTORE PUSH1 0x4 ADD PUSH2 0x1D6E SWAP3 SWAP2 SWAP1 PUSH2 0x31DB JUMP JUMPDEST PUSH1 0x20 PUSH1 0x40 MLOAD DUP1 DUP4 SUB DUP2 PUSH0 DUP8 GAS CALL ISZERO DUP1 ISZERO PUSH2 0x1D8A JUMPI RETURNDATASIZE PUSH0 DUP1 RETURNDATACOPY RETURNDATASIZE PUSH0 REVERT JUMPDEST POP POP POP POP PUSH1 0x40 MLOAD RETURNDATASIZE PUSH1 0x1F NOT PUSH1 0x1F DUP3 ADD AND DUP3 ADD DUP1 PUSH1 0x40 MSTORE POP DUP2 ADD SWAP1 PUSH2 0x1DAE SWAP2 SWAP1 PUSH2 0x322C JUMP JUMPDEST POP JUMPDEST SWAP4 SWAP3 POP POP POP JUMP JUMPDEST PUSH1 0x2 PUSH0 SWAP1 SLOAD SWAP1 PUSH2 0x100 EXP SWAP1 DIV PUSH20 0xFFFFFFFFFFFFFFFFFFFFFFFFFFFFFFFFFFFFFFFF AND PUSH20 0xFFFFFFFFFFFFFFFFFFFFFFFFFFFFFFFFFFFFFFFF AND PUSH4 0xC0538B05 PUSH1 0x1 PUSH1 0x40 MLOAD DUP3 PUSH4 0xFFFFFFFF AND PUSH1 0xE0 SHL DUP2 MSTORE PUSH1 0x4 ADD PUSH2 0x1E12 SWAP2 SWAP1 PUSH2 0x304F JUMP JUMPDEST PUSH0 PUSH1 0x40 MLOAD DUP1 DUP4 SUB DUP2 PUSH0 DUP8 DUP1 EXTCODESIZE ISZERO DUP1 ISZERO PUSH2 0x1E29 JUMPI PUSH0 DUP1 REVERT JUMPDEST POP GAS CALL ISZERO DUP1 ISZERO PUSH2 0x1E3B JUMPI RETURNDATASIZE PUSH0 DUP1 RETURNDATACOPY RETURNDATASIZE PUSH0 REVERT JUMPDEST POP POP POP POP JUMP JUMPDEST DUP3 DUP1 SLOAD DUP3 DUP3 SSTORE SWAP1 PUSH0 MSTORE PUSH1 0x20 PUSH0 KECCAK256 SWAP1 DUP2 ADD SWAP3 DUP3 ISZERO PUSH2 0x1EB7 JUMPI SWAP2 PUSH1 0x20 MUL DUP3 ADD JUMPDEST DUP3 DUP2 GT ISZERO PUSH2 0x1EB6 JUMPI DUP3 MLOAD DUP3 PUSH0 PUSH2 0x100 EXP DUP2 SLOAD DUP2 PUSH20 0xFFFFFFFFFFFFFFFFFFFFFFFFFFFFFFFFFFFFFFFF MUL NOT AND SWAP1 DUP4 PUSH20 0xFFFFFFFFFFFFFFFFFFFFFFFFFFFFFFFFFFFFFFFF AND MUL OR SWAP1 SSTORE POP SWAP2 PUSH1 0x20 ADD SWAP2 SWAP1 PUSH1 0x1 ADD SWAP1 PUSH2 0x1E5F JUMP JUMPDEST JUMPDEST POP SWAP1 POP PUSH2 0x1EC4 SWAP2 SWAP1 PUSH2 0x1F13 JUMP JUMPDEST POP SWAP1 JUMP JUMPDEST DUP3 DUP1 SLOAD DUP3 DUP3 SSTORE SWAP1 PUSH0 MSTORE PUSH1 0x20 PUSH0 KECCAK256 SWAP1 DUP2 ADD SWAP3 DUP3 ISZERO PUSH2 0x1F02 JUMPI SWAP2 PUSH1 0x20 MUL DUP3 ADD JUMPDEST DUP3 DUP2 GT ISZERO PUSH2 0x1F01 JUMPI DUP3 MLOAD DUP3 SSTORE SWAP2 PUSH1 0x20 ADD SWAP2 SWAP1 PUSH1 0x1 ADD SWAP1 PUSH2 0x1EE6 JUMP JUMPDEST JUMPDEST POP SWAP1 POP PUSH2 0x1F0F SWAP2 SWAP1 PUSH2 0x1F13 JUMP JUMPDEST POP SWAP1 JUMP JUMPDEST JUMPDEST DUP1 DUP3 GT ISZERO PUSH2 0x1F2A JUMPI PUSH0 DUP2 PUSH0 SWAP1 SSTORE POP PUSH1 0x1 ADD PUSH2 0x1F14 JUMP JUMPDEST POP SWAP1 JUMP JUMPDEST PUSH0 PUSH1 0x40 MLOAD SWAP1 POP SWAP1 JUMP JUMPDEST PUSH0 DUP1 REVERT JUMPDEST PUSH0 DUP1 REVERT JUMPDEST PUSH0 PUSH32 0xFFFFFFFF00000000000000000000000000000000000000000000000000000000 DUP3 AND SWAP1 POP SWAP2 SWAP1 POP JUMP JUMPDEST PUSH2 0x1F73 DUP2 PUSH2 0x1F3F JUMP JUMPDEST DUP2 EQ PUSH2 0x1F7D JUMPI PUSH0 DUP1 REVERT JUMPDEST POP JUMP JUMPDEST PUSH0 DUP2 CALLDATALOAD SWAP1 POP PUSH2 0x1F8E DUP2 PUSH2 0x1F6A JUMP JUMPDEST SWAP3 SWAP2 POP POP JUMP JUMPDEST PUSH0 PUSH1 0x20 DUP3 DUP5 SUB SLT ISZERO PUSH2 0x1FA9 JUMPI PUSH2 0x1FA8 PUSH2 0x1F37 JUMP JUMPDEST JUMPDEST PUSH0 PUSH2 0x1FB6 DUP5 DUP3 DUP6 ADD PUSH2 0x1F80 JUMP JUMPDEST SWAP2 POP POP SWAP3 SWAP2 POP POP JUMP JUMPDEST PUSH0 DUP2 ISZERO ISZERO SWAP1 POP SWAP2 SWAP1 POP JUMP JUMPDEST PUSH2 0x1FD3 DUP2 PUSH2 0x1FBF JUMP JUMPDEST DUP3 MSTORE POP POP JUMP JUMPDEST PUSH0 PUSH1 0x20 DUP3 ADD SWAP1 POP PUSH2 0x1FEC PUSH0 DUP4 ADD DUP5 PUSH2 0x1FCA JUMP JUMPDEST SWAP3 SWAP2 POP POP JUMP JUMPDEST PUSH0 DUP2 SWAP1 POP SWAP2 SWAP1 POP JUMP JUMPDEST PUSH2 0x2004 DUP2 PUSH2 0x1FF2 JUMP JUMPDEST DUP2 EQ PUSH2 0x200E JUMPI PUSH0 DUP1 REVERT JUMPDEST POP JUMP JUMPDEST PUSH0 DUP2 CALLDATALOAD SWAP1 POP PUSH2 0x201F DUP2 PUSH2 0x1FFB JUMP JUMPDEST SWAP3 SWAP2 POP POP JUMP JUMPDEST PUSH0 PUSH1 0x20 DUP3 DUP5 SUB SLT ISZERO PUSH2 0x203A JUMPI PUSH2 0x2039 PUSH2 0x1F37 JUMP JUMPDEST JUMPDEST PUSH0 PUSH2 0x2047 DUP5 DUP3 DUP6 ADD PUSH2 0x2011 JUMP JUMPDEST SWAP2 POP POP SWAP3 SWAP2 POP POP JUMP JUMPDEST PUSH0 PUSH20 0xFFFFFFFFFFFFFFFFFFFFFFFFFFFFFFFFFFFFFFFF DUP3 AND SWAP1 POP SWAP2 SWAP1 POP JUMP JUMPDEST PUSH0 PUSH2 0x2079 DUP3 PUSH2 0x2050 JUMP JUMPDEST SWAP1 POP SWAP2 SWAP1 POP JUMP JUMPDEST PUSH2 0x2089 DUP2 PUSH2 0x206F JUMP JUMPDEST DUP3 MSTORE POP POP JUMP JUMPDEST PUSH0 PUSH1 0x20 DUP3 ADD SWAP1 POP PUSH2 0x20A2 PUSH0 DUP4 ADD DUP5 PUSH2 0x2080 JUMP JUMPDEST SWAP3 SWAP2 POP POP JUMP JUMPDEST PUSH2 0x20B1 DUP2 PUSH2 0x1FF2 JUMP JUMPDEST DUP3 MSTORE POP POP JUMP JUMPDEST PUSH0 PUSH1 0x20 DUP3 ADD SWAP1 POP PUSH2 0x20CA PUSH0 DUP4 ADD DUP5 PUSH2 0x20A8 JUMP JUMPDEST SWAP3 SWAP2 POP POP JUMP JUMPDEST PUSH0 DUP2 MLOAD SWAP1 POP SWAP2 SWAP1 POP JUMP JUMPDEST PUSH0 DUP3 DUP3 MSTORE PUSH1 0x20 DUP3 ADD SWAP1 POP SWAP3 SWAP2 POP POP JUMP JUMPDEST PUSH0 DUP2 SWAP1 POP PUSH1 0x20 DUP3 ADD SWAP1 POP SWAP2 SWAP1 POP JUMP JUMPDEST PUSH2 0x2102 DUP2 PUSH2 0x206F JUMP JUMPDEST DUP3 MSTORE POP POP JUMP JUMPDEST PUSH0 PUSH2 0x2113 DUP4 DUP4 PUSH2 0x20F9 JUMP JUMPDEST PUSH1 0x20 DUP4 ADD SWAP1 POP SWAP3 SWAP2 POP POP JUMP JUMPDEST PUSH0 PUSH1 0x20 DUP3 ADD SWAP1 POP SWAP2 SWAP1 POP JUMP JUMPDEST PUSH0 PUSH2 0x2135 DUP3 PUSH2 0x20D0 JUMP JUMPDEST PUSH2 0x213F DUP2 DUP6 PUSH2 0x20DA JUMP JUMPDEST SWAP4 POP PUSH2 0x214A DUP4 PUSH2 0x20EA JUMP JUMPDEST DUP1 PUSH0 JUMPDEST DUP4 DUP2 LT ISZERO PUSH2 0x217A JUMPI DUP2 MLOAD PUSH2 0x2161 DUP9 DUP3 PUSH2 0x2108 JUMP JUMPDEST SWAP8 POP PUSH2 0x216C DUP4 PUSH2 0x211F JUMP JUMPDEST SWAP3 POP POP PUSH1 0x1 DUP2 ADD SWAP1 POP PUSH2 0x214D JUMP JUMPDEST POP DUP6 SWAP4 POP POP POP POP SWAP3 SWAP2 POP POP JUMP JUMPDEST PUSH0 DUP2 MLOAD SWAP1 POP SWAP2 SWAP1 POP JUMP JUMPDEST PUSH0 DUP3 DUP3 MSTORE PUSH1 0x20 DUP3 ADD SWAP1 POP SWAP3 SWAP2 POP POP JUMP JUMPDEST PUSH0 DUP2 SWAP1 POP PUSH1 0x20 DUP3 ADD SWAP1 POP SWAP2 SWAP1 POP JUMP JUMPDEST PUSH2 0x21B9 DUP2 PUSH2 0x1FF2 JUMP JUMPDEST DUP3 MSTORE POP POP JUMP JUMPDEST PUSH0 PUSH2 0x21CA DUP4 DUP4 PUSH2 0x21B0 JUMP JUMPDEST PUSH1 0x20 DUP4 ADD SWAP1 POP SWAP3 SWAP2 POP POP JUMP JUMPDEST PUSH0 PUSH1 0x20 DUP3 ADD SWAP1 POP SWAP2 SWAP1 POP JUMP JUMPDEST PUSH0 PUSH2 0x21EC DUP3 PUSH2 0x2187 JUMP JUMPDEST PUSH2 0x21F6 DUP2 DUP6 PUSH2 0x2191 JUMP JUMPDEST SWAP4 POP PUSH2 0x2201 DUP4 PUSH2 0x21A1 JUMP JUMPDEST DUP1 PUSH0 JUMPDEST DUP4 DUP2 LT ISZERO PUSH2 0x2231 JUMPI DUP2 MLOAD PUSH2 0x2218 DUP9 DUP3 PUSH2 0x21BF JUMP JUMPDEST SWAP8 POP PUSH2 0x2223 DUP4 PUSH2 0x21D6 JUMP JUMPDEST SWAP3 POP POP PUSH1 0x1 DUP2 ADD SWAP1 POP PUSH2 0x2204 JUMP JUMPDEST POP DUP6 SWAP4 POP POP POP POP SWAP3 SWAP2 POP POP JUMP JUMPDEST PUSH0 PUSH1 0x60 DUP3 ADD SWAP1 POP DUP2 DUP2 SUB PUSH0 DUP4 ADD MSTORE PUSH2 0x2256 DUP2 DUP7 PUSH2 0x212B JUMP JUMPDEST SWAP1 POP DUP2 DUP2 SUB PUSH1 0x20 DUP4 ADD MSTORE PUSH2 0x226A DUP2 DUP6 PUSH2 0x21E2 JUMP JUMPDEST SWAP1 POP DUP2 DUP2 SUB PUSH1 0x40 DUP4 ADD MSTORE PUSH2 0x227E DUP2 DUP5 PUSH2 0x21E2 JUMP JUMPDEST SWAP1 POP SWAP5 SWAP4 POP POP POP POP JUMP JUMPDEST PUSH2 0x2291 DUP2 PUSH2 0x206F JUMP JUMPDEST DUP2 EQ PUSH2 0x229B JUMPI PUSH0 DUP1 REVERT JUMPDEST POP JUMP JUMPDEST PUSH0 DUP2 CALLDATALOAD SWAP1 POP PUSH2 0x22AC DUP2 PUSH2 0x2288 JUMP JUMPDEST SWAP3 SWAP2 POP POP JUMP JUMPDEST PUSH0 DUP1 REVERT JUMPDEST PUSH0 PUSH1 0x1F NOT PUSH1 0x1F DUP4 ADD AND SWAP1 POP SWAP2 SWAP1 POP JUMP JUMPDEST PUSH32 0x4E487B7100000000000000000000000000000000000000000000000000000000 PUSH0 MSTORE PUSH1 0x41 PUSH1 0x4 MSTORE PUSH1 0x24 PUSH0 REVERT JUMPDEST PUSH2 0x22FC DUP3 PUSH2 0x22B6 JUMP JUMPDEST DUP2 ADD DUP2 DUP2 LT PUSH8 0xFFFFFFFFFFFFFFFF DUP3 GT OR ISZERO PUSH2 0x231B JUMPI PUSH2 0x231A PUSH2 0x22C6 JUMP JUMPDEST JUMPDEST DUP1 PUSH1 0x40 MSTORE POP POP POP JUMP JUMPDEST PUSH0 PUSH2 0x232D PUSH2 0x1F2E JUMP JUMPDEST SWAP1 POP PUSH2 0x2339 DUP3 DUP3 PUSH2 0x22F3 JUMP JUMPDEST SWAP2 SWAP1 POP JUMP JUMPDEST PUSH0 PUSH8 0xFFFFFFFFFFFFFFFF DUP3 GT ISZERO PUSH2 0x2358 JUMPI PUSH2 0x2357 PUSH2 0x22C6 JUMP JUMPDEST JUMPDEST PUSH1 0x20 DUP3 MUL SWAP1 POP PUSH1 0x20 DUP2 ADD SWAP1 POP SWAP2 SWAP1 POP JUMP JUMPDEST PUSH0 DUP1 REVERT JUMPDEST PUSH0 PUSH2 0x237F PUSH2 0x237A DUP5 PUSH2 0x233E JUMP JUMPDEST PUSH2 0x2324 JUMP JUMPDEST SWAP1 POP DUP1 DUP4 DUP3 MSTORE PUSH1 0x20 DUP3 ADD SWAP1 POP PUSH1 0x20 DUP5 MUL DUP4 ADD DUP6 DUP2 GT ISZERO PUSH2 0x23A2 JUMPI PUSH2 0x23A1 PUSH2 0x2369 JUMP JUMPDEST JUMPDEST DUP4 JUMPDEST DUP2 DUP2 LT ISZERO PUSH2 0x23CB JUMPI DUP1 PUSH2 0x23B7 DUP9 DUP3 PUSH2 0x2011 JUMP JUMPDEST DUP5 MSTORE PUSH1 0x20 DUP5 ADD SWAP4 POP POP PUSH1 0x20 DUP2 ADD SWAP1 POP PUSH2 0x23A4 JUMP JUMPDEST POP POP POP SWAP4 SWAP3 POP POP POP JUMP JUMPDEST PUSH0 DUP3 PUSH1 0x1F DUP4 ADD SLT PUSH2 0x23E9 JUMPI PUSH2 0x23E8 PUSH2 0x22B2 JUMP JUMPDEST JUMPDEST DUP2 CALLDATALOAD PUSH2 0x23F9 DUP5 DUP3 PUSH1 0x20 DUP7 ADD PUSH2 0x236D JUMP JUMPDEST SWAP2 POP POP SWAP3 SWAP2 POP POP JUMP JUMPDEST PUSH0 DUP1 REVERT JUMPDEST PUSH0 PUSH8 0xFFFFFFFFFFFFFFFF DUP3 GT ISZERO PUSH2 0x2420 JUMPI PUSH2 0x241F PUSH2 0x22C6 JUMP JUMPDEST JUMPDEST PUSH2 0x2429 DUP3 PUSH2 0x22B6 JUMP JUMPDEST SWAP1 POP PUSH1 0x20 DUP2 ADD SWAP1 POP SWAP2 SWAP1 POP JUMP JUMPDEST DUP3 DUP2 DUP4 CALLDATACOPY PUSH0 DUP4 DUP4 ADD MSTORE POP POP POP JUMP JUMPDEST PUSH0 PUSH2 0x2456 PUSH2 0x2451 DUP5 PUSH2 0x2406 JUMP JUMPDEST PUSH2 0x2324 JUMP JUMPDEST SWAP1 POP DUP3 DUP2 MSTORE PUSH1 0x20 DUP2 ADD DUP5 DUP5 DUP5 ADD GT ISZERO PUSH2 0x2472 JUMPI PUSH2 0x2471 PUSH2 0x2402 JUMP JUMPDEST JUMPDEST PUSH2 0x247D DUP5 DUP3 DUP6 PUSH2 0x2436 JUMP JUMPDEST POP SWAP4 SWAP3 POP POP POP JUMP JUMPDEST PUSH0 DUP3 PUSH1 0x1F DUP4 ADD SLT PUSH2 0x2499 JUMPI PUSH2 0x2498 PUSH2 0x22B2 JUMP JUMPDEST JUMPDEST DUP2 CALLDATALOAD PUSH2 0x24A9 DUP5 DUP3 PUSH1 0x20 DUP7 ADD PUSH2 0x2444 JUMP JUMPDEST SWAP2 POP POP SWAP3 SWAP2 POP POP JUMP JUMPDEST PUSH0 DUP1 PUSH0 DUP1 PUSH0 PUSH1 0xA0 DUP7 DUP9 SUB SLT ISZERO PUSH2 0x24CB JUMPI PUSH2 0x24CA PUSH2 0x1F37 JUMP JUMPDEST JUMPDEST PUSH0 PUSH2 0x24D8 DUP9 DUP3 DUP10 ADD PUSH2 0x229E JUMP JUMPDEST SWAP6 POP POP PUSH1 0x20 PUSH2 0x24E9 DUP9 DUP3 DUP10 ADD PUSH2 0x229E JUMP JUMPDEST SWAP5 POP POP PUSH1 0x40 DUP7 ADD CALLDATALOAD PUSH8 0xFFFFFFFFFFFFFFFF DUP2 GT ISZERO PUSH2 0x250A JUMPI PUSH2 0x2509 PUSH2 0x1F3B JUMP JUMPDEST JUMPDEST PUSH2 0x2516 DUP9 DUP3 DUP10 ADD PUSH2 0x23D5 JUMP JUMPDEST SWAP4 POP POP PUSH1 0x60 DUP7 ADD CALLDATALOAD PUSH8 0xFFFFFFFFFFFFFFFF DUP2 GT ISZERO PUSH2 0x2537 JUMPI PUSH2 0x2536 PUSH2 0x1F3B JUMP JUMPDEST JUMPDEST PUSH2 0x2543 DUP9 DUP3 DUP10 ADD PUSH2 0x23D5 JUMP JUMPDEST SWAP3 POP POP PUSH1 0x80 DUP7 ADD CALLDATALOAD PUSH8 0xFFFFFFFFFFFFFFFF DUP2 GT ISZERO PUSH2 0x2564 JUMPI PUSH2 0x2563 PUSH2 0x1F3B JUMP JUMPDEST JUMPDEST PUSH2 0x2570 DUP9 DUP3 DUP10 ADD PUSH2 0x2485 JUMP JUMPDEST SWAP2 POP POP SWAP3 SWAP6 POP SWAP3 SWAP6 SWAP1 SWAP4 POP JUMP JUMPDEST PUSH2 0x2586 DUP2 PUSH2 0x1F3F JUMP JUMPDEST DUP3 MSTORE POP POP JUMP JUMPDEST PUSH0 PUSH1 0x20 DUP3 ADD SWAP1 POP PUSH2 0x259F PUSH0 DUP4 ADD DUP5 PUSH2 0x257D JUMP JUMPDEST SWAP3 SWAP2 POP POP JUMP JUMPDEST PUSH0 PUSH2 0x100 DUP3 ADD SWAP1 POP PUSH2 0x25B9 PUSH0 DUP4 ADD DUP12 PUSH2 0x2080 JUMP JUMPDEST PUSH2 0x25C6 PUSH1 0x20 DUP4 ADD DUP11 PUSH2 0x20A8 JUMP JUMPDEST PUSH2 0x25D3 PUSH1 0x40 DUP4 ADD DUP10 PUSH2 0x2080 JUMP JUMPDEST PUSH2 0x25E0 PUSH1 0x60 DUP4 ADD DUP9 PUSH2 0x20A8 JUMP JUMPDEST PUSH2 0x25ED PUSH1 0x80 DUP4 ADD DUP8 PUSH2 0x20A8 JUMP JUMPDEST PUSH2 0x25FA PUSH1 0xA0 DUP4 ADD DUP7 PUSH2 0x20A8 JUMP JUMPDEST PUSH2 0x2607 PUSH1 0xC0 DUP4 ADD DUP6 PUSH2 0x20A8 JUMP JUMPDEST PUSH2 0x2614 PUSH1 0xE0 DUP4 ADD DUP5 PUSH2 0x2080 JUMP JUMPDEST SWAP10 SWAP9 POP POP POP POP POP POP POP POP POP JUMP JUMPDEST PUSH0 PUSH8 0xFFFFFFFFFFFFFFFF DUP3 GT ISZERO PUSH2 0x263B JUMPI PUSH2 0x263A PUSH2 0x22C6 JUMP JUMPDEST JUMPDEST PUSH1 0x20 DUP3 MUL SWAP1 POP PUSH1 0x20 DUP2 ADD SWAP1 POP SWAP2 SWAP1 POP JUMP JUMPDEST PUSH0 PUSH2 0x265E PUSH2 0x2659 DUP5 PUSH2 0x2621 JUMP JUMPDEST PUSH2 0x2324 JUMP JUMPDEST SWAP1 POP DUP1 DUP4 DUP3 MSTORE PUSH1 0x20 DUP3 ADD SWAP1 POP PUSH1 0x20 DUP5 MUL DUP4 ADD DUP6 DUP2 GT ISZERO PUSH2 0x2681 JUMPI PUSH2 0x2680 PUSH2 0x2369 JUMP JUMPDEST JUMPDEST DUP4 JUMPDEST DUP2 DUP2 LT ISZERO PUSH2 0x26AA JUMPI DUP1 PUSH2 0x2696 DUP9 DUP3 PUSH2 0x229E JUMP JUMPDEST DUP5 MSTORE PUSH1 0x20 DUP5 ADD SWAP4 POP POP PUSH1 0x20 DUP2 ADD SWAP1 POP PUSH2 0x2683 JUMP JUMPDEST POP POP POP SWAP4 SWAP3 POP POP POP JUMP JUMPDEST PUSH0 DUP3 PUSH1 0x1F DUP4 ADD SLT PUSH2 0x26C8 JUMPI PUSH2 0x26C7 PUSH2 0x22B2 JUMP JUMPDEST JUMPDEST DUP2 CALLDATALOAD PUSH2 0x26D8 DUP5 DUP3 PUSH1 0x20 DUP7 ADD PUSH2 0x264C JUMP JUMPDEST SWAP2 POP POP SWAP3 SWAP2 POP POP JUMP JUMPDEST PUSH0 DUP1 REVERT JUMPDEST PUSH0 PUSH1 0x80 DUP3 DUP5 SUB SLT ISZERO PUSH2 0x26FA JUMPI PUSH2 0x26F9 PUSH2 0x26E1 JUMP JUMPDEST JUMPDEST PUSH2 0x2704 PUSH1 0x80 PUSH2 0x2324 JUMP JUMPDEST SWAP1 POP PUSH0 PUSH2 0x2713 DUP5 DUP3 DUP6 ADD PUSH2 0x2011 JUMP JUMPDEST PUSH0 DUP4 ADD MSTORE POP PUSH1 0x20 PUSH2 0x2726 DUP5 DUP3 DUP6 ADD PUSH2 0x2011 JUMP JUMPDEST PUSH1 0x20 DUP4 ADD MSTORE POP PUSH1 0x40 PUSH2 0x273A DUP5 DUP3 DUP6 ADD PUSH2 0x229E JUMP JUMPDEST PUSH1 0x40 DUP4 ADD MSTORE POP PUSH1 0x60 PUSH2 0x274E DUP5 DUP3 DUP6 ADD PUSH2 0x2011 JUMP JUMPDEST PUSH1 0x60 DUP4 ADD MSTORE POP SWAP3 SWAP2 POP POP JUMP JUMPDEST PUSH0 DUP1 PUSH0 DUP1 PUSH0 DUP1 PUSH2 0x120 DUP8 DUP10 SUB SLT ISZERO PUSH2 0x2775 JUMPI PUSH2 0x2774 PUSH2 0x1F37 JUMP JUMPDEST JUMPDEST PUSH0 PUSH2 0x2782 DUP10 DUP3 DUP11 ADD PUSH2 0x229E JUMP JUMPDEST SWAP7 POP POP PUSH1 0x20 PUSH2 0x2793 DUP10 DUP3 DUP11 ADD PUSH2 0x229E JUMP JUMPDEST SWAP6 POP POP PUSH1 0x40 DUP8 ADD CALLDATALOAD PUSH8 0xFFFFFFFFFFFFFFFF DUP2 GT ISZERO PUSH2 0x27B4 JUMPI PUSH2 0x27B3 PUSH2 0x1F3B JUMP JUMPDEST JUMPDEST PUSH2 0x27C0 DUP10 DUP3 DUP11 ADD PUSH2 0x26B4 JUMP JUMPDEST SWAP5 POP POP PUSH1 0x60 DUP8 ADD CALLDATALOAD PUSH8 0xFFFFFFFFFFFFFFFF DUP2 GT ISZERO PUSH2 0x27E1 JUMPI PUSH2 0x27E0 PUSH2 0x1F3B JUMP JUMPDEST JUMPDEST PUSH2 0x27ED DUP10 DUP3 DUP11 ADD PUSH2 0x23D5 JUMP JUMPDEST SWAP4 POP POP PUSH1 0x80 DUP8 ADD CALLDATALOAD PUSH8 0xFFFFFFFFFFFFFFFF DUP2 GT ISZERO PUSH2 0x280E JUMPI PUSH2 0x280D PUSH2 0x1F3B JUMP JUMPDEST JUMPDEST PUSH2 0x281A DUP10 DUP3 DUP11 ADD PUSH2 0x23D5 JUMP JUMPDEST SWAP3 POP POP PUSH1 0xA0 PUSH2 0x282B DUP10 DUP3 DUP11 ADD PUSH2 0x26E5 JUMP JUMPDEST SWAP2 POP POP SWAP3 SWAP6 POP SWAP3 SWAP6 POP SWAP3 SWAP6 JUMP JUMPDEST PUSH0 DUP1 PUSH0 DUP1 PUSH0 PUSH1 0xA0 DUP7 DUP9 SUB SLT ISZERO PUSH2 0x2851 JUMPI PUSH2 0x2850 PUSH2 0x1F37 JUMP JUMPDEST JUMPDEST PUSH0 PUSH2 0x285E DUP9 DUP3 DUP10 ADD PUSH2 0x229E JUMP JUMPDEST SWAP6 POP POP PUSH1 0x20 PUSH2 0x286F DUP9 DUP3 DUP10 ADD PUSH2 0x229E JUMP JUMPDEST SWAP5 POP POP PUSH1 0x40 PUSH2 0x2880 DUP9 DUP3 DUP10 ADD PUSH2 0x2011 JUMP JUMPDEST SWAP4 POP POP PUSH1 0x60 PUSH2 0x2891 DUP9 DUP3 DUP10 ADD PUSH2 0x2011 JUMP JUMPDEST SWAP3 POP POP PUSH1 0x80 DUP7 ADD CALLDATALOAD PUSH8 0xFFFFFFFFFFFFFFFF DUP2 GT ISZERO PUSH2 0x28B2 JUMPI PUSH2 0x28B1 PUSH2 0x1F3B JUMP JUMPDEST JUMPDEST PUSH2 0x28BE DUP9 DUP3 DUP10 ADD PUSH2 0x2485 JUMP JUMPDEST SWAP2 POP POP SWAP3 SWAP6 POP SWAP3 SWAP6 SWAP1 SWAP4 POP JUMP JUMPDEST PUSH0 DUP1 PUSH1 0x40 DUP4 DUP6 SUB SLT ISZERO PUSH2 0x28E1 JUMPI PUSH2 0x28E0 PUSH2 0x1F37 JUMP JUMPDEST JUMPDEST PUSH0 PUSH2 0x28EE DUP6 DUP3 DUP7 ADD PUSH2 0x2011 JUMP JUMPDEST SWAP3 POP POP PUSH1 0x20 PUSH2 0x28FF DUP6 DUP3 DUP7 ADD PUSH2 0x2011 JUMP JUMPDEST SWAP2 POP POP SWAP3 POP SWAP3 SWAP1 POP JUMP JUMPDEST PUSH0 DUP3 DUP3 MSTORE PUSH1 0x20 DUP3 ADD SWAP1 POP SWAP3 SWAP2 POP POP JUMP JUMPDEST PUSH32 0x41756374696F6E6565722063616E6E6F74206269640000000000000000000000 PUSH0 DUP3 ADD MSTORE POP JUMP JUMPDEST PUSH0 PUSH2 0x294D PUSH1 0x15 DUP4 PUSH2 0x2909 JUMP JUMPDEST SWAP2 POP PUSH2 0x2958 DUP3 PUSH2 0x2919 JUMP JUMPDEST PUSH1 0x20 DUP3 ADD SWAP1 POP SWAP2 SWAP1 POP JUMP JUMPDEST PUSH0 PUSH1 0x20 DUP3 ADD SWAP1 POP DUP2 DUP2 SUB PUSH0 DUP4 ADD MSTORE PUSH2 0x297A DUP2 PUSH2 0x2941 JUMP JUMPDEST SWAP1 POP SWAP2 SWAP1 POP JUMP JUMPDEST PUSH32 0x41756374696F6E20686173206E6F742073746172746564207965740000000000 PUSH0 DUP3 ADD MSTORE POP JUMP JUMPDEST PUSH0 PUSH2 0x29B5 PUSH1 0x1B DUP4 PUSH2 0x2909 JUMP JUMPDEST SWAP2 POP PUSH2 0x29C0 DUP3 PUSH2 0x2981 JUMP JUMPDEST PUSH1 0x20 DUP3 ADD SWAP1 POP SWAP2 SWAP1 POP JUMP JUMPDEST PUSH0 PUSH1 0x20 DUP3 ADD SWAP1 POP DUP2 DUP2 SUB PUSH0 DUP4 ADD MSTORE PUSH2 0x29E2 DUP2 PUSH2 0x29A9 JUMP JUMPDEST SWAP1 POP SWAP2 SWAP1 POP JUMP JUMPDEST PUSH32 0x4F776E61626C653A2063616C6C6572206973206E6F7420746865206F776E6572 PUSH0 DUP3 ADD MSTORE POP JUMP JUMPDEST PUSH0 PUSH2 0x2A1D PUSH1 0x20 DUP4 PUSH2 0x2909 JUMP JUMPDEST SWAP2 POP PUSH2 0x2A28 DUP3 PUSH2 0x29E9 JUMP JUMPDEST PUSH1 0x20 DUP3 ADD SWAP1 POP SWAP2 SWAP1 POP JUMP JUMPDEST PUSH0 PUSH1 0x20 DUP3 ADD SWAP1 POP DUP2 DUP2 SUB PUSH0 DUP4 ADD MSTORE PUSH2 0x2A4A DUP2 PUSH2 0x2A11 JUMP JUMPDEST SWAP1 POP SWAP2 SWAP1 POP JUMP JUMPDEST PUSH32 0x43616E6E6F742063616E63656C206F6E676F696E672061756374696F6E000000 PUSH0 DUP3 ADD MSTORE POP JUMP JUMPDEST PUSH0 PUSH2 0x2A85 PUSH1 0x1D DUP4 PUSH2 0x2909 JUMP JUMPDEST SWAP2 POP PUSH2 0x2A90 DUP3 PUSH2 0x2A51 JUMP JUMPDEST PUSH1 0x20 DUP3 ADD SWAP1 POP SWAP2 SWAP1 POP JUMP JUMPDEST PUSH0 PUSH1 0x20 DUP3 ADD SWAP1 POP DUP2 DUP2 SUB PUSH0 DUP4 ADD MSTORE PUSH2 0x2AB2 DUP2 PUSH2 0x2A79 JUMP JUMPDEST SWAP1 POP SWAP2 SWAP1 POP JUMP JUMPDEST PUSH32 0x496E697469616C697A61626C653A20636F6E747261637420697320616C726561 PUSH0 DUP3 ADD MSTORE PUSH32 0x647920696E697469616C697A6564000000000000000000000000000000000000 PUSH1 0x20 DUP3 ADD MSTORE POP JUMP JUMPDEST PUSH0 PUSH2 0x2B13 PUSH1 0x2E DUP4 PUSH2 0x2909 JUMP JUMPDEST SWAP2 POP PUSH2 0x2B1E DUP3 PUSH2 0x2AB9 JUMP JUMPDEST PUSH1 0x40 DUP3 ADD SWAP1 POP SWAP2 SWAP1 POP JUMP JUMPDEST PUSH0 PUSH1 0x20 DUP3 ADD SWAP1 POP DUP2 DUP2 SUB PUSH0 DUP4 ADD MSTORE PUSH2 0x2B40 DUP2 PUSH2 0x2B07 JUMP JUMPDEST SWAP1 POP SWAP2 SWAP1 POP JUMP JUMPDEST PUSH0 DUP2 SWAP1 POP SWAP2 SWAP1 POP JUMP JUMPDEST PUSH0 PUSH1 0xFF DUP3 AND SWAP1 POP SWAP2 SWAP1 POP JUMP JUMPDEST PUSH0 DUP2 SWAP1 POP SWAP2 SWAP1 POP JUMP JUMPDEST PUSH0 PUSH2 0x2B7F PUSH2 0x2B7A PUSH2 0x2B75 DUP5 PUSH2 0x2B47 JUMP JUMPDEST PUSH2 0x2B5C JUMP JUMPDEST PUSH2 0x2B50 JUMP JUMPDEST SWAP1 POP SWAP2 SWAP1 POP JUMP JUMPDEST PUSH2 0x2B8F DUP2 PUSH2 0x2B65 JUMP JUMPDEST DUP3 MSTORE POP POP JUMP JUMPDEST PUSH0 PUSH1 0x20 DUP3 ADD SWAP1 POP PUSH2 0x2BA8 PUSH0 DUP4 ADD DUP5 PUSH2 0x2B86 JUMP JUMPDEST SWAP3 SWAP2 POP POP JUMP JUMPDEST PUSH32 0x4E6F206F6E652068617320626964000000000000000000000000000000000000 PUSH0 DUP3 ADD MSTORE POP JUMP JUMPDEST PUSH0 PUSH2 0x2BE2 PUSH1 0xE DUP4 PUSH2 0x2909 JUMP JUMPDEST SWAP2 POP PUSH2 0x2BED DUP3 PUSH2 0x2BAE JUMP JUMPDEST PUSH1 0x20 DUP3 ADD SWAP1 POP SWAP2 SWAP1 POP JUMP JUMPDEST PUSH0 PUSH1 0x20 DUP3 ADD SWAP1 POP DUP2 DUP2 SUB PUSH0 DUP4 ADD MSTORE PUSH2 0x2C0F DUP2 PUSH2 0x2BD6 JUMP JUMPDEST SWAP1 POP SWAP2 SWAP1 POP JUMP JUMPDEST PUSH32 0x546869732061756374696F6E2063616E6E6F742062652066696E616C697A6564 PUSH0 DUP3 ADD MSTORE POP JUMP JUMPDEST PUSH0 PUSH2 0x2C4A PUSH1 0x20 DUP4 PUSH2 0x2909 JUMP JUMPDEST SWAP2 POP PUSH2 0x2C55 DUP3 PUSH2 0x2C16 JUMP JUMPDEST PUSH1 0x20 DUP3 ADD SWAP1 POP SWAP2 SWAP1 POP JUMP JUMPDEST PUSH0 PUSH1 0x20 DUP3 ADD SWAP1 POP DUP2 DUP2 SUB PUSH0 DUP4 ADD MSTORE PUSH2 0x2C77 DUP2 PUSH2 0x2C3E JUMP JUMPDEST SWAP1 POP SWAP2 SWAP1 POP JUMP JUMPDEST PUSH32 0x4E487B7100000000000000000000000000000000000000000000000000000000 PUSH0 MSTORE PUSH1 0x11 PUSH1 0x4 MSTORE PUSH1 0x24 PUSH0 REVERT JUMPDEST PUSH0 PUSH2 0x2CB5 DUP3 PUSH2 0x1FF2 JUMP JUMPDEST SWAP2 POP PUSH2 0x2CC0 DUP4 PUSH2 0x1FF2 JUMP JUMPDEST SWAP3 POP DUP3 DUP3 SUB SWAP1 POP DUP2 DUP2 GT ISZERO PUSH2 0x2CD8 JUMPI PUSH2 0x2CD7 PUSH2 0x2C7E JUMP JUMPDEST JUMPDEST SWAP3 SWAP2 POP POP JUMP JUMPDEST PUSH0 PUSH2 0x2CE8 DUP3 PUSH2 0x1FF2 JUMP JUMPDEST SWAP2 POP PUSH2 0x2CF3 DUP4 PUSH2 0x1FF2 JUMP JUMPDEST SWAP3 POP DUP3 DUP3 MUL PUSH2 0x2D01 DUP2 PUSH2 0x1FF2 JUMP JUMPDEST SWAP2 POP DUP3 DUP3 DIV DUP5 EQ DUP4 ISZERO OR PUSH2 0x2D18 JUMPI PUSH2 0x2D17 PUSH2 0x2C7E JUMP JUMPDEST JUMPDEST POP SWAP3 SWAP2 POP POP JUMP JUMPDEST PUSH32 0x4E487B7100000000000000000000000000000000000000000000000000000000 PUSH0 MSTORE PUSH1 0x12 PUSH1 0x4 MSTORE PUSH1 0x24 PUSH0 REVERT JUMPDEST PUSH0 PUSH2 0x2D56 DUP3 PUSH2 0x1FF2 JUMP JUMPDEST SWAP2 POP PUSH2 0x2D61 DUP4 PUSH2 0x1FF2 JUMP JUMPDEST SWAP3 POP DUP3 PUSH2 0x2D71 JUMPI PUSH2 0x2D70 PUSH2 0x2D1F JUMP JUMPDEST JUMPDEST DUP3 DUP3 DIV SWAP1 POP SWAP3 SWAP2 POP POP JUMP JUMPDEST PUSH32 0x43616E6E6F742065646974206F6E676F696E672061756374696F6E0000000000 PUSH0 DUP3 ADD MSTORE POP JUMP JUMPDEST PUSH0 PUSH2 0x2DB0 PUSH1 0x1B DUP4 PUSH2 0x2909 JUMP JUMPDEST SWAP2 POP PUSH2 0x2DBB DUP3 PUSH2 0x2D7C JUMP JUMPDEST PUSH1 0x20 DUP3 ADD SWAP1 POP SWAP2 SWAP1 POP JUMP JUMPDEST PUSH0 PUSH1 0x20 DUP3 ADD SWAP1 POP DUP2 DUP2 SUB PUSH0 DUP4 ADD MSTORE PUSH2 0x2DDD DUP2 PUSH2 0x2DA4 JUMP JUMPDEST SWAP1 POP SWAP2 SWAP1 POP JUMP JUMPDEST PUSH32 0x43616E6E6F74206564697420656E6465642061756374696F6E00000000000000 PUSH0 DUP3 ADD MSTORE POP JUMP JUMPDEST PUSH0 PUSH2 0x2E18 PUSH1 0x19 DUP4 PUSH2 0x2909 JUMP JUMPDEST SWAP2 POP PUSH2 0x2E23 DUP3 PUSH2 0x2DE4 JUMP JUMPDEST PUSH1 0x20 DUP3 ADD SWAP1 POP SWAP2 SWAP1 POP JUMP JUMPDEST PUSH0 PUSH1 0x20 DUP3 ADD SWAP1 POP DUP2 DUP2 SUB PUSH0 DUP4 ADD MSTORE PUSH2 0x2E45 DUP2 PUSH2 0x2E0C JUMP JUMPDEST SWAP1 POP SWAP2 SWAP1 POP JUMP JUMPDEST PUSH32 0x5265656E7472616E637947756172643A207265656E7472616E742063616C6C00 PUSH0 DUP3 ADD MSTORE POP JUMP JUMPDEST PUSH0 PUSH2 0x2E80 PUSH1 0x1F DUP4 PUSH2 0x2909 JUMP JUMPDEST SWAP2 POP PUSH2 0x2E8B DUP3 PUSH2 0x2E4C JUMP JUMPDEST PUSH1 0x20 DUP3 ADD SWAP1 POP SWAP2 SWAP1 POP JUMP JUMPDEST PUSH0 PUSH1 0x20 DUP3 ADD SWAP1 POP DUP2 DUP2 SUB PUSH0 DUP4 ADD MSTORE PUSH2 0x2EAD DUP2 PUSH2 0x2E74 JUMP JUMPDEST SWAP1 POP SWAP2 SWAP1 POP JUMP JUMPDEST PUSH32 0x42696420707269636520746F6F206C6F77000000000000000000000000000000 PUSH0 DUP3 ADD MSTORE POP JUMP JUMPDEST PUSH0 PUSH2 0x2EE8 PUSH1 0x11 DUP4 PUSH2 0x2909 JUMP JUMPDEST SWAP2 POP PUSH2 0x2EF3 DUP3 PUSH2 0x2EB4 JUMP JUMPDEST PUSH1 0x20 DUP3 ADD SWAP1 POP SWAP2 SWAP1 POP JUMP JUMPDEST PUSH0 PUSH1 0x20 DUP3 ADD SWAP1 POP DUP2 DUP2 SUB PUSH0 DUP4 ADD MSTORE PUSH2 0x2F15 DUP2 PUSH2 0x2EDC JUMP JUMPDEST SWAP1 POP SWAP2 SWAP1 POP JUMP JUMPDEST PUSH0 PUSH2 0x2F26 DUP3 PUSH2 0x1FF2 JUMP JUMPDEST SWAP2 POP PUSH2 0x2F31 DUP4 PUSH2 0x1FF2 JUMP JUMPDEST SWAP3 POP DUP3 DUP3 ADD SWAP1 POP DUP1 DUP3 GT ISZERO PUSH2 0x2F49 JUMPI PUSH2 0x2F48 PUSH2 0x2C7E JUMP JUMPDEST JUMPDEST SWAP3 SWAP2 POP POP JUMP JUMPDEST PUSH32 0x41756374696F6E2068617320636C6F7365640000000000000000000000000000 PUSH0 DUP3 ADD MSTORE POP JUMP JUMPDEST PUSH0 PUSH2 0x2F83 PUSH1 0x12 DUP4 PUSH2 0x2909 JUMP JUMPDEST SWAP2 POP PUSH2 0x2F8E DUP3 PUSH2 0x2F4F JUMP JUMPDEST PUSH1 0x20 DUP3 ADD SWAP1 POP SWAP2 SWAP1 POP JUMP JUMPDEST PUSH0 PUSH1 0x20 DUP3 ADD SWAP1 POP DUP2 DUP2 SUB PUSH0 DUP4 ADD MSTORE PUSH2 0x2FB0 DUP2 PUSH2 0x2F77 JUMP JUMPDEST SWAP1 POP SWAP2 SWAP1 POP JUMP JUMPDEST PUSH32 0x416C726561647920686967686573742062696464657200000000000000000000 PUSH0 DUP3 ADD MSTORE POP JUMP JUMPDEST PUSH0 PUSH2 0x2FEB PUSH1 0x16 DUP4 PUSH2 0x2909 JUMP JUMPDEST SWAP2 POP PUSH2 0x2FF6 DUP3 PUSH2 0x2FB7 JUMP JUMPDEST PUSH1 0x20 DUP3 ADD SWAP1 POP SWAP2 SWAP1 POP JUMP JUMPDEST PUSH0 PUSH1 0x20 DUP3 ADD SWAP1 POP DUP2 DUP2 SUB PUSH0 DUP4 ADD MSTORE PUSH2 0x3018 DUP2 PUSH2 0x2FDF JUMP JUMPDEST SWAP1 POP SWAP2 SWAP1 POP JUMP JUMPDEST PUSH0 PUSH2 0x3039 PUSH2 0x3034 PUSH2 0x302F DUP5 PUSH2 0x2B47 JUMP JUMPDEST PUSH2 0x2B5C JUMP JUMPDEST PUSH2 0x1FF2 JUMP JUMPDEST SWAP1 POP SWAP2 SWAP1 POP JUMP JUMPDEST PUSH2 0x3049 DUP2 PUSH2 0x301F JUMP JUMPDEST DUP3 MSTORE POP POP JUMP JUMPDEST PUSH0 PUSH1 0x20 DUP3 ADD SWAP1 POP PUSH2 0x3062 PUSH0 DUP4 ADD DUP5 PUSH2 0x3040 JUMP JUMPDEST SWAP3 SWAP2 POP POP JUMP JUMPDEST PUSH0 DUP2 MLOAD SWAP1 POP PUSH2 0x3076 DUP2 PUSH2 0x1FFB JUMP JUMPDEST SWAP3 SWAP2 POP POP JUMP JUMPDEST PUSH0 DUP1 PUSH0 PUSH1 0x60 DUP5 DUP7 SUB SLT ISZERO PUSH2 0x3093 JUMPI PUSH2 0x3092 PUSH2 0x1F37 JUMP JUMPDEST JUMPDEST PUSH0 PUSH2 0x30A0 DUP7 DUP3 DUP8 ADD PUSH2 0x3068 JUMP JUMPDEST SWAP4 POP POP PUSH1 0x20 PUSH2 0x30B1 DUP7 DUP3 DUP8 ADD PUSH2 0x3068 JUMP JUMPDEST SWAP3 POP POP PUSH1 0x40 PUSH2 0x30C2 DUP7 DUP3 DUP8 ADD PUSH2 0x3068 JUMP JUMPDEST SWAP2 POP POP SWAP3 POP SWAP3 POP SWAP3 JUMP JUMPDEST PUSH32 0x496E76616C696420706172616D73000000000000000000000000000000000000 PUSH0 DUP3 ADD MSTORE POP JUMP JUMPDEST PUSH0 PUSH2 0x3100 PUSH1 0xE DUP4 PUSH2 0x2909 JUMP JUMPDEST SWAP2 POP PUSH2 0x310B DUP3 PUSH2 0x30CC JUMP JUMPDEST PUSH1 0x20 DUP3 ADD SWAP1 POP SWAP2 SWAP1 POP JUMP JUMPDEST PUSH0 PUSH1 0x20 DUP3 ADD SWAP1 POP DUP2 DUP2 SUB PUSH0 DUP4 ADD MSTORE PUSH2 0x312D DUP2 PUSH2 0x30F4 JUMP JUMPDEST SWAP1 POP SWAP2 SWAP1 POP JUMP JUMPDEST PUSH0 DUP2 MLOAD SWAP1 POP PUSH2 0x3142 DUP2 PUSH2 0x2288 JUMP JUMPDEST SWAP3 SWAP2 POP POP JUMP JUMPDEST PUSH0 PUSH1 0x20 DUP3 DUP5 SUB SLT ISZERO PUSH2 0x315D JUMPI PUSH2 0x315C PUSH2 0x1F37 JUMP JUMPDEST JUMPDEST PUSH0 PUSH2 0x316A DUP5 DUP3 DUP6 ADD PUSH2 0x3134 JUMP JUMPDEST SWAP2 POP POP SWAP3 SWAP2 POP POP JUMP JUMPDEST PUSH32 0x4E6577206475726174696F6E20746F6F2073686F727400000000000000000000 PUSH0 DUP3 ADD MSTORE POP JUMP JUMPDEST PUSH0 PUSH2 0x31A7 PUSH1 0x16 DUP4 PUSH2 0x2909 JUMP JUMPDEST SWAP2 POP PUSH2 0x31B2 DUP3 PUSH2 0x3173 JUMP JUMPDEST PUSH1 0x20 DUP3 ADD SWAP1 POP SWAP2 SWAP1 POP JUMP JUMPDEST PUSH0 PUSH1 0x20 DUP3 ADD SWAP1 POP DUP2 DUP2 SUB PUSH0 DUP4 ADD MSTORE PUSH2 0x31D4 DUP2 PUSH2 0x319B JUMP JUMPDEST SWAP1 POP SWAP2 SWAP1 POP JUMP JUMPDEST PUSH0 PUSH1 0x40 DUP3 ADD SWAP1 POP PUSH2 0x31EE PUSH0 DUP4 ADD DUP6 PUSH2 0x2080 JUMP JUMPDEST PUSH2 0x31FB PUSH1 0x20 DUP4 ADD DUP5 PUSH2 0x20A8 JUMP JUMPDEST SWAP4 SWAP3 POP POP POP JUMP JUMPDEST PUSH2 0x320B DUP2 PUSH2 0x1FBF JUMP JUMPDEST DUP2 EQ PUSH2 0x3215 JUMPI PUSH0 DUP1 REVERT JUMPDEST POP JUMP JUMPDEST PUSH0 DUP2 MLOAD SWAP1 POP PUSH2 0x3226 DUP2 PUSH2 0x3202 JUMP JUMPDEST SWAP3 SWAP2 POP POP JUMP JUMPDEST PUSH0 PUSH1 0x20 DUP3 DUP5 SUB SLT ISZERO PUSH2 0x3241 JUMPI PUSH2 0x3240 PUSH2 0x1F37 JUMP JUMPDEST JUMPDEST PUSH0 PUSH2 0x324E DUP5 DUP3 DUP6 ADD PUSH2 0x3218 JUMP JUMPDEST SWAP2 POP POP SWAP3 SWAP2 POP POP JUMP JUMPDEST PUSH0 PUSH1 0x60 DUP3 ADD SWAP1 POP PUSH2 0x326A PUSH0 DUP4 ADD DUP7 PUSH2 0x2080 JUMP JUMPDEST PUSH2 0x3277 PUSH1 0x20 DUP4 ADD DUP6 PUSH2 0x2080 JUMP JUMPDEST PUSH2 0x3284 PUSH1 0x40 DUP4 ADD DUP5 PUSH2 0x20A8 JUMP JUMPDEST SWAP5 SWAP4 POP POP POP POP JUMP JUMPDEST PUSH0 PUSH1 0x60 DUP3 ADD SWAP1 POP PUSH2 0x329F PUSH0 DUP4 ADD DUP7 PUSH2 0x3040 JUMP JUMPDEST PUSH2 0x32AC PUSH1 0x20 DUP4 ADD DUP6 PUSH2 0x2080 JUMP JUMPDEST PUSH2 0x32B9 PUSH1 0x40 DUP4 ADD DUP5 PUSH2 0x20A8 JUMP JUMPDEST SWAP5 SWAP4 POP POP POP POP JUMP JUMPDEST PUSH32 0x4E487B7100000000000000000000000000000000000000000000000000000000 PUSH0 MSTORE PUSH1 0x32 PUSH1 0x4 MSTORE PUSH1 0x24 PUSH0 REVERT JUMPDEST PUSH0 DUP2 SLOAD SWAP1 POP SWAP2 SWAP1 POP JUMP JUMPDEST PUSH0 DUP2 SWAP1 POP DUP2 PUSH0 MSTORE PUSH1 0x20 PUSH0 KECCAK256 SWAP1 POP SWAP2 SWAP1 POP JUMP JUMPDEST PUSH0 DUP2 PUSH0 SHR SWAP1 POP SWAP2 SWAP1 POP JUMP JUMPDEST PUSH0 DUP2 SWAP1 POP SWAP2 SWAP1 POP JUMP JUMPDEST PUSH0 PUSH2 0x3330 PUSH2 0x332B DUP4 PUSH2 0x330A JUMP JUMPDEST PUSH2 0x3315 JUMP JUMPDEST SWAP1 POP SWAP2 SWAP1 POP JUMP JUMPDEST PUSH0 PUSH2 0x3342 DUP3 SLOAD PUSH2 0x331E JUMP JUMPDEST SWAP1 POP SWAP2 SWAP1 POP JUMP JUMPDEST PUSH0 PUSH1 0x1 DUP3 ADD SWAP1 POP SWAP2 SWAP1 POP JUMP JUMPDEST PUSH0 PUSH2 0x335F DUP3 PUSH2 0x32EE JUMP JUMPDEST PUSH2 0x3369 DUP2 DUP6 PUSH2 0x2191 JUMP JUMPDEST SWAP4 POP PUSH2 0x3374 DUP4 PUSH2 0x32F8 JUMP JUMPDEST DUP1 PUSH0 JUMPDEST DUP4 DUP2 LT ISZERO PUSH2 0x33AB JUMPI PUSH2 0x3388 DUP3 PUSH2 0x3337 JUMP JUMPDEST PUSH2 0x3392 DUP9 DUP3 PUSH2 0x21BF JUMP JUMPDEST SWAP8 POP PUSH2 0x339D DUP4 PUSH2 0x3349 JUMP JUMPDEST SWAP3 POP POP PUSH1 0x1 DUP2 ADD SWAP1 POP PUSH2 0x3377 JUMP JUMPDEST POP DUP6 SWAP4 POP POP POP POP SWAP3 SWAP2 POP POP JUMP JUMPDEST PUSH0 DUP3 DUP3 MSTORE PUSH1 0x20 DUP3 ADD SWAP1 POP SWAP3 SWAP2 POP POP JUMP JUMPDEST POP JUMP JUMPDEST PUSH0 PUSH2 0x33D6 PUSH0 DUP4 PUSH2 0x33B8 JUMP JUMPDEST SWAP2 POP PUSH2 0x33E1 DUP3 PUSH2 0x33C8 JUMP JUMPDEST PUSH0 DUP3 ADD SWAP1 POP SWAP2 SWAP1 POP JUMP JUMPDEST PUSH0 PUSH1 0xA0 DUP3 ADD SWAP1 POP PUSH2 0x33FE PUSH0 DUP4 ADD DUP8 PUSH2 0x2080 JUMP JUMPDEST PUSH2 0x340B PUSH1 0x20 DUP4 ADD DUP7 PUSH2 0x2080 JUMP JUMPDEST DUP2 DUP2 SUB PUSH1 0x40 DUP4 ADD MSTORE PUSH2 0x341D DUP2 DUP6 PUSH2 0x3355 JUMP JUMPDEST SWAP1 POP DUP2 DUP2 SUB PUSH1 0x60 DUP4 ADD MSTORE PUSH2 0x3431 DUP2 DUP5 PUSH2 0x3355 JUMP JUMPDEST SWAP1 POP DUP2 DUP2 SUB PUSH1 0x80 DUP4 ADD MSTORE PUSH2 0x3444 DUP2 PUSH2 0x33CB JUMP JUMPDEST SWAP1 POP SWAP6 SWAP5 POP POP POP POP POP JUMP JUMPDEST PUSH0 PUSH1 0xA0 DUP3 ADD SWAP1 POP PUSH2 0x3462 PUSH0 DUP4 ADD DUP8 PUSH2 0x2080 JUMP JUMPDEST PUSH2 0x346F PUSH1 0x20 DUP4 ADD DUP7 PUSH2 0x2080 JUMP JUMPDEST PUSH2 0x347C PUSH1 0x40 DUP4 ADD DUP6 PUSH2 0x20A8 JUMP JUMPDEST PUSH2 0x3489 PUSH1 0x60 DUP4 ADD DUP5 PUSH2 0x20A8 JUMP JUMPDEST DUP2 DUP2 SUB PUSH1 0x80 DUP4 ADD MSTORE PUSH2 0x349A DUP2 PUSH2 0x33CB JUMP JUMPDEST SWAP1 POP SWAP6 SWAP5 POP POP POP POP POP JUMP INVALID LOG2 PUSH5 0x6970667358 0x22 SLT KECCAK256 0xCA BALANCE 0xE1 0xCB MSTORE 0xBC SWAP14 MSTORE PUSH22 0x45613BE38CE8B7D88612338C82A1C196485E67E5272A CALL PUSH5 0x736F6C6343 STOP ADDMOD XOR STOP CALLER "
		},
		"gasEstimates": {
			"creation": {
				"codeDepositCost": "2706200",
				"executionCost": "25050",
				"totalCost": "2731250"
			},
			"external": {
				"NFTContractAddress(uint256)": "4990",
				"bidStepPercent()": "2493",
				"bidSteps()": "2492",
				"cancelAuction()": "infinite",
				"currentBid()": "2514",
				"currentBidder()": "2553",
				"editAuction(uint256,uint256)": "infinite",
				"endTime()": "2559",
				"factory()": "2597",
				"feePercentage()": "2536",
				"finalizeAuction()": "infinite",
				"getAuctionInfo()": "infinite",
				"getNFTInfo()": "infinite",
				"initialize(address,address,address[],uint256[],uint256[],(uint256,uint256,address,uint256))": "infinite",
				"isAuctionOngoing()": "4668",
				"isCanceled()": "2534",
				"makeBid(uint256)": "infinite",
				"minimumRemainingTime()": "2471",
				"nftIds(uint256)": "infinite",
				"nftValues(uint256)": "infinite",
				"onERC1155BatchReceived(address,address,uint256[],uint256[],bytes)": "infinite",
				"onERC1155Received(address,address,uint256,uint256,bytes)": "infinite",
				"owner()": "2582",
				"paymentToken()": "2620",
				"startTime()": "2515",
				"startingBid()": "2515",
				"supportsInterface(bytes4)": "741"
			},
			"internal": {
				"bidAuctionFac(address,uint256)": "infinite",
				"finalizeFac()": "infinite",
				"transferNFT(address,address)": "infinite",
				"updateAuctionFac()": "infinite"
			}
		},
		"methodIdentifiers": {
			"NFTContractAddress(uint256)": "0521cc59",
			"bidStepPercent()": "b0632602",
			"bidSteps()": "bee8bc89",
			"cancelAuction()": "8fa8b790",
			"currentBid()": "def18101",
			"currentBidder()": "d33db697",
			"editAuction(uint256,uint256)": "f821a915",
			"endTime()": "3197cbb6",
			"factory()": "c45a0155",
			"feePercentage()": "a001ecdd",
			"finalizeAuction()": "f77282ab",
			"getAuctionInfo()": "d94a3505",
			"getNFTInfo()": "4d21e019",
			"initialize(address,address,address[],uint256[],uint256[],(uint256,uint256,address,uint256))": "e88c86c9",
			"isAuctionOngoing()": "82aa96e9",
			"isCanceled()": "0ed5a933",
			"makeBid(uint256)": "175b2304",
			"minimumRemainingTime()": "a9dc6fb2",
			"nftIds(uint256)": "c6c9bd47",
			"nftValues(uint256)": "677ed495",
			"onERC1155BatchReceived(address,address,uint256[],uint256[],bytes)": "bc197c81",
			"onERC1155Received(address,address,uint256,uint256,bytes)": "f23a6e61",
			"owner()": "8da5cb5b",
			"paymentToken()": "3013ce29",
			"startTime()": "78e97925",
			"startingBid()": "b9fdd569",
			"supportsInterface(bytes4)": "01ffc9a7"
		}
	},
	"abi": [
		{
			"anonymous": false,
			"inputs": [
				{
					"indexed": false,
					"internalType": "uint8",
					"name": "version",
					"type": "uint8"
				}
			],
			"name": "Initialized",
			"type": "event"
		},
		{
			"inputs": [
				{
					"internalType": "uint256",
					"name": "",
					"type": "uint256"
				}
			],
			"name": "NFTContractAddress",
			"outputs": [
				{
					"internalType": "address",
					"name": "",
					"type": "address"
				}
			],
			"stateMutability": "view",
			"type": "function"
		},
		{
			"inputs": [],
			"name": "bidStepPercent",
			"outputs": [
				{
					"internalType": "uint256",
					"name": "",
					"type": "uint256"
				}
			],
			"stateMutability": "view",
			"type": "function"
		},
		{
			"inputs": [],
			"name": "bidSteps",
			"outputs": [
				{
					"internalType": "uint256",
					"name": "",
					"type": "uint256"
				}
			],
			"stateMutability": "view",
			"type": "function"
		},
		{
			"inputs": [],
			"name": "cancelAuction",
			"outputs": [],
			"stateMutability": "nonpayable",
			"type": "function"
		},
		{
			"inputs": [],
			"name": "currentBid",
			"outputs": [
				{
					"internalType": "uint256",
					"name": "",
					"type": "uint256"
				}
			],
			"stateMutability": "view",
			"type": "function"
		},
		{
			"inputs": [],
			"name": "currentBidder",
			"outputs": [
				{
					"internalType": "address",
					"name": "",
					"type": "address"
				}
			],
			"stateMutability": "view",
			"type": "function"
		},
		{
			"inputs": [
				{
					"internalType": "uint256",
					"name": "_newPrice",
					"type": "uint256"
				},
				{
					"internalType": "uint256",
					"name": "_newDuration",
					"type": "uint256"
				}
			],
			"name": "editAuction",
			"outputs": [],
			"stateMutability": "nonpayable",
			"type": "function"
		},
		{
			"inputs": [],
			"name": "endTime",
			"outputs": [
				{
					"internalType": "uint256",
					"name": "",
					"type": "uint256"
				}
			],
			"stateMutability": "view",
			"type": "function"
		},
		{
			"inputs": [],
			"name": "factory",
			"outputs": [
				{
					"internalType": "address",
					"name": "",
					"type": "address"
				}
			],
			"stateMutability": "view",
			"type": "function"
		},
		{
			"inputs": [],
			"name": "feePercentage",
			"outputs": [
				{
					"internalType": "uint256",
					"name": "",
					"type": "uint256"
				}
			],
			"stateMutability": "view",
			"type": "function"
		},
		{
			"inputs": [],
			"name": "finalizeAuction",
			"outputs": [],
			"stateMutability": "nonpayable",
			"type": "function"
		},
		{
			"inputs": [],
			"name": "getAuctionInfo",
			"outputs": [
				{
					"internalType": "address",
					"name": "",
					"type": "address"
				},
				{
					"internalType": "uint256",
					"name": "",
					"type": "uint256"
				},
				{
					"internalType": "address",
					"name": "",
					"type": "address"
				},
				{
					"internalType": "uint256",
					"name": "",
					"type": "uint256"
				},
				{
					"internalType": "uint256",
					"name": "",
					"type": "uint256"
				},
				{
					"internalType": "uint256",
					"name": "",
					"type": "uint256"
				},
				{
					"internalType": "uint256",
					"name": "",
					"type": "uint256"
				},
				{
					"internalType": "address",
					"name": "",
					"type": "address"
				}
			],
			"stateMutability": "view",
			"type": "function"
		},
		{
			"inputs": [],
			"name": "getNFTInfo",
			"outputs": [
				{
					"internalType": "address[]",
					"name": "",
					"type": "address[]"
				},
				{
					"internalType": "uint256[]",
					"name": "",
					"type": "uint256[]"
				},
				{
					"internalType": "uint256[]",
					"name": "",
					"type": "uint256[]"
				}
			],
			"stateMutability": "view",
			"type": "function"
		},
		{
			"inputs": [
				{
					"internalType": "address",
					"name": "operator",
					"type": "address"
				},
				{
					"internalType": "address",
					"name": "_factory",
					"type": "address"
				},
				{
					"internalType": "address[]",
					"name": "_NFTContractAddress",
					"type": "address[]"
				},
				{
					"internalType": "uint256[]",
					"name": "_nftIds",
					"type": "uint256[]"
				},
				{
					"internalType": "uint256[]",
					"name": "_nftValues",
					"type": "uint256[]"
				},
				{
					"components": [
						{
							"internalType": "uint256",
							"name": "startingBid",
							"type": "uint256"
						},
						{
							"internalType": "uint256",
							"name": "bidDuration",
							"type": "uint256"
						},
						{
							"internalType": "address",
							"name": "paymentToken",
							"type": "address"
						},
						{
							"internalType": "uint256",
							"name": "waitBeforeStart",
							"type": "uint256"
						}
					],
					"internalType": "struct IAuctionFactory.EnglishParams",
					"name": "params",
					"type": "tuple"
				}
			],
			"name": "initialize",
			"outputs": [],
			"stateMutability": "nonpayable",
			"type": "function"
		},
		{
			"inputs": [],
			"name": "isAuctionOngoing",
			"outputs": [
				{
					"internalType": "bool",
					"name": "",
					"type": "bool"
				}
			],
			"stateMutability": "view",
			"type": "function"
		},
		{
			"inputs": [],
			"name": "isCanceled",
			"outputs": [
				{
					"internalType": "bool",
					"name": "",
					"type": "bool"
				}
			],
			"stateMutability": "view",
			"type": "function"
		},
		{
			"inputs": [
				{
					"internalType": "uint256",
					"name": "_bidPrice",
					"type": "uint256"
				}
			],
			"name": "makeBid",
			"outputs": [],
			"stateMutability": "payable",
			"type": "function"
		},
		{
			"inputs": [],
			"name": "minimumRemainingTime",
			"outputs": [
				{
					"internalType": "uint256",
					"name": "",
					"type": "uint256"
				}
			],
			"stateMutability": "view",
			"type": "function"
		},
		{
			"inputs": [
				{
					"internalType": "uint256",
					"name": "",
					"type": "uint256"
				}
			],
			"name": "nftIds",
			"outputs": [
				{
					"internalType": "uint256",
					"name": "",
					"type": "uint256"
				}
			],
			"stateMutability": "view",
			"type": "function"
		},
		{
			"inputs": [
				{
					"internalType": "uint256",
					"name": "",
					"type": "uint256"
				}
			],
			"name": "nftValues",
			"outputs": [
				{
					"internalType": "uint256",
					"name": "",
					"type": "uint256"
				}
			],
			"stateMutability": "view",
			"type": "function"
		},
		{
			"inputs": [
				{
					"internalType": "address",
					"name": "",
					"type": "address"
				},
				{
					"internalType": "address",
					"name": "",
					"type": "address"
				},
				{
					"internalType": "uint256[]",
					"name": "",
					"type": "uint256[]"
				},
				{
					"internalType": "uint256[]",
					"name": "",
					"type": "uint256[]"
				},
				{
					"internalType": "bytes",
					"name": "",
					"type": "bytes"
				}
			],
			"name": "onERC1155BatchReceived",
			"outputs": [
				{
					"internalType": "bytes4",
					"name": "",
					"type": "bytes4"
				}
			],
			"stateMutability": "nonpayable",
			"type": "function"
		},
		{
			"inputs": [
				{
					"internalType": "address",
					"name": "",
					"type": "address"
				},
				{
					"internalType": "address",
					"name": "",
					"type": "address"
				},
				{
					"internalType": "uint256",
					"name": "",
					"type": "uint256"
				},
				{
					"internalType": "uint256",
					"name": "",
					"type": "uint256"
				},
				{
					"internalType": "bytes",
					"name": "",
					"type": "bytes"
				}
			],
			"name": "onERC1155Received",
			"outputs": [
				{
					"internalType": "bytes4",
					"name": "",
					"type": "bytes4"
				}
			],
			"stateMutability": "nonpayable",
			"type": "function"
		},
		{
			"inputs": [],
			"name": "owner",
			"outputs": [
				{
					"internalType": "address",
					"name": "",
					"type": "address"
				}
			],
			"stateMutability": "view",
			"type": "function"
		},
		{
			"inputs": [],
			"name": "paymentToken",
			"outputs": [
				{
					"internalType": "address",
					"name": "",
					"type": "address"
				}
			],
			"stateMutability": "view",
			"type": "function"
		},
		{
			"inputs": [],
			"name": "startTime",
			"outputs": [
				{
					"internalType": "uint256",
					"name": "",
					"type": "uint256"
				}
			],
			"stateMutability": "view",
			"type": "function"
		},
		{
			"inputs": [],
			"name": "startingBid",
			"outputs": [
				{
					"internalType": "uint256",
					"name": "",
					"type": "uint256"
				}
			],
			"stateMutability": "view",
			"type": "function"
		},
		{
			"inputs": [
				{
					"internalType": "bytes4",
					"name": "interfaceId",
					"type": "bytes4"
				}
			],
			"name": "supportsInterface",
			"outputs": [
				{
					"internalType": "bool",
					"name": "",
					"type": "bool"
				}
			],
			"stateMutability": "view",
			"type": "function"
		},
		{
			"stateMutability": "payable",
			"type": "receive"
		}
	]
}